:100000000C94E3000C940B010C940B010C940B0169
:100010000C940B010C940B010C940B010C940B0130
:100020000C940B010C940B010C940B010C940B0120
:100030000C940B010C940B010C940B010C940B0110
:100040000C94D51F0C940B010C9495060C94C706C8
:100050000C940B010C940B010C940B010C940B01F0
:100060000C940B010C940B0144656D6F2065786155
:100070006D706C65206F6E205753436C69656E74AC
:100080002075736167650053656E64696E6720440F
:100090006174610000436F6E6E656374696F6E20FA
:1000A0006661696C65642E00436F6E6E656374658E
:1000B00064005365632D576562536F636B65742DE0
:1000C00056657273696F6E3A2031330D0A005365BD
:1000D000632D576562536F636B65742D4B65793A79
:1000E0002000486F73743A2000436F6E6E6563742E
:1000F000696F6E3A20557067726164650D0A00552C
:100100007067726164653A20776562736F636B65CF
:10011000740D0A0020485454502F312E310D0A001E
:1001200047455420000000000800020100000304BD
:100130000700000000000000000102040810204039
:1001400080010204081020010204081020040404A5
:100150000404040404020202020202030303030370
:100160000300000000250028002B000000000024F0
:100170000027002A004E414E494E495459494E46E7
:10018000CDCCCC3D0AD7233C17B7D13877CC2B3216
:100190009595E6241FB14F0A000020410000C84297
:1001A00000401C4620BCBE4CCA1B0E5AAEC59D74F6
:1001B0006004F706A5075A106A114D132315C61FD0
:1001C000F8210127A10411241FBECFEFD8E0DEBF24
:1001D000CDBF13E0A0E0B1E0E6E6F5E602C0059091
:1001E0000D92AA32B107D9F724E0AAE2B3E001C028
:1001F0001D92AD3EB207E1F711E0C4ECD1E004C0BE
:100200002297FE010E94072BC03BD107C9F70E942D
:1002100041050C94A6320C9400009C01FC01E653AD
:10022000FF4F80819181680F791F693C710530F41F
:10023000718360830296820F931F089580E090E09F
:1002400008950F931F93CF93DF9300E010E0C0E079
:10025000D0E0209151033091520380914D03909151
:100260004E03C217D30740F4800F911F0E944F0A1C
:100270002196095F1F4FEDCF0E94D31F86E493E0C4
:100280000E944F0A8EE393E00E944F0A88E393E0B6
:100290000E944F0A82E393E00E944F0A81E693E0B6
:1002A0000E944F0A87E693E00E944F0A8DE693E092
:1002B000DF91CF911F910F910C944F0A6F927F9213
:1002C0008F929F92AF92BF92CF92DF92EF92FF9266
:1002D0000F931F93CF93DF9300D000D000D0CDB702
:1002E000DEB78C013B015C0188E0A80EB11C63E124
:1002F00071E0C5010E94BD0A7801EEE0EE0EF11C2E
:1003000065EB72E0C7010E94BD0A6801F4E1CF0EFF
:10031000D11C65EB72E0C6010E94BD0A80E590E049
:10032000F801938F828F4801FCE18F0E911CB3017D
:10033000C4010E94EA0AF80114A213A288E090E026
:1003400096A385A310A617A288E390E00E94D11F70
:10035000F80194A383A364E271E0CE0101960E94A8
:10036000BD0AB401CE0101960E94510B6AE271E010
:100370000E94640B61E673E00E94510B63E371E03D
:100380000E94640B6DE673E00E94510B6DE371E017
:100390000E94640B67E673E00E94510BBC01C70129
:1003A0000E94D30ACE0101960E944F0AB501CE01E8
:1003B00001960E94EA0AB701CE0101960E94510BF4
:1003C000BC01C6010E94D30ACE0101960E944F0AC9
:1003D00026960FB6F894DEBF0FBECDBFDF91CF914A
:1003E0001F910F91FF90EF90DF90CF90BF90AF9053
:1003F0009F908F907F906F900895CF93DF93EC0143
:1004000068E471E089E793E00E947008888199812F
:10041000DC01ED91FC914A8D5B8D688579850684C0
:10042000F785E02D0995892BC1F088819981DC0140
:10043000ED91FC910488F589E02D09954AE050E0A2
:10044000682F89E793E00E944B0968EA70E089E72A
:1004500093E0DF91CF910C944C0865E970E089E757
:1004600093E00E944C0860ED77E080E090E00E940D
:100470004E20C6CF2F923F924F925F926F927F9203
:100480008F929F92AF92BF92CF92DF92EF92FF92A4
:100490000F931F93CF93DF93CDB7DEB7CA5DD140E3
:1004A0000FB6F894DEBF0FBECDBF5C018B016A01B1
:1004B00084E292E0CF5FDE4F99838883C150D140C0
:1004C000C553DE4F19821882CB5CD140CE018F5FBD
:1004D0009E4F0E94FB0C4C016AE172E00E94670E85
:1004E00065E571E00E94450D66E671E0C4010E9479
:1004F0008C0EF601E080F1806BE671E00E94670EE1
:10050000B7010E94450D7E01F3E3EF1AFEEFFF0AEB
:10051000F701138212828BE692E091838083AE0111
:100520004F5F5F4F1A01558344838FEF90E09783AD
:100530008683118610861982C952DE4FF982E882BD
:10054000C75DD140C752DE4F19821882C95DD140C4
:10055000BE0169527E4FC4010E94020EB601C7015E
:100560000E94EA0AB701C5010E94EA0AC7010E9477
:100570004F0AF80187A190A57C01FFEFEF1AFF0A4F
:100580008E159F0508F06BC0F80125A136A12E1528
:100590003F05E8F5099628173907C8F583A094A008
:1005A00096A385A327E0AC01249FC001259F900D51
:1005B00011240E94D11FF80194A383A36401612C2C
:1005C000712CF80187A190A568167906E8F4F80166
:1005D00043A054A0C60188199909480E591E411418
:1005E000510441F0B601C2010E94EA0AF601868177
:1005F000F2018683C6010E944F0AFFEF6F1A7F0A3D
:1006000027E0C20ED11CDDCFC4010E94D31FF80128
:1006100087A090A487E0889D2001899D500C11241B
:10062000612C712CF8018E149F04E0F5C3A0D4A0B6
:10063000C301840D951DC80ED91EC114D10441F00B
:10064000B501C6010E94EA0AF5018681F60186839A
:10065000FFEF8F1A9F0A27E0620E711CE3CFE816A6
:10066000F90610F527E0289F6001299FD00C11247E
:100670004701612C712C27E0620E711CF80187A1E3
:1006800090A58816990670F4F80123A134A1C6013B
:10069000860D971D820F931F0E944F0AFFEF8F1A3E
:1006A0009F0AE9CFF0A6E7A264E970E089E793E04A
:1006B0000E944C0867E870E089E793E00E944C08CC
:1006C000B101C80102960E949C1FC501C652DE4FAF
:1006D0000FB6F894DEBF0FBECDBFDF91CF911F9153
:1006E0000F91FF90EF90DF90CF90BF90AF909F90D1
:1006F0008F907F906F905F904F903F902F900895D4
:100700004F925F926F927F928F929F92AF92BF9221
:10071000CF92DF92EF92FF920F931F93CF93DF93CD
:10072000CDB7DEB7C85DD1090FB6F894DEBF0FBEF6
:10073000CDBF7C014C0182E0880E911C84E2682EC2
:1007400082E0782E97E0592E4424439465EB72E0C2
:10075000CE018D529F4F0E94BD0AC4010E94A61D6A
:10076000BC01CE018D529F4F0E94F30AC952DF4F48
:1007700088819981C75DD040892B09F497C07A821E
:100780006982C553DF4F19821882CB5CD04060E08C
:1007900070E0CE018D529F4F0E94AB0B4AE0BC012E
:1007A000CE0101960E9442108C01FC018081918152
:1007B000892B19F563E771E089E793E00E947008DF
:1007C000CE018D529F4F0E944F0AC852DF4F0FB685
:1007D000F894DEBF0FBECDBFDF91CF911F910F9177
:1007E000FF90EF90DF90CF90BF90AF909F908F9051
:1007F0007F906F905F904F9008956AE172E0C8011A
:100800000E94670E0E942E0D6C0168E871E00E9444
:100810005432892B09F03FC06BE671E0C8010E9499
:10082000670E0E942E0D5C01F70103A114A1F701D0
:1008300087A190A5589E9001599E300D112483A147
:1008400094A1820F931F08171907E9F0B801CE0190
:1008500083539F4F0E94EA0A60E070E0CE01835309
:100860009F4F0E94AB0BBC01C5010E945432892BE3
:1008700011F4F8014682CE0183539F4F0E944F0A24
:10088000095F1F4FD4CFB60189E793E00E9470083B
:100890006FEA71E007C0B60189E793E00E94700833
:1008A00063EB71E089E793E00E947008CE018D52FE
:1008B0009F4F0E944F0A4ACF8AE293E00C94800334
:1008C0000F93CF93DF9300D000D000D0CDB7DEB729
:1008D00000E020E040E060E083E793E00E947E07D4
:1008E00068EB71E08DE693E00E94BD0A6EEB71E06B
:1008F00087E693E00E94BD0A60EC71E081E693E038
:100900000E94BD0A84E593E00E94711262ED71E0DD
:10091000CE0101960E94BD0ABE016F5F7F4F8AE241
:1009200093E00E945E01CE0101960E944F0A269636
:100930000FB6F894DEBF0FBECDBFDF91CF910F9100
:1009400008950C9421010F931F93CF93DF93EC0133
:100950008B01798368830E94FD0168EE73E080E07B
:1009600090E00E944E2060E070E0CE010E960E9462
:10097000AB0B9B838A8360E070E0CE0108960E94F7
:10098000AB0B9D838C8389E793E00E94AC05B80193
:10099000CE0102960E94621D882351F067EE71E03D
:1009A00089E793E0DF91CF911F910F910C9470082C
:1009B0006CEF71E089E793E00E947008FFCFCF935E
:1009C000DF93CDB7DEB72D970FB6F894DEBF0FBE1D
:1009D000CDBF26E040E855E260E070E089E793E0B3
:1009E0000E94330668E670E089E793E00E944C08B5
:1009F0006AE071E08DE894E00E94A7106DE874E071
:100A0000CE0101960E944211BE016F5F7F4F89E7C0
:100A100093E00E94820868EE73E080E090E00E941C
:100A20004E2064E573E08AE293E00E94A3046EE046
:100A300072E0CE0108960E94BD0AAE01485F5F4F8A
:100A40006AE273E0CE0101960E943A02CE01089656
:100A50000E944F0A66E172E0CE0108960E94BD0A2C
:100A6000CE0108960E944F0ACE0101960E944F0ABD
:100A70002D960FB6F894DEBF0FBECDBFDF91CF919C
:100A800008950E9476200E94DF04CDE7D5E00E9401
:100A90005C042097E1F30E947D05F9CFFC01818D74
:100AA000228D90E0805C9F4F821B910960E470E092
:100AB0000E948A2A0895FC01918D828D981731F049
:100AC000828DE80FF11D858D90E008958FEF9FEFE7
:100AD0000895FC01918D828D981761F0828DDF0160
:100AE000A80FB11D5D968C91928D9F5F9F73928F21
:100AF00090E008958FEF9FEF08958DEE96E0892B9B
:100B000049F080E090E0892B29F00E94ED068111E8
:100B10000C9400000895FC01848DDF01A80FB11D25
:100B2000A35ABF4F2C91848D90E001968F73992723
:100B3000848FA689B7892C93A089B1898C91806410
:100B40008C93938D848D981306C00288F389E02DD1
:100B500080818F7D80830895CF93DF93EC01888D12
:100B60008823C9F0EA89FB89808185FD05C0A889B1
:100B7000B9898C9186FD0FC00FB607FCF5CF808137
:100B800085FFF2CFA889B9898C9185FFEDCFCE0181
:100B90000E948B05E7CFDF91CF910895CF92DF922E
:100BA000FF920F931F93CF93DF931F92CDB7DEB7C2
:100BB0006C01DC015B969C915B975C968C915C97D9
:100BC000981307C05096ED91FC915197808185FD57
:100BD00032C0F601038D10E00F5F1F4F0F73112716
:100BE000F02EF601848DF81211C00FB607FCF9CF74
:100BF000D6015096ED91FC915197808185FFF1CF00
:100C0000C60169830E948B056981EBCF838DE80F54
:100C1000F11DE35AFF4F6083D6015B960C935B97FF
:100C20005296ED91FC91539780818062808381E0A0
:100C300058968C930DC0D6015696ED91FC9157971E
:100C400060835096ED91FC91519780818064808300
:100C500081E090E00F90DF91CF911F910F91FF9075
:100C6000DF90CF900895BF92CF92DF92EF92FF92E4
:100C7000CF93DF93EC016A017B01B22EE889F989F9
:100C800082E08083411581EE580761057105A1F06E
:100C900060E079E08DE390E0A70196010E949E2A32
:100CA00021503109410951095695479537952795A6
:100CB000211580E1380798F0E889F989108260E809
:100CC00074E88EE190E0A70196010E949E2A2150CF
:100CD0003109410951095695479537952795EC8576
:100CE000FD853083EE85FF852083188EEC89FD8994
:100CF000B082EA89FB89808180618083EA89FB89EF
:100D0000808188608083EA89FB8980818068808314
:100D1000EA89FB8980818F7D8083DF91CF91FF906D
:100D2000EF90DF90CF90BF9008951F920F920FB673
:100D30000F9211242F938F939F93EF93FF93E09142
:100D40008903F0918A038081E0918F03F0919003F1
:100D500082FD12C09081809192038F5F8F732091EA
:100D60009303821751F0E0919203F0E0E758FC4FB3
:100D7000958F8093920301C08081FF91EF919F91A5
:100D80008F912F910F900FBE0F901F9018951F926B
:100D90000F920FB60F9211242F933F934F935F93AF
:100DA0006F937F938F939F93AF93BF93EF93FF9333
:100DB00089E793E00E948B05FF91EF91BF91AF917E
:100DC0009F918F917F916F915F914F913F912F9163
:100DD0000F900FBE0F901F90189589E793E00E9427
:100DE0004E0521E0892B09F420E0822F089510920E
:100DF0007C0310927B0388EE93E0A0E0B0E0809348
:100E00007D0390937E03A0937F03B09380038AE2D7
:100E100092E090937A038093790385EC90E090932D
:100E200086038093850384EC90E0909388038093FD
:100E3000870380EC90E090938A038093890381EC90
:100E400090E090938C0380938B0382EC90E09093DE
:100E50008E0380938D0386EC90E0909390038093B3
:100E60008F031092920310929303109294031092A6
:100E700095030895AF92BF92CF92DF92EF92FF92C7
:100E80000F931F93CF93DF936C017B01C0E0D0E001
:100E900000E010E0F601EC0FFD1F4AE050E0628137
:100EA000C7010E9444095C016EE2C7010E94270845
:100EB0008A0D9B1D080F191F2196C330D10551F7CC
:100EC0004AE050E0F6016581C7010E944409800FA5
:100ED000911FDF91CF911F910F91FF90EF90DF90C5
:100EE000CF90BF90AF9008952AE332E0FC013183A8
:100EF0002083128213821482158208950F93FC01BD
:100F00008AE392E091838083628343832483058311
:100F10000F9108952AE332E0FC0131832083FB0125
:100F20004081518162817381FC01428353836483D8
:100F300075830895FB014081518162817381FC01B9
:100F4000428353836483758308958AE392E0909388
:100F5000170480931604109218041092190410922A
:100F60001A0410921B040895CF92DF92EF92FF9221
:100F70000F931F93CF93DF936C017A01EB01E60E81
:100F8000F71E00E010E0CE15DF0561F06991D60193
:100F9000ED91FC910190F081E02DC6010995080FBB
:100FA000191FF1CFC801DF91CF911F910F91FF90D1
:100FB000EF90DF90CF9008956115710581F0DB010E
:100FC0000D900020E9F7AD0141505109461B570B28
:100FD000DC01ED91FC910280F381E02D099480E029
:100FE00090E00895EF92FF920F931F93CF93DF93BA
:100FF0008C01FB01C0E0D0E064917F018FEFE81A23
:10100000F80A662361F0D801ED91FC910190F0811E
:10101000E02DC8010995C80FD91FF701EDCFCE010A
:10102000DF91CF911F910F91FF90EF900895DC0118
:10103000ED91FC91DB0114964D915C9115976D91AA
:101040007C910280F381E02D09940C94DC07DC0193
:10105000ED91FC910190F081E02D0994DB01ED917F
:10106000FC9111970190F081E02DBC01CD01099414
:101070000F931F93CF93DF93EC016DE00E9427083D
:101080008C016AE0CE010E942708800F911FDF913A
:10109000CF911F910F9108950F931F93CF93DF93DB
:1010A000EC010E94F2078C01CE010E943808800FEB
:1010B000911FDF91CF911F910F9108950F931F936F
:1010C000CF93DF93EC010E9417088C01CE010E94A0
:1010D0003808800F911FDF91CF911F910F910895D4
:1010E0000F931F93CF93DF93EC010E94DC078C01D9
:1010F000CE010E943808800F911FDF91CF911F9180
:101100000F9108950F931F93CF93DF93EC010E94EB
:101110002E088C01CE010E943808800F911FDF91AC
:10112000CF911F910F9108958F929F92AF92BF928E
:10113000CF92DF92EF92FF920F931F93CF93DF93A3
:10114000CDB7DEB7A1970FB6F894DEBF0FBECDBF07
:101150007C01C42EE52FCB01D22E19A221E02D1542
:1011600010F02AE0D22E8E010F5D1F4F8D2C912C96
:10117000A12CB12C6C2D7E2FA50194010E949E2ADA
:101180008C2DD29E80191124015011098A3014F43B
:10119000805D01C0895CF80180832115310541051E
:1011A000510521F0C22EE32FCA01E4CFB801C701D7
:1011B0000E94DC07A1960FB6F894DEBF0FBECDBF2C
:1011C000DF91CF911F910F91FF90EF90DF90CF9023
:1011D000BF90AF909F908F900895CF92DF92EF9243
:1011E000FF920F931F93CF93DF93EC016A017B0172
:1011F0002115310579F4E881F9810190F081E02D24
:10120000642FDF91CF911F910F91FF90EF90DF90AE
:10121000CF9009942A303105E9F477FF1AC06DE2C6
:101220000E9427088C0144275527BA014C195D09F3
:101230006E097F092AE0CE010E949408800F911F59
:10124000DF91CF911F910F91FF90EF90DF90CF90A2
:1012500008952AE0B701A601CE01DF91CF911F9139
:101260000F91FF90EF90DF90CF900C949408211590
:10127000310541F4DC01ED91FC910190F081E02D0C
:10128000642F09940C9494089A01462F50E060E072
:1012900070E00C9437090F931F93CF93DF93EC0109
:1012A0009A01462F50E060E070E00E9437098C01FF
:1012B000CE010E943808800F911FDF91CF911F91BE
:1012C0000F9108954F925F926F927F928F929F92AB
:1012D000AF92BF92CF92DF92EF92FF920F931F9344
:1012E000CF93DF93EC016A017B01B22E9A01AB012F
:1012F000C701B6010E94352D882319F06CE372E016
:1013000027C026013701E89477F82FEF3FEF4FE72A
:101310005FE7C301B2010E94352D81110DC02FEF8F
:101320003FEF4FE75FE7C301B2010E947F2B181622
:101330001CF460E472E00CC02FEF3FEF4FE75FE476
:10134000C701B6010E94CE2C1816ACF464E472E01A
:10135000CE01DF91CF911F910F91FF90EF90DF9021
:10136000CF90BF90AF909F908F907F906F905F9045
:101370004F900C94DC072FEF3FEF4FE75FECC70176
:10138000B6010E947F2B87FDE1CF20E030E0A9016C
:10139000C701B6010E947F2B87FF0AC06DE2CE0114
:1013A0000E9427088C01F7FAF094F7F8F09402C035
:1013B00000E010E0A12C60E070E080E09FE3AB145F
:1013C00041F020E030E040E251E40E94832BA394FE
:1013D000F6CF9B01AC01C701B6010E941B2B6B012C
:1013E0007C010E94F02B2B013C010E941C2C9B01D4
:1013F000AC01C701B6010E941A2B6B017C012AE0E7
:10140000B301A201CE010E949408080F191FBB204E
:1014100039F063E571E0CE010E94DC07080F191F67
:101420007B2C772041F120E030E040E251E4C7011D
:10143000B6010E94D22C6B017C010E94EB2B4B0168
:10144000AA2497FCA094BA2C2AE030E0B501A401AC
:10145000CE010E94ED08080F191FC501B4010E94BA
:101460001E2C9B01AC01C701B6010E941A2B6B0117
:101470007C017A94D6CFC801DF91CF911F910F9153
:10148000FF90EF90DF90CF90BF90AF909F908F90A4
:101490007F906F905F904F9008950C946209FC01CB
:1014A000808191810C94D12DCF93DF93EC018881C1
:1014B0009981009711F00E94D12D198218821D8206
:1014C0001C821B821A82DF91CF9108950F931F9384
:1014D000CF93DF93EC018B016F5F7F4F8881998100
:1014E0000E94BD2E009731F0998388831B830A8365
:1014F00081E001C080E0DF91CF911F910F910895AD
:10150000CF93DF93EC0188819981892B29F08A811F
:101510009B818617970760F4CE010E94660A882394
:1015200041F08C819D81892B19F4E881F981108229
:1015300081E0DF91CF910895EF92FF920F931F9377
:10154000CF93DF93EC017B018A01BA010E94800AEC
:10155000811104C0CE010E94540A07C01D830C8370
:10156000B701888199810E945D32CE01DF91CF91D0
:101570001F910F91FF90EF900895FC01118210824E
:1015800013821282158214826115710559F0FB01D4
:1015900001900020E9F7AF0141505109461B570B5C
:1015A0000C949C0A0895CF93DF93EC01FB018617FE
:1015B000970761F0608171816115710529F044819F
:1015C00055810E949C0A02C00E94540ACE01DF91FC
:1015D000CF910895FC01118210821382128215822C
:1015E00014820C94D30ACF93DF93EC01611571053B
:1015F00061F0FB0101900020E9F7AF014150510972
:10160000461B570B0E949C0A02C00E94540ACE013E
:10161000DF91CF910895EF92FF920F931F93CF9395
:10162000DF93EC017B010C811D816115710511F4C3
:1016300080E016C04115510591F0040F151FB80147
:101640000E94800A8823A1F3288139818C819D81A1
:10165000B701820F931F0E945D321D830C8381E0CE
:10166000DF91CF911F910F91FF90EF900895FB01B3
:1016700044815581608171810C940B0BCF93DF9372
:1016800000D0CDB7DEB769831A8241E050E0BE01D9
:101690006F5F7F4F0E940B0B0F900F90DF91CF91E8
:1016A0000895CF93DF93EC01FB0144815581608164
:1016B00071810E940B0B811103C0CE010E94540A5C
:1016C000CE01DF91CF910895CF93DF93EC016115A7
:1016D000710569F0FB0101900020E9F7AF0141506D
:1016E0005109461B570B0E940B0B811103C0CE0101
:1016F0000E94540ACE01DF91CF910895CF93DF93DA
:10170000EC010E943E0B811103C0CE010E94540ADD
:10171000CE01DF91CF910895FC0124813581232BE7
:1017200031F421E061157105A1F0FB0108C0FC0155
:10173000808191816115710531F421E0FC01808186
:10174000882339F005C00E94543221E0892B09F02A
:1017500020E0822F0895FC01848195816817790724
:1017600020F480819181009729F410921C048CE16F
:1017700094E00895860F971F0895FC018085918558
:101780002681378182179307A4F4A481B5819C0137
:101790002F5F3F4F31872087A80FB91F6C93A4811B
:1017A000B58180859185A80FB91F1C9281E090E0DA
:1017B000089580E090E00895CF93DF93EC01888155
:1017C0009981DC01ED91FC910190F081E02D09956A
:1017D0002A813B81280F391F3B832A83DF91CF91D8
:1017E0000895DB01ED91FC9111970190F081E02DBE
:1017F000BC01CD0109940F931F93CF93DF938C010C
:10180000F801C281D3818881992787FD90950E9434
:101810001E32892B29F02196F801D383C283F0CFA1
:10182000DF91CF911F910F9108950F931F93CF9345
:10183000DF931F92CDB7DEB78C0169830E94FB0B4B
:10184000D8011296ED91FC911397808169818613DE
:101850000AC031961396FC93EE931297C8010E942A
:10186000FB0B81E001C080E00F90DF91CF911F91D1
:101870000F910895FB012191BF01222379F0DC0132
:101880001296ED91FC9113973081321307C0319677
:10189000DC011396FC93EE931297ECCF81E02111BB
:1018A00080E00895BF92CF92DF92EF92FF920F9364
:1018B0001F93CF93DF937C01EB01009771F468E4F1
:1018C00072E0CE01DF91CF911F910F91FF90EF90C9
:1018D000DF90CF90BF900C942508E881F9810190AA
:1018E000F081E02D62E2CE0109958C01F701619152
:1018F0007F01662351F0E8E5F2E0B080BB2079F18A
:1019000091819617B1F03296F8CFE881F981019074
:10191000F081E02D62E2CE010995800F911FDF91E9
:10192000CF911F910F91FF90EF90DF90CF90BF90DC
:101930000895E881F9810190F081E02D6CE5CE01F8
:1019400009956C01E881F9810190F081E02D6B2D02
:10195000CE0109958C0D9D1D080F191FC7CFE88179
:10196000F9810190F081E02DCE010995F5CFCF935B
:10197000FC015081523229F0573219F080E090E09A
:1019800023C09C012F5F3F4FD901F901CF01019680
:101990004081442399F3451791F04C3569F4019641
:1019A0004181ECE5F2E0C081CC2331F0C41302C0E8
:1019B000418102C03296F7CF4D93FC01E7CF1C92D4
:1019C000FB0191838083C901CF910895CF93DF9369
:1019D000EC01BC0184E090E00E94F10BFC01009757
:1019E00029F0D183C0831382128202C087E294E07F
:1019F000DF91CF910895CF93DF93EC01BC0184E098
:101A000090E00E94F10BFC01009729F0D183C08384
:101A10001382128202C083E294E0DF91CF91089595
:101A20000F931F93CF93DF938B01FC01C281D3816E
:101A3000209759F0B8018A819B810E945432892BEA
:101A400039F00990D881C02DF3CF80E090E001C03B
:101A5000CE01DF91CF911F910F910895FC0120815C
:101A600031812530310519F482819381089580E018
:101A700090E00895FC0180819181892B29F084E018
:101A800090E09183808362830895FC01808191813D
:101A9000892B31F085E090E09183808373836283AA
:101AA0000895FC0180819181892B49F030E0295F04
:101AB0003F4F31832083428353836483758308952A
:101AC000FC0180819181892B41F086E090E0918337
:101AD000808342835383648375830895FC018081EE
:101AE0009181892B31F082E090E091838083738330
:101AF00062830895FC0180819181892B31F083E01C
:101B000090E091838083738362830895CF93DF9302
:101B1000FC01EB01208131812230310531F48281D9
:101B20009381DF91CF910C94DC0D2330310531F49A
:101B300082819381DF91CF910C94020E2530310583
:101B400039F468817981828193810E94520C2BC083
:101B50002630310559F442815381648175812AE030
:101B600030E0888199810E94ED081DC02430310544
:101B700069F48281882319F06DE472E002C062E5A5
:101B800072E0888199810E9425080DC027303105B7
:101B900084F0275030E042815381648175818881CF
:101BA00099810E944D0A2A813B81280F391F3B836E
:101BB0002A83DF91CF9108950F931F93CF93DF93E3
:101BC000EC018B016BE5C8010E94DC0B0A80DB8114
:101BD000C02D209779F0B801CE0102960E94860DA3
:101BE0000990D881C02D209729F06CE2C8010E948D
:101BF000DC0BF1CF6DE5C801DF91CF911F910F9103
:101C00000C94DC0B0F931F93CF93DF938C01EB01AC
:101C10006BE7CE010E94DC0BF801028113810115F4
:101C2000110509F168817981F801828193810E940F
:101C3000520C2A813B81280F391F3B832A836AE398
:101C4000CE010E94DC0BBE01C80104960E94860DE5
:101C5000F801008111810115110529F06CE2CE0116
:101C60000E94DC0BDFCF6DE7CE01DF91CF911F919A
:101C70000F910C94DC0BFC01608171816115710581
:101C800079F08AE090E00E94F10BFC01009741F0AE
:101C90001182108281E090E095838483CF010895C2
:101CA00080E090E00895DC011296ED91FC9113978D
:101CB000309749F080819181009711F0FC01FACFB3
:101CC000718360830895FC01738362830895EF92AA
:101CD000FF920F931F93CF93DF938C017B010E94A0
:101CE000100DEC01009761F4C8010E943B0EEC015D
:101CF000009749F0FB82EA82BC01C8010E94530EA2
:101D0000CE01049602C08DE194E0DF91CF911F9146
:101D10000F91FF90EF900895EF92FF920F931F9312
:101D2000CF93DF93EC018B0188819981009761F05B
:101D30000E94FB0C7C01B801CE010E94670EB70126
:101D40000E947A0DC70102C083E294E0DF91CF9137
:101D50001F910F91FF90EF900895FC0160817181B8
:101D60006115710579F088E090E00E94F10BFC01AB
:101D7000009741F01182108281E090E0938382838A
:101D8000CF01089580E090E00895DC011296ED9176
:101D9000FC911397309749F080819181009711F061
:101DA000FC01FACF718360830895FC017383628321
:101DB00008950F931F93CF93DF938C010E94AD0E74
:101DC000EC01009739F0BC01C8010E94C50ECE019C
:101DD000029602C08DE194E0DF91CF911F910F91A7
:101DE0000895EF92FF920F931F93CF93DF93EC012F
:101DF000888199810E94E60C7C016BE5CE010E94EE
:101E0000150C811103C087E294E022C06DE5CE017C
:101E10000E94150C81111BC0C7010E94D90E8C01B4
:101E2000BC01CE010E942F0FF801208131812230A8
:101E3000310548F36DE5CE010E94150C811107C0F4
:101E40006CE2CE010E94150C8111E6CFDCCFC701F8
:101E5000DF91CF911F910F91FF90EF900895EF9236
:101E6000FF920F931F93CF93DF9300D0CDB7DEB7D0
:101E70008C017B01DC0114968C911497882309F462
:101E8000A3C0815014968C93C8010E94FB0BF801EB
:101E900082819381DC012C912A337CF420330CF075
:101EA0003FC0273209F461C024F4223209F45DC036
:101EB00065C02D522230A0F161C02E3609F442C017
:101EC0002CF42B3581F02636B1F058C0243799F028
:101ED0002B3709F053C0C8010E94ED0FBC01C701A8
:101EE0000E947A0D4BC0C8010E94F10EBC01C701CF
:101EF0000E946E0D43C06DE472E0C8010E943A0C6E
:101F0000882311F061E008C062E572E0C8010E9418
:101F10003A0C882309F160E0C7010E943A0D2EC0F7
:101F20004AE050E0BE016F5F7F4F0E94EA30AB0194
:101F3000BC01E981FA8180818E3229F18F7D85345F
:101F4000D1F521C068E472E0C8010E943A0C8823F0
:101F500019F060E070E00FC086E0EDE1F4E0D70139
:101F600001900D928A95E1F709C0B8016E5F7F4F2D
:101F70000E94B70CBC01C7010E94450DF801848185
:101F80008F5F848321C0B8016E5F7F4FD8011296A6
:101F90008D919C9113970E94872FAB01BC01F80192
:101FA0002281338189819A81281B390B2150C701F5
:101FB0000E94510DE3CFD8011396FC93EE93129734
:101FC000C7010E94600DDACF0F900F90DF91CF9183
:101FD0001F910F91FF90EF900895CF92DF92EF92B3
:101FE000FF920F931F93CF93DF93EC018881998128
:101FF0000E94FB0C6C016BE7CE010E94150C811155
:1020000003C083E294E035C06DE7CE010E94150C59
:1020100081112EC07E0182E0E80EF11CB7018A8199
:102020009B810E94B70C8C01009759F36AE3CE01A3
:102030000E94150C882329F3B801C6010E94670E7F
:102040008C01BC01CE010E942F0FF801208131814B
:1020500022303105B0F26DE7CE010E94150C8111DE
:1020600007C06CE2CE010E94150C8111D7CFC9CFF9
:10207000C601DF91CF911F910F91FF90EF90DF90FC
:10208000CF900895CF93DF9300D000D01F92CDB7AB
:10209000DEB79A8389837C836B834D83CE0101965F
:1020A0000E94ED0F0F900F900F900F900F90DF9107
:1020B000CF910895109228041092270410922A04B8
:1020C00010922904109224041092230410922604E2
:1020D0001092250410921E0410921D040895209160
:1020E000CB04222381F0213051F42DB32093C90475
:1020F0003DB32091CA04209523232DBB04C02FB7E4
:102100002093C904F8948CBD9DBD08959091CB0493
:10211000992339F08091C904913011F48DBB089551
:102120008FBF089544E050E0BC0181E090E00C9442
:102130008C1944E050E0BC0185E090E00C948C19CF
:1021400044E050E0BC018FE090E00C948C19AF9219
:10215000BF92CF92DF92EF92FF920F931F93CF9394
:10216000DF9300D000D000D0CDB7DEB76C015B01AB
:1021700080919504811107C082E794E00E94B01419
:1021800081E0809395048BE294E0F6019783868347
:1021900089EB94E00E942C1980E590E00E946F107A
:1021A00046E050E0B50189E090E00E948C1900E023
:1021B00020E040E060E0CE0101960E947E07CE0163
:1021C00003960E94A0100E94861010EAE12E1FE0E4
:1021D000F12E00E010E020E63AEE40E050E0B501DC
:1021E000F601868197810E946E265C0181309105FF
:1021F000B9F580E590E00E946F10F6016681778165
:10220000CE0101960E94B621CE0103960E94A01035
:10221000F60166817781CE0101960E94CC21CE0124
:1022200003960E949210F60166817781CE01019695
:102230000E94C121CE0103960E9499100E9486102F
:10224000F60166817781CE0101960E94D7214B81EC
:102250005C816D817E81F601428353836483758343
:10226000C50126960FB6F894DEBF0FBECDBFDF9135
:10227000CF911F910F91FF90EF90DF90CF90BF9083
:10228000AF900895CF93DF93EC010E94740780E52F
:1022900090E00E946F10BE016E5F7F4F44E050E0FF
:1022A0008FE090E00E94BD1A0E948610CE01DF915F
:1022B000CF9108952AE332E0FC0131832083FB01B2
:1022C0004281538164817581FC014283538364831D
:1022D000758308950F9300E020E040E060E085EA18
:1022E00094E00E947E078DE894E00F910C947407AF
:1022F000DC01ED91FC91008CF18DE02D099591E0D0
:1023000089270895CF93DF931F92CDB7DEB76983F6
:10231000DC01ED91FC910280F381E02D41E050E081
:10232000BE016F5F7F4F09950F90DF91CF910895A8
:1023300021E0FC018485843009F420E0822F089597
:10234000FC019485FB018485981303C081E09430DF
:1023500009F480E008950F931F93CF93DF93EC016E
:102360008A018C85843021F00E94CE16892B39F4A5
:1023700081E090E09B838A8380E090E001C0C80107
:10238000DF91CF911F910F910895FC0184858430D6
:1023900011F00C94C51780E090E00895CF93DF937F
:1023A0001F92CDB7DEB741E050E0BE016F5F7F4FB7
:1023B000FC0184850E946517181619061CF4898192
:1023C00090E002C08FEF9FEF0F90DF91CF910895C3
:1023D000FC0184850C9465170F931F93CF93DF93B3
:1023E0001F92CDB7DEB78C01DC01ED91FC9104802A
:1023F000F581E02D0995892B51F0BE016F5F7F4F6C
:10240000F80184850E94F017898190E002C08FEF67
:102410009FEF0F90DF91CF911F910F910895FC01D5
:1024200084850C941F18CF92DF92EF92FF920F9346
:102430001F93CF93DF93CDB7DEB7AF970FB6F89466
:10244000DEBF0FBECDBF7C018B016A01CE010196BC
:102450000E947407CE0109960E94B014CE018A969C
:102460000E9474076DE874E0CE0184960E945A11B0
:10247000BE016C5D7F4FCE0101960E94B326AE0176
:10248000465D5F4FB801CE0101960E941829813048
:102490009105C1F4D701ED91FC910484F585E02DFF
:1024A0008AE392E09DA38CA30CA51DA52EA53FA5B4
:1024B0000EA31FA328A739A7A601BE016C5D7F4FFD
:1024C000C7010995AF960FB6F894DEBF0FBECDBF1A
:1024D000DF91CF911F910F91FF90EF90DF90CF9000
:1024E0000895FC011382128248EE53E060E070E030
:1024F000448355836683778383E792E09183808367
:1025000084E084870895FC018485843011F00C9464
:10251000AA1580E00895DF92EF92FF920F931F9328
:10252000CF93DF93EC017B018A018C85843009F025
:1025300045C0D12C8D2D0E94AA15811102C0DC86C8
:1025400007C08B7F8831D9F3D39484E0D812F2CFBF
:102550008C85843099F120911001309111012F5F09
:102560003F4F11F420E034E030931101209310012B
:10257000409110015091110120E061E00E94FC1592
:10258000B7016E5F7F4FA8018C850E9450168111A4
:1025900003C084E08C8712C0CE010E948312873171
:1025A00051F061E070E080E090E00E944E20CE01AA
:1025B0000E948312ECCF81E090E002C080E090E0C6
:1025C000DF91CF911F910F91FF90EF90DF900895D1
:1025D000CF92DF92EF92FF92CF93DF93EC018C8545
:1025E000843081F10E94A8160E941F206B017C019B
:1025F000CE010E948312882359F00E941F206C197B
:102600007D098E099F09683E73408105910598F008
:10261000CE010E948312882319F08C850E94D21566
:10262000EC85F0E0EE0FFF1FE356FB4F11821082A6
:1026300084E08C8707C061E070E080E090E00E9459
:102640004E20D6CFDF91CF91FF90EF90DF90CF90CB
:102650000895CF93DF93EC018C858430D1F0CE01C7
:102660000E9483128431A9F0882399F0883189F07F
:102670008C3169F4E881F9810480F581E02DCE0187
:10268000099521E0892B09F420E0822F03C081E025
:1026900001C080E0DF91CF9108950F9300E020E02A
:1026A00040E060E08BEA94E00E947E070F9108957D
:1026B000DC01ED91FC91008CF18DE02D09942AE371
:1026C00032E0FC0131832083FB0141895289638917
:1026D0007489FC0142835383648375830895FC01EC
:1026E000858996890895FC01818D928D0895CF93F7
:1026F000DF931F92CDB7DEB76983DC01ED91FC91CA
:102700000280F381E02D41E050E0BE016F5F7F4F1A
:1027100009950F90DF91CF910895CF93DF93EC014E
:10272000898D9A8D892B41F0E881F9810680F781A6
:10273000E02DCE010995F4CFDF91CF910895CF938D
:10274000DF93EC018C85843061F00E94D215EC851A
:10275000F0E0EE0FFF1FE356FB4F1182108284E082
:102760008C87DF91CF910895FC01108E178A6E5FE0
:102770007F4F84850C946718FC0184850C94AD18F8
:10278000CF93DF93EC019A018F89988DAB01BC0147
:102790008C850E9420182F89388D280F391F388F7B
:1027A0002F8BDF91CF9108950F931F93CF93DF93DA
:1027B0001F92CDB7DEB78C01FC01818D928D892BE4
:1027C00059F041E050E0BE016F5F7F4F84850E9469
:1027D0006517181619061CF08FEF9FEF08C0F80157
:1027E000818D928D0197928F818F898190E00F90DA
:1027F000DF91CF911F910F910895CF93DF93EC015B
:10280000898D9A8D009719F48FEF9FEF10C04817AC
:10281000590708F0AC018C850E9465171816190637
:102820009CF7298D3A8D281B390B3A8F298FDF9120
:10283000CF910895CF93DF931F92CDB7DEB7FC0100
:10284000218D328D232B49F0BE016F5F7F4F848530
:102850000E94F017898190E002C08FEF9FEF0F90E8
:10286000DF91CF910895FF920F931F93CF93DF9342
:10287000EC018B018C858430E1F4F12C8F2D0E94CA
:10288000AA15811102C0FC8606C08831E1F3F394D9
:1028900084E0F812F3CF8C85843059F01E870D87C1
:1028A0001A8E198E20E0A80162E00E94FC1581E0DA
:1028B00001C080E0DF91CF911F910F91FF900895AB
:1028C0000F931F93CF93DF93CDB7DEB728970FB643
:1028D000F894DEBF0FBECDBF8C01DC01ED91FC9101
:1028E0000284F385E02D0995F80184850E94C517BF
:1028F0001816190644F548E050E0BE016F5F7F4F9F
:10290000D8011C968C910E94651718161906ECF4D4
:10291000BE016F5F7F4FC8010F960E949A078D819D
:1029200090E0982F88272E81820F911DF801968BB9
:10293000858B8F8190E0982F88272885820F911DA5
:10294000928F818F02C080E090E028960FB6F894B5
:10295000DEBF0FBECDBFDF91CF911F910F910895C4
:10296000FC011382128248EE53E060E070E0448381
:1029700055836683778383E992E09183808384E043
:102980008487CF010F960C947407CF92DF92EF9259
:10299000FF920F931F93CF93DF93CDB7DEB7AF971F
:1029A0000FB6F894DEBF0FBECDBF7C018B016A016C
:1029B000CE0101960E947407CE0109960E94B014C0
:1029C000CE018A960E9474076DE874E0CE01849669
:1029D0000E945A11BE016C5D7F4FCE0101960E948C
:1029E000B326AE01465D5F4FB801CE0101960E944D
:1029F000182981309105C1F4D701ED91FC9100882F
:102A0000F189E02D8AE392E09DA38CA30CA51DA57E
:102A10002EA53FA50EA31FA328A739A7A601BE0177
:102A20006C5D7F4FC7010995AF960FB6F894DEBF76
:102A30000FBECDBFDF91CF911F910F91FF90EF900F
:102A4000DF90CF9008950F9300E020E040E060E039
:102A500081EB94E00E947E070F910895CF92DF9260
:102A6000EF92FF920F9330E0C12CF2E1DF2EFAE7F4
:102A7000EF2EF12C4C155D056E057F0540F4F694A4
:102A8000E794D794C7943F5F3630A1F737E041E031
:102A90004327211102C050E701C050E5242F30E048
:102AA0003595279523700C70202B252BFC01208356
:102AB000417041830F91FF90EF90DF90CF90089588
:102AC00090E0982F882744E050E0845F9B4F0C945F
:102AD0008C19282F30E02C5F3F4F922F8827860FCC
:102AE000971F0C94BB1962E070E00C946915FB0110
:102AF000282F30E02C5F3F4F922F8827642F8E0FB6
:102B00009F1F0C940A19CF93DF93C82FD62F472FFE
:102B100064E070E00E9477154D2F65E070E08C2F27
:102B2000DF91CF910C947715462F62E070E00C9402
:102B30007715CF93DF93C82FD62F472F60E170E032
:102B40000E9477154D2F61E170E08C2FDF91CF91BE
:102B50000C9477150F931F93CF93DF9300D01F92A0
:102B6000CDB7DEB7182F00E021E040E059E06DE37B
:102B700070E0CE0101960E942E1589819A810E94F3
:102B80006F1063E070E0812F0E9469158B830E94B3
:102B900086108B810F900F900F90DF91CF911F9136
:102BA0000F9108950F931F93CF93DF9300D0CDB76C
:102BB000DEB7182F00E021E040E059E06DE370E05F
:102BC000CE0101960E942E1589819A810E946F1074
:102BD00040E150E0612F89EB94E00E94851B6FEF8C
:102BE000812F0E9494150E9486100F900F90DF9104
:102BF000CF911F910F910895CF92DF92EF92FF92A4
:102C00000F931F93CF93DF9300D0CDB7DEB7182F6C
:102C1000D62E7A01C22E8FEF860F8530A8F5812F30
:102C20000E94D21500E021E040E059E06DE370E041
:102C3000CE0101960E942E1589819A810E946F1003
:102C40004D2D4C2960E070E0812F0E947715E11432
:102C5000F10411F0B7010AC06091B7047091B80493
:102C60006F5F7F4F7093B8046093B704812F0E9409
:102C7000831541E050E0612F89EB94E00E94851BB1
:102C80000E94861081E001C080E00F900F90DF91DC
:102C9000CF911F910F91FF90EF90DF90CF9008950B
:102CA000CF92DF92EF92FF920F931F93CF93DF9318
:102CB00000D0CDB7DEB7182F7B016A01FB01808100
:102CC0008F3F51F481818F3F99F482818F3F81F44E
:102CD00083818F3F69F430C081110AC0FB0181817B
:102CE000811106C08281811103C08381882321F173
:102CF000C114D10409F100E021E040E059E06DE3A6
:102D000070E0CE0101960E942E1589819A810E9461
:102D10006F10B701812F0E946015B601812F0E94AC
:102D2000991544E050E0612F89EB94E00E94851BE7
:102D30000E94861081E001C080E00F900F90DF912B
:102D4000CF911F910F91FF90EF90DF90CF9008955A
:102D50000F931F93CF93DF9300D0CDB7DEB7182F1B
:102D600000E021E040E059E06DE370E0CE01019623
:102D70000E942E1589819A810E946F1048E050E0D0
:102D8000612F89EB94E00E94851B0E9486100F90B2
:102D90000F90DF91CF911F910F910895BF92CF9225
:102DA000DF92EF92FF920F931F93CF93DF9300D0A8
:102DB0001F92CDB7DEB7B82E6B017A01413088E0A3
:102DC000580718F0E12C98E0F92E00E021E040E0EF
:102DD00059E06DE370E0CE0101960E942E158981C5
:102DE0009A810E946F106B2D89EB94E00E94F31979
:102DF0008C0163E070E08B2D0E9469158B830E942B
:102E000086108B81873111F08C3131F40E94AE2114
:102E10000E151F05D0F202C0E12CF12C00E021E0DC
:102E200040E059E06DE370E0CE0101960E942E155E
:102E300089819A810E946F109701A6016B2D89EB01
:102E400094E00E94B21A40E250E06B2D89EB94E0CE
:102E50000E94851B8B2D0E94731584FD22C063E0A8
:102E600070E08B2D0E946915811108C00E948610A8
:102E70008B2D0E94D21580E090E01AC00E9486102F
:102E80000E94AE2100E021E040E059E06DE370E0F7
:102E9000CE0101960E942E1589819A810E946F10A1
:102EA000D9CF60E18B2D0E9494150E948610C70136
:102EB0000F900F900F90DF91CF911F910F91FF9086
:102EC000EF90DF90CF90BF900895AF92BF92CF92D6
:102ED000DF92EF92FF920F931F93CF93DF9300D077
:102EE000CDB7DEB7182F5B016A0100E021E040E0BA
:102EF00059E06DE370E0CE0101960E942E158981A4
:102F00009A810E946F10612F89EB94E00E94271A2A
:102F10007C010097A1F463E070E0812F0E946915A5
:102F2000843119F1882309F121E030E08C3111F46A
:102F300020E030E0EE24FF24E21AF30A16C0C8169F
:102F4000D9060CF476011E141F047CF400E09701EE
:102F5000A501612F89EB94E00E94351B40E450E00D
:102F6000612F89EB94E00E94851B0E948610C701A7
:102F70000F900F90DF91CF911F910F91FF90EF90E5
:102F8000DF90CF90BF90AF9008950F931F93CF9392
:102F9000DF9300D000D0CDB7DEB7182F00E021E0DE
:102FA00040E059E06DE370E0CE0101960E942E15DD
:102FB00089819A810E946F10612F89EB94E00E94B1
:102FC000271A8B839C830E9486108B819C810F9093
:102FD0000F900F900F90DF91CF911F910F91089557
:102FE000EF92FF920F931F93CF93DF9300D0CDB753
:102FF000DEB7182F7B0100E021E040E059E06DE3EF
:1030000070E0CE0101960E942E1589819A810E945E
:103010006F1001E021E030E0A701612F89EB94E01F
:103020000E94351B0E94861081E090E00F900F9067
:10303000DF91CF911F910F91FF90EF900895089528
:103040009F92AF92BF92CF92DF92EF92FF920F9337
:103050001F93CF93DF9300D0CDB7DEB7982E6B01CF
:103060005A01790100E021E040E059E06DE370E0B1
:10307000CE0101960E942E1589819A810E946F10BF
:10308000692D89EB94E00E94F3198E159F0530F4A9
:10309000692D89EB94E00E94F3197C018701950169
:1030A000A601692D89EB94E00E94431A0E948610C4
:1030B000C7010F900F90DF91CF911F910F91FF905B
:1030C000EF90DF90CF90BF90AF909F900895CF92F8
:1030D000DF92EF92FF920F931F93CF93DF9300D075
:1030E000CDB7DEB7182F7B016A01FB01808181110A
:1030F00009C08181811106C08281811103C0838151
:103100008823F1F0C114D104D9F000E021E040E0BF
:1031100059E06DE370E0CE0101960E942E15898181
:103120009A810E946F10B701812F0E946015B6012D
:10313000812F0E9499150E94861081E090E002C0C4
:1031400080E090E00F900F90DF91CF911F910F9151
:10315000FF90EF90DF90CF9008950F931F93CF9340
:10316000DF9300D0CDB7DEB7182F00E021E040E0BC
:1031700059E06DE370E0CE0101960E942E15898121
:103180009A810E946F1040E250E0612F89EB94E039
:103190000E94851B812F0E94731584FD21C0812F01
:1031A0000E94731583FF09C068E1812F0E94941566
:1031B0000E94861080E090E01BC00E9486100E9452
:1031C000AE2100E021E040E059E06DE370E0CE0187
:1031D00001960E942E1589819A810E946F10DACF84
:1031E00060E1812F0E9494150E94861081E090E09A
:1031F0000F900F90DF91CF911F910F9108958EBD89
:1032000000000DB407FEFDCF8EB508952A980895ED
:103210002A9A08951F93CF93DF9300D0CDB7DEB7DE
:10322000182F6A8399830E94061980EF0E94FF1865
:103230009981892F0E94FF18812F0E94FF186A81AF
:10324000862F0E94FF180E94081981E00F900F90AE
:10325000DF91CF911F910895CF93DF93EC016CE242
:1032600071E080E090E00E944E200E94951B229A1F
:103270008091CB04882381F0813051F48DB3809309
:10328000C9049DB38091CA04809589238DBB04C075
:103290008FB78093C904F89480E58CBD1DBC60E8AD
:1032A00080E090E00E940A1965E58BE190E00E94C1
:1032B0000A1965E58AE190E00E940A199091CB0411
:1032C000992339F08091C904913011F48DBB01C06C
:1032D0008FBF80E090E49983888380E090E69987AF
:1032E000888780E098E49B838A8380E098E69B87C8
:1032F0008A8780E090E59D838C8380E090E79D87BE
:103300008C8780E098E59F838E8380E098E79F8795
:103310008E87DF91CF910895CF92DF92EF92FF9247
:103320000F931F93CF93DF93EC017A018B016C0114
:10333000C40ED51ECC15DD05A1F00E94061980EF44
:103340000E94FF188D2F0E94FF188C2F0E94FF18DB
:103350002196F80181918F010E94FF180E9408199F
:10336000E9CFC701DF91CF911F910F91FF90EF90AF
:10337000DF90CF9008951F93CF93DF931F92CDB727
:10338000DEB7182F99830E9406198FE00E94FF185C
:103390009981892F0E94FF18812F0E94FF1880E0D9
:1033A0000E94FF1889830E94081989810F90DF917C
:1033B000CF911F9108951F93CF93DF93182F60E251
:1033C00070E00E946915C82FD0E061E270E0812FA3
:1033D0000E946915DC2FCC279E01282BC901DF91A3
:1033E000CF911F910895FF920F931F93CF93DF9377
:1033F000F62EC0E0D0E08F2D0E94DB198C010097E3
:1034000021F08F2D0E94DB19EC01C017D10799F72D
:10341000CE01DF91CF911F910F91FF9008951F93DF
:10342000CF93DF93182F66E270E00E946915C82FD2
:10343000D0E067E270E0812F0E946915DC2FCC2775
:103440009E01282BC901DF91CF911F910895FF9212
:103450000F931F93CF93DF93F62EC0E0D0E08F2D14
:103460000E940F1A8C01009721F08F2D0E940F1AD5
:10347000EC01C017D10799F7CE01DF91CF911F91D1
:103480000F91FF9008956F927F929F92AF92BF929B
:10349000CF92DF92EF92FF920F931F93CF93DF9320
:1034A0001F92CDB7DEB7D82E962E3A01590164E2AD
:1034B00070E0892D99830E946915E82EF12C65E250
:1034C00070E0892D0E946915FE2CEE24E82AE60C96
:1034D000F71C970137706D2C9981792E690C711C3E
:1034E000690C711CD301ED91FC91E20FF31FC9012E
:1034F000800F911F81309840A0F0C12C48E0D42E5D
:10350000C21AD30AA601B501CF010E948C19A801E5
:103510004C195D09B5016C0D7D1DF3018081918110
:1035200003C0A801B501CF010E948C19E00EF11E65
:103530004F2D64E270E0892D0E9477154E2D65E2D3
:1035400070E0892D0F90DF91CF911F910F91FF9027
:10355000EF90DF90CF90BF90AF909F907F906F9053
:103560000C9477150F931F9389019A0140E050E066
:103570000E94431A1F910F910895CF92DF92EF920C
:10358000FF920F931F93CF93DF93EC017A018B018E
:103590006C01C40ED51ECC15DD05A9F00E940619DC
:1035A0008FE00E94FF188D2F0E94FF188C2F0E9421
:1035B000FF18219680E00E94FF18F80181938F0187
:1035C0000E940819E8CFC701DF91CF911F910F9199
:1035D000FF90EF90DF90CF900895AF92BF92CF927F
:1035E000DF92EF92FF920F931F93CF93DF9300D060
:1035F000CDB7DEB75A8349835901E981FA81F77063
:103600007C01E60EF11CE60EF11CD70118968D9197
:103610009C9119978E0F9F1F98012E0F3F1F2130ED
:10362000384098F0C12C68E0D62ECE1ADF0AA601E9
:10363000B5010E94BD1AA8014C195D09B5016C0DB8
:103640007D1DF7018085918502C0A801B5010F900D
:103650000F90DF91CF911F910F91FF90EF90DF902E
:10366000CF90BF90AF900C94BD1A8F929F92AF9263
:10367000BF92CF92DF92EF92FF920F931F93CF935F
:10368000DF936C01962E5A017901802E68E270E07A
:10369000892D0E946915C82FD0E069E270E0892D5C
:1036A0000E946915DC2FCC27C82B87019501AE013C
:1036B000692DC6010E94ED1A81101AC0CE0DDF1DC2
:1036C0004D2F68E270E0892D0E9477154C2F69E23A
:1036D00070E0892DDF91CF911F910F91FF90EF90B6
:1036E000DF90CF90BF90AF909F908F900C94771504
:1036F000DF91CF911F910F91FF90EF90DF90CF90CE
:10370000BF90AF909F908F900895CF93C62F61E0A8
:1037100070E08C2F0E94771561E070E08C2F0E9482
:1037200069158111F9CFCF91089561E08AE00E9477
:10373000302161E08AE00E94F7208CB580618CBD69
:103740008CB580648CBD61E08DE00E94F72061E063
:103750008BE00C94F7200F931F93CF93DF93EC0132
:103760008B0165EB72E00E94BD0AD80114968D9121
:103770009C911597DC01ED91FC910480F581E02D81
:10378000099518161906ACF4F80184819581DC01BD
:10379000ED91FC910680F781E02D09958A3049F082
:1037A0008D3019F38F3F09F3682FCE010E943E0B35
:1037B000DCCFCE01DF91CF911F910F910895AF9291
:1037C000BF92CF92DF92EF92FF920F931F93CF930E
:1037D000DF93CDB7DEB7C555D1090FB6F894DEBF7C
:1037E0000FBECDBF8C0189E1E6EBF2E0DE01119660
:1037F00001900D928A95E1F780E00E94B1200E942D
:1038000066217E0183E3E80EF11C6701A0E1CA0E88
:10381000D11C570120E031E040E050E061E070E071
:1038200080E090E00E949221F70161937F01EC1506
:10383000FD0581F740E150E0B501CE014A960E94B6
:10384000CF29FE017A96DE011196CE01C296219112
:103850002D93E817F907D9F760E271E0D8011496C3
:103860008D919C9115970E94F207F80160817181FA
:10387000848195810E94250864E171E0D801149645
:103880008D919C9115970E94F2076FEF70E0F801FF
:10389000848195810E94F20769EE70E0D801149648
:1038A0008D919C9115970E94F20762EE70E0F801ED
:1038B000848195810E94F207D80112966D917C91C6
:1038C000139714968D919C9115970E94250863EB90
:1038D00072E0F801848195810E9425086EEC70E009
:1038E000D80114968D919C9115970E94F207BE0104
:1038F0006F5F7F4FF801848195810E94250863EBFB
:1039000072E0D80114968D919C9115970E9425081C
:1039100062EB70E0F801848195810E94F20763EB0D
:1039200072E0D80114968D919C9115970E942508FC
:10393000F80184819581DC01ED91FC910488F58981
:10394000E02D0995882369F0F80184819581DC01D7
:10395000ED91FC910480F581E02D0995892B09F406
:1039600055C0F80184819581DC01ED91FC910480C2
:10397000F581E02D0995892B39F462E370E080E050
:1039800090E00E944E20EDCF65EB72E0CE01805BAF
:103990009F4F0E94BD0A65EB72E0CE01865B9F4F90
:1039A0000E94BD0AB801CE018C5B9F4F0E94AB1BE9
:1039B000BE016C5B7F4FCE01865B9F4F0E94D30A96
:1039C00065EB72E00E948C0BF82ECE018C5B9F4F52
:1039D0000E944F0AF11021C0BE01665B7F4FCE01ED
:1039E0008C5B9F4F0E94EA0A6AE0CE018C5B9F4F7E
:1039F0000E947E0BBC01CE01805B9F4F0E94370B63
:103A0000CE018C5B9F4F0E944F0ACCCF62E370E0E7
:103A100080E090E00E944E208BCFBE01605B7F4F24
:103A200089E793E00E945E08CE01865B9F4F0E946B
:103A30004F0ACE01805B9F4F0E944F0A81E0CB5A14
:103A4000DF4F0FB6F894DEBF0FBECDBFDF91CF9131
:103A50001F910F91FF90EF90DF90CF90BF90AF90AC
:103A60000895CF93DF93EC018C819D81DC01ED9172
:103A7000FC910190F081E02D67E809958C819D8192
:103A8000DC01ED91FC910190F081E02D60E0099561
:103A90008C819D81DC01ED91FC910284F385E02D08
:103AA00009956AE070E080E090E00E944E208C81F1
:103AB0009D81DC01ED91FC910288F389E02DDF917D
:103AC000CF910994CF93DF93EC017D836C83DB016D
:103AD000ED91FC910488F589E02DCB0109958823AF
:103AE00049F0CE010E94DF1B81110CC0CE010E9463
:103AF000311D06C06FEC72E089E793E00E94700808
:103B000080E001C081E0DF91CF910895CF93DF93F2
:103B1000EC018C819D81DC01ED91FC910480F581AB
:103B2000E02D0995892B39F462E370E080E090E0A4
:103B30000E944E20EECF8C819D81DC01ED91FC91A5
:103B40000680F781E02DDF91CF9109948F929F92AB
:103B5000AF92BF92CF92DF92EF92FF920F931F939B
:103B6000CF93DF93CDB7DEB7C450D1400FB6F894F2
:103B7000DEBF0FBECDBF8C019E012F5F3F4F69019D
:103B800080E091E0D901FC011D923197E9F7D8015D
:103B900014968D919C911597DC01ED91FC91048810
:103BA000F589E02D0995882309F4FEC0F801848188
:103BB0009581DC01ED91FC910480F581E02D099562
:103BC000892B09F4F1C0C8010E94861DF801848187
:103BD0009581DC01ED91FC910488F589E02D099532
:103BE000882309F4E1C0C8010E94861D7C01803849
:103BF000910530F0E894E7F8FF24BB24B39401C0AA
:103C0000B12CF80184819581DC01ED91FC9104884F
:103C1000F589E02D0995882309F4C6C0BEE7EB16A7
:103C2000F10431F5C8010E94861DA82EF801848197
:103C30009581DC01ED91FC910488F589E02D0995D1
:103C4000882309F4B1C0C8010E94861DE12CF12C23
:103C5000FA2CE82AF92AF80184819581DC01ED919A
:103C6000FC910488F589E02D0995811106C09CC05E
:103C7000BFE7EB16F10409F4FFCFB11004C0560101
:103C8000EC0CFD1C8EC0C8010E94861DCF5FDE4F6C
:103C90008883C150D140F80184819581DC01ED9188
:103CA000FC910488F589E02D0995882309F47CC0EE
:103CB000C8010E94861DCE5FDE4F8883C250D1406E
:103CC000F80184819581DC01ED91FC910488F589EE
:103CD000E02D0995882309F467C0C8010E94861D5C
:103CE000CD5FDE4F8883C350D140F8018481958138
:103CF000DC01ED91FC910488F589E02D099588237C
:103D000009F452C0C8010E94861DCC5FDE4F888333
:103D1000C450D140F80184819581DC01ED91FC9182
:103D20000488F589E02D09958823F1F14601A12C3D
:103D3000B12CAE14BF04C1F1C8010E94861DF5016B
:103D4000E370FF2721E031E02C0F3D1FE20FF31F4E
:103D500090819827D4019D934D01F801848195812C
:103D6000DC01ED91FC910488F589E02D099588230B
:103D7000D9F0BFEFAB1ABB0ADCCFC8010E94861D89
:103D8000F50181935F01D80114968D919C9115974F
:103D9000DC01ED91FC910488F589E02D09958823DB
:103DA00019F0AE14BF0449F7C601CC5FDE4F0FB661
:103DB000F894DEBF0FBECDBFDF91CF911F910F9161
:103DC000FF90EF90DF90CF90BF90AF909F908F903B
:103DD0000895CF92DF92EF92FF920F931F93CF93AC
:103DE000DF938C017B01EB0109900020E9F721971B
:103DF000C61BD70BDC0114968D919C911597DC01A5
:103E0000ED91FC910190F081E02D61E80995F801B8
:103E100084819581DC01ED91FC910190F081E02D90
:103E2000CE37D1050CF468C06FE70995F80184819D
:103E30009581DC01ED91FC910190F081E02DBE01B6
:103E4000770F660B762F0995F80184819581DC0147
:103E5000ED91FC910190F081E02DBE01770F660B92
:103E6000762F0995F80184819581DC01ED91FC9113
:103E70000190F081E02DBE01770F660B762F09953A
:103E8000F80184819581DC01ED91FC910190F08134
:103E9000E02DBE01770F660B762F0995F80184811E
:103EA0009581DC01ED91FC91770F660B762F0190E7
:103EB000F081E02D0995F80184819581DC01ED9177
:103EC000FC91770F660B762F0190F081E02D09951C
:103ED000F80184819581DC01ED91FC910190F081E4
:103EE000E02D6D2F0995F80184819581DC01ED911C
:103EF000FC910190F081E02D6C2F09956701C601BE
:103F00008E199F098C179D0774F4F801848195819F
:103F1000D6016D916D01DC01ED91FC910190F08174
:103F2000E02D0995ECCFDF91CF911F910F91FF907C
:103F3000EF90DF90CF9008950F931F93CF93DF936F
:103F400000D0CDB7DEB78C01DC0114968D919C9129
:103F50001597DC01ED91FC910488F589E02D6983CA
:103F60007A83099569817A81882349F0C8010F9085
:103F70000F90DF91CF911F910F910C94E91E0F903C
:103F80000F90DF91CF911F910F9108950F9300E053
:103F900020E040E060E08CEC94E00E947E070F910E
:103FA00008950C94392D0C94D12D1F920F920FB6B9
:103FB0000F9211242F933F938F939F93AF93BF93AF
:103FC0008091D3049091D404A091D504B091D604EB
:103FD0003091D20423E0230F2D3720F40196A11D48
:103FE000B11D05C026E8230F0296A11DB11D209327
:103FF000D2048093D3049093D404A093D504B093B7
:10400000D6048091D7049091D804A091D904B0919E
:10401000DA040196A11DB11D8093D7049093D804B2
:10402000A093D904B093DA04BF91AF919F918F917F
:104030003F912F910F900FBE0F901F9018952FB7A3
:10404000F8946091D3047091D4048091D504909138
:10405000D6042FBF08953FB7F8948091D70490916C
:10406000D804A091D904B091DA0426B5A89B05C064
:104070002F3F19F00196A11DB11D3FBF6627782F74
:10408000892F9A2F620F711D811D911D42E0660FCD
:10409000771F881F991F4A95D1F70895CF92DF9215
:1040A000EF92FF92CF93DF936B017C010E942B2054
:1040B000EB01C114D104E104F10489F00E94AE21A6
:1040C0000E942B206C1B7D0B683E734090F381E0B7
:1040D000C81AD108E108F108C851DC4FEACFDF91D6
:1040E000CF91FF90EF90DF90CF900895789484B5B2
:1040F000826084BD84B5816084BD85B5826085BDE4
:1041000085B5816085BDEEE6F0E0808181608083C9
:10411000E1E8F0E0108280818260808380818160AC
:104120008083E0E8F0E0808181608083E1EBF0E073
:10413000808184608083E0EBF0E080818160808317
:10414000EAE7F0E080818460808380818260808300
:104150008081816080838081806880831092C1002B
:1041600008958E3008F08E5087702091120190E4EF
:10417000299F90011124822B80937C0080917A00EA
:10418000806480937A0080917A0086FDFCCF8091D4
:1041900078002091790090E0922B0895833081F08F
:1041A00028F4813099F08230A1F008958730A9F089
:1041B0008830B9F08430D1F4809180008F7D03C0C5
:1041C000809180008F7780938000089584B58F77E9
:1041D00002C084B58F7D84BD08958091B0008F7733
:1041E00003C08091B0008F7D8093B0000895CF937D
:1041F000DF9390E0FC01E75CFE4F2491FC01E35B60
:10420000FE4F8491882349F190E0880F991FFC01AB
:10421000E559FE4FA591B4918F599E4FFC01C59170
:10422000D4919FB7611108C0F8948C912095822396
:104230008C93888182230AC0623051F4F8948C9167
:10424000322F309583238C938881822B888304C0FE
:10425000F8948C91822B8C939FBFDF91CF9108951E
:104260000F931F93CF93DF931F92CDB7DEB7282F05
:1042700030E0F901EB5DFE4F8491F901E75CFE4F00
:104280001491F901E35BFE4F04910023C9F08823E8
:1042900021F069830E94CE206981E02FF0E0EE0FCB
:1042A000FF1FEF59FE4FA591B4919FB7F8948C91E1
:1042B000611103C01095812301C0812B8C939FBF96
:1042C0000F90DF91CF911F910F910895009729F0E2
:1042D000BC0180E090E00C94B42E0895CF93DF935E
:1042E00000D000D0CDB7DEB79B01AC0161157105E0
:1042F0008105910569F069833A834B835C830E9451
:10430000AF2E29813A814B815C810E94C02A03C073
:1043100060E070E0CB010F900F900F900F90DF9155
:10432000CF910895CF92DF92EF92FF926B017C01C3
:10433000621773078407950764F4CA01B9016C1901
:104340007D098E099F090E946E216C0D7D1D8E1DB9
:104350009F1DFF90EF90DF90CF90089508950E96E7
:1043600024E1FC0111922A95E9F70895CF93DF9398
:10437000EC01625F7F4F0E948A07CE01DF91CF91EF
:104380000895CF93DF93EC016E5E7F4F0E948A0702
:10439000CE01DF91CF910895CF93DF93EC016A5E58
:1043A0007F4F0E948A07CE01DF91CF910895CF936E
:1043B000DF93EC01625E7F4F0E948A07CE01DF919E
:1043C000CF91089580E3FB0180833296842F8295FC
:1043D0008F7090E1899F401911244A3014F4405D98
:1043E00001C0495C4293882311F0482FEFCF089514
:1043F0000F9300E020E040E060E08BED94E00E944D
:104400007E070F9108956F927F928F929F92AF9245
:10441000BF92CF92DF92EF92FF920F931F93CF93B1
:10442000DF93CDB7DEB7AC970FB6F894DEBF0FBE03
:10443000CDBF7C01862EB42EA52E20E2922ECE0179
:1044400001966C01FC01292D11922A95E9F70FEFD5
:104450002FEF4FEF6FEF86960E947E078AE392E080
:104460009AA389A389A59AA5ABA5BCA58BA39CA358
:10447000ADA3BEA38701095B1F4F43E450E0BE011B
:104480006F5D7F4FC8010E94B413019609F4BFC04D
:1044900081E089838A8386E0782E7B821C82F70103
:1044A00064817581868197810E94DF2A6D837E8376
:1044B0008F839887A986BA8680E890E09C878B874F
:1044C0004CE150E0B601C8010E94C013F601292D4D
:1044D00011922A95E9F7570188E0A80EB11CF50161
:1044E000D60101900D927A94E1F740E150E0B601D7
:1044F000C8010E94C013F60111929A94E9F796E060
:10450000692E712C40E250E0B601C8010E94C01330
:10451000F1E06F1A7108B1F783E6898392E89A8314
:1045200093E59B838C8385E38D8381E08E838F82EB
:104530009DE3988797E099878A8786E0F501DE01F9
:104540001B9601900D928A95E1F78CE0898B8A8BFE
:1045500062EE72E0CE0143960E945D32F701438520
:10456000BE01675E7F4FC7010E94E221F7014485CB
:10457000BE01655E7F4FC7010E94E221F7014585BC
:10458000BE01635E7F4FC7010E94E2214EE150E011
:10459000B601C8010E94C013F3E08F121EC082E36F
:1045A000898384E08A83F70196859B8397859C8322
:1045B00090899D8391899E8396E39F838887828DCE
:1045C0008987838D8A87848D8B87858D8C874CE046
:1045D00050E0B601C8010E94C01387E3898386E0DA
:1045E0008A8391E09B8393E09C838D838FE08E830D
:1045F0008AE38F838BE388878FEF898749E050E0D8
:10460000B601C8010E94C013C8010E94BC13AC9639
:104610000FB6F894DEBF0FBECDBFDF91CF911F91D3
:104620000F91FF90EF90DF90CF90BF90AF909F9051
:104630008F907F906F9008952F923F924F925F924C
:104640006F927F928F929F92AF92BF92CF92DF92A2
:10465000EF92FF920F931F93CF93DF93CDB7DEB707
:10466000E3970FB6F894DEBF0FBECDBF7C012A01E1
:104670003B0169010E941F204B015C018701095B1E
:104680001F4FC8010E9460141816190694F00E946A
:104690001F20681979098A099B094616570668067A
:1046A0007906F0F062E370E080E090E00E944E2036
:1046B000E8CF42E250E0BE016F5F7F4FC8010E9429
:1046C000FD138981823031F4F8018589968983341C
:1046D000910541F019A6C8010E948D1389A562C1F8
:1046E0008FEF60C16D817E818F8198850E94DF2A66
:1046F0004B015C01F601608371838283938346E002
:1047000050E0B701685F7F4FCE014D960E943E3268
:10471000892B99F4F70180819181A281B381881658
:104720009906AA06BB0648F084819581A681B781C7
:1047300088159905AA05BB0528F4C8010E948D13A8
:1047400080E030C189899A89AB89BC89F701868765
:104750009787A08BB18B3EECC32ED12CC8010E9451
:10476000D413F1E0CF1AD108C9F719A6C701829670
:104770009BA78AA7F701B696FDA7ECA708969FA767
:104780008EA73C976F018E9699AB88AB3897FBABA1
:10479000EAAB5701F6E1AF0EB11C47018EE1880E7E
:1047A000911CC8010E947313181619060CF093CFC0
:1047B000C8010E94D4138333910509F4C9C0F4F4ED
:1047C00081309105B9F11CF4892B59F3DBC083309A
:1047D0009105C1F1069709F0D5C0C8010E94D41314
:1047E0003C0144E050E0B401C8010E94FD13212CBB
:1047F000312C7724F4E06F1A71083FC08A33910599
:1048000009F47AC03CF48533910561F0C69709F448
:104810003FC0B8C08B33910509F484C08F3F910528
:1048200001F2B0C0C8010E94D413C8010E94D41381
:1048300089A7B7CFC8010E94D41344E050E06AA909
:104840007BA936C0C8010E94D4133C0144E050E06B
:10485000B501C8010E94FD13212C312C772494E06E
:10486000691A7108261437040CF09BCFC8010E9406
:10487000D413EFEF2E1A3E0AF5CF261437040CF0AE
:1048800090CFC8010E94D4138FEF281A380AF5CFB1
:10489000C8010E94D413782EF701828D938DA48DC8
:1048A000B58D892B8A2B8B2B39F444E050E0B6016F
:1048B000C8010E94FD1375CFE8A9F9A920803180B5
:1048C00042805380B601CE0183960E948A078DA153
:1048D0009EA1AFA1B8A582159305A405B50529F33E
:1048E000212C312C721409F45CCFC8010E94D4131E
:1048F000FFEF2F1A3F0AF6CFC8010E94D41344E0FD
:1049000050E06CA57DA5C8010E94FD13F70166A1CA
:1049100077A180A591A50E94DF2A66A377A380A72F
:1049200091A73FCFC8010E94D41344E050E06EA588
:104930007FA5C8010E94FD13F70162A573A584A598
:1049400095A50E94DF2A62A773A784A795A729CF00
:10495000C8010E94D41344E050E06AA57BA5C801B9
:104960000E94FD13F70162A173A184A195A10E9489
:10497000DF2A62A373A384A395A366A777A780AB5E
:1049800091AB0FCFC8010E94D413382E612C712C2B
:10499000361409F406CFC8010E94D413FFEF6F1A32
:1049A0007F0AF6CFE3960FB6F894DEBF0FBECDBFF9
:1049B000DF91CF911F910F91FF90EF90DF90CF90FB
:1049C000BF90AF909F908F907F906F905F904F902F
:1049D0003F902F9008952F923F924F925F926F9247
:1049E0007F928F929F92AF92BF92CF92DF92EF927F
:1049F000FF920F931F93CF93DF93CDB7DEB7279727
:104A00000FB6F894DEBF0FBECDBF8C0120ED37E0AE
:104A100040E050E061E070E080E090E00E94922190
:104A2000D80114966D937D938D939C931797F801FD
:104A300060837183828393834801F7E48F0E911C16
:104A4000C4010E949F1364E470E0C4010E94331407
:104A5000882309F428C10E941F206B017C01A12C2E
:104A6000B12C1D82180186E4280E311CD801DE9677
:104A7000BF83AE8338EE432E33E0532E612C712C6E
:104A8000F1018081833009F4FDC081111FC0F8015C
:104A900084819581A681B7810196A11DB11D848372
:104AA0009583A683B7830E941F206C197D098E0908
:104AB0009F09A30192010E949E2AA90161E0C801F9
:104AC0000E94032281E0D1018C93BEC08430F9F4AE
:104AD000F80184819581A681B7810196A11DB11D40
:104AE00084839583A683B7830E941F206C197D0958
:104AF0008E099F09A30192010E949E2AA90163E0E9
:104B0000C8010E940322E2E0D101EC939DC08130F4
:104B100061F5AE81BF814D915D916D917C919E015A
:104B20002F5F3F4FC8010E941C238D83823009F004
:104B30008BC089819A81AB81BC81F8018483958384
:104B4000A683B7830E941F206C197D098E099F09D7
:104B5000A30192010E949E2AA90163E0C8010E945C
:104B60000322ED81D101EC9375C0823009F06CC055
:104B7000AE81BF814D915D916D917C919E012F5FC2
:104B80003F4FC8010E941C238D83853009F056C019
:104B900083E0F1018083F80182A193A1A4A1B5A1D2
:104BA000892B8A2B8B2B41F484E893E0A0E0B0E0C2
:104BB00082A393A3A4A3B5A3F80186A197A1A0A55E
:104BC000B1A5892B8A2B8B2B61F482A193A1A4A17F
:104BD000B5A1B695A7959795879586A397A3A0A706
:104BE000B1A7D8019A964D915D916D917C919D9759
:104BF00096968D919D910D90BC91A02D452B462BA5
:104C0000472B59F4AC01BD01440F551F661F771F98
:104C1000F80142A753A764A775A7F80186A797A72D
:104C2000A0ABB1AB82A593A5A4A5B5A582AB93AB70
:104C3000A4ABB5ABAA24A394B12C0CC0FD81F63073
:104C400019F4D1011C9206C0BD81BF3F19F4F101D6
:104C500010821D82F1E0AF16B10409F411CF0E9459
:104C60001F206C197D098E099F09D801DA962D91B4
:104C70003D914D915C91DD972617370748075907FD
:104C800008F0FECEC4010E949F13F8018481958133
:104C9000A681B7810196A11DB11D84839583A6834A
:104CA000B783C50102C080E090E027960FB6F89464
:104CB000DEBF0FBECDBFDF91CF911F910F91FF904F
:104CC000EF90DF90CF90BF90AF909F908F907F90AC
:104CD0006F905F904F903F902F900895CF92DF920A
:104CE000EF92FF920F931F93CF93DF93EC016B0131
:104CF0001AA21BA21CA21DA21EA21FA218A619A6C0
:104D00001AA61BA61CA61DA61EAA1FAA18AE19AE7F
:104D10002AAF3BAF4CAF5DAFFC01FE96E082F18263
:104D2000028313838C01085F1F4F86E0F801119204
:104D30008A95E9F7CE010E94AF2186E0F601D801FD
:104D400001900D928A95E1F7FE01EA5BFF4F108218
:104D5000CE01DF91CF911F910F91FF90EF90DF90E7
:104D6000CF900C94EB24FB014281538164817581C7
:104D7000FC014283538364837583178216820895EE
:104D8000CF93FB0181918111FDCFFB0180E090E089
:104D900020E030E0CAE06191662309F1243031055A
:104DA00064F56E3271F48F3F910509F034F5DA0144
:104DB000A20FB31F12968C932F5F3F4F80E090E0BD
:104DC000EACFDC01CA9FC001CB9F900D1124772749
:104DD00067FD709560537109860F971FDCCF8F3F79
:104DE000910509F054F4243031053CF4FA01E20F46
:104DF000F31F828381E090E002C080E090E0CF91D9
:104E000008950F9300E020E040E060E081EE94E040
:104E10000E947E070F910895AF92BF92CF92DF92CA
:104E2000EF92FF920F931F93CF93DF9300D01F92C7
:104E3000CDB7DEB76C017B010E941F20F60177839E
:104E400066838601085F1F4FB6016A5F7F4F42E0AD
:104E500050E0C8010E94C01381E090E09A838983EA
:104E600042E050E0BE016F5F7F4FC8010E94C01357
:104E700080E091E09A83898342E050E0BE016F5F59
:104E80007F4FC8010E94C0131A82198242E050E08D
:104E9000BE016F5F7F4FC8010E94C01342E050E027
:104EA000BE016F5F7F4FC8010E94C01342E050E017
:104EB000BE016F5F7F4FC8010E94C0136701F601FA
:104EC0008081882311F1F7016F018191811115C053
:104ED0005601AE18BF081A141B0494F4AB8241E0CB
:104EE00050E0BE016D5F7F4FC8010E94C013A50155
:104EF000B701C8010E94C01303C08E3229F7E8CF62
:104F00007601FFEFEF1AFF0ADACF1B8241E050E093
:104F1000BE016D5F7F4FC8010E94C013E12CFF24CA
:104F2000F394FA82E98242E050E0BE016F5F7F4F66
:104F3000C8010E94C013FA82E98242E050E0BE013B
:104F40006F5F7F4FC8010E94C01381E090E00F9017
:104F50000F900F90DF91CF911F910F91FF90EF90E5
:104F6000DF90CF90BF90AF9008954F925F926F9275
:104F70007F928F929F92AF92BF92CF92DF92EF92E9
:104F8000FF920F931F93CF93DF93CDB7DEB7639755
:104F90000FB6F894DEBF0FBECDBF7C015B016A0186
:104FA0000E941F202B013C018701085F1F4F450114
:104FB000A12CB12CC8010E9460141816190694F097
:104FC0000E941F206419750986099709861697069D
:104FD000A806B906D0F062E370E080E090E00E949D
:104FE0004E20E8CFF7014281538164817581818D24
:104FF000928DA38DB48D481759076A077B0741F43A
:10500000858D968DC59721F406C08FEF9FEFF9C06F
:105010008EEF9FEFF6C0C8010E9473130C970CF43B
:10502000EEC04CE050E0BE016F5F7F4FC8010E94B0
:10503000FD138B819C819827892798279A8B898BD0
:10504000F7014681578129813A814217530711F4AC
:1050500097FD06C0C8010E948D138CEF9FEFD1C051
:105060008F709270892B31F0C8010E948D138BEFE5
:105070009FEFC7C0AF80B884BA24AB24BA24A11470
:10508000B10419F0E12CF12C23C0C8010E948D134A
:105090008AEF9FEFB6C041E050E0BE01635F7F4FF3
:1050A000C8010E94FD138D8581111BC08D85811162
:1050B000F2CFC8010E94D413C8010E94D413C801C2
:1050C0000E94D413C8010E94D413FFEFEF1AFF0A05
:1050D0008D819E81982789279827E816F906D8F2AE
:1050E0000AC08D859FEF980F9D878823F9F2C8012C
:1050F0000E94D413F6CFE12CF12C41E050E0BE0128
:105100006D5E7F4FC8010E94FD138B89982F907CA4
:1051100061F4882371F08B899FEF980F9B8B882314
:1051200041F0C8010E94D413F6CFC8010E94D413E5
:105130001B8A8B898111E1CF42E050E0BE01615FA3
:105140007F4FC8010E94FD1342E050E0BE01635F43
:105150007F4FC8010E94FD13C8010E94D413C801EB
:105160000E94D413C8010E94D413C8010E94D41312
:1051700042E050E0BE016F5E7F4FC8010E94FD1308
:105180008F8598898115914029F48D859E8581159B
:10519000914019F0812C912C16C089899A8981152A
:1051A000944031F0C8010E948D1387EF9FEF29C012
:1051B000B6016E5F7F4F44E050E0C8010E94FD13CE
:1051C00081E090E01EC089899A89982789279827CD
:1051D0008816990638F4C8010E94D4132FEF821A5A
:1051E000920AF1CF8FEFE81AF80AEA14FB0409F0EB
:1051F00084CFC8010E948D1386EF9FEF02C08DEF10
:105200009FEF63960FB6F894DEBF0FBECDBFDF9160
:10521000CF911F910F91FF90EF90DF90CF90BF90B3
:10522000AF909F908F907F906F905F904F90089578
:105230008F929F92AF92BF92CF92DF92EF92FF92A6
:105240000F931F93CF93DF9300D000D000D0CDB742
:10525000DEB78C015B016A010E94C0264C010097F9
:1052600009F05DC0F80142815381648175818091AC
:10527000E3049091E404A091E504B091E60448179A
:1052800059076A077B0709F44EC00E941F20780166
:10529000F8E0EF0EF11C6F7077277C5FC7010E946A
:1052A0003314813009F043C08AE392E09A83898302
:1052B000F80182819381A481B5818B839C83AD8326
:1052C000BE8345E350E0BE016F5F7F4FC7010E9480
:1052D000B413892B19F4812C912C1DC0B501C80180
:1052E0000E940C27892BB9F3C7010E94BC13892B9C
:1052F00091F333E0A32EB12CA60168E873E1C80155
:105300000E94B5274C01F1E0AF1AB10821F08F3FA0
:105310002FEF920789F3C7010E949F1308C08824CA
:105320008394912C04C09EEF892E99249A94C401F1
:1053300026960FB6F894DEBF0FBECDBFDF91CF919A
:105340001F910F91FF90EF90DF90CF90BF90AF90A3
:105350009F908F900895DC01FB0180818695869552
:105360008C9390819370818182958F7020E1929FC0
:10537000800D112411968C93119781818F70880F65
:10538000880F92819295969596959370890F1296B3
:105390008C93129782818F7313968C9308958F92BA
:1053A0009F92AF92BF92CF92DF92EF92FF920F93B4
:1053B0001F93CF93DF93CDB7DEB727970FB6F8943F
:1053C000DEBF0FBECDBF7C015A016B01A60EB71E1A
:1053D00000E010E020E030E04E0185E0880E911CF6
:1053E000CA14DB0439F1C9010196D6014D916D0152
:1053F000F401E20FF31F408383309105C9F4B40137
:10540000CE0101960E94AB29FE013196C701800FA3
:10541000911FA191B0E0A751BD4F2C91DC012D93BC
:10542000CD01E815F905A9F70C5F1F4F80E090E06A
:105430009C01D6CF69012115310509F443C0233001
:10544000310554F4E5E0F0E0EC0FFD1FE20FF31F2F
:1054500010822F5F3F4FF3CFBE016B5F7F4FFE0186
:1054600031965F01CF010E94AB29F501C701800F82
:10547000911FA191B0E0A751BD4F2C91DC012D935C
:10548000CD019F012A193B09C216D30694F70F5F7D
:105490001F4FC601D7FE02C080E090E0080F191F21
:1054A000F701E00FF11FCE18DF08C01AD10A2DE373
:1054B0008F010E191F09C6018E0F9F1F039714F449
:1054C0002193F6CFF701E00FF11F1082C801279654
:1054D0000FB6F894DEBF0FBECDBFDF91CF911F9105
:1054E0000F91FF90EF90DF90CF90BF90AF909F9083
:1054F0008F900895DB018F939F930E94E62ABF91BE
:10550000AF91A29F800D911DA39F900DB29F900D12
:105510001124089597FB072E16F4009407D077FD09
:1055200009D00E94F12A07FC05D03EF490958195A0
:105530009F4F0895709561957F4F0895A1E21A2EAF
:10554000AA1BBB1BFD010DC0AA1FBB1FEE1FFF1F27
:10555000A217B307E407F50720F0A21BB30BE40B77
:10556000F50B661F771F881F991F1A9469F76095BE
:105570007095809590959B01AC01BD01CF01089578
:10558000052E97FB1EF400940E94D72A57FD07D0E2
:105590000E949E2A07FC03D04EF40C94D72A509503
:1055A0004095309521953F4F4F4F5F4F089590950F
:1055B0008095709561957F4F8F4F9F4F0895692714
:1055C0009627692778278727782708950E940B2B2D
:1055D000A59F900DB49F900DA49F800D911D112447
:1055E0000895AA1BBB1B51E107C0AA1FBB1FA6172A
:1055F000B70710F0A61BB70B881F991F5A95A9F77C
:1056000080959095BC01CD010895EE0FFF1F059088
:10561000F491E02D0994A29FB001B39FC001A39F14
:10562000700D811D1124911DB29F700D811D1124DB
:10563000911D08955058BB27AA270ED075C166D179
:1056400030F06BD120F031F49F3F11F41EF45BC1B8
:105650000EF4E095E7FB51C1E92F77D180F3BA173B
:10566000620773078407950718F071F49EF58FC1E0
:105670000EF4E0950B2EBA2FA02D0B01B90190016D
:105680000C01CA01A0011124FF27591B99F0593FB1
:1056900050F4503E68F11A16F040A22F232F342FF9
:1056A0004427585FF3CF469537952795A795F04047
:1056B0005395C9F77EF41F16BA0B620B730B840B5C
:1056C000BAF09150A1F0FF0FBB1F661F771F881F14
:1056D000C2F70EC0BA0F621F731F841F48F487956C
:1056E00077956795B795F7959E3F08F0B3CF93955B
:1056F000880F08F09927EE0F979587950895D9D0D0
:1057000008F481E008950CD00FC107D140F0FED01D
:1057100030F021F45F3F19F0F0C0511139C1F3C0EE
:1057200014D198F39923C9F35523B1F3951B550B65
:10573000BB27AA2762177307840738F09F5F5F4F64
:10574000220F331F441FAA1FA9F333D00E2E3AF0A5
:10575000E0E830D091505040E695001CCAF729D0BF
:10576000FE2F27D0660F771F881FBB1F261737070E
:105770004807AB07B0E809F0BB0B802DBF01FF273E
:1057800093585F4F2AF09E3F510568F0B6C000C1A4
:105790005F3FECF3983EDCF3869577956795B79578
:1057A000F7959F5FC9F7880F911D9695879597F993
:1057B0000895E1E0660F771F881FBB1F621773070C
:1057C0008407BA0720F0621B730B840BBA0BEE1F21
:1057D00088F7E095089504D06894B111D9C0089570
:1057E000BCD088F09F5790F0B92F9927B751A0F0FF
:1057F000D1F0660F771F881F991F1AF0BA95C9F765
:1058000012C0B13081F0C3D0B1E00895C0C0672F9D
:10581000782F8827B85F39F0B93FCCF38695779514
:105820006795B395D9F73EF49095809570956195FD
:105830007F4F8F4F9F4F0895E89409C097FB3EF428
:1058400090958095709561957F4F8F4F9F4F9923CD
:10585000A9F0F92F96E9BB279395F695879577954B
:105860006795B795F111F8CFFAF4BB0F11F460FF0B
:105870001BC06F5F7F4F8F4F9F4F16C0882311F063
:1058800096E911C0772321F09EE8872F762F05C077
:10589000662371F096E8862F70E060E02AF09A9512
:1058A000660F771F881FDAF7880F9695879597F907
:1058B0000895990F0008550FAA0BE0E8FEEF1616A1
:1058C0001706E807F907C0F012161306E407F507F4
:1058D00098F0621B730B840B950B39F40A2661F068
:1058E000232B242B252B21F408950A2609F4A1400B
:1058F000A6958FEF811D811D089597F99F6780E818
:1059000070E060E008959FEF80EC089500240A9411
:105910001616170618060906089500240A9412168A
:105920001306140605060895092E0394000C11F4BD
:10593000882352F0BB0F40F4BF2B11F460FF04C06A
:105940006F5F7F4F8F4F9F4F089557FD9058440FC3
:10595000551F59F05F3F71F04795880F97FB991FCE
:1059600061F09F3F79F0879508951216130614068B
:10597000551FF2CF4695F1DF08C016161706180618
:10598000991FF1CF86957105610508940895E894F3
:10599000BB2766277727CB0197F908958ADF08F49C
:1059A0008FEF08950BD0C0CFB1DF28F0B6DF18F02D
:1059B000952309F0A2CFA7CF1124EACFC6DFA0F329
:1059C000959FD1F3950F50E0551F629FF001729F94
:1059D000BB27F00DB11D639FAA27F00DB11DAA1FB3
:1059E000649F6627B00DA11D661F829F2227B00D00
:1059F000A11D621F739FB00DA11D621F839FA00D8B
:105A0000611D221F749F3327A00D611D231F849FDA
:105A1000600D211D822F762F6A2F11249F57504031
:105A20008AF0E1F088234AF0EE0FFF1FBB1F661FCC
:105A3000771F881F91505040A9F79E3F510570F085
:105A40005CCFA6CF5F3FECF3983EDCF3869577956D
:105A50006795B795F795E7959F5FC1F7FE2B880F80
:105A6000911D9695879597F9089523DF880B990BDB
:105A70000895CF93DF938230910510F482E090E097
:105A8000E091E904F091EA0420E030E0A0E0B0E029
:105A9000309739F14081518148175907B8F04817BC
:105AA000590771F482819381109729F013969C9382
:105AB0008E9312972CC09093EA048093E90427C038
:105AC0002115310531F04217530718F0A901DB0108
:105AD00001C0EF019A01BD01DF010280F381E02DD9
