:100000000C94FD000C9425010C9425010C94250101
:100010000C9425010C9425010C9425010C942501C8
:100020000C9425010C9425010C9425010C942501B8
:100030000C9425010C9425010C9425010C942501A8
:100040000C94FD1E0C9425010C94C1050C94F30531
:100050000C9425010C9425010C9425010C94250188
:100060000C9425010C94250144656D6F2065786121
:100070006D706C65206F6E205753436C69656E74AC
:100080002075736167650053656E64696E6720440F
:10009000617461000048616E647368616B6520661D
:1000A00061696C65642E0048616E647368616B659C
:1000B000207375636365737366756C00436F6E6E52
:1000C000656374696F6E206661696C65642E0043B8
:1000D0006F6E6E656374656400636F6E6E656374E6
:1000E000696E672E2E005365632D576562536F63EB
:1000F0006B65742D56657273696F6E3A2031330DDE
:100100000A005365632D576562536F636B65742DE9
:100110004B65793A2000486F73743A2000436F6E44
:100120006E656374696F6E3A2055706772616465BD
:100130000D0A00557067726164653A2077656273D5
:100140006F636B65740D0A0020485454502F312E94
:10015000310D0A004745542000000000080002014C
:10016000000003040700000000000000000102047A
:100170000810204080010204081020010204081029
:100180002004040404040404040202020202020320
:10019000030303030300000000250028002B0000D8
:1001A000000000240027002A004E414E494E4954C9
:1001B00059494E46CDCCCC3D0AD7233C17B7D13850
:1001C00077CC2B329595E6241FB14F0A00002041D1
:1001D0000000C84200401C4620BCBE4CCA1B0E5A40
:1001E000AEC59D749F032306D106860F9610791223
:1001F0004F14F21E20212926E00311241FBECFEF49
:10020000D8E0DEBFCDBF13E0A0E0B1E0E6EBF3E65F
:1002100002C005900D92A830B107D9F724E0A8E0FC
:10022000B3E001C01D92A63CB207E1F711E0C8EFB0
:10023000D1E004C02297FE010E942F2AC43ED107BC
:10024000C9F70E946D040C94CE310C9400009C01FF
:10025000FC01E653FF4F80819181680F791F693C53
:10026000710530F4718360830296820F931F0895A5
:1002700080E090E0089584E293E00E947B098CE1A5
:1002800093E00E947B0986E193E00E947B0980E174
:1002900093E00E947B098AE393E00E947B0980E45B
:1002A00093E00E947B0986E493E00C947B096F92B3
:1002B0007F928F929F92AF92BF92CF92DF92EF92F6
:1002C000FF920F931F93CF93DF9300D000D000D005
:1002D000CDB7DEB78C013B015C0188E0A80EB11CF4
:1002E00063E171E0C5010E94E9097801EEE0EE0EDC
:1002F000F11C62E972E0C7010E94E9096801F4E1BA
:10030000CF0ED11C62E972E0C6010E94E90980E5C6
:1003100090E0F801938F828F4801FCE18F0E911CD1
:10032000B301C4010E94160AF80114A213A264E2E8
:1003300071E0CE0101960E94E909B401CE01019657
:100340000E947D0A6AE271E00E94900A6AE373E00B
:100350000E947D0A63E371E00E94900A66E473E004
:100360000E947D0A6DE371E00E94900A60E473E0F0
:100370000E947D0ABC01C7010E94FF09CE010196BF
:100380000E947B09B501CE0101960E94160AB701B1
:10039000CE0101960E947D0ABC01C6010E94FF09A0
:1003A000CE0101960E947B0926960FB6F894DEBF17
:1003B0000FBECDBFDF91CF911F910F91FF90EF90B6
:1003C000DF90CF90BF90AF909F908F907F906F9075
:1003D0000895CF93DF93EC0169ED70E082E593E03F
:1003E0000E94780788819981DC01ED91FC914A8D0A
:1003F0005B8D688579850684F785E02D0995892BC5
:10040000C1F088819981DC01ED91FC910488F58926
:10041000E02D09954AE050E0682F82E593E00E94C4
:1004200077086FEC70E082E593E0DF91CF910C9458
:1004300078076CEB70E082E593E00E94780760ED4E
:1004400077E080E090E00E94761FC6CFCF92DF92E7
:10045000EF92FF920F931F93CF93DF93CDB7DEB749
:10046000C25AD1400FB6F894DEBF0FBECDBF6C01AB
:100470007B018FEF91E09A838983C553DF4F198207
:100480001882CB5CD040CE0101960E94270C8C01D3
:100490006AE671E00E94930D68E471E00E94710CBD
:1004A00069E571E0C8010E94B80DD701ED90FC909C
:1004B0006EE571E00E94930DB7010E94710CFE0180
:1004C000EB56FE4F1382128288E492E09183808380
:1004D0007E01BDECEB0EF11CF582E48287EC90E02E
:1004E0009783868311861086D7011C92C156DE4FF2
:1004F000F983E883CF59D140CF55DE4F1982188256
:10050000C15AD140BE0161567E4FC8010E942E0DD6
:1005100064E970E082E593E00E94780767E870E0A4
:1005200082E593E00E947807B701C60102960E9417
:10053000C81ECE55DE4F0FB6F894DEBF0FBECDBF3E
:10054000DF91CF911F910F91FF90EF90DF90CF90AF
:1005500008956F927F928F929F92AF92BF92CF92A7
:10056000DF92EF92FF920F931F93CF93DF93CDB75C
:10057000DEB7C85DD1090FB6F894DEBF0FBECDBFA0
:100580008C014B013A0162E972E0CE018D529F4F1E
:100590000E94E909C80102960E94D21CBC01CE014A
:1005A0008D529F4F0E941F0AC952DF4F8881998147
:1005B000C75DD040892B09F45AC0BE016D527F4FF0
:1005C00082E593E00E948A078FEF91E09A83898306
:1005D000C553DF4F19821882CB5CD04060E070E0D9
:1005E000CE018D529F4F0E94D70A4AE0BC01CE0136
:1005F00001960E946E0F8C016EE571E00E94930DD2
:100600000E945A0C5C016AE671E0C8010E94930DD9
:100610000E945A0C6C0169E571E0C8010E94930DBB
:100620000E945A0C7C0160E070E0C4010E94D70A6D
:10063000B5010E947C31892B19F560E070E0C3019F
:100640000E94D70AB6010E947C31892BC9F48E0121
:1006500003531F4FF801B182A082D382C282F58278
:10066000E482B70182E593E00E949C0702C000E0AB
:1006700010E0CE018D529F4F0E947B09C80105C03A
:10068000CE018D529F4F0E947B09C852DF4F0FB69B
:10069000F894DEBF0FBECDBFDF91CF911F910F91B8
:1006A000FF90EF90DF90CF90BF90AF909F908F9092
:1006B0007F906F9008950F931F93CF93DF93CDB7E3
:1006C000DEB72C970FB6F894DEBF0FBECDBF66E63F
:1006D00071E0CE0101960E94E90960E771E0CE0168
:1006E00007960E94E909AE014F5F5F4FBE01695F47
:1006F0007F4F88E093E00E94A9028C01CE0107960B
:100700000E947B09CE0101960E947B09012B31F0EA
:1007100068E771E082E593E00E949C0760ED77E076
:1007200080E090E00E94761F2C960FB6F894DEBF12
:100730000FBECDBFDF91CF911F910F9108950F9301
:10074000CF93DF9300D000D000D0CDB7DEB700E06C
:1007500020E040E060E08CE493E00E94AA0667E8B5
:1007600071E086E493E00E94E9096DE871E080E4BD
:1007700093E00E94E9096FE871E08AE393E00E9448
:10078000E9098DE293E00E949D1161EA71E0CE01DA
:1007900001960E94E909BE016F5F7F4F88E093E0F8
:1007A0000E945701CE0101960E947B0926960FB642
:1007B000F894DEBF0FBECDBFDF91CF910F910895AA
:1007C0000C943B010F931F93CF93DF93EC018B01AC
:1007D000798368830E94E90168EE73E080E090E02D
:1007E0000E94761F60E070E0CE010E960E94D70A4C
:1007F0009B838A8360E070E0CE0108960E94D70A4E
:100800009D838C8382E593E00E94D804B801CE01D9
:1008100002960E948E1C882351F067EA70E082E500
:1008200093E0DF91CF911F910F910C94780765E9C8
:1008300070E082E593E00E947807FFCFCF93DF93CB
:1008400000D000D000D0CDB7DEB726E040E855E2BA
:1008500060E070E082E593E00E945F0568E670E08A
:1008600082E593E00E9478076AE071E086E694E012
:100870000E94D30F66E674E0CE0101960E946E10CE
:10088000BE016F5F7F4F82E593E00E94AE0768EE86
:1008900073E080E090E00E94761F6DE273E088E0F4
:1008A00093E00E94E20360E771E0CE0101960E94AE
:1008B000E909BE016F5F7F4F88E093E00E94260246
:1008C000CE0101960E947B0926960FB6F894DEBFF2
:1008D0000FBECDBFDF91CF9108950E949E1F0E9451
:1008E0001E04C9EAD4E00E945B032097E1F30E9452
:1008F000A904F9CFFC01818D228D90E0805C9F4F8F
:10090000821B910960E470E00E94B2290895FC0105
:10091000918D828D981731F0828DE80FF11D858DB4
:1009200090E008958FEF9FEF0895FC01918D828DE7
:10093000981761F0828DDF01A80FB11D5D968C9133
:10094000928D9F5F9F73928F90E008958FEF9FEF3E
:10095000089589E196E0892B49F080E090E0892BA9
:1009600029F00E94190681110C9400000895FC01E1
:10097000848DDF01A80FB11DA35ABF4F2C91848D28
:1009800090E001968F739927848FA689B7892C935D
:10099000A089B1898C9180648C93938D848D9813F8
:1009A00006C00288F389E02D80818F7D80830895C1
:1009B000CF93DF93EC01888D8823C9F0EA89FB8906
:1009C000808185FD05C0A889B9898C9186FD0FC0FD
:1009D0000FB607FCF5CF808185FFF2CFA889B989D2
:1009E0008C9185FFEDCFCE010E94B704E7CFDF9158
:1009F000CF910895CF92DF92FF920F931F93CF93E1
:100A0000DF931F92CDB7DEB76C01DC015B969C9142
:100A10005B975C968C915C97981307C05096ED910C
:100A2000FC915197808185FD32C0F601038D10E065
:100A30000F5F1F4F0F731127F02EF601848DF812F0
:100A400011C00FB607FCF9CFD6015096ED91FC917D
:100A50005197808185FFF1CFC60169830E94B70459
:100A60006981EBCF838DE80FF11DE35AFF4F60835F
:100A7000D6015B960C935B975296ED91FC91539740
:100A800080818062808381E058968C930DC0D6016E
:100A90005696ED91FC91579760835096ED91FC919D
:100AA000519780818064808381E090E00F90DF9196
:100AB000CF911F910F91FF90DF90CF900895BF923B
:100AC000CF92DF92EF92FF92CF93DF93EC016A0116
:100AD0007B01B22EE889F98982E08083411581EE9D
:100AE000580761057105A1F060E079E08DE390E0C1
:100AF000A70196010E94C6292150310941095109D7
:100B00005695479537952795211580E1380798F038
:100B1000E889F989108260E874E88EE190E0A70125
:100B200096010E94C6292150310941095109569563
:100B3000479537952795EC85FD853083EE85FF85B4
:100B40002083188EEC89FD89B082EA89FB89808137
:100B500080618083EA89FB89808188608083EA895B
:100B6000FB89808180688083EA89FB8980818F7D11
:100B70008083DF91CF91FF90EF90DF90CF90BF9077
:100B800008951F920F920FB60F9211242F938F93F7
:100B90009F93EF93FF93E0916203F0916303808151
:100BA000E0916803F091690382FD12C09081809109
:100BB0006B038F5F8F7320916C03821751F0E0916C
:100BC0006B03F0E0EE5AFC4F958F80936B0301C0EE
:100BD0008081FF91EF919F918F912F910F900FBE88
:100BE0000F901F9018951F920F920FB60F9211241D
:100BF0002F933F934F935F936F937F938F939F9325
:100C0000AF93BF93EF93FF9382E593E00E94B70405
:100C1000FF91EF91BF91AF919F918F917F916F91D4
:100C20005F914F913F912F910F900FBE0F901F90AA
:100C3000189582E593E00E947A0421E0892B09F45B
:100C400020E0822F0895109255031092540388EEED
:100C500093E0A0E0B0E08093560390935703A093F5
:100C60005803B093590385E092E090935303809327
:100C7000520385EC90E090935F0380935E0384ECD5
:100C800090E0909361038093600380EC90E09093F8
:100C900063038093620381EC90E0909365038093FB
:100CA000640382EC90E0909367038093660386EC84
:100CB00090E0909369038093680310926B03109205
:100CC0006C0310926D0310926E030895AF92BF9261
:100CD000CF92DF92EF92FF920F931F93CF93DF9308
:100CE0006C017B01C0E0D0E000E010E0F601EC0F09
:100CF000FD1F4AE050E06281C7010E9470085C015C
:100D00006EE2C7010E9453078A0D9B1D080F191F31
:100D10002196C330D10551F74AE050E0F6016581D4
:100D2000C7010E947008800F911FDF91CF911F9122
:100D30000F91FF90EF90DF90CF90BF90AF9008950C
:100D400025E132E0FC013183208312821382148278
:100D5000158208950F93FC0185E192E091838083D1
:100D600062834383248305830F91089525E132E054
:100D7000FC0131832083FB014081518162817381B9
:100D8000FC0142835383648375830895FB01408192
:100D9000518162817381FC01428353836483758333
:100DA000089585E192E09093F0038093EF03109211
:100DB000F1031092F2031092F3031092F4030895DA
:100DC000CF92DF92EF92FF920F931F93CF93DF9317
:100DD0006C017A01EB01E60EF71E00E010E0CE1583
:100DE000DF0561F06991D601ED91FC910190F081F0
:100DF000E02DC6010995080F191FF1CFC801DF9139
:100E0000CF911F910F91FF90EF90DF90CF900895B9
:100E10006115710581F0DB010D900020E9F7AD014E
:100E200041505109461B570BDC01ED91FC910280AA
:100E3000F381E02D099480E090E00895EF92FF9215
:100E40000F931F93CF93DF938C01FB01C0E0D0E0A1
:100E500064917F018FEFE81AF80A662361F0D801E8
:100E6000ED91FC910190F081E02DC8010995C80F2A
:100E7000D91FF701EDCFCE01DF91CF911F910F91D7
:100E8000FF90EF900895DC01ED91FC91DB01149649
:100E90004D915C9115976D917C910280F381E02DCD
:100EA00009940C940807DC01ED91FC910190F0810C
:100EB000E02D0994DB01ED91FC9111970190F081F7
:100EC000E02DBC01CD0109940F931F93CF93DF93C5
:100ED000EC016DE00E9453078C016AE0CE010E9494
:100EE0005307800F911FDF91CF911F910F910895AC
:100EF0000F931F93CF93DF93EC010E941E078C0189
:100F0000CE010E946407800F911FDF91CF911F9146
:100F10000F9108950F931F93CF93DF93EC010E94DD
:100F200043078C01CE010E946407800F911FDF915F
:100F3000CF911F910F9108950F931F93CF93DF933C
:100F4000EC010E9408078C01CE010E946407800F0B
:100F5000911FDF91CF911F910F9108950F931F93D0
:100F6000CF93DF93EC010E945A078C01CE010E94BF
:100F70006407800F911FDF91CF911F910F9108950A
:100F80008F929F92AF92BF92CF92DF92EF92FF9299
:100F90000F931F93CF93DF93CDB7DEB7A1970FB613
:100FA000F894DEBF0FBECDBF7C01C42EE52FCB0170
:100FB000D22E19A221E02D1510F02AE0D22E8E019A
:100FC0000F5D1F4F8D2C912CA12CB12C6C2D7E2FE1
:100FD000A50194010E94C6298C2DD29E801911244E
:100FE000015011098A3014F4805D01C0895CF80158
:100FF0008083211531054105510521F0C22EE32FD3
:10100000CA01E4CFB801C7010E940807A1960FB634
:10101000F894DEBF0FBECDBFDF91CF911F910F912E
:10102000FF90EF90DF90CF90BF90AF909F908F9008
:101030000895CF92DF92EF92FF920F931F93CF9379
:10104000DF93EC016A017B012115310579F4E88118
:10105000F9810190F081E02D642FDF91CF911F91F4
:101060000F91FF90EF90DF90CF9009942A303105D7
:10107000E9F477FF1AC06DE20E9453078C01442700
:101080005527BA014C195D096E097F092AE0CE0186
:101090000E94C007800F911FDF91CF911F910F9188
:1010A000FF90EF90DF90CF9008952AE0B701A6015E
:1010B000CE01DF91CF911F910F91FF90EF90DF90C4
:1010C000CF900C94C0072115310541F4DC01ED915E
:1010D000FC910190F081E02D642F09940C94C007DD
:1010E0009A01462F50E060E070E00C9463080F9383
:1010F0001F93CF93DF93EC019A01462F50E060E0FD
:1011000070E00E9463088C01CE010E946407800F8A
:10111000911FDF91CF911F910F9108954F925F9290
:101120006F927F928F929F92AF92BF92CF92DF92F7
:10113000EF92FF920F931F93CF93DF93EC016A011D
:101140007B01B22E9A01AB01C701B6010E945D2C52
:10115000882319F067E172E027C026013701E8947F
:1011600077F82FEF3FEF4FE75FE7C301B2010E942F
:101170005D2C81110DC02FEF3FEF4FE75FE7C301FB
:10118000B2010E94A72A18161CF46BE172E00CC091
:101190002FEF3FEF4FE75FE4C701B6010E94F62B48
:1011A0001816ACF46FE172E0CE01DF91CF911F9180
:1011B0000F91FF90EF90DF90CF90BF90AF909F90F6
:1011C0008F907F906F905F904F900C9408072FEF57
:1011D0003FEF4FE75FECC701B6010E94A72A87FDEA
:1011E000E1CF20E030E0A901C701B6010E94A72AA3
:1011F00087FF0AC06DE2CE010E9453078C01F7FA07
:10120000F094F7F8F09402C000E010E0A12C60E048
:1012100070E080E09FE3AB1441F020E030E040E27A
:1012200051E40E94AB2AA394F6CF9B01AC01C70105
:10123000B6010E94432A6B017C010E94182B2B01EE
:101240003C010E94442B9B01AC01C701B6010E94E6
:10125000422A6B017C012AE0B301A201CE010E9467
:10126000C007080F191FBB2039F063E272E0CE01FE
:101270000E940807080F191F7B2C772041F120E0FE
:1012800030E040E251E4C701B6010E94FA2B6B0145
:101290007C010E94132B4B01AA2497FCA094BA2C2A
:1012A0002AE030E0B501A401CE010E941908080F20
:1012B000191FC501B4010E94462B9B01AC01C70157
:1012C000B6010E94422A6B017C017A94D6CFC801F4
:1012D000DF91CF911F910F91FF90EF90DF90CF9012
:1012E000BF90AF909F908F907F906F905F904F9046
:1012F00008950C948E08FC01808191810C94F92C46
:10130000CF93DF93EC0188819981009711F00E94BF
:10131000F92C198218821D821C821B821A82DF918D
:10132000CF9108950F931F93CF93DF93EC018B011F
:101330006F5F7F4F888199810E94E52D009731F082
:10134000998388831B830A8381E001C080E0DF9159
:10135000CF911F910F910895CF93DF93EC01888176
:101360009981892B29F08A819B818617970760F4E0
:10137000CE010E949209882341F08C819D81892BA6
:1013800019F4E881F981108281E0DF91CF9108950D
:10139000EF92FF920F931F93CF93DF93EC017B01AA
:1013A0008A01BA010E94AC09811104C0CE010E94D9
:1013B000800907C01D830C83B701888199810E9431
:1013C0008531CE01DF91CF911F910F91FF90EF906A
:1013D0000895FC01118210821382128215821482F8
:1013E0006115710559F0FB0101900020E9F7AF018B
:1013F00041505109461B570B0C94C8090895CF93CF
:10140000DF93EC01FB018617970761F06081718122
:101410006115710529F0448155810E94C80902C0F7
:101420000E948009CE01DF91CF910895FC011182C5
:10143000108213821282158214820C94FF09CF93BA
:10144000DF93EC016115710561F0FB010190002053
:10145000E9F7AF0141505109461B570B0E94C809DB
:1014600002C00E948009CE01DF91CF910895EF92D2
:10147000FF920F931F93CF93DF93EC017B010C81BD
:101480001D816115710511F480E016C041155105EB
:1014900091F0040F151FB8010E94AC098823A1F335
:1014A000288139818C819D81B701820F931F0E9411
:1014B00085311D830C8381E0DF91CF911F910F91C6
:1014C000FF90EF900895FB01448155816081718107
:1014D0000C94370ACF93DF9300D0CDB7DEB7698382
:1014E0001A8241E050E0BE016F5F7F4F0E94370AD1
:1014F0000F900F90DF91CF910895CF93DF93EC0180
:10150000FB0144815581608171810E94370A8111FC
:1015100003C0CE010E948009CE01DF91CF910895D2
:10152000CF93DF93EC016115710569F0FB01019028
:101530000020E9F7AF0141505109461B570B0E94AB
:10154000370A811103C0CE010E948009CE01DF91CC
:10155000CF910895CF93DF93EC010E946A0A811125
:1015600003C0CE010E948009CE01DF91CF91089582
:10157000FC0124813581232B31F421E061157105B3
:10158000A1F0FB0108C0FC0180819181611571050A
:1015900031F421E0FC018081882339F005C00E94EC
:1015A0007C3121E0892B09F020E0822F0895FC0195
:1015B000848195816817790720F480819181009753
:1015C00029F41092F50385EF93E00895860F971F95
:1015D0000895FC01808591852681378182179307C4
:1015E000A4F4A481B5819C012F5F3F4F31872087F0
:1015F000A80FB91F6C93A481B58180859185A80F30
:10160000B91F1C9281E090E0089580E090E0089579
:10161000CF93DF93EC0188819981DC01ED91FC91FE
:101620000190F081E02D09952A813B81280F391F17
:101630003B832A83DF91CF910895DB01ED91FC91EB
:1016400011970190F081E02DBC01CD0109940F9319
:101650001F93CF93DF938C01F801C281D3818881DE
:10166000992787FD90950E944631892B29F0219674
:10167000F801D383C283F0CFDF91CF911F910F91F7
:1016800008950F931F93CF93DF931F92CDB7DEB7CB
:101690008C0169830E94270BD8011296ED91FC9171
:1016A00013978081698186130AC031961396FC9343
:1016B000EE931297C8010E94270B81E001C080E0E1
:1016C0000F90DF91CF911F910F910895FB01219110
:1016D000BF01222379F0DC011296ED91FC91139762
:1016E0003081321307C03196DC011396FC93EE93E0
:1016F0001297ECCF81E0211180E00895BF92CF9244
:10170000DF92EF92FF920F931F93CF93DF937C01B1
:10171000EB01009771F465E272E0CE01DF91CF91A9
:101720001F910F91FF90EF90DF90CF90BF900C949E
:101730005107E881F9810190F081E02D62E2CE014C
:1017400009958C01F70161917F01662351F0E5E372
:10175000F2E0B080BB2079F191819617B1F032961A
:10176000F8CFE881F9810190F081E02D62E2CE01AD
:101770000995800F911FDF91CF911F910F91FF90DD
:10178000EF90DF90CF90BF900895E881F9810190AC
:10179000F081E02D6CE5CE0109956C01E881F981BD
:1017A0000190F081E02D6B2DCE0109958C0D9D1DD2
:1017B000080F191FC7CFE881F9810190F081E02D52
:1017C000CE010995F5CFCF93FC015081523229F01B
:1017D000573219F080E090E023C09C012F5F3F4F0B
:1017E000D901F901CF0101964081442399F34517AE
:1017F00091F04C3569F401964181E9E3F2E0C08152
:10180000CC2331F0C41302C0418102C03296F7CF1D
:101810004D93FC01E7CF1C92FB0191838083C901AA
:10182000CF910895CF93DF93EC01BC0184E090E069
:101830000E941D0BFC01009729F0D183C083138205
:10184000128202C080E094E0DF91CF910895CF939F
:10185000DF93EC01BC0184E090E00E941D0BFC01D1
:10186000009729F0D183C0831382128202C08CEFCB
:1018700093E0DF91CF9108950F931F93CF93DF9360
:101880008B01FC01C281D381209759F0B8018A8174
:101890009B810E947C31892B39F00990D881C02D21
:1018A000F3CF80E090E001C0CE01DF91CF911F9196
:1018B0000F910895FC01208131812530310519F403
:1018C00082819381089580E090E00895FC018081F9
:1018D0009181892B29F084E090E091838083628359
:1018E0000895FC0180819181892B31F085E090E0A1
:1018F00091838083738362830895FC018081918149
:10190000892B49F030E0295F3F4F318320834283A8
:101910005383648375830895FC0180819181892BB1
:1019200041F086E090E09183808342835383648317
:1019300075830895FC0180819181892B31F082E0CB
:1019400090E091838083738362830895FC0180819A
:101950009181892B31F083E090E0918380837383C0
:1019600062830895CF93DF93FC01EB0120813181E5
:101970002230310531F482819381DF91CF910C9433
:10198000080D2330310531F482819381DF91CF91AD
:101990000C942E0D2530310539F4688179818281CE
:1019A00093810E947E0B2BC02630310559F4428171
:1019B0005381648175812AE030E0888199810E9499
:1019C00019081DC02430310569F48281882319F07B
:1019D0006AE272E002C06FE272E0888199810E943F
:1019E00051070DC02730310584F0275030E0428187
:1019F000538164817581888199810E9479092A8146
:101A00003B81280F391F3B832A83DF91CF910895B3
:101A10000F931F93CF93DF93EC018B016BE5C8010C
:101A20000E94080B0A80DB81C02D209779F0B80155
:101A3000CE0102960E94B20C0990D881C02D209749
:101A400029F06CE2C8010E94080BF1CF6DE5C801D6
:101A5000DF91CF911F910F910C94080B0F931F935F
:101A6000CF93DF938C01EB016BE7CE010E94080B53
:101A7000F801028113810115110509F1688179814D
:101A8000F801828193810E947E0B2A813B81280F7D
:101A9000391F3B832A836AE3CE010E94080BBE01F3
:101AA000C80104960E94B20CF80100811181011551
:101AB000110529F06CE2CE010E94080BDFCF6DE723
:101AC000CE01DF91CF911F910F910C94080BFC0177
:101AD000608171816115710579F08AE090E00E9462
:101AE0001D0BFC01009741F01182108281E090E013
:101AF00095838483CF01089580E090E00895DC0110
:101B00001296ED91FC911397309749F08081918165
:101B1000009711F0FC01FACF718360830895FC01F6
:101B2000738362830895EF92FF920F931F93CF9375
:101B3000DF938C017B010E943C0CEC01009761F467
:101B4000C8010E94670DEC01009749F0FB82EA8210
:101B5000BC01C8010E947F0DCE01049602C086EF31
:101B600093E0DF91CF911F910F91FF90EF90089537
:101B7000EF92FF920F931F93CF93DF93EC018B01B2
:101B800088819981009761F00E94270C7C01B8013F
:101B9000CE010E94930DB7010E94A60CC70102C09E
:101BA0008CEF93E0DF91CF911F910F91FF90EF9019
:101BB0000895FC01608171816115710579F088E0FB
:101BC00090E00E941D0BFC01009741F011821082F1
:101BD00081E090E093838283CF01089580E090E0DC
:101BE0000895DC011296ED91FC911397309749F01E
:101BF00080819181009711F0FC01FACF718360839D
:101C00000895FC017383628308950F931F93CF930C
:101C1000DF938C010E94D90DEC01009739F0BC01D3
:101C2000C8010E94F10DCE01029602C086EF93E03A
:101C3000DF91CF911F910F910895EF92FF920F9333
:101C40001F93CF93DF93EC01888199810E94120C3E
:101C50007C016BE5CE010E94410B811103C080E045
:101C600094E022C06DE5CE010E94410B81111BC0A2
:101C7000C7010E94050E8C01BC01CE010E945B0EC3
:101C8000F801208131812230310548F36DE5CE0124
:101C90000E94410B811107C06CE2CE010E94410BF2
:101CA0008111E6CFDCCFC701DF91CF911F910F915A
:101CB000FF90EF900895EF92FF920F931F93CF93B1
:101CC000DF9300D0CDB7DEB78C017B01DC01149629
:101CD0008C911497882309F4A3C0815014968C9397
:101CE000C8010E94270BF80182819381DC012C91AD
:101CF0002A337CF420330CF03FC0273209F461C052
:101D000024F4223209F45DC065C02D522230A0F1C6
:101D100061C02E3609F442C02CF42B3581F02636F2
:101D2000B1F058C0243799F02B3709F053C0C801DF
:101D30000E94190FBC01C7010E94A60C4BC0C8012C
:101D40000E941D0EBC01C7010E949A0C43C06AE2AA
:101D500072E0C8010E94660B882311F061E008C0A0
:101D60006FE272E0C8010E94660B882309F160E00F
:101D7000C7010E94660C2EC04AE050E0BE016F5FB2
:101D80007F4F0E941230AB01BC01E981FA81808152
:101D90008E3229F18F7D8534D1F521C065E272E064
:101DA000C8010E94660B882319F060E070E00FC044
:101DB00086E0E6EFF3E0D70101900D928A95E1F716
:101DC00009C0B8016E5F7F4F0E94E30BBC01C701E1
:101DD0000E94710CF80184818F5F848321C0B80157
:101DE0006E5F7F4FD80112968D919C9113970E9440
:101DF000AF2EAB01BC01F8012281338189819A8128
:101E0000281B390B2150C7010E947D0CE3CFD8015C
:101E10001396FC93EE931297C7010E948C0CDACFB5
:101E20000F900F90DF91CF911F910F91FF90EF9046
:101E30000895CF92DF92EF92FF920F931F93CF936B
:101E4000DF93EC01888199810E94270C6C016BE77C
:101E5000CE010E94410B811103C08CEF93E035C08D
:101E60006DE7CE010E94410B81112EC07E0182E000
:101E7000E80EF11CB7018A819B810E94E30B8C0163
:101E8000009759F36AE3CE010E94410B882329F39E
:101E9000B801C6010E94930D8C01BC01CE010E94C5
:101EA0005B0EF8012081318122303105B0F26DE7FF
:101EB000CE010E94410B811107C06CE2CE010E944D
:101EC000410B8111D7CFC9CFC601DF91CF911F91AF
:101ED0000F91FF90EF90DF90CF900895CF93DF9315
:101EE00000D000D01F92CDB7DEB79A8389837C8360
:101EF0006B834D83CE0101960E94190F0F900F90B6
:101F00000F900F900F90DF91CF91089510920104E0
:101F10001092000410920304109202041092FD0328
:101F20001092FC031092FF031092FE031092F7032D
:101F30001092F60308952091A404222381F0213009
:101F400051F42DB32093A2043DB32091A304209516
:101F500023232DBB04C02FB72093A204F8948CBD7B
:101F60009DBD08959091A404992339F08091A20415
:101F7000913011F48DBB08958FBF089544E050E077
:101F8000BC0181E090E00C94B81844E050E0BC0142
:101F900085E090E00C94B81844E050E0BC018FE07C
:101FA00090E00C94B818AF92BF92CF92DF92EF926C
:101FB000FF920F931F93CF93DF9300D000D000D0F8
:101FC000CDB7DEB76C015B0180916E04811107C053
:101FD0008BE494E00E94DC1381E080936E0484E043
:101FE00094E0F6019783868382E994E00E94581872
:101FF00080E590E00E949B0F46E050E0B50189E04B
:1020000090E00E94B81800E020E040E060E0CE01DF
:1020100001960E94AA06CE0103960E94CC0F0E9450
:10202000B20F10EAE12E1FE0F12E00E010E020E6F2
:102030003AEE40E050E0B501F601868197810E94BA
:1020400096255C0181309105B9F580E590E00E940C
:102050009B0FF60166817781CE0101960E94DE20FA
:10206000CE0103960E94CC0FF60166817781CE01E6
:1020700001960E94F420CE0103960E94BE0FF60145
:1020800066817781CE0101960E94E920CE010396F8
:102090000E94C50F0E94B20FF60166817781CE01C2
:1020A00001960E94FF204B815C816D817E81F6014B
:1020B0004283538364837583C50126960FB6F894D3
:1020C000DEBF0FBECDBFDF91CF911F910F91FF906B
:1020D000EF90DF90CF90BF90AF900895CF93DF93B4
:1020E000EC010E94A00680E590E00E949B0FBE01DB
:1020F0006E5F7F4F44E050E08FE090E00E94E9196E
:102100000E94B20FCE01DF91CF91089525E132E018
:10211000FC0131832083FB014281538164817581FD
:10212000FC01428353836483758308950F9300E019
:1021300020E040E060E08EE794E00E94AA0686E698
:1021400094E00F910C94A006DC01ED91FC91008CC1
:10215000F18DE02D099591E089270895CF93DF93C4
:102160001F92CDB7DEB76983DC01ED91FC9102804F
:10217000F381E02D41E050E0BE016F5F7F4F099594
:102180000F90DF91CF91089521E0FC018485843088
:1021900009F420E0822F0895FC019485FB018485D9
:1021A000981303C081E0943009F480E008950F9300
:1021B0001F93CF93DF93EC018A018C85843021F04B
:1021C0000E94FA15892B39F481E090E09B838A8381
:1021D00080E090E001C0C801DF91CF911F910F9185
:1021E0000895FC018485843011F00C94F11680E090
:1021F00090E00895CF93DF931F92CDB7DEB741E013
:1022000050E0BE016F5F7F4FFC0184850E949116F4
:10221000181619061CF4898190E002C08FEF9FEF19
:102220000F90DF91CF910895FC0184850C94911655
:102230000F931F93CF93DF931F92CDB7DEB78C011F
:10224000DC01ED91FC910480F581E02D0995892B4D
:1022500051F0BE016F5F7F4FF80184850E941C170B
:10226000898190E002C08FEF9FEF0F90DF91CF91B7
:102270001F910F910895FC0184850C944B17CF9208
:10228000DF92EF92FF920F931F93CF93DF93CDB71F
:10229000DEB7AF970FB6F894DEBF0FBECDBF7C019F
:1022A0008B016A01CE0101960E94A006CE0109961B
:1022B0000E94DC13CE018A960E94A00666E674E0B6
:1022C000CE0184960E948610BE016C5D7F4FCE01C8
:1022D00001960E94DB25AE01465D5F4FB801CE013D
:1022E00001960E94402881309105C1F4D701ED91FB
:1022F000FC910484F585E02D85E192E09DA38CA3FB
:102300000CA51DA52EA53FA50EA31FA328A739A781
:10231000A601BE016C5D7F4FC7010995AF960FB650
:10232000F894DEBF0FBECDBFDF91CF911F910F910B
:10233000FF90EF90DF90CF900895FC0113821282FE
:1023400048EE53E060E070E0448355836683778312
:1023500080E592E09183808384E084870895FC0186
:102360008485843011F00C94D61480E00895DF92B7
:10237000EF92FF920F931F93CF93DF93EC017B01BA
:102380008A018C85843009F045C0D12C8D2D0E94A6
:10239000D614811102C0DC8607C08B7F8831D9F347
:1023A000D39484E0D812F2CF8C85843099F12091B7
:1023B0001001309111012F5F3F4F11F420E034E004
:1023C000309311012093100140911001509111019F
:1023D00020E061E00E942815B7016E5F7F4FA801E1
:1023E0008C850E947C15811103C084E08C8712C00B
:1023F000CE010E94AF11873151F061E070E080E0C2
:1024000090E00E94761FCE010E94AF11ECCF81E0D8
:1024100090E002C080E090E0DF91CF911F910F919A
:10242000FF90EF90DF900895CF92DF92EF92FF92AE
:10243000CF93DF93EC018C85843081F10E94D41519
:102440000E94471F6B017C01CE010E94AF118823BF
:1024500059F00E94471F6C197D098E099F09683E3B
:1024600073408105910598F0CE010E94AF11882339
:1024700019F08C850E94FE14EC85F0E0EE0FFF1F32
:10248000EA58FB4F1182108284E08C8707C061E01C
:1024900070E080E090E00E94761FD6CFDF91CF9170
:1024A000FF90EF90DF90CF900895CF93DF93EC01F2
:1024B0008C858430D1F0CE010E94AF118431A9F017
:1024C000882399F0883189F08C3169F4E881F981A9
:1024D0000480F581E02DCE01099521E0892B09F4D6
:1024E00020E0822F03C081E001C080E0DF91CF9126
:1024F00008950F9300E020E040E060E084E894E07D
:102500000E94AA060F910895DC01ED91FC91008CC8
:10251000F18DE02D099425E132E0FC013183208327
:10252000FB014189528963897489FC014283538389
:10253000648375830895FC01858996890895FC015B
:10254000818D928D0895CF93DF931F92CDB7DEB723
:102550006983DC01ED91FC910280F381E02D41E083
:1025600050E0BE016F5F7F4F09950F90DF91CF91D3
:102570000895CF93DF93EC01898D9A8D892B41F0DB
:10258000E881F9810680F781E02DCE010995F4CF2D
:10259000DF91CF910895CF93DF93EC018C85843048
:1025A00061F00E94FE14EC85F0E0EE0FFF1FEA5888
:1025B000FB4F1182108284E08C87DF91CF910895C8
:1025C000FC01108E178A6E5F7F4F84850C949317E1
:1025D000FC0184850C94D917CF93DF93EC019A0109
:1025E0008F89988DAB01BC018C850E944C172F8977
:1025F000388D280F391F388F2F8BDF91CF91089599
:102600000F931F93CF93DF931F92CDB7DEB78C014B
:10261000FC01818D928D892B59F041E050E0BE0183
:102620006F5F7F4F84850E949116181619061CF063
:102630008FEF9FEF08C0F801818D928D0197928FE7
:10264000818F898190E00F90DF91CF911F910F9141
:102650000895CF93DF93EC01898D9A8D009719F43B
:102660008FEF9FEF10C04817590708F0AC018C8519
:102670000E949116181619069CF7298D3A8D281B71
:10268000390B3A8F298FDF91CF910895CF93DF9344
:102690001F92CDB7DEB7FC01218D328D232B49F07F
:1026A000BE016F5F7F4F84850E941C17898190E077
:1026B00002C08FEF9FEF0F90DF91CF910895FF92AF
:1026C0000F931F93CF93DF93EC018B018C858430A4
:1026D000E1F4F12C8F2D0E94D614811102C0FC86EA
:1026E00006C08831E1F3F39484E0F812F3CF8C85CF
:1026F000843059F01E870D871A8E198E20E0A801AC
:1027000062E00E94281581E001C080E0DF91CF9156
:102710001F910F91FF9008950F931F93CF93DF9315
:10272000CDB7DEB728970FB6F894DEBF0FBECDBF8A
:102730008C01DC01ED91FC910284F385E02D09957B
:10274000F80184850E94F1161816190644F548E030
:1027500050E0BE016F5F7F4FD8011C968C910E94A4
:10276000911618161906ECF4BE016F5F7F4FC80171
:102770000F960E94C6068D8190E0982F88272E81A3
:10278000820F911DF801968B858B8F8190E0982F99
:1027900088272885820F911D928F818F02C080E04B
:1027A00090E028960FB6F894DEBF0FBECDBFDF9144
:1027B000CF911F910F910895FC011382128248EE70
:1027C00053E060E070E0448355836683778380E75D
:1027D00092E09183808384E08487CF010F960C94EC
:1027E000A006CF92DF92EF92FF920F931F93CF93A9
:1027F000DF93CDB7DEB7AF970FB6F894DEBF0FBE4D
:10280000CDBF7C018B016A01CE0101960E94A0061A
:10281000CE0109960E94DC13CE018A960E94A00682
:1028200066E674E0CE0184960E948610BE016C5D5F
:102830007F4FCE0101960E94DB25AE01465D5F4FC2
:10284000B801CE0101960E94402881309105C1F463
:10285000D701ED91FC910088F189E02D85E192E0AE
:102860009DA38CA30CA51DA52EA53FA50EA31FA35C
:1028700028A739A7A601BE016C5D7F4FC701099546
:10288000AF960FB6F894DEBF0FBECDBFDF91CF91EC
:102890001F910F91FF90EF90DF90CF9008950F93CD
:1028A00000E020E040E060E08AE894E00E94AA06B0
:1028B0000F910895CF92DF92EF92FF920F9330E045
:1028C000C12CF2E1DF2EFAE7EF2EF12C4C155D055D
:1028D0006E057F0540F4F694E794D794C7943F5F64
:1028E0003630A1F737E041E04327211102C050E71D
:1028F00001C050E5242F30E03595279523700C70EA
:10290000202B252BFC012083417041830F91FF90E8
:10291000EF90DF90CF90089590E0982F882744E0C3
:1029200050E0845F9B4F0C94B818282F30E02C5F48
:102930003F4F922F8827860F971F0C94E71862E06D
:1029400070E00C949514FB01282F30E02C5F3F4F72
:10295000922F8827642F8E0F9F1F0C943618CF93C9
:10296000DF93C82FD62F472F64E070E00E94A31496
:102970004D2F65E070E08C2FDF91CF910C94A31464
:10298000462F62E070E00C94A314CF93DF93C82F1E
:10299000D62F472F60E170E00E94A3144D2F61E114
:1029A00070E08C2FDF91CF910C94A3140F931F93A1
:1029B000CF93DF9300D01F92CDB7DEB7182F00E082
:1029C00021E040E059E06DE370E0CE0101960E9405
:1029D0005A1489819A810E949B0F63E070E0812FD5
:1029E0000E9495148B830E94B20F8B810F900F90E1
:1029F0000F90DF91CF911F910F9108950F931F9327
:102A0000CF93DF9300D0CDB7DEB7182F00E021E0E1
:102A100040E059E06DE370E0CE0101960E945A1447
:102A200089819A810E949B0F40E150E0612F82E9E9
:102A300094E00E94B11A6FEF812F0E94C0140E948F
:102A4000B20F0F900F90DF91CF911F910F910895CA
:102A5000CF92DF92EF92FF920F931F93CF93DF936A
:102A600000D0CDB7DEB7182FD62E7A01C22E8FEF49
:102A7000860F8530A8F5812F0E94FE1400E021E02A
:102A800040E059E06DE370E0CE0101960E945A14D7
:102A900089819A810E949B0F4D2D4C2960E070E046
:102AA000812F0E94A314E114F10411F0B7010AC0B0
:102AB00060919004709191046F5F7F4F70939104C7
:102AC00060939004812F0E94AF1441E050E0612F89
:102AD00082E994E00E94B11A0E94B20F81E001C025
:102AE00080E00F900F90DF91CF911F910F91FF9099
:102AF000EF90DF90CF900895CF92DF92EF92FF9208
:102B00000F931F93CF93DF9300D0CDB7DEB7182F6D
:102B10007B016A01FB0180818F3F51F481818F3FEE
:102B200099F482818F3F81F483818F3F69F430C0B3
:102B300081110AC0FB018181811106C0828181114E
:102B400003C08381882321F1C114D10409F100E07D
:102B500021E040E059E06DE370E0CE0101960E9473
:102B60005A1489819A810E949B0FB701812F0E947C
:102B70008C14B601812F0E94C51444E050E0612FEF
:102B800082E994E00E94B11A0E94B20F81E001C074
:102B900080E00F900F90DF91CF911F910F91FF90E8
:102BA000EF90DF90CF9008950F931F93CF93DF9313
:102BB00000D0CDB7DEB7182F00E021E040E059E0AB
:102BC0006DE370E0CE0101960E945A1489819A81CA
:102BD0000E949B0F48E050E0612F82E994E00E9440
:102BE000B11A0E94B20F0F900F90DF91CF911F91F9
:102BF0000F910895BF92CF92DF92EF92FF920F93C1
:102C00001F93CF93DF9300D01F92CDB7DEB7B82EBE
:102C10006B017A01413088E0580718F0E12C98E008
:102C2000F92E00E021E040E059E06DE370E0CE01D4
:102C300001960E945A1489819A810E949B0F6B2DE4
:102C400082E994E00E941F198C0163E070E08B2DF3
:102C50000E9495148B830E94B20F8B81873111F0F3
:102C60008C3131F40E94D6200E151F05D0F202C01F
:102C7000E12CF12C00E021E040E059E06DE370E050
:102C8000CE0101960E945A1489819A810E949B0F5D
:102C90009701A6016B2D82E994E00E94DE1940E2C3
:102CA00050E06B2D82E994E00E94B11A8B2D0E94B6
:102CB0009F1484FD22C063E070E08B2D0E94951468
:102CC000811108C00E94B20F8B2D0E94FE1480E07B
:102CD00090E01AC00E94B20F0E94D62000E021E0CE
:102CE00040E059E06DE370E0CE0101960E945A1475
:102CF00089819A810E949B0FD9CF60E18B2D0E9420
:102D0000C0140E94B20FC7010F900F900F90DF9177
:102D1000CF911F910F91FF90EF90DF90CF90BF90D8
:102D20000895AF92BF92CF92DF92EF92FF920F93EE
:102D30001F93CF93DF9300D0CDB7DEB7182F5B0181
:102D40006A0100E021E040E059E06DE370E0CE016F
:102D500001960E945A1489819A810E949B0F612FCB
:102D600082E994E00E9453197C010097A1F463E08A
:102D700070E0812F0E949514843119F1882309F1A4
:102D800021E030E08C3111F420E030E0EE24FF242B
:102D9000E21AF30A16C0C816D9060CF476011E14FE
:102DA0001F047CF400E09701A501612F82E994E003
:102DB0000E94611A40E450E0612F82E994E00E9491
:102DC000B11A0E94B20FC7010F900F90DF91CF91FF
:102DD0001F910F91FF90EF90DF90CF90BF90AF9039
:102DE00008950F931F93CF93DF9300D000D0CDB7FA
:102DF000DEB7182F00E021E040E059E06DE370E01D
:102E0000CE0101960E945A1489819A810E949B0FDB
:102E1000612F82E994E00E9453198B839C830E9466
:102E2000B20F8B819C810F900F900F900F90DF91CC
:102E3000CF911F910F910895EF92FF920F931F93DF
:102E4000CF93DF9300D0CDB7DEB7182F7B0100E022
:102E500021E040E059E06DE370E0CE0101960E9470
:102E60005A1489819A810E949B0F01E021E030E091
:102E7000A701612F82E994E00E94611A0E94B20FBB
:102E800081E090E00F900F90DF91CF911F910F9113
:102E9000FF90EF90089508959F92AF92BF92CF92C6
:102EA000DF92EF92FF920F931F93CF93DF9300D0A7
:102EB000CDB7DEB7982E6B015A01790100E021E011
:102EC00040E059E06DE370E0CE0101960E945A1493
:102ED00089819A810E949B0F692D82E994E00E946A
:102EE0001F198E159F0530F4692D82E994E00E9428
:102EF0001F197C0187019501A601692D82E994E0E3
:102F00000E946F190E94B20FC7010F900F90DF91BE
:102F1000CF911F910F91FF90EF90DF90CF90BF90D6
:102F2000AF909F900895CF92DF92EF92FF920F9310
:102F30001F93CF93DF9300D0CDB7DEB7182F7B015F
:102F40006A01FB018081811109C08181811106C064
:102F50008281811103C083818823F1F0C114D104DF
:102F6000D9F000E021E040E059E06DE370E0CE01EF
:102F700001960E945A1489819A810E949B0FB70181
:102F8000812F0E948C14B601812F0E94C5140E94CB
:102F9000B20F81E090E002C080E090E00F900F90CF
:102FA000DF91CF911F910F91FF90EF90DF90CF9025
:102FB00008950F931F93CF93DF9300D0CDB7DEB763
:102FC000182F00E021E040E059E06DE370E0CE0111
:102FD00001960E945A1489819A810E949B0F40E2B7
:102FE00050E0612F82E994E00E94B11A812F0E9483
:102FF0009F1484FD21C0812F0E949F1483FF09C06C
:1030000068E1812F0E94C0140E94B20F80E090E01E
:103010001BC00E94B20F0E94D62000E021E040E0D9
:1030200059E06DE370E0CE0101960E945A14898147
:103030009A810E949B0FDACF60E1812F0E94C01419
:103040000E94B20F81E090E00F900F90DF91CF913E
:103050001F910F9108958EBD00000DB407FEFDCFA6
:103060008EB508952A9808952A9A08951F93CF93AC
:10307000DF9300D0CDB7DEB7182F6A8399830E9403
:10308000321880EF0E942B189981892F0E942B18EB
:10309000812F0E942B186A81862F0E942B180E9474
:1030A000341881E00F900F90DF91CF911F91089518
:1030B000CF93DF93EC016CE271E080E090E00E943E
:1030C000761F0E94C11A229A8091A404882381F05D
:1030D000813051F48DB38093A2049DB38091A304F9
:1030E000809589238DBB04C08FB78093A204F89488
:1030F00080E58CBD1DBC60E880E090E00E94361841
:1031000065E58BE190E00E94361865E58AE190E084
:103110000E9436189091A404992339F08091A2045A
:10312000913011F48DBB01C08FBF80E090E4998392
:10313000888380E090E69987888780E098E49B8385
:103140008A8380E098E69B878A8780E090E59D836C
:103150008C8380E090E79D878C8780E098E59F8353
:103160008E8380E098E79F878E87DF91CF910895C7
:10317000CF92DF92EF92FF920F931F93CF93DF9343
:10318000EC017A018B016C01C40ED51ECC15DD0556
:10319000A1F00E94321880EF0E942B188D2F0E9400
:1031A0002B188C2F0E942B182196F80181918F01EA
:1031B0000E942B180E943418E9CFC701DF91CF91EC
:1031C0001F910F91FF90EF90DF90CF9008951F9384
:1031D000CF93DF931F92CDB7DEB7182F99830E944C
:1031E00032188FE00E942B189981892F0E942B188A
:1031F000812F0E942B1880E00E942B1889830E9447
:10320000341889810F90DF91CF911F9108951F93FA
:10321000CF93DF93182F60E270E00E949514C82FBF
:10322000D0E061E270E0812F0E949514DC2FCC2762
:103230009E01282BC901DF91CF911F910895FF9224
:103240000F931F93CF93DF93F62EC0E0D0E08F2D26
:103250000E9407198C01009721F08F2D0E940719F9
:10326000EC01C017D10799F7CE01DF91CF911F91E3
:103270000F91FF9008951F93CF93DF93182F66E26D
:1032800070E00E949514C82FD0E067E270E0812FB3
:103290000E949514DC2FCC279E01282BC901DF91B9
:1032A000CF911F910895FF920F931F93CF93DF93B8
:1032B000F62EC0E0D0E08F2D0E943B198C010097C4
:1032C00021F08F2D0E943B19EC01C017D10799F70F
:1032D000CE01DF91CF911F910F91FF9008956F92D2
:1032E0007F929F92AF92BF92CF92DF92EF92FF9226
:1032F0000F931F93CF93DF931F92CDB7DEB7D82ED6
:10330000962E3A01590164E270E0892D99830E945A
:103310009514E82EF12C65E270E0892D0E94951439
:10332000FE2CEE24E82AE60CF71C970137706D2C72
:103330009981792E690C711C690C711CD301ED9176
:10334000FC91E20FF31FC901800F911F813098405B
:10335000A0F0C12C48E0D42EC21AD30AA601B501B0
:10336000CF010E94B818A8014C195D09B5016C0D78
:103370007D1DF3018081918103C0A801B501CF01BA
:103380000E94B818E00EF11E4F2D64E270E0892D06
:103390000E94A3144E2D65E270E0892D0F90DF91FD
:1033A000CF911F910F91FF90EF90DF90CF90BF9042
:1033B000AF909F907F906F900C94A3140F931F93E6
:1033C00089019A0140E050E00E946F191F910F910E
:1033D0000895CF92DF92EF92FF920F931F93CF93B6
:1033E000DF93EC017A018B016C01C40ED51ECC1564
:1033F000DD05A9F00E9432188FE00E942B188D2F56
:103400000E942B188C2F0E942B18219680E00E947E
:103410002B18F80181938F010E943418E8CFC7015F
:10342000DF91CF911F910F91FF90EF90DF90CF90A0
:103430000895AF92BF92CF92DF92EF92FF920F93D7
:103440001F93CF93DF9300D0CDB7DEB75A83498364
:103450005901E981FA81F7707C01E60EF11CE60E54
:10346000F11CD70118968D919C9119978E0F9F1F73
:1034700098012E0F3F1F2130384098F0C12C68E092
:10348000D62ECE1ADF0AA601B5010E94E919A801BD
:103490004C195D09B5016C0D7D1DF7018085918585
:1034A00002C0A801B5010F900F90DF91CF911F913D
:1034B0000F91FF90EF90DF90CF90BF90AF900C9462
:1034C000E9198F929F92AF92BF92CF92DF92EF92C3
:1034D000FF920F931F93CF93DF936C01962E5A01A7
:1034E0007901802E68E270E0892D0E949514C82F22
:1034F000D0E069E270E0892D0E949514DC2FCC2782
:10350000C82B87019501AE01692DC6010E94191AC9
:1035100081101AC0CE0DDF1D4D2F68E270E0892D9D
:103520000E94A3144C2F69E270E0892DDF91CF91A6
:103530001F910F91FF90EF90DF90CF90BF90AF90D1
:103540009F908F900C94A314DF91CF911F910F91B6
:10355000FF90EF90DF90CF90BF90AF909F908F90B3
:103560000895CF93C62F61E070E08C2F0E94A314C2
:1035700061E070E08C2F0E9495148111F9CFCF91FA
:10358000089561E08AE00E94582061E08AE00E948C
:103590001F208CB580618CBD8CB580648CBD61E0D2
:1035A0008DE00E941F2061E08BE00C941F200F93A0
:1035B0001F93CF93DF93EC018B0162E972E00E94CD
:1035C000E909D80114968D919C911597DC01ED9134
:1035D000FC910480F581E02D099518161906ACF4CC
:1035E000F80184819581DC01ED91FC910680F781E1
:1035F000E02D09958A3049F08D3019F38F3F09F39A
:10360000682FCE010E946A0ADCCFCE01DF91CF91F4
:103610001F910F910895AF92BF92CF92DF92EF92D8
:10362000FF920F931F93CF93DF93CDB7DEB7C555AE
:10363000D1090FB6F894DEBF0FBECDBF8C0189E172
:10364000E3E9F2E0DE01119601900D928A95E1F72F
:1036500080E00E94D91F0E948E207E0183E3E80E45
:10366000F11C6701A0E1CA0ED11C570120E031E036
:1036700040E050E061E070E080E090E00E94BA201D
:10368000F70161937F01EC15FD0581F740E150E002
:10369000B501CE014A960E94F728FE017A96DE0116
:1036A0001196CE01C29621912D93E817F907D9F70B
:1036B00064E571E0D80114968D919C9115970E9454
:1036C0001E07F80160817181848195810E945107F4
:1036D00068E471E0D80114968D919C9115970E9431
:1036E0001E0763E371E0F801848195810E941E0743
:1036F0006DE171E0D80114968D919C9115970E940F
:103700001E0766E171E0F801848195810E941E0721
:10371000D80112966D917C91139714968D919C917E
:1037200015970E94510760E972E0F8018481958144
:103730000E94510762E071E0D80114968D919C912E
:1037400015970E941E07BE016F5F7F4FF8018481AD
:1037500095810E94510760E972E0D80114968D911D
:103760009C9115970E94510766EE70E0F8018481E4
:1037700095810E941E0760E972E0D80114968D9130
:103780009C9115970E945107F80184819581DC0175
:10379000ED91FC910488F589E02D0995882369F065
:1037A000F80184819581DC01ED91FC910480F58123
:1037B000E02D0995892B09F455C0F8018481958184
:1037C000DC01ED91FC910480F581E02D0995892BB8
:1037D00039F462E370E080E090E00E94761FEDCF64
:1037E00062E972E0CE01805B9F4F0E94E90962E9C5
:1037F00072E0CE01865B9F4F0E94E909B801CE01BD
:103800008C5B9F4F0E94D71ABE016C5B7F4FCE012D
:10381000865B9F4F0E94FF0962E972E00E94B80A2E
:10382000F82ECE018C5B9F4F0E947B09F11021C0C6
:10383000BE01665B7F4FCE018C5B9F4F0E94160AD4
:103840006AE0CE018C5B9F4F0E94AA0ABC01CE01A8
:10385000805B9F4F0E94630ACE018C5B9F4F0E944A
:103860007B09CCCF62E370E080E090E00E94761F9D
:103870008BCFBE01605B7F4F82E593E00E948A0799
:10388000CE01865B9F4F0E947B09CE01805B9F4FDC
:103890000E947B0981E0CB5ADF4F0FB6F894DEBF60
:1038A0000FBECDBFDF91CF911F910F91FF90EF9091
:1038B000DF90CF90BF90AF900895CF93DF93EC014E
:1038C0008C819D81DC01ED91FC910190F081E02DD6
:1038D00067E809958C819D81DC01ED91FC91019057
:1038E000F081E02D60E009958C819D81DC01ED91F6
:1038F000FC910284F385E02D09956AE070E080E098
:1039000090E00E94761F8C819D81DC01ED91FC91FD
:103910000288F389E02DDF91CF910994CF93DF9353
:10392000EC017D836C83DB01ED91FC910488F589CA
:10393000E02DCB010995882349F0CE010E940B1B95
:1039400081110CC0CE010E945D1C06C06CEA72E0C1
:1039500082E593E00E949C0780E001C081E0DF9156
:10396000CF910895CF93DF93EC018C819D81DC0191
:10397000ED91FC910480F581E02D0995892B39F4B6
:1039800062E370E080E090E00E94761FEECF8C81D1
:103990009D81DC01ED91FC910680F781E02DDF91A6
:1039A000CF9109948F929F92AF92BF92CF92DF9264
:1039B000EF92FF920F931F93CF93DF93CDB7DEB7B4
:1039C000C450D1400FB6F894DEBF0FBECDBF8C01FE
:1039D0009E012F5F3F4F690180E091E0D901FC011A
:1039E0001D923197E9F7D80114968D919C91159706
:1039F000DC01ED91FC910488F589E02D099588237F
:103A000009F4FEC0F80184819581DC01ED91FC91FF
:103A10000480F581E02D0995892B09F4F1C0C801D6
:103A20000E94B21CF80184819581DC01ED91FC912A
:103A30000488F589E02D0995882309F4E1C0C801BF
:103A40000E94B21C7C018038910530F0E894E7F8C0
:103A5000FF24BB24B39401C0B12CF801848195816B
:103A6000DC01ED91FC910488F589E02D099588230E
:103A700009F4C6C0BEE7EB16F10431F5C8010E9497
:103A8000B21CA82EF80184819581DC01ED91FC9196
:103A90000488F589E02D0995882309F4B1C0C8018F
:103AA0000E94B21CE12CF12CFA2CE82AF92AF80128
:103AB00084819581DC01ED91FC910488F589E02DEC
:103AC0000995811106C09CC0BFE7EB16F10409F40B
:103AD000FFCFB11004C05601EC0CFD1C8EC0C80114
:103AE0000E94B21CCF5FDE4F8883C150D140F801E5
:103AF00084819581DC01ED91FC910488F589E02DAC
:103B00000995882309F47CC0C8010E94B21CCE5FCD
:103B1000DE4F8883C250D140F80184819581DC0159
:103B2000ED91FC910488F589E02D0995882309F42D
:103B300067C0C8010E94B21CCD5FDE4F8883C350AE
:103B4000D140F80184819581DC01ED91FC910488DC
:103B5000F589E02D0995882309F452C0C8010E9417
:103B6000B21CCC5FDE4F8883C450D140F801848101
:103B70009581DC01ED91FC910488F589E02D099592
:103B80008823F1F14601A12CB12CAE14BF04C1F180
:103B9000C8010E94B21CF501E370FF2721E031E06B
:103BA0002C0F3D1FE20FF31F90819827D4019D93A6
:103BB0004D01F80184819581DC01ED91FC9104882F
:103BC000F589E02D09958823D9F0BFEFAB1ABB0A20
:103BD000DCCFC8010E94B21CF50181935F01D801BE
:103BE00014968D919C911597DC01ED91FC910488C0
:103BF000F589E02D0995882319F0AE14BF0449F723
:103C0000C601CC5FDE4F0FB6F894DEBF0FBECDBF4E
:103C1000DF91CF911F910F91FF90EF90DF90CF90A8
:103C2000BF90AF909F908F900895CF92DF92EF92C8
:103C3000FF920F931F93CF93DF938C017B01EB01D6
:103C400009900020E9F72197C61BD70BDC011496D9
:103C50008D919C911597DC01ED91FC910190F08183
:103C6000E02D61E80995F80184819581DC01ED91F1
:103C7000FC910190F081E02DCE37D1050CF468C0A5
:103C80006FE70995F80184819581DC01ED91FC9144
:103C90000190F081E02DBE01770F660B762F09951C
:103CA000F80184819581DC01ED91FC910190F08116
:103CB000E02DBE01770F660B762F0995F801848100
:103CC0009581DC01ED91FC910190F081E02DBE0128
:103CD000770F660B762F0995F80184819581DC01B9
:103CE000ED91FC910190F081E02DBE01770F660B04
:103CF000762F0995F80184819581DC01ED91FC9185
:103D0000770F660B762F0190F081E02D0995F80171
:103D100084819581DC01ED91FC91770F660B762F04
:103D20000190F081E02D0995F80184819581DC01F5
:103D3000ED91FC910190F081E02D6D2F0995F80136
:103D400084819581DC01ED91FC910190F081E02D61
:103D50006C2F09956701C6018E199F098C179D0765
:103D600074F4F80184819581D6016D916D01DC01B7
:103D7000ED91FC910190F081E02D0995ECCFDF9160
:103D8000CF911F910F91FF90EF90DF90CF9008950A
:103D90000F931F93CF93DF9300D0CDB7DEB78C0185
:103DA000DC0114968D919C911597DC01ED91FC91AD
:103DB0000488F589E02D69837A83099569817A8180
:103DC000882349F0C8010F900F90DF91CF911F9188
:103DD0000F910C94151E0F900F90DF91CF911F91B2
:103DE0000F9108950F9300E020E040E060E085EA45
:103DF00094E00E94AA060F9108951F920F920FB6A9
:103E00000F9211242F933F938F939F93AF93BF9360
:103E10008091AC049091AD04A091AE04B091AF0438
:103E20003091AB0423E0230F2D3720F40196A11D20
:103E3000B11D05C026E8230F0296A11DB11D2093D8
:103E4000AB048093AC049093AD04A093AE04B09304
:103E5000AF048091B0049091B104A091B204B091EC
:103E6000B3040196A11DB11D8093B0049093B104D9
:103E7000A093B204B093B304BF91AF919F918F917F
:103E80003F912F910F900FBE0F901F9018952FB755
:103E9000F8946091AC047091AD048091AE0490915F
:103EA000AF042FBF08953FB7F8948091B00490916C
:103EB000B104A091B204B091B30426B5A89B05C08B
:103EC0002F3F19F00196A11DB11D3FBF6627782F26
:103ED000892F9A2F620F711D811D911D42E0660F7F
:103EE000771F881F991F4A95D1F70895CF92DF92C7
:103EF000EF92FF92CF93DF936B017C010E94531FDF
:103F0000EB01C114D104E104F10489F00E94D62030
:103F10000E94531F6C1B7D0B683E734090F381E041
:103F2000C81AD108E108F108C851DC4FEACFDF9187
:103F3000CF91FF90EF90DF90CF900895789484B563
:103F4000826084BD84B5816084BD85B5826085BD95
:103F500085B5816085BDEEE6F0E08081816080837B
:103F6000E1E8F0E01082808182608083808181605E
:103F70008083E0E8F0E0808181608083E1EBF0E025
:103F8000808184608083E0EBF0E0808181608083C9
:103F9000EAE7F0E0808184608083808182608083B2
:103FA0008081816080838081806880831092C100DD
:103FB00008958E3008F08E5087702091120190E4A1
:103FC000299F90011124822B80937C0080917A009C
:103FD000806480937A0080917A0086FDFCCF809186
:103FE00078002091790090E0922B0895833081F041
:103FF00028F4813099F08230A1F008958730A9F03B
:104000008830B9F08430D1F4809180008F7D03C076
:10401000809180008F7780938000089584B58F779A
:1040200002C084B58F7D84BD08958091B0008F77E4
:1040300003C08091B0008F7D8093B0000895CF932E
:10404000DF9390E0FC01E359FE4F2491FC01EF5710
:10405000FE4F8491882349F190E0880F991FFC015D
:10406000E156FE4FA591B4918B569E4FFC01C59130
:10407000D4919FB7611108C0F8948C912095822348
:104080008C93888182230AC0623051F4F8948C9119
:10409000322F309583238C938881822B888304C0B0
:1040A000F8948C91822B8C939FBFDF91CF910895D0
:1040B0000F931F93CF93DF931F92CDB7DEB7282FB7
:1040C00030E0F901E75AFE4F8491F901E359FE4FC0
:1040D0001491F901EF57FE4F04910023C9F0882392
:1040E00021F069830E94F61F6981E02FF0E0EE0F56
:1040F000FF1FEB56FE4FA591B4919FB7F8948C919A
:10410000611103C01095812301C0812B8C939FBF47
:104110000F90DF91CF911F910F910895009729F093
:10412000BC0180E090E00C94DC2D0895CF93DF93E8
:1041300000D000D0CDB7DEB79B01AC016115710591
:104140008105910569F069833A834B835C830E9402
:10415000D72D29813A814B815C810E94E82903C0D7
:1041600060E070E0CB010F900F900F900F90DF9107
:10417000CF910895CF92DF92EF92FF926B017C0175
:10418000621773078407950764F4CA01B9016C19B3
:104190007D098E099F090E9496206C0D7D1D8E1D44
:1041A0009F1DFF90EF90DF90CF90089508950E9699
:1041B00024E1FC0111922A95E9F70895CF93DF934A
:1041C000EC01625F7F4F0E94B606CE01DF91CF9176
:1041D0000895CF93DF93EC016E5E7F4F0E94B60689
:1041E000CE01DF91CF910895CF93DF93EC016A5E0A
:1041F0007F4F0E94B606CE01DF91CF910895CF93F5
:10420000DF93EC01625E7F4F0E94B606CE01DF9124
:10421000CF91089580E3FB0180833296842F8295AD
:104220008F7090E1899F401911244A3014F4405D49
:1042300001C0495C4293882311F0482FEFCF0895C5
:104240000F9300E020E040E060E084EB94E00E9407
:10425000AA060F9108956F927F928F929F92AF92CC
:10426000BF92CF92DF92EF92FF920F931F93CF9363
:10427000DF93CDB7DEB7AC970FB6F894DEBF0FBEB5
:10428000CDBF7C01862EB42EA52E20E2922ECE012B
:1042900001966C01FC01292D11922A95E9F70FEF87
:1042A0002FEF4FEF6FEF86960E94AA0685E192E00E
:1042B0009AA389A389A59AA5ABA5BCA58BA39CA30A
:1042C000ADA3BEA38701095B1F4F43E450E0BE01CD
:1042D0006F5D7F4FC8010E94E012019609F4BFC0D4
:1042E00081E089838A8386E0782E7B821C82F701B5
:1042F00064817581868197810E94072A6D837E8300
:104300008F839887A986BA8680E890E09C878B8700
:104310004CE150E0B601C8010E94EC12F601292DD3
:1043200011922A95E9F7570188E0A80EB11CF50112
:10433000D60101900D927A94E1F740E150E0B60188
:10434000C8010E94EC12F60111929A94E9F796E0E6
:10435000692E712C40E250E0B601C8010E94EC12B7
:10436000F1E06F1A7108B1F783E6898392E89A83C6
:1043700093E59B838C8385E38D8381E08E838F829D
:104380009DE3988797E099878A8786E0F501DE01AB
:104390001B9601900D928A95E1F78CE0898B8A8BB0
:1043A0006FEB72E0CE0143960E948531F7014385A1
:1043B000BE01675E7F4FC7010E940A21F701448555
:1043C000BE01655E7F4FC7010E940A21F701458546
:1043D000BE01635E7F4FC7010E940A214EE150E09B
:1043E000B601C8010E94EC12F3E08F121EC082E3F6
:1043F000898384E08A83F70196859B8397859C83D4
:1044000090899D8391899E8396E39F838887828D7F
:104410008987838D8A87848D8B87858D8C874CE0F7
:1044200050E0B601C8010E94EC1287E3898386E060
:104430008A8391E09B8393E09C838D838FE08E83BE
:104440008AE38F838BE388878FEF898749E050E089
:10445000B601C8010E94EC12C8010E94E812AC9695
:104460000FB6F894DEBF0FBECDBFDF91CF911F9185
:104470000F91FF90EF90DF90CF90BF90AF909F9003
:104480008F907F906F9008952F923F924F925F92FE
:104490006F927F928F929F92AF92BF92CF92DF9254
:1044A000EF92FF920F931F93CF93DF93CDB7DEB7B9
:1044B000E3970FB6F894DEBF0FBECDBF7C012A0193
:1044C0003B0169010E94471F4B015C018701095BA9
:1044D0001F4FC8010E948C131816190694F00E94F1
:1044E000471F681979098A099B0946165706680605
:1044F0007906F0F062E370E080E090E00E94761FC1
:10450000E8CF42E250E0BE016F5F7F4FC8010E94DA
:1045100029138981823031F4F801858996898334A1
:10452000910541F019A6C8010E94B91289A562C17E
:104530008FEF60C16D817E818F8198850E94072AEF
:104540004B015C01F601608371838283938346E0B3
:1045500050E0B701685F7F4FCE014D960E946631F3
:10456000892B99F4F70180819181A281B38188160A
:104570009906AA06BB0648F084819581A681B78179
:1045800088159905AA05BB0528F4C8010E94B9122F
:1045900080E030C189899A89AB89BC89F701868717
:1045A0009787A08BB18B3EECC32ED12CC8010E9403
:1045B0000013F1E0CF1AD108C9F719A6C7018296F6
:1045C0009BA78AA7F701B696FDA7ECA708969FA719
:1045D0008EA73C976F018E9699AB88AB3897FBAB53
:1045E000EAAB5701F6E1AF0EB11C47018EE1880E30
:1045F000911CC8010E949F12181619060CF093CF47
:10460000C8010E9400138333910509F4C9C0F4F472
:1046100081309105B9F11CF4892B59F3DBC083304B
:104620009105C1F1069709F0D5C0C8010E94001399
:104630003C0144E050E0B401C8010E942913212C40
:10464000312C7724F4E06F1A71083FC08A3391054A
:1046500009F47AC03CF48533910561F0C69709F4FA
:104660003FC0B8C08B33910509F484C08F3F9105DA
:1046700001F2B0C0C8010E940013C8010E940013DB
:1046800089A7B7CFC8010E94001344E050E06AA98F
:104690007BA936C0C8010E9400133C0144E050E0F1
:1046A000B501C8010E942913212C312C772494E0F4
:1046B000691A7108261437040CF09BCFC8010E94B8
:1046C0000013EFEF2E1A3E0AF5CF261437040CF034
:1046D00090CFC8010E9400138FEF281A380AF5CF37
:1046E000C8010E940013782EF701828D938DA48D4E
:1046F000B58D892B8A2B8B2B39F444E050E0B60121
:10470000C8010E94291375CFE8A9F9A9208031803A
:1047100042805380B601CE0183960E94B6068DA1D9
:104720009EA1AFA1B8A582159305A405B50529F3EF
:10473000212C312C721409F45CCFC8010E940013A3
:10474000FFEF2F1A3F0AF6CFC8010E94001344E082
:1047500050E06CA57DA5C8010E942913F70166A150
:1047600077A180A591A50E94072A66A377A380A7B9
:1047700091A73FCFC8010E94001344E050E06EA50E
:104780007FA5C8010E942913F70162A573A584A51E
:1047900095A50E94072A62A773A784A795A729CF8A
:1047A000C8010E94001344E050E06AA57BA5C8013F
:1047B0000E942913F70162A173A184A195A10E940F
:1047C000072A62A373A384A395A366A777A780ABE8
:1047D00091AB0FCFC8010E940013382E612C712CB1
:1047E000361409F406CFC8010E940013FFEF6F1AB8
:1047F0007F0AF6CFE3960FB6F894DEBF0FBECDBFAB
:10480000DF91CF911F910F91FF90EF90DF90CF90AC
:10481000BF90AF909F908F907F906F905F904F90E0
:104820003F902F9008952F923F924F925F926F92F8
:104830007F928F929F92AF92BF92CF92DF92EF9230
:10484000FF920F931F93CF93DF93CDB7DEB72797D8
:104850000FB6F894DEBF0FBECDBF8C0120ED37E060
:1048600040E050E061E070E080E090E00E94BA201B
:10487000D80114966D937D938D939C931797F801AF
:1048800060837183828393834801F7E48F0E911CC8
:10489000C4010E94CB1264E470E0C4010E945F1363
:1048A000882309F428C10E94471F6B017C01A12CB9
:1048B000B12C1D82180186E4280E311CD801DE9629
:1048C000BF83AE8338EE432E33E0532E612C712C20
:1048D000F1018081833009F4FDC081111FC0F8010E
:1048E00084819581A681B7810196A11DB11D848324
:1048F0009583A683B7830E94471F6C197D098E0993
:104900009F09A30192010E94C629A90161E0C80183
:104910000E942B2181E0D1018C93BEC08430F9F438
:10492000F80184819581A681B7810196A11DB11DF1
:1049300084839583A683B7830E94471F6C197D09E2
:104940008E099F09A30192010E94C629A90163E073
:10495000C8010E942B21E2E0D101EC939DC081307F
:1049600061F5AE81BF814D915D916D917C919E010C
:104970002F5F3F4FC8010E9444228D83823009F08F
:104980008BC089819A81AB81BC81F8018483958336
:10499000A683B7830E94471F6C197D098E099F0962
:1049A000A30192010E94C629A90163E0C8010E94E7
:1049B0002B21ED81D101EC9375C0823009F06CC0E0
:1049C000AE81BF814D915D916D917C919E012F5F74
:1049D0003F4FC8010E9444228D83853009F056C0A4
:1049E00083E0F1018083F80182A193A1A4A1B5A184
:1049F000892B8A2B8B2B41F484E893E0A0E0B0E074
:104A000082A393A3A4A3B5A3F80186A197A1A0A50F
:104A1000B1A5892B8A2B8B2B61F482A193A1A4A130
:104A2000B5A1B695A7959795879586A397A3A0A7B7
:104A3000B1A7D8019A964D915D916D917C919D970A
:104A400096968D919D910D90BC91A02D452B462B56
:104A5000472B59F4AC01BD01440F551F661F771F4A
:104A6000F80142A753A764A775A7F80186A797A7DF
:104A7000A0ABB1AB82A593A5A4A5B5A582AB93AB22
:104A8000A4ABB5ABAA24A394B12C0CC0FD81F63025
:104A900019F4D1011C9206C0BD81BF3F19F4F10188
:104AA00010821D82F1E0AF16B10409F411CF0E940B
:104AB000471F6C197D098E099F09D801DA962D913F
:104AC0003D914D915C91DD972617370748075907AF
:104AD00008F0FECEC4010E94CB12F80184819581BA
:104AE000A681B7810196A11DB11D84839583A683FC
:104AF000B783C50102C080E090E027960FB6F89416
:104B0000DEBF0FBECDBFDF91CF911F910F91FF9000
:104B1000EF90DF90CF90BF90AF909F908F907F905D
:104B20006F905F904F903F902F900895CF92DF92BB
:104B3000EF92FF920F931F93CF93DF93EC016B01E2
:104B40001AA21BA21CA21DA21EA21FA218A619A671
:104B50001AA61BA61CA61DA61EAA1FAA18AE19AE31
:104B60002AAF3BAF4CAF5DAFFC01FE96E082F18215
:104B7000028313838C01085F1F4F86E0F8011192B6
:104B80008A95E9F7CE010E94D72086E0F601D80188
:104B900001900D928A95E1F7FE01EA5BFF4F1082CA
:104BA000CE01DF91CF911F910F91FF90EF90DF9099
:104BB000CF900C941324FB01428153816481758151
:104BC000FC014283538364837583178216820895A0
:104BD000CF93FB0181918111FDCFFB0180E090E03B
:104BE00020E030E0CAE06191662309F1243031050C
:104BF00064F56E3271F48F3F910509F034F5DA01F6
:104C0000A20FB31F12968C932F5F3F4F80E090E06E
:104C1000EACFDC01CA9FC001CB9F900D11247727FA
:104C200067FD709560537109860F971FDCCF8F3F2A
:104C3000910509F054F4243031053CF4FA01E20FF7
:104C4000F31F828381E090E002C080E090E0CF918A
:104C500008950F9300E020E040E060E08AEB94E0EC
:104C60000E94AA060F910895AF92BF92CF92DF9251
:104C7000EF92FF920F931F93CF93DF9300D01F9279
:104C8000CDB7DEB76C017B010E94471FF601778329
:104C900066838601085F1F4FB6016A5F7F4F42E05F
:104CA00050E0C8010E94EC1281E090E09A83898371
:104CB00042E050E0BE016F5F7F4FC8010E94EC12DE
:104CC00080E091E09A83898342E050E0BE016F5F0B
:104CD0007F4FC8010E94EC121A82198242E050E014
:104CE000BE016F5F7F4FC8010E94EC1242E050E0AE
:104CF000BE016F5F7F4FC8010E94EC1242E050E09E
:104D0000BE016F5F7F4FC8010E94EC126701F60180
:104D10008081882311F1F7016F018191811115C004
:104D20005601AE18BF081A141B0494F4AB8241E07C
:104D300050E0BE016D5F7F4FC8010E94EC12A501DB
:104D4000B701C8010E94EC1203C08E3229F7E8CFE8
:104D50007601FFEFEF1AFF0ADACF1B8241E050E045
:104D6000BE016D5F7F4FC8010E94EC12E12CFF2451
:104D7000F394FA82E98242E050E0BE016F5F7F4F18
:104D8000C8010E94EC12FA82E98242E050E0BE01C2
:104D90006F5F7F4FC8010E94EC1281E090E00F909E
:104DA0000F900F90DF91CF911F910F91FF90EF9097
:104DB000DF90CF90BF90AF9008954F925F926F9227
:104DC0007F928F929F92AF92BF92CF92DF92EF929B
:104DD000FF920F931F93CF93DF93CDB7DEB7639707
:104DE0000FB6F894DEBF0FBECDBF7C015B016A0138
:104DF0000E94471F2B013C018701085F1F4F45019F
:104E0000A12CB12CC8010E948C131816190694F01D
:104E10000E94471F64197509860997098616970627
:104E2000A806B906D0F062E370E080E090E00E944E
:104E3000761FE8CFF7014281538164817581818DAE
:104E4000928DA38DB48D481759076A077B0741F4EB
:104E5000858D968DC59721F406C08FEF9FEFF9C021
:104E60008EEF9FEFF6C0C8010E949F120C970CF4C2
:104E7000EEC04CE050E0BE016F5F7F4FC8010E9462
:104E800029138B819C819827892798279A8B898B56
:104E9000F7014681578129813A814217530711F45E
:104EA00097FD06C0C8010E94B9128CEF9FEFD1C0D8
:104EB0008F709270892B31F0C8010E94B9128BEF6C
:104EC0009FEFC7C0AF80B884BA24AB24BA24A11422
:104ED000B10419F0E12CF12C23C0C8010E94B912D1
:104EE0008AEF9FEFB6C041E050E0BE01635F7F4FA5
:104EF000C8010E9429138D8581111BC08D858111E8
:104F0000F2CFC8010E940013C8010E940013C8011B
:104F10000E940013C8010E940013FFEFEF1AFF0A5E
:104F20008D819E81982789279827E816F906D8F25F
:104F30000AC08D859FEF980F9D878823F9F2C801DD
:104F40000E940013F6CFE12CF12C41E050E0BE01AD
:104F50006D5E7F4FC8010E9429138B89982F907C2A
:104F600061F4882371F08B899FEF980F9B8B8823C6
:104F700041F0C8010E940013F6CFC8010E9400133F
:104F80001B8A8B898111E1CF42E050E0BE01615F55
:104F90007F4FC8010E94291342E050E0BE01635FC9
:104FA0007F4FC8010E942913C8010E940013C80145
:104FB0000E940013C8010E940013C8010E94001340
:104FC00042E050E0BE016F5E7F4FC8010E9429138E
:104FD0008F8598898115914029F48D859E8581154D
:104FE000914019F0812C912C16C089899A898115DC
:104FF000944031F0C8010E94B91287EF9FEF29C099
:10500000B6016E5F7F4F44E050E0C8010E94291353
:1050100081E090E01EC089899A899827892798277E
:105020008816990638F4C8010E9400132FEF821ADF
:10503000920AF1CF8FEFE81AF80AEA14FB0409F09C
:1050400084CFC8010E94B91286EF9FEF02C08DEF96
:105050009FEF63960FB6F894DEBF0FBECDBFDF9112
:10506000CF911F910F91FF90EF90DF90CF90BF9065
:10507000AF909F908F907F906F905F904F9008952A
:105080008F929F92AF92BF92CF92DF92EF92FF9258
:105090000F931F93CF93DF9300D000D000D0CDB7F4
:1050A000DEB78C015B016A010E94E8254C01009784
:1050B00009F05DC0F801428153816481758180915E
:1050C000BC049091BD04A091BE04B091BF044817E8
:1050D00059076A077B0709F44EC00E94471F7801F1
:1050E000F8E0EF0EF11C6F7077277C5FC7010E941C
:1050F0005F13813009F043C085E192E09A83898390
:10510000F80182819381A481B5818B839C83AD83D7
:10511000BE8345E350E0BE016F5F7F4FC7010E9431
:10512000E012892B19F4812C912C1DC0B501C80106
:105130000E943426892BB9F3C7010E94E812892BFB
:1051400091F333E0A32EB12CA60168E873E1C80106
:105150000E94DD264C01F1E0AF1AB10821F08F3F2B
:105160002FEF920789F3C7010E94CB1208C0882451
:105170008394912C04C09EEF892E99249A94C401A3
:1051800026960FB6F894DEBF0FBECDBFDF91CF914C
:105190001F910F91FF90EF90DF90CF90BF90AF9055
:1051A0009F908F900895DC01FB0180818695869504
:1051B0008C9390819370818182958F7020E1929F72
:1051C000800D112411968C93119781818F70880F17
:1051D000880F92819295969596959370890F129665
:1051E0008C93129782818F7313968C9308958F926C
:1051F0009F92AF92BF92CF92DF92EF92FF920F9366
:105200001F93CF93DF93CDB7DEB727970FB6F894F0
:10521000DEBF0FBECDBF7C015A016B01A60EB71ECB
:1052200000E010E020E030E04E0185E0880E911CA7
:10523000CA14DB0439F1C9010196D6014D916D0103
:10524000F401E20FF31F408383309105C9F4B401E8
:10525000CE0101960E94D328FE013196C701800F2E
:10526000911FA191B0E0AA53BD4F2C91DC012D9369
:10527000CD01E815F905A9F70C5F1F4F80E090E01C
:105280009C01D6CF69012115310509F443C02330B3
:10529000310554F4E5E0F0E0EC0FFD1FE20FF31FE1
:1052A00010822F5F3F4FF3CFBE016B5F7F4FFE0138
:1052B00031965F01CF010E94D328F501C701800F0D
:1052C000911FA191B0E0AA53BD4F2C91DC012D9309
:1052D000CD019F012A193B09C216D30694F70F5F2F
:1052E0001F4FC601D7FE02C080E090E0080F191FD3
:1052F000F701E00FF11FCE18DF08C01AD10A2DE325
:105300008F010E191F09C6018E0F9F1F039714F4FA
:105310002193F6CFF701E00FF11F1082C801279605
:105320000FB6F894DEBF0FBECDBFDF91CF911F91B6
:105330000F91FF90EF90DF90CF90BF90AF909F9034
:105340008F900895DB018F939F930E940E2ABF9147
:10535000AF91A29F800D911DA39F900DB29F900DC4
:105360001124089597FB072E16F4009407D077FDBB
:1053700009D00E94192A07FC05D03EF4909581952A
:105380009F4F0895709561957F4F0895A1E21A2E61
:10539000AA1BBB1BFD010DC0AA1FBB1FEE1FFF1FD9
:1053A000A217B307E407F50720F0A21BB30BE40B29
:1053B000F50B661F771F881F991F1A9469F7609570
:1053C0007095809590959B01AC01BD01CF0108952A
:1053D000052E97FB1EF400940E94FF2957FD07D06D
:1053E0000E94C62907FC03D04EF40C94FF29509567
:1053F0004095309521953F4F4F4F5F4F08959095C1
:105400008095709561957F4F8F4F9F4F08956927C5
:105410009627692778278727782708950E94332AB7
:10542000A59F900DB49F900DA49F800D911D1124F8
:105430000895AA1BBB1B51E107C0AA1FBB1FA617DB
:10544000B70710F0A61BB70B881F991F5A95A9F72D
:1054500080959095BC01CD010895EE0FFF1F05903A
:10546000F491E02D0994A29FB001B39FC001A39FC6
:10547000700D811D1124911DB29F700D811D11248D
:10548000911D08955058BB27AA270ED075C166D12B
:1054900030F06BD120F031F49F3F11F41EF45BC16A
:1054A0000EF4E095E7FB51C1E92F77D180F3BA17ED
:1054B000620773078407950718F071F49EF58FC192
:1054C0000EF4E0950B2EBA2FA02D0B01B90190011F
:1054D0000C01CA01A0011124FF27591B99F0593F63
:1054E00050F4503E68F11A16F040A22F232F342FAB
:1054F0004427585FF3CF469537952795A795F040F9
:105500005395C9F77EF41F16BA0B620B730B840B0D
:10551000BAF09150A1F0FF0FBB1F661F771F881FC5
:10552000C2F70EC0BA0F621F731F841F48F487951D
:1055300077956795B795F7959E3F08F0B3CF93950C
:10554000880F08F09927EE0F979587950895D9D081
:1055500008F481E008950CD00FC107D140F0FED0CF
:1055600030F021F45F3F19F0F0C0511139C1F3C0A0
:1055700014D198F39923C9F35523B1F3951B550B17
:10558000BB27AA2762177307840738F09F5F5F4F16
:10559000220F331F441FAA1FA9F333D00E2E3AF057
:1055A000E0E830D091505040E695001CCAF729D071
:1055B000FE2F27D0660F771F881FBB1F26173707C0
:1055C0004807AB07B0E809F0BB0B802DBF01FF27F0
:1055D00093585F4F2AF09E3F510568F0B6C000C156
:1055E0005F3FECF3983EDCF3869577956795B7952A
:1055F000F7959F5FC9F7880F911D9695879597F945
:105600000895E1E0660F771F881FBB1F62177307BD
:105610008407BA0720F0621B730B840BBA0BEE1FD2
:1056200088F7E095089504D06894B111D9C0089521
:10563000BCD088F09F5790F0B92F9927B751A0F0B0
:10564000D1F0660F771F881F991F1AF0BA95C9F716
:1056500012C0B13081F0C3D0B1E00895C0C0672F4F
:10566000782F8827B85F39F0B93FCCF386957795C6
:105670006795B395D9F73EF49095809570956195AF
:105680007F4F8F4F9F4F0895E89409C097FB3EF4DA
:1056900090958095709561957F4F8F4F9F4F99237F
:1056A000A9F0F92F96E9BB279395F69587957795FD
:1056B0006795B795F111F8CFFAF4BB0F11F460FFBD
:1056C0001BC06F5F7F4F8F4F9F4F16C0882311F015
:1056D00096E911C0772321F09EE8872F762F05C029
:1056E000662371F096E8862F70E060E02AF09A95C4
:1056F000660F771F881FDAF7880F9695879597F9B9
:105700000895990F0008550FAA0BE0E8FEEF161652
:105710001706E807F907C0F012161306E407F507A5
:1057200098F0621B730B840B950B39F40A2661F019
:10573000232B242B252B21F408950A2609F4A140BC
:10574000A6958FEF811D811D089597F99F6780E8C9
:1057500070E060E008959FEF80EC089500240A94C3
:105760001616170618060906089500240A9412163C
:105770001306140605060895092E0394000C11F46F
:10578000882352F0BB0F40F4BF2B11F460FF04C01C
:105790006F5F7F4F8F4F9F4F089557FD9058440F75
:1057A000551F59F05F3F71F04795880F97FB991F80
:1057B00061F09F3F79F0879508951216130614063D
:1057C000551FF2CF4695F1DF08C0161617061806CA
:1057D000991FF1CF86957105610508940895E894A5
:1057E000BB2766277727CB0197F908958ADF08F44E
:1057F0008FEF08950BD0C0CFB1DF28F0B6DF18F0DF
:10580000952309F0A2CFA7CF1124EACFC6DFA0F3DA
:10581000959FD1F3950F50E0551F629FF001729F45
:10582000BB27F00DB11D639FAA27F00DB11DAA1F64
:10583000649F6627B00DA11D661F829F2227B00DB1
:10584000A11D621F739FB00DA11D621F839FA00D3C
:10585000611D221F749F3327A00D611D231F849F8C
:10586000600D211D822F762F6A2F11249F575040E3
:105870008AF0E1F088234AF0EE0FFF1FBB1F661F7E
:10588000771F881F91505040A9F79E3F510570F037
:105890005CCFA6CF5F3FECF3983EDCF3869577951F
:1058A0006795B795F795E7959F5FC1F7FE2B880F32
:1058B000911D9695879597F9089523DF880B990B8D
:1058C0000895CF93DF938230910510F482E090E049
:1058D000E091C204F091C30420E030E0A0E0B0E029
:1058E000309739F14081518148175907B8F048176E
:1058F000590771F482819381109729F013969C9334
:105900008E9312972CC09093C3048093C20427C037
:105910002115310531F04217530718F0A901DB01B9
:1059200001C0EF019A01BD01DF010280F381E02D8A
:10593000D7CF21153105F9F0281B390B243031055B
:1059400080F48A819B816115710521F0FB019383AD
:10595000828304C09093C3048093C204FE013296F4
:1059600044C0FE01E20FF31F81939193225031094D
:10597000398328833AC02091C0043091C104232B7D
:1059800041F420910201309103013093C10420932E
:10599000C00420910001309101012115310541F42D
:1059A0002DB73EB74091040150910501241B350BE2
:1059B000E091C004F091C104E217F307A0F42E1B9C
:1059C0003F0B2817390778F0AC014E5F5F4F241763
:1059D000350748F04E0F5F1F5093C1044093C00439
:1059E0008193919302C0E0E0F0E0CF01DF91CF918D
:1059F0000895CF93DF93009709F487C0FC01329795
:105A000013821282C091C204D091C304209781F402
:105A100020813181280F391F8091C0049091C104E9
:105A20008217930779F5F093C104E093C0046DC029
:105A3000DE0120E030E0AE17BF0750F412964D9122
:105A40005C9113979D014115510509F1DA01F3CFDE
:105A5000B383A28340815181840F951F8A179B07CE
:105A600071F48D919C911197840F951F02969183EB
:105A7000808312968D919C91139793838283211535
:105A8000310529F4F093C304E093C2043EC0D90168
:105A90001396FC93EE9312974D915D91A40FB51F51
:105AA000EA17FB0779F480819181840F951F029694
:105AB000D90111969C938E938281938113969C9326
:105AC0008E931297E0E0F0E08A819B81009719F0B5
:105AD000FE01EC01F9CFCE01029628813981820FB7
