:100000000C94EC000C9414010C9414010C94140145
:100010000C9414010C9414010C9414010C9414010C
:100020000C9414010C9414010C9414010C941401FC
:100030000C9414010C9414010C9414010C941401EC
:100040000C94C41E0C9414010C9488050C94BA05ED
:100050000C9414010C9414010C9414010C941401CC
:100060000C9414010C9414015375627363726962E9
:1000700065640048616E647368616B6520666169E0
:100080006C65642E0048616E647368616B652073F3
:1000900075636365737366756C00436F6E6E65633D
:1000A00074696F6E206661696C65642E00436F6EC3
:1000B0006E656374656400636F6E6E656374696E0C
:1000C000672E2E005365632D576562536F636B6512
:1000D000742D56657273696F6E3A2031330D0A00C4
:1000E0005365632D576562536F636B65742D4B6564
:1000F000793A2000486F73743A2000436F6E6E6542
:100100006374696F6E3A20557067726164650D0A99
:1001100000557067726164653A20776562736F633A
:100120006B65740D0A0020485454502F312E310D48
:100130000A004745542000000000080002010000AA
:100140000304070000000000000000010204081082
:10015000204080010204081020010204081020043D
:10016000040404040404040202020202020303035E
:1001700003030300000000250028002B00000000FE
:1001800000240027002A004E414E494E4954594947
:100190004E46CDCCCC3D0AD7233C17B7D13877CCCF
:1001A0002B329595E6241FB14F0A00002041000034
:1001B000C84200401C4620BCBE4CCA1B0E5AAEC5ED
:1001C0009D746803EA0598064D0F5D1040121614E1
:1001D000B91EE720F025A90311241FBECFEFD8E0F8
:1001E000DEBFCDBF13E0A0E0B1E0E4E4F3E602C07F
:1001F00005900D92A030B107D9F724E0A0E0B3E05C
:1002000001C01D92AE3BB207E1F711E0C6EDD1E0AF
:1002100004C02297FE010E94F629C23CD107C9F70B
:100220000E9434040C9495310C9400009C01FC0154
:10023000E653FF4F80819181680F791F693C7105FA
:1002400030F4718360830296820F931F089580E0DB
:1002500090E008958CE193E00E94420984E193E0EC
:100260000E9442098EE093E00E94420988E093E0F8
:100270000E94420982E393E00E94420988E393E0EE
:100280000E9442098EE393E00C9442096F927F92A0
:100290008F929F92AF92BF92CF92DF92EF92FF9296
:1002A0000F931F93CF93DF9300D000D000D0CDB732
:1002B000DEB78C013B015C0188E0A80EB11C63E154
:1002C00071E0C5010E94B0097801EEE0EE0EF11C6C
:1002D0006AE872E0C7010E94B0096801F4E1CF0E3C
:1002E000D11C6AE872E0C6010E94B00980E590E086
:1002F000F801938F828F4801FCE18F0E911CB301AE
:10030000C4010E94DD09F80114A213A264E271E0A5
:10031000CE0101960E94B009B401CE0101960E945F
:10032000440A6AE271E00E94570A62E373E00E94A5
:10033000440A63E371E00E94570A6EE373E00E948F
:10034000440A6DE371E00E94570A68E373E00E947B
:10035000440ABC01C7010E94C609CE0101960E9451
:100360004209B501CE0101960E94DD09B701CE0117
:1003700001960E94440ABC01C6010E94C609CE0132
:1003800001960E94420926960FB6F894DEBF0FBE72
:10039000CDBFDF91CF911F910F91FF90EF90DF9034
:1003A000CF90BF90AF909F908F907F906F90089567
:1003B000CF93DF93EC0167EB70E08AE493E00E9457
:1003C0003F0788819981DC01ED91FC914A8D5B8D1D
:1003D000688579850684F785E02D0995892BC1F01C
:1003E00088819981DC01ED91FC910488F589E02DEB
:1003F00009954AE050E0682F8AE493E00E943E08A5
:100400006DEA70E08AE493E0DF91CF910C943F07AE
:100410006AE970E08AE493E00E943F0760ED77E0CC
:1004200080E090E00E943D1FC6CFCF92DF92EF9216
:10043000FF920F931F93CF93DF93CDB7DEB7C25ACE
:10044000D1400FB6F894DEBF0FBECDBF6C017B016B
:1004500087EF91E09A838983C553DF4F1982188211
:10046000CB5CD040CE0101960E94EE0B8C016AE677
:1004700071E00E945A0D68E471E00E94380C69E551
:1004800071E0C8010E947F0DD701ED90FC906EE5F0
:1004900071E00E945A0DB7010E94380CFE01EB5624
:1004A000FE4F1382128280E492E0918380837E016A
:1004B000BDECEB0EF11CF582E48287EC90E09783B3
:1004C000868311861086D7011C92C156DE4FF983B0
:1004D000E883CF59D140CF55DE4F19821882C15AD7
:1004E000D140BE0161567E4FC8010E94F50CB70194
:1004F000C60102960E948F1E68E670E08AE493E0CF
:100500000E943F07CE55DE4F0FB6F894DEBF0FBEF8
:10051000CDBFDF91CF911F910F91FF90EF90DF90B2
:10052000CF9008958F929F92AF92BF92CF92DF9219
:10053000EF92FF920F931F93CF93DF93CDB7DEB768
:10054000C25DD1090FB6F894DEBF0FBECDBF8C01DE
:100550006B015A016AE872E0CE0183539F4F0E94FB
:10056000B009C80102960E94991CBC01CE018353B8
:100570009F4F0E94E609CF52DF4F88819981C15D6C
:10058000D040892B09F444C087EF91E09A83898396
:10059000C553DF4F19821882CB5CD04060E070E019
:1005A000CE0183539F4F0E949E0A4AE0BC01CE01B8
:1005B00001960E94350F8C016EE571E00E945A0D84
:1005C0000E94210C4C016AE671E0C8010E945A0D9C
:1005D0000E94210C7C0169E571E0C8010E945A0D5E
:1005E0000E94210C8C0160E070E0C6010E949E0A0E
:1005F000B4010E944331892BA1F460E070E0C50191
:100600000E949E0AB7010E944331892B19F009C04C
:1006100000E010E0CE0183539F4F0E944209C801C1
:1006200005C0CE0183539F4F0E944209CE52DF4F37
:100630000FB6F894DEBF0FBECDBFDF91CF911F91F3
:100640000F91FF90EF90DF90CF90BF90AF909F9071
:100650008F9008950F931F93CF93DF93CDB7DEB79D
:100660002C970FB6F894DEBF0FBECDBF66E671E0E3
:10067000CE0101960E94B00960E771E0CE010796B5
:100680000E94B009AE014F5F5F4FBE01695F7F4FAF
:1006900080E093E00E9492028C01CE0107960E94B6
:1006A0004209CE0101960E9442090115110529F067
:1006B000B8018AE493E00E9463072C960FB6F89481
:1006C000DEBF0FBECDBFDF91CF911F910F91089577
:1006D0000F93CF93DF9300D000D000D0CDB7DEB71B
:1006E00000E020E040E060E084E493E00E947106D6
:1006F00068E771E08EE393E00E94B0096EE771E075
:1007000088E393E00E94B00960E871E082E393E03F
:100710000E94B00985E293E00E94641162E971E0F1
:10072000CE0101960E94B009BE016F5F7F4F80E04D
:1007300093E00E944601CE0101960E94420926964E
:100740000FB6F894DEBF0FBECDBFDF91CF910F91F2
:1007500008950C942A010F931F93CF93DF93EC011C
:100760008B01798368830E94D80168EE73E080E092
:1007700090E00E943D1F60E070E0CE010E960E9466
:100780009E0A9B838A8360E070E0CE0108960E94F7
:100790009E0A9D838C838AE493E00E949F04B801A3
:1007A000CE0102960E94551C882351F065E870E046
:1007B0008AE493E0DF91CF911F910F910C943F0752
:1007C00063E770E08AE493E00E943F07FFCFCF9396
:1007D000DF9300D000D000D0CDB7DEB761E08DE070
:1007E0000E94E61F26E040E855E260E070E08AE4FF
:1007F00093E00E9426056AE071E08EE594E00E9495
:100800009A0F6EE574E0CE0101960E943510BE018C
:100810006F5F7F4F8AE493E00E94750768EE73E094
:1008200080E090E00E943D1F65E273E080E093E08D
:100830000E94AB0360E771E0CE0101960E94B0090F
:10084000BE016F5F7F4F80E093E00E941502CE01F2
:1008500001960E94420926960FB6F894DEBF0FBE9D
:10086000CDBFDF91CF9108950E94651F0E94E703DD
:10087000C0E7D4E00E942A032097E1F30E947004AD
:10088000F9CFFC01818D228D90E0805C9F4F821B0F
:10089000910960E470E00E9479290895FC01918D2E
:1008A000828D981731F0828DE80FF11D858D90E0D3
:1008B00008958FEF9FEF0895FC01918D828D981719
:1008C00061F0828DDF01A80FB11D5D968C91928D34
:1008D0009F5F9F73928F90E008958FEF9FEF089531
:1008E00080EE95E0892B49F080E090E0892B29F09B
:1008F0000E94E00581110C9400000895FC01848D94
:10090000DF01A80FB11DA35ABF4F2C91848D90E039
:1009100001968F739927848FA689B7892C93A08914
:10092000B1898C9180648C93938D848D981306C0CB
:100930000288F389E02D80818F7D80830895CF9395
:10094000DF93EC01888D8823C9F0EA89FB898081D7
:1009500085FD05C0A889B9898C9186FD0FC00FB6A9
:1009600007FCF5CF808185FFF2CFA889B9898C91EA
:1009700085FFEDCFCE010E947E04E7CFDF91CF91BE
:100980000895CF92DF92FF920F931F93CF93DF933F
:100990001F92CDB7DEB76C01DC015B969C915B9733
:1009A0005C968C915C97981307C05096ED91FC91E2
:1009B0005197808185FD32C0F601038D10E00F5FF5
:1009C0001F4F0F731127F02EF601848DF81211C0FE
:1009D0000FB607FCF9CFD6015096ED91FC915197D7
:1009E000808185FFF1CFC60169830E947E04698101
:1009F000EBCF838DE80FF11DE35AFF4F6083D601E3
:100A00005B960C935B975296ED91FC915397808186
:100A10008062808381E058968C930DC0D6015696F3
:100A2000ED91FC91579760835096ED91FC91519711
:100A300080818064808381E090E00F90DF91CF918E
:100A40001F910F91FF90DF90CF900895BF92CF92AA
:100A5000DF92EF92FF92CF93DF93EC016A017B016B
:100A6000B22EE889F98982E08083411581EE58072A
:100A700061057105A1F060E079E08DE390E0A701E8
:100A800096010E948D29215031094109510956953D
:100A9000479537952795211580E1380798F0E88923
:100AA000F989108260E874E88EE190E0A701960170
:100AB0000E948D29215031094109510956954795C8
:100AC00037952795EC85FD853083EE85FF8520835E
:100AD000188EEC89FD89B082EA89FB89808180616A
:100AE0008083EA89FB89808188608083EA89FB8929
:100AF000808180688083EA89FB8980818F7D808303
:100B0000DF91CF91FF90EF90DF90CF90BF9008954D
:100B10001F920F920FB60F9211242F938F939F93D2
:100B2000EF93FF93E0915A03F0915B038081E09192
:100B30006003F091610382FD12C090818091630394
:100B40008F5F8F7320916403821751F0E0916303EC
:100B5000F0E0E65BFC4F958F8093630301C08081DA
:100B6000FF91EF919F918F912F910F900FBE0F905A
:100B70001F9018951F920F920FB60F9211242F936A
:100B80003F934F935F936F937F938F939F93AF9315
:100B9000BF93EF93FF938AE493E00E947E04FF915A
:100BA000EF91BF91AF919F918F917F916F915F91E5
:100BB0004F913F912F910F900FBE0F901F9018955E
:100BC0008AE493E00E94410421E0892B09F420E0AB
:100BD000822F089510924D0310924C0388EE93E0FB
:100BE000A0E0B0E080934E0390934F03A093500396
:100BF000B09351038DEF91E090934B0380934A03A0
:100C000085EC90E0909357038093560384EC90E03A
:100C1000909359038093580380EC90E090935B038A
:100C200080935A0381EC90E090935D0380935C0382
:100C300082EC90E090935F0380935E0386EC90E0FB
:100C40009093610380936003109263031092640396
:100C500010926503109266030895AF92BF92CF92EF
:100C6000DF92EF92FF920F931F93CF93DF936C016C
:100C70007B01C0E0D0E000E010E0F601EC0FFD1FCA
:100C80004AE050E06281C7010E9437085C016EE2D1
:100C9000C7010E941A078A0D9B1D080F191F219674
:100CA000C330D10551F74AE050E0F6016581C70134
:100CB0000E943708800F911FDF91CF911F910F91F4
:100CC000FF90EF90DF90CF90BF90AF9008952DE010
:100CD00032E0FC0131832083128213821482158258
:100CE00008950F93FC018DE092E0918380836283ED
:100CF0004383248305830F9108952DE032E0FC01A6
:100D000031832083FB014081518162817381FC0129
:100D100042835383648375830895FB01408151812D
:100D200062817381FC0142835383648375830895D8
:100D30008DE092E09093E8038093E7031092E9033B
:100D40001092EA031092EB031092EC030895CF92F5
:100D5000DF92EF92FF920F931F93CF93DF936C017B
:100D60007A01EB01E60EF71E00E010E0CE15DF057C
:100D700061F06991D601ED91FC910190F081E02D37
:100D8000C6010995080F191FF1CFC801DF91CF9156
:100D90001F910F91FF90EF90DF90CF900895611514
:100DA000710581F0DB010D900020E9F7AD014150A4
:100DB0005109461B570BDC01ED91FC910280F38138
:100DC000E02D099480E090E00895EF92FF920F9358
:100DD0001F93CF93DF938C01FB01C0E0D0E06491BF
:100DE0007F018FEFE81AF80A662361F0D801ED91D0
:100DF000FC910190F081E02DC8010995C80FD91F21
:100E0000F701EDCFCE01DF91CF911F910F91FF90B0
:100E1000EF900895DC01ED91FC91DB0114964D916A
:100E20005C9115976D917C910280F381E02D09947E
:100E30000C94CF06DC01ED91FC910190F081E02D46
:100E40000994DB01ED91FC9111970190F081E02D67
:100E5000BC01CD0109940F931F93CF93DF93EC0155
:100E60006DE00E941A078C016AE0CE010E941A0709
:100E7000800F911FDF91CF911F910F9108950F93D4
:100E80001F93CF93DF93EC010E94E5068C01CE0106
:100E90000E942B07800F911FDF91CF911F910F911F
:100EA00008950F931F93CF93DF93EC010E940A07DD
:100EB0008C01CE010E942B07800F911FDF91CF91F3
:100EC0001F910F9108950F931F93CF93DF93EC0120
:100ED0000E94CF068C01CE010E942B07800F911F2C
:100EE000DF91CF911F910F9108950F931F93CF938F
:100EF000DF93EC010E9421078C01CE010E942B0799
:100F0000800F911FDF91CF911F910F9108958F92C4
:100F10009F92AF92BF92CF92DF92EF92FF920F9388
:100F20001F93CF93DF93CDB7DEB7A1970FB6F89499
:100F3000DEBF0FBECDBF7C01C42EE52FCB01D22E6C
:100F400019A221E02D1510F02AE0D22E8E010F5D9E
:100F50001F4F8D2C912CA12CB12C6C2D7E2FA50117
:100F600094010E948D298C2DD29E8019112401504C
:100F700011098A3014F4805D01C0895CF801808316
:100F8000211531054105510521F0C22EE32FCA017B
:100F9000E4CFB801C7010E94CF06A1960FB6F8941E
:100FA000DEBF0FBECDBFDF91CF911F910F91FF909C
:100FB000EF90DF90CF90BF90AF909F908F9008956B
:100FC000CF92DF92EF92FF920F931F93CF93DF9315
:100FD000EC016A017B012115310579F4E881F98181
:100FE0000190F081E02D642FDF91CF911F910F913F
:100FF000FF90EF90DF90CF9009942A303105E9F40B
:1010000077FF1AC06DE20E941A078C01442755270A
:10101000BA014C195D096E097F092AE0CE010E94D0
:101020008707800F911FDF91CF911F910F91FF9044
:10103000EF90DF90CF9008952AE0B701A601CE018E
:10104000DF91CF911F910F91FF90EF90DF90CF90A4
:101050000C9487072115310541F4DC01ED91FC91D9
:101060000190F081E02D642F09940C9487079A0178
:10107000462F50E060E070E00C942A080F931F9315
:10108000CF93DF93EC019A01462F50E060E070E0CF
:101090000E942A088C01CE010E942B07800F911F0D
:1010A000DF91CF911F910F9108954F925F926F92B0
:1010B0007F928F929F92AF92BF92CF92DF92EF92E8
:1010C000FF920F931F93CF93DF93EC016A017B0193
:1010D000B22E9A01AB01C701B6010E94242C8823CD
:1010E00019F06FE072E027C026013701E89477F825
:1010F0002FEF3FEF4FE75FE7C301B2010E94242CBF
:1011000081110DC02FEF3FEF4FE75FE7C301B20141
:101110000E946E2A18161CF463E172E00CC02FEFD7
:101120003FEF4FE75FE4C701B6010E94BD2B1816E1
:10113000ACF467E172E0CE01DF91CF911F910F9186
:10114000FF90EF90DF90CF90BF90AF909F908F90E7
:101150007F906F905F904F900C94CF062FEF3FEFF2
:101160004FE75FECC701B6010E946E2A87FDE1CF11
:1011700020E030E0A901C701B6010E946E2A87FF76
:101180000AC06DE2CE010E941A078C01F7FAF094B2
:10119000F7F8F09402C000E010E0A12C60E070E0ED
:1011A00080E09FE3AB1441F020E030E040E251E406
:1011B0000E94722AA394F6CF9B01AC01C701B6012D
:1011C0000E940A2A6B017C010E94DF2A2B013C014C
:1011D0000E940B2B9B01AC01C701B6010E94092A9A
:1011E0006B017C012AE0B301A201CE010E948707B6
:1011F000080F191FBB2039F06BE172E0CE010E948D
:10120000CF06080F191F7B2C772041F120E030E03A
:1012100040E251E4C701B6010E94C12B6B017C0181
:101220000E94DA2A4B01AA2497FCA094BA2C2AE047
:1012300030E0B501A401CE010E94E007080F191F9C
:10124000C501B4010E940D2B9B01AC01C701B60181
:101250000E94092A6B017C017A94D6CFC801DF91E4
:10126000CF911F910F91FF90EF90DF90CF90BF90A3
:10127000AF909F908F907F906F905F904F90089568
:101280000C945508FC01808191810C94C02CCF9363
:10129000DF93EC0188819981009711F00E94C02CA6
:1012A000198218821D821C821B821A82DF91CF91C3
:1012B00008950F931F93CF93DF93EC018B016F5F22
:1012C0007F4F888199810E94AC2D009731F09983DE
:1012D00088831B830A8381E001C080E0DF91CF9186
:1012E0001F910F910895CF93DF93EC01888199812D
:1012F000892B29F08A819B818617970760F4CE019C
:101300000E945909882341F08C819D81892B19F411
:10131000E881F981108281E0DF91CF910895EF9209
:10132000FF920F931F93CF93DF93EC017B018A0110
:10133000BA010E947309811104C0CE010E944709BD
:1013400007C01D830C83B701888199810E944C31AD
:10135000CE01DF91CF911F910F91FF90EF900895F3
:10136000FC0111821082138212821582148261158F
:10137000710559F0FB0101900020E9F7AF014150E0
:101380005109461B570B0C948F090895CF93DF9397
:10139000EC01FB018617970761F06081718161158F
:1013A000710529F0448155810E948F0902C00E9475
:1013B0004709CE01DF91CF910895FC01118210827F
:1013C00013821282158214820C94C609CF93DF9384
:1013D000EC016115710561F0FB0101900020E9F756
:1013E000AF0141505109461B570B0E948F0902C0A3
:1013F0000E944709CE01DF91CF910895EF92FF92AD
:101400000F931F93CF93DF93EC017B010C811D8120
:101410006115710511F480E016C04115510591F078
:10142000040F151FB8010E9473098823A1F32881B6
:1014300039818C819D81B701820F931F0E944C31AD
:101440001D830C8381E0DF91CF911F910F91FF905D
:10145000EF900895FB0144815581608171810C9466
:10146000FE09CF93DF9300D0CDB7DEB769831A8230
:1014700041E050E0BE016F5F7F4F0E94FE090F9078
:101480000F90DF91CF910895CF93DF93EC01FB0193
:1014900044815581608171810E94FE09811103C0E0
:1014A000CE010E944709CE01DF91CF910895CF93DD
:1014B000DF93EC016115710569F0FB0101900020DB
:1014C000E9F7AF0141505109461B570B0E94FE0935
:1014D000811103C0CE010E944709CE01DF91CF9157
:1014E0000895CF93DF93EC010E94310A811103C06C
:1014F000CE010E944709CE01DF91CF910895FC01F2
:1015000024813581232B31F421E061157105A1F08F
:10151000FB0108C0FC01808191816115710531F4E6
:1015200021E0FC018081882339F005C00E9443310D
:1015300021E0892B09F020E0822F0895FC018481AD
:1015400095816817790720F480819181009729F4AB
:101550001092ED038DEE93E00895860F971F089586
:10156000FC01808591852681378182179307A4F439
:10157000A481B5819C012F5F3F4F31872087A80F41
:10158000B91F6C93A481B58180859185A80FB91F7F
:101590001C9281E090E0089580E090E00895CF9360
:1015A000DF93EC0188819981DC01ED91FC91019040
:1015B000F081E02D09952A813B81280F391F3B835B
:1015C0002A83DF91CF910895DB01ED91FC91119772
:1015D0000190F081E02DBC01CD0109940F931F9380
:1015E000CF93DF938C01F801C281D3818881992741
:1015F00087FD90950E940D31892B29F02196F801E5
:10160000D383C283F0CFDF91CF911F910F910895C3
:101610000F931F93CF93DF931F92CDB7DEB78C014B
:1016200069830E94EE0AD8011296ED91FC911397FE
:101630008081698186130AC031961396FC93EE93DC
:101640001297C8010E94EE0A81E001C080E00F906D
:10165000DF91CF911F910F910895FB012191BF015F
:10166000222379F0DC011296ED91FC9113973081E1
:10167000321307C03196DC011396FC93EE93129758
:10168000ECCF81E0211180E00895BF92CF92DF92EC
:10169000EF92FF920F931F93CF93DF937C01EB01A7
:1016A000009771F46DE172E0CE01DF91CF911F914F
:1016B0000F91FF90EF90DF90CF90BF900C941807A0
:1016C000E881F9810190F081E02D62E2CE01099577
:1016D0008C01F70161917F01662351F0EDE2F2E0A8
:1016E000B080BB2079F191819617B1F03296F8CF96
:1016F000E881F9810190F081E02D62E2CE01099547
:10170000800F911FDF91CF911F910F91FF90EF906C
:10171000DF90CF90BF900895E881F9810190F0812A
:10172000E02D6CE5CE0109956C01E881F98101900D
:10173000F081E02D6B2DCE0109958C0D9D1D080FBC
:10174000191FC7CFE881F9810190F081E02DCE010A
:101750000995F5CFCF93FC015081523229F05732D1
:1017600019F080E090E023C09C012F5F3F4FD9012A
:10177000F901CF0101964081442399F3451791F077
:101780004C3569F401964181E1E3F2E0C081CC235C
:1017900031F0C41302C0418102C03296F7CF4D939D
:1017A000FC01E7CF1C92FB0191838083C901CF919B
:1017B0000895CF93DF93EC01BC0184E090E00E9498
:1017C000E40AFC01009729F0D183C08313821282BE
:1017D00002C088EF93E0DF91CF910895CF93DF931C
:1017E000EC01BC0184E090E00E94E40AFC01009757
:1017F00029F0D183C0831382128202C084EF93E068
:10180000DF91CF9108950F931F93CF93DF938B01B7
:10181000FC01C281D381209759F0B8018A819B8154
:101820000E944331892B39F00990D881C02DF3CF24
:1018300080E090E001C0CE01DF91CF911F910F9128
:101840000895FC01208131812530310519F4828110
:101850009381089580E090E00895FC01808191815A
:10186000892B29F084E090E091838083628308953E
:10187000FC0180819181892B31F085E090E091839A
:101880008083738362830895FC0180819181892B19
:1018900049F030E0295F3F4F3183208342835383F7
:1018A000648375830895FC0180819181892B41F0C7
:1018B00086E090E0918380834283538364837583C1
:1018C0000895FC0180819181892B31F082E090E0C4
:1018D00091838083738362830895FC018081918169
:1018E000892B31F083E090E091838083738362835E
:1018F0000895CF93DF93FC01EB01208131812230E9
:10190000310531F482819381DF91CF910C94CF0C1A
:101910002330310531F482819381DF91CF910C9492
:10192000F50C2530310539F4688179818281938104
:101930000E94450B2BC02630310559F4428153815A
:10194000648175812AE030E0888199810E94E007F6
:101950001DC02430310569F48281882319F062E2C8
:1019600072E002C067E272E0888199810E941807E4
:101970000DC02730310584F0275030E0428153817B
:1019800064817581888199810E9440092A813B8107
:10199000280F391F3B832A83DF91CF9108950F933E
:1019A0001F93CF93DF93EC018B016BE5C8010E947D
:1019B000CF0A0A80DB81C02D209779F0B801CE01D3
:1019C00002960E94790C0990D881C02D209729F0A9
:1019D0006CE2C8010E94CF0AF1CF6DE5C801DF912A
:1019E000CF911F910F910C94CF0A0F931F93CF9318
:1019F000DF938C01EB016BE7CE010E94CF0AF80167
:101A0000028113810115110509F168817981F801BD
:101A1000828193810E94450B2A813B81280F391FC7
:101A20003B832A836AE3CE010E94CF0ABE01C8012C
:101A300004960E94790CF8010081118101151105AD
:101A400029F06CE2CE010E94CF0ADFCF6DE7CE0114
:101A5000DF91CF911F910F910C94CF0AFC0160810F
:101A600071816115710579F08AE090E00E94E40AC5
:101A7000FC01009741F01182108281E090E0958393
:101A80008483CF01089580E090E00895DC011296F0
:101A9000ED91FC911397309749F0808191810097E7
:101AA00011F0FC01FACF718360830895FC01738308
:101AB00062830895EF92FF920F931F93CF93DF936A
:101AC0008C017B010E94030CEC01009761F4C801BA
:101AD0000E942E0DEC01009749F0FB82EA82BC01C6
:101AE000C8010E94460DCE01049602C08EEE93E01E
:101AF000DF91CF911F910F91FF90EF900895EF929A
:101B0000FF920F931F93CF93DF93EC018B0188819A
:101B10009981009761F00E94EE0B7C01B801CE0123
:101B20000E945A0DB7010E946D0CC70102C084EFDC
:101B300093E0DF91CF911F910F91FF90EF90089567
:101B4000FC01608171816115710579F088E090E098
:101B50000E94E40AFC01009741F01182108281E0AA
:101B600090E093838283CF01089580E090E0089510
:101B7000DC011296ED91FC911397309749F080812A
:101B80009181009711F0FC01FACF71836083089571
:101B9000FC017383628308950F931F93CF93DF93A8
:101BA0008C010E94A00DEC01009739F0BC01C80126
:101BB0000E94B80DCE01029602C08EEE93E0DF9136
:101BC000CF911F910F910895EF92FF920F931F9362
:101BD000CF93DF93EC01888199810E94D90B7C011E
:101BE0006BE5CE010E94080B811103C088EF93E0E2
:101BF00022C06DE5CE010E94080B81111BC0C701F8
:101C00000E94CC0D8C01BC01CE010E94220EF80175
:101C1000208131812230310548F36DE5CE010E94EB
:101C2000080B811107C06CE2CE010E94080B8111E4
:101C3000E6CFDCCFC701DF91CF911F910F91FF90CD
:101C4000EF900895EF92FF920F931F93CF93DF933E
:101C500000D0CDB7DEB78C017B01DC0114968C91EE
:101C60001497882309F4A3C0815014968C93C8015B
:101C70000E94EE0AF80182819381DC012C912A33C3
:101C80007CF420330CF03FC0273209F461C024F407
:101C9000223209F45DC065C02D522230A0F161C02E
:101CA0002E3609F442C02CF42B3581F02636B1F0E3
:101CB00058C0243799F02B3709F053C0C8010E944F
:101CC000E00EBC01C7010E946D0C4BC0C8010E9410
:101CD000E40DBC01C7010E94610C43C062E272E0E6
:101CE000C8010E942D0B882311F061E008C067E253
:101CF00072E0C8010E942D0B882309F160E0C70142
:101D00000E942D0C2EC04AE050E0BE016F5F7F4F55
:101D10000E94D92FAB01BC01E981FA8180818E320A
:101D200029F18F7D8534D1F521C06DE172E0C801C4
:101D30000E942D0B882319F060E070E00FC086E050
:101D4000EEEEF3E0D70101900D928A95E1F709C01C
:101D5000B8016E5F7F4F0E94AA0BBC01C7010E94B1
:101D6000380CF80184818F5F848321C0B8016E5FD5
:101D70007F4FD80112968D919C9113970E94762ED9
:101D8000AB01BC01F8012281338189819A81281B32
:101D9000390B2150C7010E94440CE3CFD8011396A0
:101DA000FC93EE931297C7010E94530CDACF0F9069
:101DB0000F90DF91CF911F910F91FF90EF900895B9
:101DC000CF92DF92EF92FF920F931F93CF93DF9307
:101DD000EC01888199810E94EE0B6C016BE7CE01CA
:101DE0000E94080B811103C084EF93E035C06DE7BA
:101DF000CE010E94080B81112EC07E0182E0E80E08
:101E0000F11CB7018A819B810E94AA0B8C0100976B
:101E100059F36AE3CE010E94080B882329F3B80125
:101E2000C6010E945A0D8C01BC01CE010E94220EF7
:101E3000F8012081318122303105B0F26DE7CE0109
:101E40000E94080B811107C06CE2CE010E94080BB2
:101E50008111D7CFC9CFC601DF91CF911F910F91CB
:101E6000FF90EF90DF90CF900895CF93DF9300D055
:101E700000D01F92CDB7DEB79A8389837C836B83B2
:101E80004D83CE0101960E94E00E0F900F900F90AF
:101E90000F900F90DF91CF9108951092F903109257
:101EA000F8031092FB031092FA031092F5031092BC
:101EB000F4031092F7031092F6031092EF031092BE
:101EC000EE03089520919C04222381F0213051F4E7
:101ED0002DB320939A043DB320919B042095232396
:101EE0002DBB04C02FB720939A04F8948CBD9DBDE0
:101EF000089590919C04992339F080919A0491302F
:101F000011F48DBB08958FBF089544E050E0BC01EB
:101F100081E090E00C947F1844E050E0BC0185E043
:101F200090E00C947F1844E050E0BC018FE090E01A
:101F30000C947F18AF92BF92CF92DF92EF92FF92F4
:101F40000F931F93CF93DF9300D000D000D0CDB775
:101F5000DEB76C015B0180916604811107C083E4E8
:101F600094E00E94A31381E0809366048CEF93E0D9
:101F7000F601978386838AE894E00E941F1880E523
:101F800090E00E94620F46E050E0B50189E090E0E9
:101F90000E947F1800E020E040E060E0CE01019662
:101FA0000E947106CE0103960E94930F0E94790F42
:101FB00010EAE12E1FE0F12E00E010E020E63AEEFC
:101FC00040E050E0B501F601868197810E945D25D1
:101FD0005C0181309105B9F580E590E00E94620FC7
:101FE000F60166817781CE0101960E94A520CE017F
:101FF00003960E94930FF60166817781CE010196C8
:102000000E94BB20CE0103960E94850FF6016681D7
:102010007781CE0101960E94B020CE0103960E94E6
:102020008C0F0E94790FF60166817781CE010196AF
:102030000E94C6204B815C816D817E81F6014283C6
:10204000538364837583C50126960FB6F894DEBF6B
:102050000FBECDBFDF91CF911F910F91FF90EF90F9
:10206000DF90CF90BF90AF900895CF93DF93EC01B6
:102070000E94670680E590E00E94620FBE016E5FDD
:102080007F4F44E050E08FE090E00E94B0190E9442
:10209000790FCE01DF91CF9108952DE032E0FC0160
:1020A00031832083FB014281538164817581FC016E
:1020B000428353836483758308950F9300E020E087
:1020C00040E060E086E794E00E9471068EE594E0CF
:1020D0000F910C946706DC01ED91FC91008CF18D61
:1020E000E02D099591E089270895CF93DF931F9202
:1020F000CDB7DEB76983DC01ED91FC910280F381FD
:10210000E02D41E050E0BE016F5F7F4F09950F90D9
:10211000DF91CF91089521E0FC018485843009F49A
:1021200020E0822F0895FC019485FB01848598139B
:1021300003C081E0943009F480E008950F931F9369
:10214000CF93DF93EC018A018C85843021F00E94CB
:10215000C115892B39F481E090E09B838A8380E06C
:1021600090E001C0C801DF91CF911F910F910895B8
:10217000FC018485843011F00C94B81680E090E066
:102180000895CF93DF931F92CDB7DEB741E050E0C3
:10219000BE016F5F7F4FFC0184850E9458161816A0
:1021A00019061CF4898190E002C08FEF9FEF0F9019
:1021B000DF91CF910895FC0184850C9458160F93FC
:1021C0001F93CF93DF931F92CDB7DEB78C01DC0155
:1021D000ED91FC910480F581E02D0995892B51F05A
:1021E000BE016F5F7F4FF80184850E94E3168981ED
:1021F00090E002C08FEF9FEF0F90DF91CF911F9182
:102200000F910895FC0184850C941217CF92DF92F0
:10221000EF92FF920F931F93CF93DF93CDB7DEB76B
:10222000AF970FB6F894DEBF0FBECDBF7C018B0118
:102230006A01CE0101960E946706CE0109960E94AE
:10224000A313CE018A960E9467066EE574E0CE0164
:1022500084960E944D10BE016C5D7F4FCE010196A9
:102260000E94A225AE01465D5F4FB801CE010196E6
:102270000E94072881309105C1F4D701ED91FC91AE
:102280000484F585E02D8DE092E09DA38CA30CA540
:102290001DA52EA53FA50EA31FA328A739A7A601FC
:1022A000BE016C5D7F4FC7010995AF960FB6F894DC
:1022B000DEBF0FBECDBFDF91CF911F910F91FF9079
:1022C000EF90DF90CF900895FC011382128248EEC8
:1022D00053E060E070E0448355836683778388E44D
:1022E00092E09183808384E084870895FC01848553
:1022F000843011F00C949D1480E00895DF92EF92E9
:10230000FF920F931F93CF93DF93EC017B018A0120
:102310008C85843009F045C0D12C8D2D0E949D14F0
:10232000811102C0DC8607C08B7F8831D9F3D3943A
:1023300084E0D812F2CF8C85843099F1209110017D
:10234000309111012F5F3F4F11F420E034E03093C2
:10235000110120931001409110015091110120E0D2
:1023600061E00E94EF14B7016E5F7F4FA8018C857A
:102370000E944315811103C084E08C8712C0CE01F6
:102380000E947611873151F061E070E080E090E0CA
:102390000E943D1FCE010E947611ECCF81E090E0BB
:1023A00002C080E090E0DF91CF911F910F91FF90EC
:1023B000EF90DF900895CF92DF92EF92FF92CF934C
:1023C000DF93EC018C85843081F10E949B150E9483
:1023D0000E1F6B017C01CE010E947611882359F0FB
:1023E0000E940E1F6C197D098E099F09683E73407B
:1023F0008105910598F0CE010E947611882319F08D
:102400008C850E94C514EC85F0E0EE0FFF1FE259A9
:10241000FB4F1182108284E08C8707C061E070E07E
:1024200080E090E00E943D1FD6CFDF91CF91FF90DA
:10243000EF90DF90CF900895CF93DF93EC018C85E0
:102440008430D1F0CE010E9476118431A9F0882326
:1024500099F0883189F08C3169F4E881F981048040
:10246000F581E02DCE01099521E0892B09F420E0CA
:10247000822F03C081E001C080E0DF91CF910895F9
:102480000F9300E020E040E060E08CE794E00E94E1
:1024900071060F910895DC01ED91FC91008CF18D96
:1024A000E02D09942DE032E0FC0131832083FB0113
:1024B0004189528963897489FC014283538364830F
:1024C00075830895FC01858996890895FC01818DA5
:1024D000928D0895CF93DF931F92CDB7DEB76983B6
:1024E000DC01ED91FC910280F381E02D41E050E0B0
:1024F000BE016F5F7F4F09950F90DF91CF910895D7
:10250000CF93DF93EC01898D9A8D892B41F0E8817F
:10251000F9810680F781E02DCE010995F4CFDF9196
:10252000CF910895CF93DF93EC018C85843061F0D7
:102530000E94C514EC85F0E0EE0FFF1FE259FB4F3F
:102540001182108284E08C87DF91CF910895FC0185
:10255000108E178A6E5F7F4F84850C945A17FC018A
:1025600084850C94A017CF93DF93EC019A018F8997
:10257000988DAB01BC018C850E9413172F89388D73
:10258000280F391F388F2F8BDF91CF9108950F932C
:102590001F93CF93DF931F92CDB7DEB78C01FC0161
:1025A000818D928D892B59F041E050E0BE016F5F23
:1025B0007F4F84850E945816181619061CF08FEF5D
:1025C0009FEF08C0F801818D928D0197928F818FC6
:1025D000898190E00F90DF91CF911F910F91089525
:1025E000CF93DF93EC01898D9A8D009719F48FEFCB
:1025F0009FEF10C04817590708F0AC018C850E9466
:102600005816181619069CF7298D3A8D281B390B78
:102610003A8F298FDF91CF910895CF93DF931F9247
:10262000CDB7DEB7FC01218D328D232B49F0BE01E1
:102630006F5F7F4F84850E94E316898190E002C01E
:102640008FEF9FEF0F90DF91CF910895FF920F933F
:102650001F93CF93DF93EC018B018C858430E1F4E1
:10266000F12C8F2D0E949D14811102C0FC8606C0A2
:102670008831E1F3F39484E0F812F3CF8C85843051
:1026800059F01E870D871A8E198E20E0A80162E08E
:102690000E94EF1481E001C080E0DF91CF911F9193
:1026A0000F91FF9008950F931F93CF93DF93CDB7B2
:1026B000DEB728970FB6F894DEBF0FBECDBF8C01F2
:1026C000DC01ED91FC910284F385E02D0995F80180
:1026D00084850E94B8161816190644F548E050E0A3
:1026E000BE016F5F7F4FD8011C968C910E945816D7
:1026F00018161906ECF4BE016F5F7F4FC8010F96E4
:102700000E948D068D8190E0982F88272E81820F60
:10271000911DF801968B858B8F8190E0982F8827EB
:102720002885820F911D928F818F02C080E090E0FA
:1027300028960FB6F894DEBF0FBECDBFDF91CF91C4
:102740001F910F910895FC011382128248EE53E00D
:1027500060E070E0448355836683778388E692E087
:102760009183808384E08487CF010F960C94670661
:10277000CF92DF92EF92FF920F931F93CF93DF934D
:10278000CDB7DEB7AF970FB6F894DEBF0FBECDBFA3
:102790007C018B016A01CE0101960E946706CE0181
:1027A00009960E94A313CE018A960E9467066EE5E1
:1027B00074E0CE0184960E944D10BE016C5D7F4F87
:1027C000CE0101960E94A225AE01465D5F4FB80181
:1027D000CE0101960E94072881309105C1F4D701EE
:1027E000ED91FC910088F189E02D8DE092E09DA3B0
:1027F0008CA30CA51DA52EA53FA50EA31FA328A73E
:1028000039A7A601BE016C5D7F4FC7010995AF9640
:102810000FB6F894DEBF0FBECDBFDF91CF911F91F1
:102820000F91FF90EF90DF90CF9008950F9300E00D
:1028300020E040E060E082E894E00E9471060F91A1
:102840000895CF92DF92EF92FF920F9330E0C12C68
:10285000F2E1DF2EFAE7EF2EF12C4C155D056E0547
:102860007F0540F4F694E794D794C7943F5F3630E1
:10287000A1F737E041E04327211102C050E701C032
:1028800050E5242F30E03595279523700C70202BD0
:10289000252BFC012083417041830F91FF90EF9025
:1028A000DF90CF90089590E0982F882744E050E083
:1028B000845F9B4F0C947F18282F30E02C5F3F4F94
:1028C000922F8827860F971F0C94AE1862E070E055
:1028D0000C945C14FB01282F30E02C5F3F4F922FAB
:1028E0008827642F8E0F9F1F0C94FD17CF93DF93C3
:1028F000C82FD62F472F64E070E00E946A144D2F36
:1029000065E070E08C2FDF91CF910C946A14462F14
:1029100062E070E00C946A14CF93DF93C82FD62F37
:10292000472F60E170E00E946A144D2F61E170E072
:102930008C2FDF91CF910C946A140F931F93CF9338
:10294000DF9300D01F92CDB7DEB7182F00E021E053
:1029500040E059E06DE370E0CE0101960E94211441
:1029600089819A810E94620F63E070E0812F0E944A
:102970005C148B830E94790F8B810F900F900F90C6
:10298000DF91CF911F910F9108950F931F93CF93D4
:10299000DF9300D0CDB7DEB7182F00E021E040E094
:1029A00059E06DE370E0CE0101960E942114898107
:1029B0009A810E94620F40E150E0612F8AE894E022
:1029C0000E94781A6FEF812F0E9487140E94790F5E
:1029D0000F900F90DF91CF911F910F910895CF929B
:1029E000DF92EF92FF920F931F93CF93DF9300D06C
:1029F000CDB7DEB7182FD62E7A01C22E8FEF860FF5
:102A00008530A8F5812F0E94C51400E021E040E048
:102A100059E06DE370E0CE0101960E942114898196
:102A20009A810E94620F4D2D4C2960E070E0812F49
:102A30000E946A14E114F10411F0B7010AC0609118
:102A40008804709189046F5F7F4F7093890460934D
:102A50008804812F0E94761441E050E0612F8AE8BB
:102A600094E00E94781A0E94790F81E001C080E012
:102A70000F900F90DF91CF911F910F91FF90EF90EA
:102A8000DF90CF900895CF92DF92EF92FF920F9355
:102A90001F93CF93DF9300D0CDB7DEB7182F7B0104
:102AA0006A01FB0180818F3F51F481818F3F99F44E
:102AB00082818F3F81F483818F3F69F430C081111F
:102AC0000AC0FB018181811106C08281811103C08E
:102AD0008381882321F1C114D10409F100E021E0B0
:102AE00040E059E06DE370E0CE0101960E942114B0
:102AF00089819A810E94620FB701812F0E9453142D
:102B0000B601812F0E948C1444E050E0612F8AE8C6
:102B100094E00E94781A0E94790F81E001C080E061
:102B20000F900F90DF91CF911F910F91FF90EF9039
:102B3000DF90CF9008950F931F93CF93DF9300D032
:102B4000CDB7DEB7182F00E021E040E059E06DE39B
:102B500070E0CE0101960E94211489819A810E9421
:102B6000620F48E050E0612F8AE894E00E94781AF2
:102B70000E94790F0F900F90DF91CF911F910F91CD
:102B80000895BF92CF92DF92EF92FF920F931F931F
:102B9000CF93DF9300D01F92CDB7DEB7B82E6B0175
:102BA0007A01413088E0580718F0E12C98E0F92EBE
:102BB00000E021E040E059E06DE370E0CE010196D5
:102BC0000E94211489819A810E94620F6B2D8AE8EC
:102BD00094E00E94E6188C0163E070E08B2D0E9467
:102BE0005C148B830E94790F8B81873111F08C31BB
:102BF00031F40E949D200E151F05D0F202C0E12C79
:102C0000F12C00E021E040E059E06DE370E0CE01FE
:102C100001960E94211489819A810E94620F970176
:102C2000A6016B2D8AE894E00E94A51940E250E0CD
:102C30006B2D8AE894E00E94781A8B2D0E9466140E
:102C400084FD22C063E070E08B2D0E945C14811132
:102C500008C00E94790F8B2D0E94C51480E090E07F
:102C60001AC00E94790F0E949D2000E021E040E000
:102C700059E06DE370E0CE0101960E942114898134
:102C80009A810E94620FD9CF60E18B2D0E94871438
:102C90000E94790FC7010F900F900F90DF91CF9195
:102CA0001F910F91FF90EF90DF90CF90BF9008950C
:102CB000AF92BF92CF92DF92EF92FF920F931F934A
:102CC000CF93DF9300D0CDB7DEB7182F5B016A0139
:102CD00000E021E040E059E06DE370E0CE010196B4
:102CE0000E94211489819A810E94620F612F8AE8D3
:102CF00094E00E941A197C010097A1F463E070E04F
:102D0000812F0E945C14843119F1882309F121E09C
:102D100030E08C3111F420E030E0EE24FF24E21AA0
:102D2000F30A16C0C816D9060CF476011E141F0447
:102D30007CF400E09701A501612F8AE894E00E94ED
:102D4000281A40E450E0612F8AE894E00E94781A43
:102D50000E94790FC7010F900F90DF91CF911F91C3
:102D60000F91FF90EF90DF90CF90BF90AF900895BC
:102D70000F931F93CF93DF9300D000D0CDB7DEB772
:102D8000182F00E021E040E059E06DE370E0CE0153
:102D900001960E94211489819A810E94620F612FFD
:102DA0008AE894E00E941A198B839C830E94790F11
:102DB0008B819C810F900F900F900F90DF91CF919E
:102DC0001F910F910895EF92FF920F931F93CF934E
:102DD000DF9300D0CDB7DEB7182F7B0100E021E0F4
:102DE00040E059E06DE370E0CE0101960E942114AD
:102DF00089819A810E94620F01E021E030E0A70101
:102E0000612F8AE894E00E94281A0E94790F81E0DD
:102E100090E00F900F90DF91CF911F910F91FF9055
:102E2000EF90089508959F92AF92BF92CF92DF9254
:102E3000EF92FF920F931F93CF93DF9300D0CDB704
:102E4000DEB7982E6B015A01790100E021E040E0E5
:102E500059E06DE370E0CE0101960E942114898152
:102E60009A810E94620F692D8AE894E00E94E61818
:102E70008E159F0530F4692D8AE894E00E94E618CB
:102E80007C0187019501A601692D8AE894E00E94E2
:102E900036190E94790FC7010F900F90DF91CF91E3
:102EA0001F910F91FF90EF90DF90CF90BF90AF9068
:102EB0009F900895CF92DF92EF92FF920F931F930E
:102EC000CF93DF9300D0CDB7DEB7182F7B016A0117
:102ED000FB018081811109C08181811106C082813D
:102EE000811103C083818823F1F0C114D104D9F08A
:102EF00000E021E040E059E06DE370E0CE01019692
:102F00000E94211489819A810E94620FB701812F4A
:102F10000E945314B601812F0E948C140E94790FD5
:102F200081E090E002C080E090E00F900F90DF9190
:102F3000CF911F910F91FF90EF90DF90CF90089568
:102F40000F931F93CF93DF9300D0CDB7DEB7182F29
:102F500000E021E040E059E06DE370E0CE01019631
:102F60000E94211489819A810E94620F40E250E000
:102F7000612F8AE894E00E94781A812F0E946614DB
:102F800084FD21C0812F0E94661483FF09C068E17F
:102F9000812F0E9487140E94790F80E090E01BC06F
:102FA0000E94790F0E949D2000E021E040E059E05E
:102FB0006DE370E0CE0101960E94211489819A810F
:102FC0000E94620FDACF60E1812F0E9487140E9475
:102FD000790F81E090E00F900F90DF91CF911F91DA
:102FE0000F9108958EBD00000DB407FEFDCF8EB584
:102FF00008952A9808952A9A08951F93CF93DF93EE
:1030000000D0CDB7DEB7182F6A8399830E94F917D5
:1030100080EF0E94F2179981892F0E94F217812F69
:103020000E94F2176A81862F0E94F2170E94FB17F6
:1030300081E00F900F90DF91CF911F910895CF9372
:10304000DF93EC016CE271E080E090E00E943D1FB4
:103050000E94881A229A80919C04882381F08130F2
:1030600051F48DB380939A049DB380919B04809515
:1030700089238DBB04C08FB780939A04F89480E5B0
:103080008CBD1DBC60E880E090E00E94FD1765E506
:103090008BE190E00E94FD1765E58AE190E00E94D7
:1030A000FD1790919C04992339F080919A049130F6
:1030B00011F48DBB01C08FBF80E090E499838883B9
:1030C00080E090E69987888780E098E49B838A83F4
:1030D00080E098E69B878A8780E090E59D838C83DB
:1030E00080E090E79D878C8780E098E59F838E83C2
:1030F00080E098E79F878E87DF91CF910895CF92E8
:10310000DF92EF92FF920F931F93CF93DF93EC0127
:103110007A018B016C01C40ED51ECC15DD05A1F022
:103120000E94F91780EF0E94F2178D2F0E94F2176C
:103130008C2F0E94F2172196F80181918F010E9435
:10314000F2170E94FB17E9CFC701DF91CF911F91C2
:103150000F91FF90EF90DF90CF9008951F93CF9342
:10316000DF931F92CDB7DEB7182F99830E94F9170E
:103170008FE00E94F2179981892F0E94F217812F08
:103180000E94F21780E00E94F21789830E94FB17C9
:1031900089810F90DF91CF911F9108951F93CF9355
:1031A000DF93182F60E270E00E945C14C82FD0E01B
:1031B00061E270E0812F0E945C14DC2FCC279E011D
:1031C000282BC901DF91CF911F910895FF920F9392
:1031D0001F93CF93DF93F62EC0E0D0E08F2D0E9497
:1031E000CE188C01009721F08F2D0E94CE18EC0193
:1031F000C017D10799F7CE01DF91CF911F910F91A1
:10320000FF9008951F93CF93DF93182F66E270E02D
:103210000E945C14C82FD0E067E270E0812F0E940A
:103220005C14DC2FCC279E01282BC901DF91CF91A4
:103230001F910895FF920F931F93CF93DF93F62E64
:10324000C0E0D0E08F2D0E9402198C01009721F080
:103250008F2D0E940219EC01C017D10799F7CE01FA
:10326000DF91CF911F910F91FF9008956F927F9200
:103270009F92AF92BF92CF92DF92EF92FF920F9305
:103280001F93CF93DF931F92CDB7DEB7D82E962E24
:103290003A01590164E270E0892D99830E945C141F
:1032A000E82EF12C65E270E0892D0E945C14FE2C62
:1032B000EE24E82AE60CF71C970137706D2C9981F3
:1032C000792E690C711C690C711CD301ED91FC9174
:1032D000E20FF31FC901800F911F81309840A0F0C9
:1032E000C12C48E0D42EC21AD30AA601B501CF01E1
:1032F0000E947F18A8014C195D09B5016C0D7D1D58
:10330000F3018081918103C0A801B501CF010E9422
:103310007F18E00EF11E4F2D64E270E0892D0E94AF
:103320006A144E2D65E270E0892D0F90DF91CF91E8
:103330001F910F91FF90EF90DF90CF90BF90AF90D3
:103340009F907F906F900C946A140F931F93890144
:103350009A0140E050E00E9436191F910F910895A4
:10336000CF92DF92EF92FF920F931F93CF93DF9351
:10337000EC017A018B016C01C40ED51ECC15DD0564
:10338000A9F00E94F9178FE00E94F2178D2F0E947A
:10339000F2178C2F0E94F217219680E00E94F217FC
:1033A000F80181938F010E94FB17E8CFC701DF91DD
:1033B000CF911F910F91FF90EF90DF90CF900895E4
:1033C000AF92BF92CF92DF92EF92FF920F931F9333
:1033D000CF93DF9300D0CDB7DEB75A83498359012D
:1033E000E981FA81F7707C01E60EF11CE60EF11C12
:1033F000D70118968D919C9119978E0F9F1F980158
:103400002E0F3F1F2130384098F0C12C68E0D62E97
:10341000CE1ADF0AA601B5010E94B019A8014C1905
:103420005D09B5016C0D7D1DF7018085918502C098
:10343000A801B5010F900F90DF91CF911F910F91CF
:10344000FF90EF90DF90CF90BF90AF900C94B019A9
:103450008F929F92AF92BF92CF92DF92EF92FF92A4
:103460000F931F93CF93DF936C01962E5A0179012E
:10347000802E68E270E0892D0E945C14C82FD0E095
:1034800069E270E0892D0E945C14DC2FCC27C82BE8
:1034900087019501AE01692DC6010E94E0198110D6
:1034A0001AC0CE0DDF1D4D2F68E270E0892D0E94FD
:1034B0006A144C2F69E270E0892DDF91CF911F9142
:1034C0000F91FF90EF90DF90CF90BF90AF909F90C3
:1034D0008F900C946A14DF91CF911F910F91FF9000
:1034E000EF90DF90CF90BF90AF909F908F90089516
:1034F000CF93C62F61E070E08C2F0E946A1461E0C8
:1035000070E08C2F0E945C148111F9CFCF91089547
:1035100061E08AE00E941F2061E08AE00E94E61FCD
:103520008CB580618CBD8CB580648CBD61E08DE014
:103530000E94E61F61E08BE00C94E61F0F931F933F
:10354000CF93DF93EC018B016AE872E00E94B0092F
:10355000D80114968D919C911597DC01ED91FC9109
:103560000480F581E02D099518161906ACF4F801D0
:1035700084819581DC01ED91FC910680F781E02D3D
:1035800009958A3049F08D3019F38F3F09F3682F80
:10359000CE010E94310ADCCFCE01DF91CF911F9185
:1035A0000F910895AF92BF92CF92DF92EF92FF9268
:1035B0000F931F93CF93DF93CDB7DEB7C555D109D6
:1035C0000FB6F894DEBF0FBECDBF8C0189E1EBE8EA
:1035D000F2E0DE01119601900D928A95E1F780E00C
:1035E0000E94A01F0E9455207E0183E3E80EF11C7B
:1035F0006701A0E1CA0ED11C570120E031E040E094
:1036000050E061E070E080E090E00E948120F701EE
:1036100061937F01EC15FD0581F740E150E0B501B4
:10362000CE014A960E94BE28FE017A96DE011196CE
:10363000CE01C29621912D93E817F907D9F762E3DD
:1036400071E0D80114968D919C9115970E94E50622
:10365000F80160817181848195810E94180766E27A
:1036600071E0D80114968D919C9115970E94E50602
:1036700061E171E0F801848195810E94E5066BEFBC
:1036800070E0D80114968D919C9115970E94E506E3
:1036900064EF70E0F801848195810E94E506D8010D
:1036A00012966D917C91139714968D919C9115971C
:1036B0000E94180768E872E0F801848195810E94F1
:1036C000180760EE70E0D80114968D919C911597C3
:1036D0000E94E506BE016F5F7F4FF80184819581EE
:1036E0000E94180768E872E0D80114968D919C91A9
:1036F00015970E94180764EC70E0F80184819581A9
:103700000E94E50668E872E0D80114968D919C91BC
:1037100015970E941807F80184819581DC01ED91CD
:10372000FC910488F589E02D0995882369F0F8015A
:1037300084819581DC01ED91FC910480F581E02D7F
:103740000995892B09F455C0F80184819581DC0124
:10375000ED91FC910480F581E02D0995892B39F4D8
:1037600062E370E080E090E00E943D1FEDCF6AE8E8
:1037700072E0CE01805B9F4F0E94B0096AE872E060
:10378000CE01865B9F4F0E94B009B801CE018C5BD1
:103790009F4F0E949E1ABE016C5B7F4FCE01865BDD
:1037A0009F4F0E94C6096AE872E00E947F0AF82EC5
:1037B000CE018C5B9F4F0E944209F11021C0BE01D7
:1037C000665B7F4FCE018C5B9F4F0E94DD096AE0F4
:1037D000CE018C5B9F4F0E94710ABC01CE01805BC1
:1037E0009F4F0E942A0ACE018C5B9F4F0E94420984
:1037F000CCCF62E370E080E090E00E943D1F8BCF71
:10380000BE01605B7F4F8AE493E00E945107CE01C6
:10381000865B9F4F0E944209CE01805B9F4F0E94B2
:10382000420981E0CB5ADF4F0FB6F894DEBF0FBEDE
:10383000CDBFDF91CF911F910F91FF90EF90DF905F
:10384000CF90BF90AF900895CF93DF93EC018C8120
:103850009D81DC01ED91FC910190F081E02D67E804
:1038600009958C819D81DC01ED91FC910190F081A5
:10387000E02D60E009958C819D81DC01ED91FC914A
:103880000284F385E02D09956AE070E080E090E025
:103890000E943D1F8C819D81DC01ED91FC9102888D
:1038A000F389E02DDF91CF910994CF93DF93EC0161
:1038B0007D836C83DB01ED91FC910488F589E02D1B
:1038C000CB010995882349F0CE010E94D21A8111BB
:1038D0000CC0CE010E94241C06C064EA72E08AE497
:1038E00093E00E94630780E001C081E0DF91CF9107
:1038F0000895CF93DF93EC018C819D81DC01ED91E4
:10390000FC910480F581E02D0995892B39F462E35F
:1039100070E080E090E00E943D1FEECF8C819D81A1
:10392000DC01ED91FC910680F781E02DDF91CF91D4
:1039300009948F929F92AF92BF92CF92DF92EF92B3
:10394000FF920F931F93CF93DF93CDB7DEB7C45091
:10395000D1400FB6F894DEBF0FBECDBF8C019E01E3
:103960002F5F3F4F690180E091E0D901FC011D927A
:103970003197E9F7D80114968D919C911597DC0148
:10398000ED91FC910488F589E02D0995882309F4CF
:10399000FEC0F80184819581DC01ED91FC910480E9
:1039A000F581E02D0995892B09F4F1C0C8010E9429
:1039B000791CF80184819581DC01ED91FC910488EA
:1039C000F589E02D0995882309F4E1C0C8010E941A
:1039D000791C7C018038910530F0E894E7F8FF24E9
:1039E000BB24B39401C0B12CF80184819581DC0122
:1039F000ED91FC910488F589E02D0995882309F45F
:103A0000C6C0BEE7EB16F10431F5C8010E94791C6F
:103A1000A82EF80184819581DC01ED91FC91048848
:103A2000F589E02D0995882309F4B1C0C8010E94E9
:103A3000791CE12CF12CFA2CE82AF92AF80184816E
:103A40009581DC01ED91FC910488F589E02D0995C3
:103A5000811106C09CC0BFE7EB16F10409F4FFCF4B
:103A6000B11004C05601EC0CFD1C8EC0C8010E94B0
:103A7000791CCF5FDE4F8883C150D140F80184812B
:103A80009581DC01ED91FC910488F589E02D099583
:103A9000882309F47CC0C8010E94791CCE5FDE4FE8
:103AA0008883C250D140F80184819581DC01ED9179
:103AB000FC910488F589E02D0995882309F467C0F5
:103AC000C8010E94791CCD5FDE4F8883C350D1406E
:103AD000F80184819581DC01ED91FC910488F589E0
:103AE000E02D0995882309F452C0C8010E94791C71
:103AF000CC5FDE4F8883C450D140F801848195812A
:103B0000DC01ED91FC910488F589E02D099588236D
:103B1000F1F14601A12CB12CAE14BF04C1F1C801D2
:103B20000E94791CF501E370FF2721E031E02C0FA2
:103B30003D1FE20FF31F90819827D4019D934D0103
:103B4000F80184819581DC01ED91FC910488F5896F
:103B5000E02D09958823D9F0BFEFAB1ABB0ADCCF63
:103B6000C8010E94791CF50181935F01D801149668
:103B70008D919C911597DC01ED91FC910488F5895C
:103B8000E02D0995882319F0AE14BF0449F7C6014A
:103B9000CC5FDE4F0FB6F894DEBF0FBECDBFDF9116
:103BA000CF911F910F91FF90EF90DF90CF90BF903A
:103BB000AF909F908F900895CF92DF92EF92FF92F7
:103BC0000F931F93CF93DF938C017B01EB0109903F
:103BD0000020E9F72197C61BD70BDC0114968D91C5
:103BE0009C911597DC01ED91FC910190F081E02D05
:103BF00061E80995F80184819581DC01ED91FC91E2
:103C00000190F081E02DCE37D1050CF468C06FE74C
:103C10000995F80184819581DC01ED91FC91019079
:103C2000F081E02DBE01770F660B762F0995F80124
:103C300084819581DC01ED91FC910190F081E02D72
:103C4000BE01770F660B762F0995F8018481958167
:103C5000DC01ED91FC910190F081E02DBE01770F28
:103C6000660B762F0995F80184819581DC01ED9131
:103C7000FC910190F081E02DBE01770F660B762F4D
:103C80000995F80184819581DC01ED91FC91770F14
:103C9000660B762F0190F081E02D0995F801848163
:103CA0009581DC01ED91FC91770F660B762F0190E9
:103CB000F081E02D0995F80184819581DC01ED9179
:103CC000FC910190F081E02D6D2F0995F801848120
:103CD0009581DC01ED91FC910190F081E02D6C2F3C
:103CE00009956701C6018E199F098C179D0774F409
:103CF000F80184819581D6016D916D01DC01ED9112
:103D0000FC910190F081E02D0995ECCFDF91CF91EE
:103D10001F910F91FF90EF90DF90CF9008950F9338
:103D20001F93CF93DF9300D0CDB7DEB78C01DC01BA
:103D300014968D919C911597DC01ED91FC9104886E
:103D4000F589E02D69837A83099569817A818823D1
:103D500049F0C8010F900F90DF91CF911F910F9103
:103D60000C94DC1D0F900F90DF91CF911F910F915C
:103D700008950F9300E020E040E060E08DE994E0DA
:103D80000E9471060F9108951F920F920FB60F9225
:103D900011242F933F938F939F93AF93BF93809161
:103DA000A4049091A504A091A604B091A704309119
:103DB000A30423E0230F2D3720F40196A11DB11D8C
:103DC00005C026E8230F0296A11DB11D2093A30470
:103DD0008093A4049093A504A093A604B093A70491
:103DE0008091A8049091A904A091AA04B091AB0479
:103DF0000196A11DB11D8093A8049093A904A093DE
:103E0000AA04B093AB04BF91AF919F918F913F9162
:103E10002F910F900FBE0F901F9018952FB7F89409
:103E20006091A4047091A5048091A6049091A704C8
:103E30002FBF08953FB7F8948091A8049091A904EA
:103E4000A091AA04B091AB0426B5A89B05C02F3F52
:103E500019F00196A11DB11D3FBF6627782F892F4C
:103E60009A2F620F711D811D911D42E0660F771F11
:103E7000881F991F4A95D1F70895CF92DF92EF924C
:103E8000FF92CF93DF936B017C010E941A1FEB011D
:103E9000C114D104E104F10489F00E949D200E9424
:103EA0001A1F6C1B7D0B683E734090F381E0C81AAB
:103EB000D108E108F108C851DC4FEACFDF91CF917A
:103EC000FF90EF90DF90CF900895789484B5826052
:103ED00084BD84B5816084BD85B5826085BD85B5AE
:103EE000816085BDEEE6F0E0808181608083E1E85D
:103EF000F0E0108280818260808380818160808395
:103F0000E0E8F0E0808181608083E1EBF0E0808197
:103F100084608083E0EBF0E0808181608083EAE769
:103F2000F0E08081846080838081826080838081F2
:103F3000816080838081806880831092C1000895B1
:103F40008E3008F08E5087702091120190E4299FE6
:103F500090011124822B80937C0080917A008064F0
:103F600080937A0080917A0086FDFCCF8091780062
:103F70002091790090E0922B0895833081F028F40D
:103F8000813099F08230A1F008958730A9F088300F
:103F9000B9F08430D1F4809180008F7D03C080918E
:103FA00080008F7780938000089584B58F7702C05A
:103FB00084B58F7D84BD08958091B0008F7703C054
:103FC0008091B0008F7D8093B0000895CF93DF93F0
:103FD00090E0FC01E55BFE4F2491FC01E15AFE4FAD
:103FE0008491882349F190E0880F991FFC01E358E0
:103FF000FE4FA591B4918D589E4FFC01C591D4916F
:104000009FB7611108C0F8948C91209582238C93FE
:10401000888182230AC0623051F4F8948C91322F47
:10402000309583238C938881822B888304C0F894F5
:104030008C91822B8C939FBFDF91CF9108950F932A
:104040001F93CF93DF931F92CDB7DEB7282F30E0B9
:10405000F901E95CFE4F8491F901E55BFE4F149193
:10406000F901E15AFE4F04910023C9F0882321F0A1
:1040700069830E94BD1F6981E02FF0E0EE0FFF1FF2
:10408000ED58FE4FA591B4919FB7F8948C916111B2
:1040900003C01095812301C0812B8C939FBF0F908B
:1040A000DF91CF911F910F910895009729F0BC01E6
:1040B00080E090E00C94A32D0895CF93DF9300D07F
:1040C00000D0CDB7DEB79B01AC016115710581054C
:1040D000910569F069833A834B835C830E949E2D2E
:1040E00029813A814B815C810E94AF2903C060E045
:1040F00070E0CB010F900F900F900F90DF91CF9158
:104100000895CF92DF92EF92FF926B017C016217CC
:1041100073078407950764F4CA01B9016C197D0916
:104120008E099F090E945D206C0D7D1D8E1D9F1DB7
:10413000FF90EF90DF90CF90089508950E9624E1C0
:10414000FC0111922A95E9F70895CF93DF93EC01D2
:10415000625F7F4F0E947D06CE01DF91CF9108956F
:10416000CF93DF93EC016E5E7F4F0E947D06CE0100
:10417000DF91CF910895CF93DF93EC016A5E7F4F7B
:104180000E947D06CE01DF91CF910895CF93DF93FA
:10419000EC01625E7F4F0E947D06CE01DF91CF91E0
:1041A000089580E3FB0180833296842F82958F707F
:1041B00090E1899F401911244A3014F4405D01C0F8
:1041C000495C4293882311F0482FEFCF08950F9355
:1041D00000E020E040E060E08CEA94E00E9471069C
:1041E0000F9108956F927F928F929F92AF92BF929C
:1041F000CF92DF92EF92FF920F931F93CF93DF93B3
:10420000CDB7DEB7AC970FB6F894DEBF0FBECDBF0B
:104210007C01862EB42EA52E20E2922ECE01019690
:104220006C01FC01292D11922A95E9F70FEF2FEF70
:104230004FEF6FEF86960E9471068DE092E09AA391
:1042400089A389A59AA5ABA5BCA58BA39CA3ADA367
:10425000BEA38701095B1F4F43E450E0BE016F5DC1
:104260007F4FC8010E94A712019609F4BFC081E0E8
:1042700089838A8386E0782E7B821C82F7016481A1
:104280007581868197810E94CE296D837E838F837D
:104290009887A986BA8680E890E09C878B874CE156
:1042A00050E0B601C8010E94B312F601292D119207
:1042B0002A95E9F7570188E0A80EB11CF501D6014F
:1042C00001900D927A94E1F740E150E0B601C80107
:1042D0000E94B312F60111929A94E9F796E0692EC2
:1042E000712C40E250E0B601C8010E94B312F1E027
:1042F0006F1A7108B1F783E6898392E89A8393E590
:104300009B838C8385E38D8381E08E838F829DE305
:10431000988797E099878A8786E0F501DE011B96EA
:1043200001900D928A95E1F78CE0898B8A8B67EB7F
:1043300072E0CE0143960E944C31F7014385BE01E5
:10434000675E7F4FC7010E94D120F7014485BE01FF
:10435000655E7F4FC7010E94D120F7014585BE01F0
:10436000635E7F4FC7010E94D1204EE150E0B6014D
:10437000C8010E94B312F3E08F121EC082E389834A
:1043800084E08A83F70196859B8397859C83908937
:104390009D8391899E8396E39F838887828D8987F9
:1043A000838D8A87848D8B87858D8C874CE050E048
:1043B000B601C8010E94B31287E3898386E08A832D
:1043C00091E09B8393E09C838D838FE08E838AE3CF
:1043D0008F838BE388878FEF898749E050E0B601B0
:1043E000C8010E94B312C8010E94AF12AC960FB66A
:1043F000F894DEBF0FBECDBFDF91CF911F910F911B
:10440000FF90EF90DF90CF90BF90AF909F908F90F4
:104410007F906F9008952F923F924F925F926F928C
:104420007F928F929F92AF92BF92CF92DF92EF9244
:10443000FF920F931F93CF93DF93CDB7DEB7E39730
:104440000FB6F894DEBF0FBECDBF7C012A013B0141
:1044500069010E940E1F4B015C018701095B1F4F20
:10446000C8010E9453131816190694F00E940E1FDB
:10447000681979098A099B0946165706680679065C
:10448000F0F062E370E080E090E00E943D1FE8CF32
:1044900042E250E0BE016F5F7F4FC8010E94F01200
:1044A0008981823031F4F8018589968983349105B8
:1044B00041F019A6C8010E94801289A562C18FEF40
:1044C00060C16D817E818F8198850E94CE294B01CC
:1044D0005C01F601608371838283938346E050E040
:1044E000B701685F7F4FCE014D960E942D31892B19
:1044F00099F4F70180819181A281B3818816990690
:10450000AA06BB0648F084819581A681B7818815EB
:104510009905AA05BB0528F4C8010E94801280E015
:1045200030C189899A89AB89BC89F70186879787C9
:10453000A08BB18B3EECC32ED12CC8010E94C712B8
:10454000F1E0CF1AD108C9F719A6C70182969BA737
:104550008AA7F701B696FDA7ECA708969FA78EA796
:104560003C976F018E9699AB88AB3897FBABEAAB63
:104570005701F6E1AF0EB11C47018EE1880E911C88
:10458000C8010E946612181619060CF093CFC801D4
:104590000E94C7128333910509F4C9C0F4F4813035
:1045A0009105B9F11CF4892B59F3DBC083309105D7
:1045B000C1F1069709F0D5C0C8010E94C7123C019D
:1045C00044E050E0B401C8010E94F012212C312CCB
:1045D0007724F4E06F1A71083FC08A33910509F41B
:1045E0007AC03CF48533910561F0C69709F43FC069
:1045F000B8C08B33910509F484C08F3F910501F257
:10460000B0C0C8010E94C712C8010E94C71289A782
:10461000B7CFC8010E94C71244E050E06AA97BA945
:1046200036C0C8010E94C7123C0144E050E0B50109
:10463000C8010E94F012212C312C772494E0691AD1
:104640007108261437040CF09BCFC8010E94C712D2
:10465000EFEF2E1A3E0AF5CF261437040CF090CF58
:10466000C8010E94C7128FEF281A380AF5CFC80177
:104670000E94C712782EF701828D938DA48DB58D7F
:10468000892B8A2B8B2B39F444E050E0B601C8010A
:104690000E94F01275CFE8A9F9A9208031804280EC
:1046A0005380B601CE0183960E947D068DA19EA106
:1046B000AFA1B8A582159305A405B50529F3212C52
:1046C000312C721409F45CCFC8010E94C712FFEFAD
:1046D0002F1A3F0AF6CFC8010E94C71244E050E0EB
:1046E0006CA57DA5C8010E94F012F70166A177A113
:1046F00080A591A50E94CE2966A377A380A791A744
:104700003FCFC8010E94C71244E050E06EA57FA5CC
:10471000C8010E94F012F70162A573A584A595A5B2
:104720000E94CE2962A773A784A795A729CFC801A5
:104730000E94C71244E050E06AA57BA5C8010E9410
:10474000F012F70162A173A184A195A10E94CE2964
:1047500062A373A384A395A366A777A780AB91AB4D
:104760000FCFC8010E94C712382E612C712C36144D
:1047700009F406CFC8010E94C712FFEF6F1A7F0A23
:10478000F6CFE3960FB6F894DEBF0FBECDBFDF9134
:10479000CF911F910F91FF90EF90DF90CF90BF903E
:1047A000AF909F908F907F906F905F904F903F90D1
:1047B0002F9008952F923F924F925F926F927F9227
:1047C0008F929F92AF92BF92CF92DF92EF92FF9221
:1047D0000F931F93CF93DF93CDB7DEB727970FB615
:1047E000F894DEBF0FBECDBF8C0120ED37E040E076
:1047F00050E061E070E080E090E00E948120D8010C
:1048000014966D937D938D939C931797F801608315
:104810007183828393834801F7E48F0E911CC40156
:104820000E94921264E470E0C4010E94261388235F
:1048300009F428C10E940E1F6B017C01A12CB12C30
:104840001D82180186E4280E311CD801DE96BF8334
:10485000AE8338EE432E33E0532E612C712CF101E0
:104860008081833009F4FDC081111FC0F80184816B
:104870009581A681B7810196A11DB11D8483958381
:10488000A683B7830E940E1F6C197D098E099F09AC
:10489000A30192010E948D29A90161E0C8010E9433
:1048A000F22081E0D1018C93BEC08430F9F4F8018C
:1048B00084819581A681B7810196A11DB11D848354
:1048C0009583A683B7830E940E1F6C197D098E09FC
:1048D0009F09A30192010E948D29A90163E0C801EB
:1048E0000E94F220E2E0D101EC939DC0813061F59D
:1048F000AE81BF814D915D916D917C919E012F5F45
:104900003F4FC8010E940B228D83823009F08BC07B
:1049100089819A81AB81BC81F80184839583A683C8
:10492000B7830E940E1F6C197D098E099F09A30190
:1049300092010E948D29A90163E0C8010E94F22022
:10494000ED81D101EC9375C0823009F06CC0AE816D
:10495000BF814D915D916D917C919E012F5F3F4F85
:10496000C8010E940B228D83853009F056C083E078
:10497000F1018083F80182A193A1A4A1B5A1892BA3
:104980008A2B8B2B41F484E893E0A0E0B0E082A373
:1049900093A3A4A3B5A3F80186A197A1A0A5B1A54F
:1049A000892B8A2B8B2B61F482A193A1A4A1B5A1A1
:1049B000B695A7959795879586A397A3A0A7B1A726
:1049C000D8019A964D915D916D917C919D979696A7
:1049D0008D919D910D90BC91A02D452B462B472B81
:1049E00059F4AC01BD01440F551F661F771FF80134
:1049F00042A753A764A775A7F80186A797A7A0ABFE
:104A0000B1AB82A593A5A4A5B5A582AB93ABA4AB8E
:104A1000B5ABAA24A394B12C0CC0FD81F63019F4D7
:104A2000D1011C9206C0BD81BF3F19F4F101108273
:104A30001D82F1E0AF16B10409F411CF0E940E1FE0
:104A40006C197D098E099F09D801DA962D913D9147
:104A50004D915C91DD97261737074807590708F0F5
:104A6000FECEC4010E949212F80184819581A68134
:104A7000B7810196A11DB11D84839583A683B78359
:104A8000C50102C080E090E027960FB6F894DEBF23
:104A90000FBECDBFDF91CF911F910F91FF90EF908F
:104AA000DF90CF90BF90AF909F908F907F906F904E
:104AB0005F904F903F902F900895CF92DF92EF92AA
:104AC000FF920F931F93CF93DF93EC016B011AA218
:104AD0001BA21CA21DA21EA21FA218A619A61AA6DE
:104AE0001BA61CA61DA61EAA1FAA18AE19AE2AAF89
:104AF0003BAF4CAF5DAFFC01FE96E082F1820283DA
:104B000013838C01085F1F4F86E0F80111928A958C
:104B1000E9F7CE010E949E2086E0F601D8010190BF
:104B20000D928A95E1F7FE01EA5BFF4F1082CE01FC
:104B3000DF91CF911F910F91FF90EF90DF90CF9079
:104B40000C94DA23FB014281538164817581FC015D
:104B50004283538364837583178216820895CF93AB
:104B6000FB0181918111FDCFFB0180E090E020E00D
:104B700030E0CAE06191662309F12430310564F523
:104B80006E3271F48F3F910509F034F5DA01A20F0E
:104B9000B31F12968C932F5F3F4F80E090E0EACFD7
:104BA000DC01CA9FC001CB9F900D1124772767FDC0
:104BB000709560537109860F971FDCCF8F3F910569
:104BC00009F054F4243031053CF4FA01E20FF31FEC
:104BD000828381E090E002C080E090E0CF91089570
:104BE0000F9300E020E040E060E082EB94E00E9460
:104BF00071060F910895AF92BF92CF92DF92EF921C
:104C0000FF920F931F93CF93DF9300D01F92CDB7E6
:104C1000DEB76C017B010E940E1FF601778366836D
:104C20008601085F1F4FB6016A5F7F4F42E050E088
:104C3000C8010E94B31281E090E09A83898342E028
:104C400050E0BE016F5F7F4FC8010E94B31280E049
:104C500091E09A83898342E050E0BE016F5F7F4F0D
:104C6000C8010E94B3121A82198242E050E0BE01CC
:104C70006F5F7F4FC8010E94B31242E050E0BE0157
:104C80006F5F7F4FC8010E94B31242E050E0BE0147
:104C90006F5F7F4FC8010E94B3126701F6018081E8
:104CA000882311F1F7016F018191811115C056011F
:104CB000AE18BF081A141B0494F4AB8241E050E014
:104CC000BE016D5F7F4FC8010E94B312A501B701FD
:104CD000C8010E94B31203C08E3229F7E8CF7601D3
:104CE000FFEFEF1AFF0ADACF1B8241E050E0BE016E
:104CF0006D5F7F4FC8010E94B312E12CFF24F39433
:104D0000FA82E98242E050E0BE016F5F7F4FC80146
:104D10000E94B312FA82E98242E050E0BE016F5F66
:104D20007F4FC8010E94B31281E090E00F900F9076
:104D30000F90DF91CF911F910F91FF90EF90DF9037
:104D4000CF90BF90AF9008954F925F926F927F92F5
:104D50008F929F92AF92BF92CF92DF92EF92FF928B
:104D60000F931F93CF93DF93CDB7DEB763970FB643
:104D7000F894DEBF0FBECDBF7C015B016A010E94CB
:104D80000E1F2B013C018701085F1F4F4501A12C1D
:104D9000B12CC8010E9453131816190694F00E94F2
:104DA0000E1F641975098609970986169706A806C5
:104DB000B906D0F062E370E080E090E00E943D1F11
:104DC000E8CFF7014281538164817581818D928D95
:104DD000A38DB48D481759076A077B0741F4858D69
:104DE000968DC59721F406C08FEF9FEFF9C08EEF27
:104DF0009FEFF6C0C8010E9466120C970CF4EEC03B
:104E00004CE050E0BE016F5F7F4FC8010E94F0127E
:104E10008B819C819827892798279A8B898BF7010A
:104E20004681578129813A814217530711F497FD32
:104E300006C0C8010E9480128CEF9FEFD1C08F7016
:104E40009270892B31F0C8010E9480128BEF9FEF86
:104E5000C7C0AF80B884BA24AB24BA24A114B1046B
:104E600019F0E12CF12C23C0C8010E9480128AEFB6
:104E70009FEFB6C041E050E0BE01635F7F4FC801C5
:104E80000E94F0128D8581111BC08D858111F2CF9A
:104E9000C8010E94C712C8010E94C712C8010E941F
:104EA000C712C8010E94C712FFEFEF1AFF0A8D81D7
:104EB0009E81982789279827E816F906D8F20AC014
:104EC0008D859FEF980F9D878823F9F2C8010E9476
:104ED000C712F6CFE12CF12C41E050E0BE016D5E2F
:104EE0007F4FC8010E94F0128B89982F907C61F44B
:104EF000882371F08B899FEF980F9B8B882341F05B
:104F0000C8010E94C712F6CFC8010E94C7121B8AAF
:104F10008B898111E1CF42E050E0BE01615F7F4F9C
:104F2000C8010E94F01242E050E0BE01635F7F4F73
:104F3000C8010E94F012C8010E94C712C8010E9455
:104F4000C712C8010E94C712C8010E94C71242E0DE
:104F500050E0BE016F5E7F4FC8010E94F0128F8546
:104F600098898115914029F48D859E858115914000
:104F700019F0812C912C16C089899A898115944049
:104F800031F0C8010E94801287EF9FEF29C0B6015F
:104F90006E5F7F4F44E050E0C8010E94F01281E054
:104FA00090E01EC089899A899827892798278816B2
:104FB000990638F4C8010E94C7122FEF821A920A8C
:104FC000F1CF8FEFE81AF80AEA14FB0409F084CF56
:104FD000C8010E94801286EF9FEF02C08DEF9FEF05
:104FE00063960FB6F894DEBF0FBECDBFDF91CF91B1
:104FF0001F910F91FF90EF90DF90CF90BF90AF90F7
:105000009F908F907F906F905F904F9008958F92B8
:105010009F92AF92BF92CF92DF92EF92FF920F9347
:105020001F93CF93DF9300D000D000D0CDB7DEB771
:105030008C015B016A010E94AF254C01009709F0C9
:105040005DC0F80142815381648175818091B4040F
:105050009091B504A091B604B091B70448175907D0
:105060006A077B0709F44EC00E940E1F7801F8E022
:10507000EF0EF11C6F7077277C5FC7010E9426132B
:10508000813009F043C08DE092E09A838983F80172
:1050900082819381A481B5818B839C83AD83BE8300
:1050A00045E350E0BE016F5F7F4FC7010E94A7122A
:1050B000892B19F4812C912C1DC0B501C8010E94C7
:1050C000FB25892BB9F3C7010E94AF12892B91F3FD
:1050D00033E0A32EB12CA60168E873E1C8010E9459
:1050E000A4264C01F1E0AF1AB10821F08F3F2FEF59
:1050F000920789F3C7010E94921208C08824839402
:10510000912C04C09EEF892E99249A94C40126966E
:105110000FB6F894DEBF0FBECDBFDF91CF911F91C8
:105120000F91FF90EF90DF90CF90BF90AF909F9046
:105130008F900895DC01FB018081869586958C9384
:1051400090819370818182958F7020E1929F800D74
:10515000112411968C93119781818F70880F880F7D
:1051600092819295969596959370890F12968C934D
:10517000129782818F7313968C9308958F929F92CA
:10518000AF92BF92CF92DF92EF92FF920F931F9355
:10519000CF93DF93CDB7DEB727970FB6F894DEBF76
:1051A0000FBECDBF7C015A016B01A60EB71E00E0F9
:1051B00010E020E030E04E0185E0880E911CCA141A
:1051C000DB0439F1C9010196D6014D916D01F4015D
:1051D000E20FF31F408383309105C9F4B401CE017F
:1051E00001960E949A28FE013196C701800F911FF7
:1051F000A191B0E0A254BD4F2C91DC012D93CD01C3
:10520000E815F905A9F70C5F1F4F80E090E09C01BD
:10521000D6CF69012115310509F443C0233031058A
:1052200054F4E5E0F0E0EC0FFD1FE20FF31F1082F5
:105230002F5F3F4FF3CFBE016B5F7F4FFE01319673
:105240005F01CF010E949A28F501C701800F911FCD
:10525000A191B0E0A254BD4F2C91DC012D93CD0162
:105260009F012A193B09C216D30694F70F5F1F4FFF
:10527000C601D7FE02C080E090E0080F191FF701B9
:10528000E00FF11FCE18DF08C01AD10A2DE38F01FD
:105290000E191F09C6018E0F9F1F039714F4219347
:1052A000F6CFF701E00FF11F1082C80127960FB665
:1052B000F894DEBF0FBECDBFDF91CF911F910F914C
:1052C000FF90EF90DF90CF90BF90AF909F908F9026
:1052D0000895DB018F939F930E94D529BF91AF91D1
:1052E000A29F800D911DA39F900DB29F900D112440
:1052F000089597FB072E16F4009407D077FD09D088
:105300000E94E02907FC05D03EF4909581959F4FBF
:105310000895709561957F4F0895A1E21A2EAA1BFA
:10532000BB1BFD010DC0AA1FBB1FEE1FFF1FA21755
:10533000B307E407F50720F0A21BB30BE40BF50B52
:10534000661F771F881F991F1A9469F760957095DB
:10535000809590959B01AC01BD01CF010895052E6C
:1053600097FB1EF400940E94C62957FD07D00E94A7
:105370008D2907FC03D04EF40C94C6295095409516
:10538000309521953F4F4F4F5F4F089590958095F1
:10539000709561957F4F8F4F9F4F0895692796278E
:1053A000692778278727782708950E94FA29A59FDB
:1053B000900DB49F900DA49F800D911D1124089510
:1053C000AA1BBB1B51E107C0AA1FBB1FA617B7072B
:1053D00010F0A61BB70B881F991F5A95A9F7809547
:1053E0009095BC01CD010895EE0FFF1F0590F4913B
:1053F000E02D0994A29FB001B39FC001A39F700D3F
:10540000811D1124911DB29F700D811D1124911DCC
:1054100008955058BB27AA270ED075C166D130F029
:105420006BD120F031F49F3F11F41EF45BC10EF4F8
:10543000E095E7FB51C1E92F77D180F3BA176207F6
:1054400073078407950718F071F49EF58FC10EF469
:10545000E0950B2EBA2FA02D0B01B90190010C0184
:10546000CA01A0011124FF27591B99F0593F50F49C
:10547000503E68F11A16F040A22F232F342F4427F4
:10548000585FF3CF469537952795A795F0405395EC
:10549000C9F77EF41F16BA0B620B730B840BBAF0BC
:1054A0009150A1F0FF0FBB1F661F771F881FC2F727
:1054B0000EC0BA0F621F731F841F48F4879577953B
:1054C0006795B795F7959E3F08F0B3CF9395880FF2
:1054D00008F09927EE0F979587950895D9D008F48D
:1054E00081E008950CD00FC107D140F0FED030F01C
:1054F00021F45F3F19F0F0C0511139C1F3C014D14C
:1055000098F39923C9F35523B1F3951B550BBB278A
:10551000AA2762177307840738F09F5F5F4F220F37
:10552000331F441FAA1FA9F333D00E2E3AF0E0E830
:1055300030D091505040E695001CCAF729D0FE2F7C
:1055400027D0660F771F881FBB1F2617370748070E
:10555000AB07B0E809F0BB0B802DBF01FF279358C4
:105560005F4F2AF09E3F510568F0B6C000C15F3F13
:10557000ECF3983EDCF3869577956795B795F795AC
:105580009F5FC9F7880F911D9695879597F90895A4
:10559000E1E0660F771F881FBB1F62177307840740
:1055A000BA0720F0621B730B840BBA0BEE1F88F74F
:1055B000E095089504D06894B111D9C00895BCD085
:1055C00088F09F5790F0B92F9927B751A0F0D1F0EC
:1055D000660F771F881F991F1AF0BA95C9F712C076
:1055E000B13081F0C3D0B1E00895C0C0672F782FEB
:1055F0008827B85F39F0B93FCCF3869577956795E2
:10560000B395D9F73EF490958095709561957F4F4D
:105610008F4F9F4F0895E89409C097FB3EF49095F3
:105620008095709561957F4F8F4F9F4F9923A9F07B
:10563000F92F96E9BB279395F6958795779567950A
:10564000B795F111F8CFFAF4BB0F11F460FF1BC04E
:105650006F5F7F4F8F4F9F4F16C0882311F096E9E1
:1056600011C0772321F09EE8872F762F05C066238F
:1056700071F096E8862F70E060E02AF09A95660F48
:10568000771F881FDAF7880F9695879597F9089501
:10569000990F0008550FAA0BE0E8FEEF1616170643
:1056A000E807F907C0F012161306E407F50798F0AB
:1056B000621B730B840B950B39F40A2661F0232BC4
:1056C000242B252B21F408950A2609F4A140A69540
:1056D0008FEF811D811D089597F99F6780E870E025
:1056E00060E008959FEF80EC089500240A94161658
:1056F000170618060906089500240A9412161306C0
:10570000140605060895092E0394000C11F488234D
:1057100052F0BB0F40F4BF2B11F460FF04C06F5F69
:105720007F4F8F4F9F4F089557FD9058440F551F3F
:1057300059F05F3F71F04795880F97FB991F61F013
:105740009F3F79F087950895121613061406551F8A
:10575000F2CF4695F1DF08C0161617061806991FF6
:10576000F1CF86957105610508940895E894BB27EB
:1057700066277727CB0197F908958ADF08F48FEF22
:1057800008950BD0C0CFB1DF28F0B6DF18F0952315
:1057900009F0A2CFA7CF1124EACFC6DFA0F3959FCF
:1057A000D1F3950F50E0551F629FF001729FBB2708
:1057B000F00DB11D639FAA27F00DB11DAA1F649FB4
:1057C0006627B00DA11D661F829F2227B00DA11D67
:1057D000621F739FB00DA11D621F839FA00D611DED
:1057E000221F749F3327A00D611D231F849F600D0E
:1057F000211D822F762F6A2F11249F5750408AF047
:10580000E1F088234AF0EE0FFF1FBB1F661F771FD2
:10581000881F91505040A9F79E3F510570F05CCF12
:10582000A6CF5F3FECF3983EDCF3869577956795BE
:10583000B795F795E7959F5FC1F7FE2B880F911DF0
:105840009695879597F9089523DF880B990B08950E
:10585000CF93DF938230910510F482E090E0E091E5
:10586000BA04F091BB0420E030E0A0E0B0E0309753
:1058700039F14081518148175907B8F04817590745
:1058800071F482819381109729F013969C938E93E3
:1058900012972CC09093BB048093BA0427C02115A3
:1058A000310531F04217530718F0A901DB0101C09F
:1058B000EF019A01BD01DF010280F381E02DD7CF16
:1058C00021153105F9F0281B390B2430310580F4FE
:1058D0008A819B816115710521F0FB01938382838D
:1058E00004C09093BB048093BA04FE01329644C076
:1058F000FE01E20FF31F8193919322503109398306
:1059000028833AC02091B8043091B904232B41F484
:1059100020910201309103013093B9042093B8041F
:1059200020910001309101012115310541F42DB77D
:105930003EB74091040150910501241B350BE091C5
:10594000B804F091B904E217F307A0F42E1B3F0B43
:105950002817390778F0AC014E5F5F4F24173507E1
:1059600048F04E0F5F1F5093B9044093B8048193E1
:10597000919302C0E0E0F0E0CF01DF91CF91089574
:10598000CF93DF93009709F487C0FC01329713820D
:105990001282C091BA04D091BB04209781F4208177
:1059A0003181280F391F8091B8049091B904821772
:1059B000930779F5F093B904E093B8046DC0DE0164
:1059C00020E030E0AE17BF0750F412964D915C9185
:1059D00013979D014115510509F1DA01F3CFB38306
:1059E000A28340815181840F951F8A179B0771F410
:1059F0008D919C911197840F951F029691838083BE
:105A000012968D919C911397938382832115310572
:105A100029F4F093BB04E093BA043EC0D901139675
:105A2000FC93EE9312974D915D91A40FB51FEA1769
:105A3000FB0779F480819181840F951F0296D9012B
:105A400011969C938E938281938113969C938E934F
:105A50001297E0E0F0E08A819B81009719F0FE0147
:105A6000EC01F9CFCE01029628813981820F931F74
:105A70002091B8043091B9042817390769F4309798
:105A800029F41092BB041092BA0402C0138212824D
:105A9000D093B904C093B804DF91CF9108958F9249
:105AA0009F92AF92BF92CF92DF92EF92FF92CF93ED
:105AB000DF93EC01688179818A819B816115710591
:105AC0008105910521F464E279ED8BE597E02DE104
:105AD00033EF41E050E00E94AF2949015A019B0198
