:100000000C949E000C94C6000C94C6000C94C60080
:100010000C94C6000C94C6000C94C6000C94C60048
:100020000C94C6000C94C6000C94C6000C94C60038
:100030000C94C6000C94C6000C94C6000C94C60028
:100040000C9468160C94C6000C94EC020C941E03DD
:100050000C94C6000C94C6000C94C6000C94C60008
:100060000C94C6000C94C600485454502F312E31C5
:1000700020313031004F726967696E3A20417264F5
:1000800075696E6F576562536F636B6574436C6916
:10009000656E7400486F73743A207B307D00436F47
:1000A0006E6E656374696F6E3A2055706772616435
:1000B0006500557067726164653A20576562536FD9
:1000C000636B657400474554207B307D2048545451
:1000D000502F312E31007B307D00000000080002DF
:1000E00001000003040700000000000000000102FE
:1000F00004081020408001020408102001020408B6
:100100001020040404040404040402020202020293
:1001100003030303030300000000250028002B0055
:1001200000000000240027002A008E014E03FC037B
:10013000E409270C0A0EE00F26182F1D11241FBEFC
:10014000CFEFD8E0DEBFCDBF12E0A0E0B1E0E2E249
:10015000F7E402C005900D92AE34B107D9F723E061
:10016000AEE4B2E001C01D92AC3CB207E1F711E091
:10017000CCE3D1E004C02297FE010E949620CA324F
:10018000D107C9F70E9481010C948F230C940000C1
:100190000F931F93CF93DF9300D000D000D0CDB743
:1001A000DEB78B0165E371E0CE0101960E94710517
:1001B000B801CE0101960E94ED05BC0189E692E0EE
:1001C0000E947204CE0101960E94030526960FB686
:1001D000F894DEBF0FBECDBFDF91CF911F910F917D
:1001E0000895CF93DF9300D000D000D0CDB7DEB715
:1001F00026E040E855E260E070E089E692E00E9487
:100200008A026FE171E084E793E00E94270A6FE1C0
:1002100071E084E793E00E94270A892BF9F464E4F3
:1002200071E089E692E00E94840487EB91E09A8372
:1002300089838091500290915102A0915202B09115
:1002400053028B839C83AD83BE83AE014F5F5F4FB0
:100250006FE171E084E793E00E94D90B68EE73E0F0
:1002600080E090E00E94E1166CE671E089E692E0A1
:100270000E9484046AE771E089E692E00E948404A7
:1002800020910A0130910B014CE051E06EE071E0E9
:1002900084E592E00E949F09882319F06FE771E0DE
:1002A00002C060EF71E089E692E00E94840468EC8D
:1002B00070E084E592E00E942B0868EB7BE080E030
:1002C00090E00E94E11666E971E0CE0101960E947D
:1002D0007105BE016F5F7F4F84E592E00E94CF09F8
:1002E000CE0101960E94030526960FB6F894DEBF54
:1002F0000FBECDBFDF91CF91089584E592E00C94BD
:10030000B8070E9409170E94F100C4EDD1E00E94D5
:100310007D012097E1F30E94D401F9CF0F9300E013
:1003200020E040E060E083E692E00E94D50384E5AF
:1003300092E00E942E0D01EB20E048EA60EC8EE492
:1003400092E00E94D5030F910895FC01818D228DCA
:1003500090E0805C9F4F821B910960E470E00E94F6
:1003600019200895FC01918D828D981731F0828DAE
:10037000E80FF11D858D90E008958FEF9FEF0895B0
:10038000FC01918D828D981761F0828DDF01A80F9D
:10039000B11D5D968C91928D9F5F9F73928F90E0BF
:1003A00008958FEF9FEF089584E493E0892B49F03F
:1003B00080E090E0892B29F00E94440381110C9485
:1003C00000000895FC01848DDF01A80FB11DA35A20
:1003D000BF4F2C91848D90E001968F739927848F65
:1003E000A689B7892C93A089B1898C9180648C935C
:1003F000938D848D981306C00288F389E02D808147
:100400008F7D80830895CF93DF93EC01888D8823BF
:10041000C9F0EA89FB89808185FD05C0A889B98971
:100420008C9186FD0FC00FB607FCF5CF808185FF4C
:10043000F2CFA889B9898C9185FFEDCFCE010E94BA
:10044000E201E7CFDF91CF910895CF92DF92FF9243
:100450000F931F93CF93DF931F92CDB7DEB76C013D
:10046000DC015B969C915B975C968C915C979813F2
:1004700007C05096ED91FC915197808185FD32C067
:10048000F601038D10E00F5F1F4F0F731127F02E41
:10049000F601848DF81211C00FB607FCF9CFD60112
:1004A0005096ED91FC915197808185FFF1CFC60167
:1004B00069830E94E2016981EBCF838DE80FF11D12
:1004C000E35AFF4F6083D6015B960C935B9752967D
:1004D000ED91FC91539780818062808381E05896F2
:1004E0008C930DC0D6015696ED91FC915797608381
:1004F0005096ED91FC91519780818064808381E0DA
:1005000090E00F90DF91CF911F910F91FF90DF90BE
:10051000CF900895BF92CF92DF92EF92FF92CF9348
:10052000DF93EC016A017B01B22EE889F98982E050
:100530008083411581EE580761057105A1F060E0E7
:1005400079E08DE390E0A70196010E942D202150D3
:100550003109410951095695479537952795211538
:1005600080E1380798F0E889F989108260E874E83A
:100570008EE190E0A70196010E942D2021503109C3
:10058000410951095695479537952795EC85FD8585
:100590003083EE85FF852083188EEC89FD89B0823B
:1005A000EA89FB89808180618083EA89FB89808177
:1005B00088608083EA89FB89808180688083EA89FA
:1005C000FB8980818F7D8083DF91CF91FF90EF90B9
:1005D000DF90CF90BF9008951F920F920FB60F92A9
:1005E00011242F938F939F93EF93FF93E0917902C0
:1005F000F0917A028081E0917F02F091800282FD89
:1006000012C09081809182028F5F8F73209183024C
:10061000821751F0E0918202F0E0E759FD4F958F8B
:100620008093820201C08081FF91EF919F918F9111
:100630002F910F900FBE0F901F9018951F920F9241
:100640000FB60F9211242F933F934F935F936F93A5
:100650007F938F939F93AF93BF93EF93FF9389E61D
:1006600092E00E94E201FF91EF91BF91AF919F91C3
:100670008F917F916F915F914F913F912F910F904B
:100680000FBE0F901F90189589E692E00E94A50179
:1006900021E0892B09F420E0822F089510926C024A
:1006A00010926B0288EE93E0A0E0B0E080936D02C0
:1006B00090936E02A0936F02B093700287EA91E06C
:1006C00090936A028093690285EC90E090937602A1
:1006D0008093750284EC90E0909378028093770287
:1006E00080EC90E090937A028093790281EC90E024
:1006F00090937C0280937B0282EC90E090937E0248
:1007000080937D0286EC90E09093800280937F023C
:10071000109282021092830210928402109285023B
:100720000895AF92BF92CF92DF92EF92FF920F9314
:100730001F93CF93DF936C017B01C0E0D0E000E01A
:1007400010E0F601EC0FFD1F4AE050E06281C701A6
:100750000E94FC045C016EE2C7010E9457048A0DEE
:100760009B1D080F191F2196C330D10551F74AE090
:1007700050E0F6016581C7010E94FC04800F911FC3
:10078000DF91CF911F910F91FF90EF90DF90CF906D
:10079000BF90AF90089527EB31E0FC0131832083B7
:1007A000128213821482158208950F93FC0187EB45
:1007B00091E09183808362834383248305830F9137
:1007C000089527EB31E0FC0131832083FB01408158
:1007D000518162817381FC014283538364837583F9
:1007E0000895FB014081518162817381FC01428344
:1007F000538364837583089587EB91E09093070397
:1008000080930603109208031092090310920A03C2
:1008100010920B030895CF92DF92EF92FF920F9305
:100820001F93CF93DF936C017A01EB01E60EF71E65
:1008300000E010E0CE15DF0561F06991D601ED9181
:10084000FC910190F081E02DC6010995080F191F58
:10085000F1CFC801DF91CF911F910F91FF90EF90E1
:10086000DF90CF9008956115710581F0DB010D9047
:100870000020E9F7AD0141505109461B570BDC013F
:10088000ED91FC910280F381E02D099480E090E0ED
:100890000895DC01ED91FC91DB0114964D915C9182
:1008A00015976D917C910280F381E02D0994DC0114
:1008B000ED91FC910190F081E02D09940F931F932D
:1008C000CF93DF93EC016DE00E9457048C016AE046
:1008D000CE010E945704800F911FDF91CF911F918D
:1008E0000F9108950F931F93CF93DF93EC010E9414
:1008F00049048C01CE010E945E04800F911FDF919C
:10090000CF911F910F9108950F931F93CF93DF9372
:10091000EC010E9433048C01CE010E945E04800F22
:10092000911FDF91CF911F910F9108958F929F9208
:10093000AF92BF92CF92DF92EF92FF920F931F93ED
:10094000CF93DF93CDB7DEB7A1970FB6F894DEBF94
:100950000FBECDBF7C01C42EE52FCB01D22E19A234
:1009600021E02D1510F02AE0D22E8E010F5D1F4FD1
:100970008D2C912CA12CB12C6C2D7E2FA5019401D6
:100980000E942D208C2DD29E801911240150110916
:100990008A3014F4805D01C0895CF80180832115E0
:1009A00031054105510521F0C22EE32FCA01E4CFE4
:1009B000B801C7010E943304A1960FB6F894DEBFB8
:1009C0000FBECDBFDF91CF911F910F91FF90EF90A0
:1009D000DF90CF90BF90AF909F908F90089521159A
:1009E000310541F4DC01ED91FC910190F081E02DA5
:1009F000642F09940C9496049A01462F50E060E00D
:100A000070E00C94EF04FC01808191810C944121F1
:100A1000CF93DF93EC0188819981009711F00E94B8
:100A20004121198218821D821C821B821A82DF9149
:100A3000CF9108950F931F93CF93DF93EC018B0118
:100A40006F5F7F4F888199810E942D22009731F03E
:100A5000998388831B830A8381E001C080E0DF9152
:100A6000CF911F910F910895CF93DF93EC0188816F
:100A70009981892B29F08A819B818617970760F4D9
:100A8000CE010E941A05882341F08C819D81892B1B
:100A900019F4E881F981108281E0DF91CF91089506
:100AA000EF92FF920F931F93CF93DF93EC017B01A3
:100AB0008A01BA010E943405811104C0CE010E944E
:100AC000080507C01D830C83B701888199810E94A6
:100AD0002F23CE01DF91CF911F910F91FF90EF90C7
:100AE0000895FC01118210821382128215821482F1
:100AF0006115710559F0FB0101900020E9F7AF0184
:100B000041505109461B570B0C9450050895CF9343
:100B1000DF93EC01FB018617970761F0608171811B
:100B20006115710529F0448155810E94500502C06C
:100B30000E940805CE01DF91CF910895FC0111823A
:100B4000108213821282158214820C948705EF9210
:100B5000FF920F931F93CF93DF93EC017B010C81E6
:100B60001D816115710511F480E016C04115510514
:100B700091F0040F151FB8010E9434058823A1F3DA
:100B8000288139818C819D81B701820F931F0E943A
:100B90002F231D830C8381E0DF91CF911F910F9153
:100BA000FF90EF900895FB01448155816081718130
:100BB0000C94A705CF93DF9300D0CDB7DEB7698340
:100BC0001A8241E050E0BE016F5F7F4F0E94A7058F
:100BD0000F900F90DF91CF910895CF93DF93EC01A9
:100BE000FB0144815581608171810E94A7058111BB
:100BF00003C0CE010E940805CE01DF91CF91089578
:100C0000CF93DF93EC010E94DA05811103C0CE017E
:100C10000E940805CE01DF91CF910895FC01248147
:100C20003581232B31F421E061157105A1F0FB0121
:100C300008C0FC01808191816115710531F421E0CA
:100C4000FC018081882339F005C00E94262321E021
:100C5000892B09F020E0822F0895CF93DF93FC01C8
:100C6000848195814817590778F4C081D181FB01AF
:100C700060817181CE01840F951F0E9436230097F9
:100C800019F08C1B9D0B02C08FEF9FEFDF91CF916E
:100C9000089540E050E00C942D06AF92BF92CF92A1
:100CA000DF92EF92FF920F931F93CF93DF937B011D
:100CB000EA01FB01448155814115510569F1FC01AF
:100CC000248135812115310539F12417350720F1AB
:100CD000C217D30710F0E9012197FC0100811181AF
:100CE000C801AA24AA94BB24BA946801CC0EDD1EC4
:100CF000C816D906A0F0F701608171810E943623E1
:100D0000009769F09C01201B310BC217D30708F430
:100D1000950101965901ECCF8FEF9FEF01C0C501FE
:100D2000DF91CF911F910F91FF90EF90DF90CF90C7
:100D3000BF90AF9008952F923F924F925F926F9223
:100D40007F928F929F92AF92BF92CF92DF92EF925B
:100D5000FF920F931F93CF93DF93EC015B017A0116
:100D60004C805D804114510409F4C5C0FB016480CE
:100D700075806114710409F4BEC0FA01C480D58085
:100D8000C618D70808811981C114D104C1F4F5012E
:100D900060817181C8010E943623EC01009709F43B
:100DA000AAC0F7016081718144815581CE010E9402
:100DB0000B23F701048115810C0F1D1FE8CFD7FC11
:100DC00005C0FB0120803180420143C04801F5018C
:100DD00060817181C8010E9436232C01009719F1AE
:100DE0003201601A710AA301B801C4010E940B23E9
:100DF000680C791CF7016081718144815581C301C0
:100E00000E940B23F70184809580860C971CF501C6
:100E100004811581040D151D8C819D818C0D9D1DF6
:100E20009D838C83D4CFB801C401DF91CF911F91F2
:100E30000F91FF90EF90DF90CF90BF90AF909F9079
:100E40008F907F906F905F904F903F902F900C9479
:100E50002F23B101C8010E943623009731F08C0185
:100E6000060D171D8C0C9D1CF4CF8414950409F4F9
:100E700042C08A819B818815990530F4B401CE0166
:100E80000E941A058823B9F14C815D8141505109B6
:100E900057FD31C0B501CE010E944D068C0197FD72
:100EA0002AC088819981F50124813581200F311F65
:100EB000820F931F4C815D81421B530BBC018C0D33
:100EC0009D1D0E9414238C819D818C0D9D1D9D83F1
:100ED0008C83E881F981E80FF91F1082888199815C
:100EE000F7016081718144815581800F911F0E94BB
:100EF0000B23A801CBCFDF91CF911F910F91FF90D2
:100F0000EF90DF90CF90BF90AF909F908F907F90A9
:100F10006F905F904F903F902F9008950F931F9385
:100F2000CF93DF93CDB7DEB7A3970FB6F894DEBFAC
:100F30000FBECDBF8C01440F551F4B5D5E4FFA01B4
:100F400065917491CE0101960E94F722BE016F5FF8
:100F50007F4FC8010E947105C801A3960FB6F8948F
:100F6000DEBF0FBECDBFDF91CF911F910F910895CE
:100F7000EF92FF920F931F93CF93DF93CDB7DEB71E
:100F80006B970FB6F894DEBF0FBECDBF8C010E94E9
:100F9000820C181619060CF051C0C8010E948B0C67
:100FA00081114CC063E471E0CE0146960E94710548
:100FB000C8010E948B0C8F3F31F0682FCE014696FE
:100FC0000E94DA05F5CFF801E584F684E114F10416
:100FD00089F1BE016A5E7F4FCE0140960E949E0558
:100FE000F801828193819C838B8384819581A68182
:100FF000B7818D839E83AF83B88740855185628595
:10100000738549875A876B877C8786E092E09A834D
:10101000898384858D87858596859F878E87BE0188
:10102000605F7F4FCE010196F7010995CE01409692
:101030000E940305CE0146960E9403056B960FB6EB
:10104000F894DEBF0FBECDBFDF91CF911F910F91FE
:10105000FF90EF900895FC01768765870895CF9201
:10106000DF92EF92FF920F931F93CF93DF93CDB751
:10107000DEB7AA970FB6F894DEBF0FBECDBF8C01C6
:101080007B016A0140E050E0BC01CE0185960E94E0
:101090008E0741E050E0B801CE014F960E948E07C6
:1010A00042E050E0B801CE0149960E948E0743E02D
:1010B00050E0B801CE0143960E948E0744E050E014
:1010C000B801CE010D960E948E0745E050E0B801B0
:1010D000CE0107960E948E07B601CE0101960E94AE
:1010E0007105AE014F5F5F4FBE016B5D7F4FCE015B
:1010F0004F960E949B06CE0101960E940305B70100
:10110000CE0101960E947105AE014F5F5F4FBE0197
:101110006B5D7F4FCE010D960E949B06CE0101961E
:101120000E940305BE01615E7F4FC8010E947204E8
:10113000BE01675E7F4FC8010E947204BE016D5EF2
:101140007F4FC8010E947204BE01635F7F4FC801D8
:101150000E947204BE01695F7F4FC8010E94720441
:10116000C8010E945E04CE0107960E940305CE01CD
:101170000D960E940305CE0143960E940305CE0101
:1011800049960E940305CE014F960E940305CE01A9
:1011900085960E940305AA960FB6F894DEBF0FBE8F
:1011A000CDBFDF91CF911F910F91FF90EF90DF9016
:1011B000CF9008950F931F93CF93DF93EC018B0192
:1011C00063E471E00E947105C8010E94820C181648
:1011D000190674F4C8010E948B0C8A3049F08D30D6
:1011E00099F38F3F89F3682FCE010E94DA05ECCF87
:1011F000CE01DF91CF911F910F910895EF92FF9251
:101200000F931F93CF93DF93CDB7DEB762970FB6DF
:10121000F894DEBF0FBECDBF8C0163E471E0CE0158
:101220000D960E94710563E471E0CE0107960E945D
:1012300071059DE2E92EFF24F394C8010E94820CFF
:10124000892B29F421E0E21AF10809F051C0B80114
:10125000CE0101960E94DA08BE016F5F7F4FCE017A
:1012600007960E94870563E471E00E940E06F82E3F
:10127000CE0101960E940305F1101DC0BE01695FF9
:101280007F4FCE0101960E949E056AE0CE01019635
:101290000E940006BC01CE010D960E94D305CE012E
:1012A00001960E940305BE01635F7F4F89E692E0CD
:1012B0000E947204CCCF46E050E0B801CE01019606
:1012C0000E948E07BE016F5F7F4FCE010D960E9478
:1012D0004906FF24F3940196C1F4F12C69EB71E007
:1012E00089E692E00E948404C8010E94A50D0DC009
:1012F00063EC71E089E692E00E94840464E670E0A9
:1013000080E090E00E94E11698CFCE0101960E9405
:101310000305CE0107960E940305CE010D960E949B
:1013200003058F2D62960FB6F894DEBF0FBECDBFBA
:10133000DF91CF911F910F91FF90EF900895EF9261
:10134000FF920F931F93CF93DF93EC018B017A01F0
:10135000A9010E94D00C892BA1F066ED71E089E60D
:1013600092E00E948404A701B801CE010E942F08D8
:10137000CE01DF91CF911F910F91FF90EF900C94D0
:10138000FE0869EE71E089E692E00E94840480E044
:10139000DF91CF911F910F91FF90EF9008950F93E0
:1013A0001F93CF93DF93EC018B0160E00E94570401
:1013B000B801CE010E9449046FEFCE01DF91CF91B9
:1013C0001F910F910C9457040F9300E020E040E030
:1013D00060E08CE093E00E94D5030F910895209186
:1013E000B203222381F0213051F42DB32093B003B6
:1013F0003DB32091B103209523232DBB04C02FB70B
:101400002093B003F8948CBD9DBD08959091B203D4
:10141000992339F08091B003913011F48DBB089578
:101420008FBF089544E050E0BC0181E090E00C944F
:10143000491444E050E0BC0185E090E00C9449146C
:1014400044E050E0BC018FE090E00C944914AF926E
:10145000BF92CF92DF92EF92FF920F931F93CF93A1
:10146000DF9300D000D000D0CDB7DEB76C015B01B8
:1014700080917C03811107C089E593E00E946D0F84
:1014800081E080937C0382E193E0F6019783868379
:1014900080EA93E00E94E91380E590E00E94EF0962
:1014A00046E050E0B50189E090E00E94491400E078
:1014B00020E040E060E0CE0101960E94D503CE011D
:1014C00003960E94200A0E94060A10EAE12E1FE0FD
:1014D000F12E00E010E020E63AEE40E050E0B501E9
:1014E000F601868197810E949C1C5C0181309105E8
:1014F000B9F580E590E00E94EF09F60166817781F9
:10150000CE0101960E94E417CE0103960E94200AA4
:10151000F60166817781CE0101960E94FA17CE010D
:1015200003960E94120AF60166817781CE01019628
:101530000E94EF17CE0103960E94190A0E94060A24
:10154000F60166817781CE0101960E9405184B81D4
:101550005C816D817E81F601428353836483758350
:10156000C50126960FB6F894DEBF0FBECDBFDF9142
:10157000CF911F910F91FF90EF90DF90CF90BF9090
:10158000AF9008958F929F92AF92BF92CF92DF92C9
:10159000EF92FF920F931F93CF93DF9300D0CDB7BD
:1015A000DEB74C016A01590180EA93E069837A83CE
:1015B0000E94E91380E590E00E94EF0946E050E0C8
:1015C00069817A8189E090E00E944914C6010296FF
:1015D0000E94200AC80102960E94120AC7010296C0
:1015E0000E94190A0E94060AF50142815381648112
:1015F0007581F40142835383648375830F900F9048
:10160000DF91CF911F910F91FF90EF90DF90CF90DE
:10161000BF90AF909F908F9008956F927F928F921E
:101620009F92AF92BF92CF92DF92EF92FF920F9371
:101630001F93CF93DF93CDB7DEB76E970FB6F894B5
:10164000DEBF0FBECDBF6C015B017A0149013801DD
:1016500000E02FEF4FEF6FEFCE0149960E94D503C8
:1016600027EB31E03A8329838B8D9C8DAD8DBE8D28
:101670008B839C83AD83BE8338872F83F301828164
:101680009381A481B58189879A87AB87BC873E8780
:101690002D87F40182819381A481B5818F87988BF6
:1016A000A98BBA8B3C8B2B8BF701428153816481D0
:1016B00075814D8B5E8B6F8B788FCE0101967C018F
:1016C0008E01095F1F4F9E01235F3F4FAE014D5EAC
:1016D0005F4FB501C6010E94C20A6E960FB6F8941C
:1016E000DEBF0FBECDBFDF91CF911F910F91FF9055
:1016F000EF90DF90CF90BF90AF909F908F907F90B2
:101700006F900895CF92DF92EF92FF920F931F9305
:10171000CF93DF93CDB7DEB768970FB6F894DEBFEF
:101720000FBECDBF6B017901DA0112964D915D912B
:101730006D917C9115974D8B5E8B6F8B788FA7EB9E
:10174000B1E0BA83A98321E0288F0D891E892F89F2
:10175000388D0B831C832D833E83B887AF83F701BD
:10176000028113812481358109871A872B873C8761
:10177000BE87AD874F87588B698B7A8B8E010F5F41
:101780001F4F9E01295F3F4FAE01435F5F4FB60180
:101790000E940D0B68960FB6F894DEBF0FBECDBF4A
:1017A000DF91CF911F910F91FF90EF90DF90CF903D
:1017B00008950F931F93CF93DF93CDB7DEB7629752
:1017C0000FB6F894DEBF0FBECDBFDB01FA01428138
:1017D0005381648175814F87588B698B7A8BE7EBD6
:1017E000F1E0FA83E98321E02A8B0F8518892989A2
:1017F0003A890B831C832D833E83F887EF834987C7
:101800005A876B877C879E012F5F3F4FAE01495FF0
:101810005F4FBD010E94820B62960FB6F894DEBF47
:101820000FBECDBFDF91CF911F910F91089527EB90
:1018300031E0FC0131832083FB01428153816481CB
:101840007581FC01428353836483758308950F93EC
:1018500000E020E040E060E08CE893E00E94D503E7
:1018600084E793E00F910C94CB03DC01ED91FC91A4
:10187000008CF18DE02D099591E089270895CF9393
:10188000DF931F92CDB7DEB76983DC01ED91FC9148
:101890000280F381E02D41E050E0BE016F5F7F4F99
:1018A00009950F90DF91CF91089521E0FC01848587
:1018B000843009F420E0822F0895FC019485FB0117
:1018C0008485981303C081E0943009F480E0089582
:1018D0000F931F93CF93DF93EC018A018C858430A3
:1018E00021F00E948B11892B39F481E090E09B83D9
:1018F0008A8380E090E001C0C801DF91CF911F9101
:101900000F910895FC018485843011F00C948212AB
:1019100080E090E00895CF93DF931F92CDB7DEB7BC
:1019200041E050E0BE016F5F7F4FFC0184850E9463
:101930002212181619061CF4898190E002C08FEF5C
:101940009FEF0F90DF91CF910895FC0184850C9457
:1019500022120F931F93CF93DF931F92CDB7DEB761
:101960008C01DC01ED91FC910480F581E02D09955D
:10197000892B51F0BE016F5F7F4FF80184850E9473
:10198000AD12898190E002C08FEF9FEF0F90DF9141
:10199000CF911F910F910895FC0184850C94DC1266
:1019A000CF92DF92EF92FF920F931F93CF93DF932B
:1019B000CDB7DEB7AF970FB6F894DEBF0FBECDBF81
:1019C0007C018B016A01CE0101960E94CB03CE01FE
:1019D00009960E946D0FCE018A960E94CB0364E7A0
:1019E00073E0CE0184960E94170CBE016C5D7F4FA0
:1019F000CE0101960E94E11CAE01465D5F4FB80129
:101A0000CE0101960E94461F81309105C1F4D70195
:101A1000ED91FC910484F585E02D87EB91E09DA389
:101A20008CA30CA51DA52EA53FA50EA31FA328A71B
:101A300039A7A601BE016C5D7F4FC7010995AF961E
:101A40000FB6F894DEBF0FBECDBFDF91CF911F91CF
:101A50000F91FF90EF90DF90CF900895FC011382DB
:101A6000128248EE53E060E070E044835583668361
:101A7000778386E092E09183808384E08487089571
:101A8000FC018485843011F00C94671080E0089587
:101A9000DF92EF92FF920F931F93CF93DF93EC01AE
:101AA0007B018A018C85843009F045C0D12C8D2DB5
:101AB0000E946710811102C0DC8607C08B7F8831CD
:101AC000D9F3D39484E0D812F2CF8C85843099F185
:101AD00020913301309134012F5F3F4F11F420E00A
:101AE00034E030933401209333014091330150911D
:101AF000340120E061E00E94B910B7016E5F7F4FB2
:101B0000A8018C850E940D11811103C084E08C878F
:101B100012C0CE010E94400D873151F061E070E0AB
:101B200080E090E00E94E116CE010E94400DECCFD3
:101B300081E090E002C080E090E0DF91CF911F91C2
:101B40000F91FF90EF90DF900895CF92DF92EF9288
:101B5000FF92CF93DF93EC018C85843081F10E945A
:101B600065110E94B2166B017C01CE010E94400DEE
:101B7000882359F00E94B2166C197D098E099F09BD
:101B8000683E73408105910598F0CE010E94400D9A
:101B9000882319F08C850E948F10EC85F0E0EE0F01
:101BA000FF1FEC57FC4F1182108284E08C8707C026
:101BB00061E070E080E090E00E94E116D6CFDF9116
:101BC000CF91FF90EF90DF90CF900895CF93DF9368
:101BD000EC018C858430D1F0CE010E94400D84311F
:101BE000A9F0882399F0883189F08C3169F4E88173
:101BF000F9810480F581E02DCE01099521E0892B42
:101C000009F420E0822F03C081E001C080E0DF9171
:101C1000CF9108950F9300E020E040E060E082E97A
:101C200093E00E94D5030F910895DC01ED91FC91A2
:101C3000008CF18DE02D099427EB31E0FC0131831C
:101C40002083FB014189528963897489FC014283A5
:101C50005383648375830895FC018589968908956B
:101C6000FC01818D928D0895CF93DF931F92CDB7A4
:101C7000DEB76983DC01ED91FC910280F381E02DF8
:101C800041E050E0BE016F5F7F4F09950F90DF91FB
:101C9000CF910895CF93DF93EC01898D9A8D892B95
:101CA00041F0E881F9810680F781E02DCE010995A8
:101CB000F4CFDF91CF910895CF93DF93EC018C8522
:101CC000843061F00E948F10EC85F0E0EE0FFF1F72
:101CD000EC57FC4F1182108284E08C87DF91CF910A
:101CE0000895FC01108E178A6E5F7F4F84850C94D7
:101CF0002413FC0184850C946A13CF93DF93EC01C9
:101D00009A018F89988DAB01BC018C850E94DD12F0
:101D10002F89388D280F391F388F2F8BDF91CF9166
:101D200008950F931F93CF93DF931F92CDB7DEB724
:101D30008C01FC01818D928D892B59F041E050E09E
:101D4000BE016F5F7F4F84850E942212181619060C
:101D50001CF08FEF9FEF08C0F801818D928D0197E5
:101D6000928F818F898190E00F90DF91CF911F91A9
:101D70000F910895CF93DF93EC01898D9A8D009791
:101D800019F48FEF9FEF10C04817590708F0AC0106
:101D90008C850E942212181619069CF7298D3A8DFF
:101DA000281B390B3A8F298FDF91CF910895CF935C
:101DB000DF931F92CDB7DEB7FC01218D328D232B2F
:101DC00049F0BE016F5F7F4F84850E94AD1289810B
:101DD00090E002C08FEF9FEF0F90DF91CF910895B9
:101DE000FF920F931F93CF93DF93EC018B018C85B0
:101DF0008430E1F4F12C8F2D0E946710811102C014
:101E0000FC8606C08831E1F3F39484E0F812F3CF46
:101E10008C85843059F01E870D871A8E198E20E02C
:101E2000A80162E00E94B91081E001C080E0DF916A
:101E3000CF911F910F91FF9008950F931F93CF9310
:101E4000DF93CDB7DEB728970FB6F894DEBF0FBE8D
:101E5000CDBF8C01DC01ED91FC910284F385E02D76
:101E60000995F80184850E9482121816190644F516
:101E700048E050E0BE016F5F7F4FD8011C968C9107
:101E80000E94221218161906ECF4BE016F5F7F4FF4
:101E9000C8010F960E94F1038D8190E0982F88274A
:101EA0002E81820F911DF801968B858B8F8190E09A
:101EB000982F88272885820F911D928F818F02C0CD
:101EC00080E090E028960FB6F894DEBF0FBECDBF3D
:101ED000DF91CF911F910F910895FC01138212821F
:101EE00048EE53E060E070E0448355836683778377
:101EF00086E292E09183808384E08487CF010F960D
:101F00000C94CB03CF92DF92EF92FF920F931F932B
:101F1000CF93DF93CDB7DEB7AF970FB6F894DEBFA0
:101F20000FBECDBF7C018B016A01CE0101960E94DC
:101F3000CB03CE0109960E946D0FCE018A960E94B6
:101F4000CB0364E773E0CE0184960E94170CBE01B8
:101F50006C5D7F4FCE0101960E94E11CAE01465D93
:101F60005F4FB801CE0101960E94461F8130910556
:101F7000C1F4D701ED91FC910088F189E02D87EB48
:101F800091E09DA38CA30CA51DA52EA53FA50EA396
:101F90001FA328A739A7A601BE016C5D7F4FC7010B
:101FA0000995AF960FB6F894DEBF0FBECDBFDF9197
:101FB000CF911F910F91FF90EF90DF90CF900895F8
:101FC0000F9300E020E040E060E088E993E00E94A9
:101FD000D5030F910895CF92DF92EF92FF920F9366
:101FE00030E0C12CF2E1DF2EFAE7EF2EF12C4C1598
:101FF0005D056E057F0540F4F694E794D794C79489
:102000003F5F3630A1F737E041E04327211102C09E
:1020100050E701C050E5242F30E035952795237017
:102020000C70202B252BFC012083417041830F91E4
:10203000FF90EF90DF90CF90089590E0982F882741
:1020400044E050E0845F9B4F0C944914282F30E00B
:102050002C5F3F4F922F8827860F971F0C94781480
:1020600062E070E00C942610FB01282F30E02C5F1A
:102070003F4F922F8827642F8E0F9F1F0C94C713FA
:10208000CF93DF93C82FD62F472F64E070E00E94D4
:1020900034104D2F65E070E08C2FDF91CF910C94C0
:1020A0003410462F62E070E00C943410CF93DF932D
:1020B000C82FD62F472F60E170E00E9434104D2FBB
:1020C00061E170E08C2FDF91CF910C9434100F936D
:1020D0001F93CF93DF9300D01F92CDB7DEB7182F99
:1020E00000E021E040E059E06DE370E0CE010196B0
:1020F0000E94EB0F89819A810E94EF0963E070E0F2
:10210000812F0E9426108B830E94060A8B810F90DC
:102110000F900F90DF91CF911F910F9108950F9322
:102120001F93CF93DF9300D0CDB7DEB7182F00E019
:1021300021E040E059E06DE370E0CE0101960E949D
:10214000EB0F89819A810E94EF0940E150E0612FF5
:1021500080EA93E00E9442166FEF812F0E94511097
:102160000E94060A0F900F90DF91CF911F910F915F
:102170000895CF92DF92EF92FF920F931F93CF9328
:10218000DF9300D0CDB7DEB7182FD62E7A01C22E3E
:102190008FEF860F8530A8F5812F0E948F1000E009
:1021A00021E040E059E06DE370E0CE0101960E942D
:1021B000EB0F89819A810E94EF094D2D4C2960E037
:1021C00070E0812F0E943410E114F10411F0B70186
:1021D0000AC060919E0370919F036F5F7F4F709361
:1021E0009F0360939E03812F0E94401041E050E0C6
:1021F000612F80EA93E00E9442160E94060A81E065
:1022000001C080E00F900F90DF91CF911F910F914F
:10221000FF90EF90DF90CF900895CF92DF92EF92F2
:10222000FF920F931F93CF93DF9300D0CDB7DEB70C
:10223000182F7B016A01FB0180818F3F51F481815E
:102240008F3F99F482818F3F81F483818F3F69F4BE
:1022500030C081110AC0FB018181811106C08281D9
:10226000811103C08381882321F1C114D10409F1B4
:1022700000E021E040E059E06DE370E0CE0101961E
:102280000E94EB0F89819A810E94EF09B701812F8B
:102290000E941D10B601812F0E94561044E050E0AC
:1022A000612F80EA93E00E9442160E94060A81E0B4
:1022B00001C080E00F900F90DF91CF911F910F919F
:1022C000FF90EF90DF90CF9008950F931F93CF93DF
:1022D000DF9300D0CDB7DEB7182F00E021E040E05B
:1022E00059E06DE370E0CE0101960E94EB0F898109
:1022F0009A810E94EF0948E050E0612F80EA93E064
:102300000E9442160E94060A0F900F90DF91CF9113
:102310001F910F910895BF92CF92DF92EF92FF929B
:102320000F931F93CF93DF9300D01F92CDB7DEB7EB
:10233000B82E6B017A01413088E0580718F0E12C83
:1023400098E0F92E00E021E040E059E06DE370E014
:10235000CE0101960E94EB0F89819A810E94EF09BC
:102360006B2D80EA93E00E94B0148C0163E070E072
:102370008B2D0E9426108B830E94060A8B81873149
:1023800011F08C3131F40E94DC170E151F05D0F2CC
:1023900002C0E12CF12C00E021E040E059E06DE3C7
:1023A00070E0CE0101960E94EB0F89819A810E9414
:1023B000EF099701A6016B2D80EA93E00E946F154B
:1023C00040E250E06B2D80EA93E00E9442168B2D94
:1023D0000E94301084FD22C063E070E08B2D0E94CB
:1023E0002610811108C00E94060A8B2D0E948F10B2
:1023F00080E090E01AC00E94060A0E94DC1700E00C
:1024000021E040E059E06DE370E0CE0101960E94CA
:10241000EB0F89819A810E94EF09D9CF60E18B2D62
:102420000E9451100E94060AC7010F900F900F9052
:10243000DF91CF911F910F91FF90EF90DF90CF90A0
:10244000BF900895AF92BF92CF92DF92EF92FF922A
:102450000F931F93CF93DF9300D0CDB7DEB7182F24
:102460005B016A0100E021E040E059E06DE370E0CB
:10247000CE0101960E94EB0F89819A810E94EF099B
:10248000612F80EA93E00E94E4147C010097A1F49C
:1024900063E070E0812F0E942610843119F18823B7
:1024A00009F121E030E08C3111F420E030E0EE243D
:1024B000FF24E21AF30A16C0C816D9060CF47601F6
:1024C0001E141F047CF400E09701A501612F80EA2F
:1024D00093E00E94F21540E450E0612F80EA93E01F
:1024E0000E9442160E94060AC7010F900F90DF91CA
:1024F000CF911F910F91FF90EF90DF90CF90BF9001
:10250000AF9008950F931F93CF93DF9300D000D027
:10251000CDB7DEB7182F00E021E040E059E06DE3D1
:1025200070E0CE0101960E94EB0F89819A810E9492
:10253000EF09612F80EA93E00E94E4148B839C836F
:102540000E94060A8B819C810F900F900F900F9034
:10255000DF91CF911F910F910895EF92FF920F930A
:102560001F93CF93DF9300D0CDB7DEB7182F7B0139
:1025700000E021E040E059E06DE370E0CE0101961B
:102580000E94EB0F89819A810E94EF0901E021E00E
:1025900030E0A701612F80EA93E00E94F2150E94CB
:1025A000060A81E090E00F900F90DF91CF911F918C
:1025B0000F91FF90EF90089508959F92AF92BF9270
:1025C000CF92DF92EF92FF920F931F93CF93DF93FF
:1025D00000D0CDB7DEB7982E6B015A01790100E02B
:1025E00021E040E059E06DE370E0CE0101960E94E9
:1025F000EB0F89819A810E94EF09692D80EA93E0AF
:102600000E94B0148E159F0530F4692D80EA93E086
:102610000E94B0147C0187019501A601692D80EA12
:1026200093E00E9400150E94060AC7010F900F90C8
:10263000DF91CF911F910F91FF90EF90DF90CF909E
:10264000BF90AF909F900895CF92DF92EF92FF924C
:102650000F931F93CF93DF9300D0CDB7DEB7182F22
:102660007B016A01FB018081811109C08181811197
:1026700006C08281811103C083818823F1F0C114D7
:10268000D104D9F000E021E040E059E06DE370E0D2
:10269000CE0101960E94EB0F89819A810E94EF0979
:1026A000B701812F0E941D10B601812F0E94561084
:1026B0000E94060A81E090E002C080E090E00F9066
:1026C0000F90DF91CF911F910F91FF90EF90DF90CE
:1026D000CF9008950F931F93CF93DF9300D0CDB782
:1026E000DEB7182F00E021E040E059E06DE370E034
:1026F000CE0101960E94EB0F89819A810E94EF0919
:1027000040E250E0612F80EA93E00E944216812F60
:102710000E94301084FD21C0812F0E94301083FF61
:1027200009C068E1812F0E9451100E94060A80E0D2
:1027300090E01BC00E94060A0E94DC1700E021E026
:1027400040E059E06DE370E0CE0101960E94EB0F8E
:1027500089819A810E94EF09DACF60E1812F0E947E
:1027600051100E94060A81E090E00F900F90DF91D7
:10277000CF911F910F9108958EBD00000DB407FEFB
:10278000FDCF8EB508952A9808952A9A08951F932B
:10279000CF93DF9300D0CDB7DEB7182F6A8399832C
:1027A0000E94C31380EF0E94BC139981892F0E945D
:1027B000BC13812F0E94BC136A81862F0E94BC1318
:1027C0000E94C51381E00F900F90DF91CF911F9170
:1027D0000895CF93DF93EC016CE271E080E090E02C
:1027E0000E94E1160E945216229A8091B203882319
:1027F00081F0813051F48DB38093B0039DB380910B
:10280000B103809589238DBB04C08FB78093B0033B
:10281000F89480E58CBD1DBC60E880E090E00E94EB
:10282000C71365E58BE190E00E94C71365E58AE177
:1028300090E00E94C7139091B203992339F08091E0
:10284000B003913011F48DBB01C08FBF80E090E4E4
:102850009983888380E090E69987888780E098E470
:102860009B838A8380E098E69B878A8780E090E557
:102870009D838C8380E090E79D878C8780E098E53E
:102880009F838E8380E098E79F878E87DF91CF912B
:102890000895CF92DF92EF92FF920F931F93CF9301
:1028A000DF93EC017A018B016C01C40ED51ECC15AF
:1028B000DD05A1F00E94C31380EF0E94BC138D2F91
:1028C0000E94BC138C2F0E94BC132196F8018191A9
:1028D0008F010E94BC130E94C513E9CFC701DF918D
:1028E000CF911F910F91FF90EF90DF90CF900895BF
:1028F0001F93CF93DF931F92CDB7DEB7182F998325
:102900000E94C3138FE00E94BC139981892F0E94FB
:10291000BC13812F0E94BC1380E00E94BC138983EA
:102920000E94C51389810F90DF91CF911F91089567
:102930001F93CF93DF93182F60E270E00E94261060
:10294000C82FD0E061E270E0812F0E942610DC2FBA
:10295000CC279E01282BC901DF91CF911F910895AB
:10296000FF920F931F93CF93DF93F62EC0E0D0E03A
:102970008F2D0E9498148C01009721F08F2D0E94BA
:102980009814EC01C017D10799F7CE01DF91CF91D0
:102990001F910F91FF9008951F93CF93DF93182FEE
:1029A00066E270E00E942610C82FD0E067E270E077
:1029B000812F0E942610DC2FCC279E01282BC901D5
:1029C000DF91CF911F910895FF920F931F93CF93A3
:1029D000DF93F62EC0E0D0E08F2D0E94CC148C0146
:1029E000009721F08F2D0E94CC14EC01C017D10765
:1029F00099F7CE01DF91CF911F910F91FF9008952C
:102A00006F927F929F92AF92BF92CF92DF92EF929E
:102A1000FF920F931F93CF93DF931F92CDB7DEB733
:102A2000D82E962E3A01590164E270E0892D9983DF
:102A30000E942610E82EF12C65E270E0892D0E949C
:102A40002610FE2CEE24E82AE60CF71C97013770BE
:102A50006D2C9981792E690C711C690C711CD30144
:102A6000ED91FC91E20FF31FC901800F911F81309E
:102A70009840A0F0C12C48E0D42EC21AD30AA60177
:102A8000B501CF010E944914A8014C195D09B50197
:102A90006C0D7D1DF3018081918103C0A801B501FA
:102AA000CF010E944914E00EF11E4F2D64E270E048
:102AB000892D0E9434104E2D65E270E0892D0F9013
:102AC000DF91CF911F910F91FF90EF90DF90CF900A
:102AD000BF90AF909F907F906F900C9434100F93A5
:102AE0001F9389019A0140E050E00E9400151F9158
:102AF0000F910895CF92DF92EF92FF920F931F9361
:102B0000CF93DF93EC017A018B016C01C40ED51ECB
:102B1000CC15DD05A9F00E94C3138FE00E94BC1301
:102B20008D2F0E94BC138C2F0E94BC13219680E035
:102B30000E94BC13F80181938F010E94C513E8CF56
:102B4000C701DF91CF911F910F91FF90EF90DF9020
:102B5000CF900895AF92BF92CF92DF92EF92FF9203
:102B60000F931F93CF93DF9300D0CDB7DEB75A8377
:102B700049835901E981FA81F7707C01E60EF11C65
:102B8000E60EF11CD70118968D919C9119978E0F26
:102B90009F1F98012E0F3F1F2130384098F0C12C05
:102BA00068E0D62ECE1ADF0AA601B5010E947A157A
:102BB000A8014C195D09B5016C0D7D1DF7018085DB
:102BC000918502C0A801B5010F900F90DF91CF91C0
:102BD0001F910F91FF90EF90DF90CF90BF90AF903B
:102BE0000C947A158F929F92AF92BF92CF92DF9200
:102BF000EF92FF920F931F93CF93DF936C01962E6A
:102C00005A017901802E68E270E0892D0E94261019
:102C1000C82FD0E069E270E0892D0E942610DC2FD9
:102C2000CC27C82B87019501AE01692DC6010E94F2
:102C3000AA1581101AC0CE0DDF1D4D2F68E270E07D
:102C4000892D0E9434104C2F69E270E0892DDF91AC
:102C5000CF911F910F91FF90EF90DF90CF90BF9099
:102C6000AF909F908F900C943410DF91CF911F9173
:102C70000F91FF90EF90DF90CF90BF90AF909F901B
:102C80008F900895CF93C62F61E070E08C2F0E9443
:102C9000341061E070E08C2F0E9426108111F9CF72
:102CA000CF91089561E08AE00E94A61761E08AE072
:102CB0000E946D178CB580618CBD8CB580648CBD15
:102CC00061E08DE00E946D1761E08BE00C946D1760
:102CD0001F920F920FB60F9211242F933F938F9351
:102CE0009F93AF93BF938091B4039091B503A0914C
:102CF000B603B091B7033091B30323E0230F2D3710
:102D000020F40196A11DB11D05C026E8230F0296EF
:102D1000A11DB11D2093B3038093B4039093B50319
:102D2000A093B603B093B7038091B8039091B90311
:102D3000A091BA03B091BB030196A11DB11D809370
:102D4000B8039093B903A093BA03B093BB03BF91A8
:102D5000AF919F918F913F912F910F900FBE0F9048
:102D60001F9018952FB7F8946091B4037091B50334
:102D70008091B6039091B7032FBF08953FB7F894A1
:102D80008091B8039091B903A091BA03B091BB03AD
:102D900026B5A89B05C02F3F19F00196A11DB11DB6
:102DA0003FBF6627782F892F9A2F620F711D811DD3
:102DB000911D42E0660F771F881F991F4A95D1F732
:102DC0000895CF92DF92EF92FF92CF93DF936B0142
:102DD0007C010E94BE16EB01C114D104E104F10490
:102DE00089F00E94DC170E94BE166C1B7D0B683EAA
:102DF000734090F381E0C81AD108E108F108C85186
:102E0000DC4FEACFDF91CF91FF90EF90DF90CF9032
:102E10000895789484B5826084BD84B5816084BD52
:102E200085B5826085BD85B5816085BDEEE6F0E043
:102E3000808181608083E1E8F0E01082808182609F
:102E40008083808181608083E0E8F0E08081816020
:102E50008083E1EBF0E0808184608083E0EBF0E050
:102E6000808181608083EAE7F0E0808184608083F4
:102E7000808182608083808181608083808180689E
:102E800080831092C1000895833081F028F481304E
:102E900099F08230A1F008958730A9F08830B9F018
:102EA0008430D1F4809180008F7D03C080918000B8
:102EB0008F7780938000089584B58F7702C084B5A2
:102EC0008F7D84BD08958091B0008F7703C080917D
:102ED000B0008F7D8093B0000895CF93DF9390E092
:102EE000FC01E251FF4F2491FC01EE5FFE4F849103
:102EF000882349F190E0880F991FFC01E05EFE4FA6
:102F0000A591B4918A5E9E4FFC01C591D4919FB763
:102F1000611108C0F8948C91209582238C9388814C
:102F200082230AC0623051F4F8948C91322F30958C
:102F300083238C938881822B888304C0F8948C919E
:102F4000822B8C939FBFDF91CF9108950F931F9396
:102F5000CF93DF931F92CDB7DEB7282F30E0F90172
:102F6000E652FF4F8491F901E251FF4F1491F901AC
:102F7000EE5FFE4F04910023C9F0882321F069839E
:102F80000E9444176981E02FF0E0EE0FFF1FEA5E18
:102F9000FE4FA591B4919FB7F8948C91611103C035
:102FA0001095812301C0812B8C939FBF0F90DF91DF
:102FB000CF911F910F91089508950E9624E1FC0181
:102FC00011922A95E9F70895CF93DF93EC01625FA0
:102FD0007F4F0E94E103CE01DF91CF910895CF93FF
:102FE000DF93EC016E5E7F4F0E94E103CE01DF9123
:102FF000CF910895CF93DF93EC016A5E7F4F0E94DB
:10300000E103CE01DF91CF910895CF93DF93EC01DF
:10301000625E7F4F0E94E103CE01DF91CF91089560
:1030200080E3FB0180833296842F82958F7090E13C
:10303000899F401911244A3014F4405D01C0495C55
:103040004293882311F0482FEFCF08950F9300E0AB
:1030500020E040E060E08CEB93E00E94D5030F910C
:1030600008956F927F928F929F92AF92BF92CF926C
:10307000DF92EF92FF920F931F93CF93DF93CDB721
:10308000DEB7AC970FB6F894DEBF0FBECDBF7C01A4
:10309000862EB42EA52E20E2922ECE0101966C0132
:1030A000FC01292D11922A95E9F70FEF2FEF4FEF31
:1030B0006FEF86960E94D50387EB91E09AA389A3D0
:1030C00089A59AA5ABA5BCA58BA39CA3ADA3BEA3C4
:1030D0008701095B1F4F43E450E0BE016F5D7F4FE6
:1030E000C8010E94710E019609F4BFC081E0898376
:1030F0008A8386E0782E7B821C82F7016481758149
:10310000868197810E946E206D837E838F8398874E
:10311000A986BA8680E890E09C878B874CE150E0D6
:10312000B601C8010E947D0EF601292D11922A9543
:10313000E9F7570188E0A80EB11CF501D60101900E
:103140000D927A94E1F740E150E0B601C8010E9487
:103150007D0EF60111929A94E9F796E0692E712C92
:1031600040E250E0B601C8010E947D0EF1E06F1A06
:103170007108B1F783E6898392E89A8393E59B838C
:103180008C8385E38D8381E08E838F829DE3988796
:1031900097E099878A8786E0F501DE011B9601900A
:1031A0000D928A95E1F78CE0898B8A8B66E472E058
:1031B000CE0143960E942F23F7014385BE01675E2F
:1031C0007F4FC7010E941018F7014485BE01655E5C
:1031D0007F4FC7010E941018F7014585BE01635E4D
:1031E0007F4FC7010E9410184EE150E0B601C801A0
:1031F0000E947D0EF3E08F121EC082E3898384E07B
:103200008A83F70196859B8397859C8390899D830C
:1032100091899E8396E39F838887828D8987838D9A
:103220008A87848D8B87858D8C874CE050E0B60132
:10323000C8010E947D0E87E3898386E08A8391E03E
:103240009B8393E09C838D838FE08E838AE38F83BF
:103250008BE388878FEF898749E050E0B601C8018A
:103260000E947D0EC8010E94790EAC960FB6F894AC
:10327000DEBF0FBECDBFDF91CF911F910F91FF90A9
:10328000EF90DF90CF90BF90AF909F908F907F9006
:103290006F9008952F923F924F925F926F927F921C
:1032A0008F929F92AF92BF92CF92DF92EF92FF9256
:1032B0000F931F93CF93DF93CDB7DEB7E3970FB68E
:1032C000F894DEBF0FBECDBF7C012A013B0169012E
:1032D0000E94B2164B015C018701095B1F4FC801B8
:1032E0000E941D0F1816190694F00E94B216681954
:1032F00079098A099B094616570668067906F0F08F
:1033000062E370E080E090E00E94E116E8CF42E2E4
:1033100050E0BE016F5F7F4FC8010E94BA0E8981E5
:10332000823031F4F801858996898334910541F022
:1033300019A6C8010E944A0E89A562C18FEF60C11B
:103340006D817E818F8198850E946E204B015C018A
:10335000F601608371838283938346E050E0B70176
:10336000685F7F4FCE014D960E94FE22892B99F413
:10337000F70180819181A281B38188169906AA06FE
:10338000BB0648F084819581A681B781881599058F
:10339000AA05BB0528F4C8010E944A0E80E030C18E
:1033A00089899A89AB89BC89F70186879787A08B21
:1033B000B18B3EECC32ED12CC8010E94910EF1E0DE
:1033C000CF1AD108C9F719A6C70182969BA78AA769
:1033D000F701B696FDA7ECA708969FA78EA73C9786
:1033E0006F018E9699AB88AB3897FBABEAAB570170
:1033F000F6E1AF0EB11C47018EE1880E911CC801A9
:103400000E94300E181619060CF093CFC8010E94C6
:10341000910E8333910509F4C9C0F4F4813091050C
:10342000B9F11CF4892B59F3DBC083309105C1F14C
:10343000069709F0D5C0C8010E94910E3C0144E0F6
:1034400050E0B401C8010E94BA0E212C312C77241F
:10345000F4E06F1A71083FC08A33910509F47AC00D
:103460003CF48533910561F0C69709F43FC0B8C0BC
:103470008B33910509F484C08F3F910501F2B0C0F0
:10348000C8010E94910EC8010E94910E89A7B7CF72
:10349000C8010E94910E44E050E06AA97BA936C0A1
:1034A000C8010E94910E3C0144E050E0B501C80102
:1034B0000E94BA0E212C312C772494E0691A7108ED
:1034C000261437040CF09BCFC8010E94910EEFEF39
:1034D0002E1A3E0AF5CF261437040CF090CFC801FF
:1034E0000E94910E8FEF281A380AF5CFC8010E946A
:1034F000910E782EF701828D938DA48DB58D892B39
:103500008A2B8B2B39F444E050E0B601C8010E94AD
:10351000BA0E75CFE8A9F9A9208031804280538086
:10352000B601CE0183960E94E1038DA19EA1AFA1B9
:10353000B8A582159305A405B50529F3212C312CD6
:10354000721409F45CCFC8010E94910EFFEF2F1A8C
:103550003F0AF6CFC8010E94910E44E050E06CA5EE
:103560007DA5C8010E94BA0EF70166A177A180A5CA
:1035700091A50E946E2066A377A380A791A73FCF55
:10358000C8010E94910E44E050E06EA57FA5C801DD
:103590000E94BA0EF70162A573A584A595A50E94A5
:1035A0006E2062A773A784A795A729CFC8010E94A0
:1035B000910E44E050E06AA57BA5C8010E94BA0EB6
:1035C000F70162A173A184A195A10E946E2062A35C
:1035D00073A384A395A366A777A780AB91AB0FCF06
:1035E000C8010E94910E382E612C712C361409F4FA
:1035F00006CFC8010E94910EFFEF6F1A7F0AF6CF27
:10360000E3960FB6F894DEBF0FBECDBFDF91CF912A
:103610001F910F91FF90EF90DF90CF90BF90AF90F0
:103620009F908F907F906F905F904F903F902F90E2
:1036300008952F923F924F925F926F927F928F9256
:103640009F92AF92BF92CF92DF92EF92FF920F9331
:103650001F93CF93DF93CDB7DEB727970FB6F894BC
:10366000DEBF0FBECDBF8C0120ED37E040E050E063
:1036700061E070E080E090E00E94FD1FD8011496A8
:103680006D937D938D939C931797F801608371835D
:10369000828393834801F7E48F0E911CC4010E943A
:1036A0005C0E64E470E0C4010E94F00E882309F40B
:1036B00028C10E94B2166B017C01A12CB12C1D8285
:1036C000180186E4280E311CD801DE96BF83AE8334
:1036D00038EE432E33E0532E612C712CF1018081A2
:1036E000833009F4FDC081111FC0F80184819581E8
:1036F000A681B7810196A11DB11D84839583A68300
:10370000B7830E94B2166C197D098E099F09A30127
:1037100092010E942D20A90161E0C8010E94311888
:1037200081E0D1018C93BEC08430F9F4F80184812A
:103730009581A681B7810196A11DB11D84839583D2
:10374000A683B7830E94B2166C197D098E099F0962
:10375000A30192010E942D20A90163E0C8010E94EB
:103760003118E2E0D101EC939DC0813061F5AE816A
:10377000BF814D915D916D917C919E012F5F3F4F77
:10378000C8010E944A198D83823009F08BC089815B
:103790009A81AB81BC81F80184839583A683B7832A
:1037A0000E94B2166C197D098E099F09A30192012E
:1037B0000E942D20A90163E0C8010E943118ED810B
:1037C000D101EC9375C0823009F06CC0AE81BF812D
:1037D0004D915D916D917C919E012F5F3F4FC8018E
:1037E0000E944A198D83853009F056C083E0F101AB
:1037F0008083F80182A193A1A4A1B5A1892B8A2B72
:103800008B2B41F484E893E0A0E0B0E082A393A383
:10381000A4A3B5A3F80186A197A1A0A5B1A5892B62
:103820008A2B8B2B61F482A193A1A4A1B5A1B6959B
:10383000A7959795879586A397A3A0A7B1A7D80129
:103840009A964D915D916D917C919D9796968D91F3
:103850009D910D90BC91A02D452B462B472B59F4E3
:10386000AC01BD01440F551F661F771FF80142A729
:1038700053A764A775A7F80186A797A7A0ABB1AB1C
:1038800082A593A5A4A5B5A582AB93ABA4ABB5AB1C
:10389000AA24A394B12C0CC0FD81F63019F4D101F7
:1038A0001C9206C0BD81BF3F19F4F10110821D8238
:1038B000F1E0AF16B10409F411CF0E94B2166C19F1
:1038C0007D098E099F09D801DA962D913D914D9180
:1038D0005C91DD97261737074807590708F0FECE99
:1038E000C4010E945C0EF80184819581A681B78194
:1038F0000196A11DB11D84839583A683B783C5015D
:1039000002C080E090E027960FB6F894DEBF0FBEAD
:10391000CDBFDF91CF911F910F91FF90EF90DF907E
:10392000CF90BF90AF909F908F907F906F905F905F
:103930004F903F902F900895CF92DF92EF92FF9299
:103940000F931F93CF93DF93EC016B011AA21BA27D
:103950001CA21DA21EA21FA218A619A61AA61BA66B
:103960001CA61DA61EAA1FAA18AE19AE2AAF3BAFF1
:103970004CAF5DAFFC01FE96E082F18202831383BF
:103980008C01085F1F4F86E0F80111928A95E9F7D4
:10399000CE010E94DD1786E0F601D80101900D925C
:1039A0008A95E1F7FE01EA5BFF4F1082CE01DF91BD
:1039B000CF911F910F91FF90EF90DF90CF900C94DB
:1039C000191BFB014281538164817581FC01428393
:1039D000538364837583178216820895CF93FB0106
:1039E00081918111FDCFFB0180E090E020E030E08B
:1039F000CAE06191662309F12430310564F56E3225
:103A000071F48F3F910509F034F5DA01A20FB31F6D
:103A100012968C932F5F3F4F80E090E0EACFDC015D
:103A2000CA9FC001CB9F900D1124772767FD709529
:103A300060537109860F971FDCCF8F3F910509F006
:103A400054F4243031053CF4FA01E20FF31F828371
:103A500081E090E002C080E090E0CF9108950F9364
:103A600000E020E040E060E082EC93E00E94D503BB
:103A70000F910895AF92BF92CF92DF92EF92FF9293
:103A80000F931F93CF93DF9300D01F92CDB7DEB774
:103A90006C017B010E94B216F60177836683860172
:103AA000085F1F4FB6016A5F7F4F42E050E0C801D8
:103AB0000E947D0E81E090E09A83898342E050E08D
:103AC000BE016F5F7F4FC8010E947D0E80E091E0D4
:103AD0009A83898342E050E0BE016F5F7F4FC80147
:103AE0000E947D0E1A82198242E050E0BE016F5F93
:103AF0007F4FC8010E947D0E42E050E0BE016F5F23
:103B00007F4FC8010E947D0E42E050E0BE016F5F12
:103B10007F4FC8010E947D0E6701F60180818823D6
:103B200011F1F7016F018191811115C05601AE1895
:103B3000BF081A141B0494F4AB8241E050E0BE01AC
:103B40006D5F7F4FC8010E947D0EA501B701C801BE
:103B50000E947D0E03C08E3229F7E8CF7601FFEF79
:103B6000EF1AFF0ADACF1B8241E050E0BE016D5F21
:103B70007F4FC8010E947D0EE12CFF24F394FA824E
:103B8000E98242E050E0BE016F5F7F4FC8010E94B2
:103B90007D0EFA82E98242E050E0BE016F5F7F4F06
:103BA000C8010E947D0E81E090E00F900F900F9071
:103BB000DF91CF911F910F91FF90EF90DF90CF9009
:103BC000BF90AF9008954F925F926F927F928F92C5
:103BD0009F92AF92BF92CF92DF92EF92FF920F939C
:103BE0001F93CF93DF93CDB7DEB763970FB6F894EB
:103BF000DEBF0FBECDBF7C015B016A010E94B21621
:103C00002B013C018701085F1F4F4501A12CB12CFE
:103C1000C8010E941D0F1816190694F00E94B216D2
:103C2000641975098609970986169706A806B906C4
:103C3000D0F062E370E080E090E00E94E116E8CF0F
:103C4000F7014281538164817581818D928DA38DAD
:103C5000B48D481759076A077B0741F4858D968D07
:103C6000C59721F406C08FEF9FEFF9C08EEF9FEF4D
:103C7000F6C0C8010E94300E0C970CF4EEC04CE068
:103C800050E0BE016F5F7F4FC8010E94BA0E8B816A
:103C90009C819827892798279A8B898BF7014681E1
:103CA000578129813A814217530711F497FD06C0C5
:103CB000C8010E944A0E8CEF9FEFD1C08F709270A6
:103CC000892B31F0C8010E944A0E8BEF9FEFC7C0CD
:103CD000AF80B884BA24AB24BA24A114B10419F07B
:103CE000E12CF12C23C0C8010E944A0E8AEF9FEFFD
:103CF000B6C041E050E0BE01635F7F4FC8010E9443
:103D0000BA0E8D8581111BC08D858111F2CFC8013E
:103D10000E94910EC8010E94910EC8010E94910E4E
:103D2000C8010E94910EFFEFEF1AFF0A8D819E815C
:103D3000982789279827E816F906D8F20AC08D85B2
:103D40009FEF980F9D878823F9F2C8010E94910E7A
:103D5000F6CFE12CF12C41E050E0BE016D5E7F4FCB
:103D6000C8010E94BA0E8B89982F907C61F4882339
:103D700071F08B899FEF980F9B8B882341F0C801CE
:103D80000E94910EF6CFC8010E94910E1B8A8B896A
:103D90008111E1CF42E050E0BE01615F7F4FC80179
:103DA0000E94BA0E42E050E0BE01635F7F4FC8013F
:103DB0000E94BA0EC8010E94910EC8010E94910E85
:103DC000C8010E94910EC8010E94910E42E050E08D
:103DD000BE016F5E7F4FC8010E94BA0E8F85988921
:103DE0008115914029F48D859E858115914019F0AA
:103DF000812C912C16C089899A898115944031F0C3
:103E0000C8010E944A0E87EF9FEF29C0B6016E5F7E
:103E10007F4F44E050E0C8010E94BA0E81E090E07C
:103E20001EC089899A899827892798278816990614
:103E300038F4C8010E94910E2FEF821A920AF1CF36
:103E40008FEFE81AF80AEA14FB0409F084CFC801DE
:103E50000E944A0E86EF9FEF02C08DEF9FEF6396A0
:103E60000FB6F894DEBF0FBECDBFDF91CF911F918B
:103E70000F91FF90EF90DF90CF90BF90AF909F9009
:103E80008F907F906F905F904F9008958F929F9248
:103E9000AF92BF92CF92DF92EF92FF920F931F9358
:103EA000CF93DF9300D000D000D0CDB7DEB78C0128
:103EB0005B016A010E94EE1C4C01009709F05DC095
:103EC000F80142815381648175818091C40390918E
:103ED000C503A091C603B091C703481759076A07E5
:103EE0007B0709F44EC00E94B2167801F8E0EF0E8D
:103EF000F11C6F7077277C5FC7010E94F00E813044
:103F000009F043C087EB91E09A838983F8018281AD
:103F10009381A481B5818B839C83AD83BE8345E36C
:103F200050E0BE016F5F7F4FC7010E94710E892B69
:103F300019F4812C912C1DC0B501C8010E943A1DB5
:103F4000892BB9F3C7010E94790E892B91F333E0D5
:103F5000A32EB12CA60168E873E1C8010E94E31DFD
:103F60004C01F1E0AF1AB10821F08F3F2FEF92071B
:103F700089F3C7010E945C0E08C088248394912CA9
:103F800004C09EEF892E99249A94C40126960FB6F8
:103F9000F894DEBF0FBECDBFDF91CF911F910F917F
:103FA000FF90EF90DF90CF90BF90AF909F908F9059
:103FB0000895CF93DF9300D000D0CDB7DEB79B013B
:103FC000AC01611571058105910569F069833A833A
:103FD0004B835C830E941F2229813A814B815C8143
:103FE0000E944F2003C060E070E0CB010F900F9063
:103FF0000F900F90DF91CF910895CF92DF92EF92C3
:10400000FF926B017C01621773078407950764F4C4
:10401000CA01B9016C197D098E099F090E94D91F37
:104020006C0D7D1D8E1D9F1DFF90EF90DF90CF903A
:10403000089597FB072E16F4009407D077FD09D05A
:104040000E94802007FC05D03EF4909581959F4FFB
:104050000895709561957F4F0895A1E21A2EAA1BCD
:10406000BB1BFD010DC0AA1FBB1FEE1FFF1FA21728
:10407000B307E407F50720F0A21BB30BE40BF50B25
:10408000661F771F881F991F1A9469F760957095AE
:10409000809590959B01AC01BD01CF010895052E3F
:1040A00097FB1EF400940E94662057FD07D00E94E3
:1040B0002D2007FC03D04EF40C94662050954095BB
:1040C000309521953F4F4F4F5F4F089590958095C4
:1040D000709561957F4F8F4F9F4F08956927962761
:1040E000692778278727782708950E949A20A59F17
:1040F000900DB49F900DA49F800D911D11240895E3
:10410000AA1BBB1B51E107C0AA1FBB1FA617B707FD
:1041100010F0A61BB70B881F991F5A95A9F7809519
:104120009095BC01CD010895EE0FFF1F0590F4910D
:10413000E02D0994A29FB001B39FC001A39F700D11
:10414000811D1124911DB29F700D811D1124911D9F
:104150000895CF93DF938230910510F482E090E0D0
:10416000E091CA03F091CB0320E030E0A0E0B0E0A2
:10417000309739F14081518148175907B8F04817F5
:10418000590771F482819381109729F013969C93BB
:104190008E9312972CC09093CB038093CA0327C0B1
:1041A0002115310531F04217530718F0A901DB0141
:1041B00001C0EF019A01BD01DF010280F381E02D12
:1041C000D7CF21153105F9F0281B390B24303105E3
:1041D00080F48A819B816115710521F0FB01938335
:1041E000828304C09093CB038093CA03FE0132966E
:1041F00044C0FE01E20FF31F8193919322503109D5
:10420000398328833AC02091C8033091C903232BF6
:1042100041F420910201309103013093C9032093AE
:10422000C80320910001309101012115310541F4AD
:104230002DB73EB74091040150910501241B350B69
:10424000E091C803F091C903E217F307A0F42E1B15
:104250003F0B2817390778F0AC014E5F5F4F2417EA
:10426000350748F04E0F5F1F5093C9034093C803B2
:104270008193919302C0E0E0F0E0CF01DF91CF9114
:104280000895CF93DF93009709F487C0FC0132971C
:1042900013821282C091CA03D091CB03209781F47C
:1042A00020813181280F391F8091C8039091C90363
:1042B0008217930779F5F093C903E093C8036DC0A3
:1042C000DE0120E030E0AE17BF0750F412964D91AA
:1042D0005C9113979D014115510509F1DA01F3CF66
:1042E000B383A28340815181840F951F8A179B0756
:1042F00071F48D919C911197840F951F0296918373
:10430000808312968D919C911397938382832115BC
:10431000310529F4F093CB03E093CA033EC0D901E1
:104320001396FC93EE9312974D915D91A40FB51FD8
:10433000EA17FB0779F480819181840F951F02961B
:10434000D90111969C938E938281938113969C93AD
:104350008E931297E0E0F0E08A819B81009719F03C
:10436000FE01EC01F9CFCE01029628813981820F3E
:10437000931F2091C8033091C9032817390769F4A6
:10438000309729F41092CB031092CA0302C0138213
:104390001282D093C903C093C803DF91CF910895CF
:1043A0008F929F92AF92BF92CF92DF92EF92FF9245
:1043B000CF93DF93EC01688179818A819B816115BC
:1043C00071058105910521F464E279ED8BE597E0B3
:1043D0002DE133EF41E050E00E944F2049015A01A6
:1043E0009B01AC01A7EAB1E40E9475206B017C013E
:1043F000ACEEB4EFA50194010E945323C60ED71E64
:10440000E81EF91EF7FE06C081E0C81AD108E108CF
:1044100080E8F80AC882D982EA82FB82C701B60125
:104420009F77DF91CF91FF90EF90DF90CF90BF907B
:10443000AF909F908F9008950E94D021089586E0BC
:1044400091E00E94D02108956093060170930701C6
:1044500080930801909309010895A0E0B0E0E3E3A0
:10446000F2E20C945C23EC01CB01209719F40E943A
:10447000A920B8C0FE01E60FF71F9E0122503109A6
:10448000E217F30708F4ACC0D9010D911C91119704
:1044900006171707B8F00530110508F49FC0A801EA
:1044A000445051094617570708F498C002501109A3
:1044B000061B170B019311936D937C93CF010E9400
:1044C00041218CC05B01A01AB10A4E01800E911EE1
:1044D000A091CA03B091CB03612C712C60E070E015
:1044E000109709F449C0A815B905C9F5ED90FC90DD
:1044F0001197670142E0C40ED11CCA14DB0478F1A5
:1045000047018A189B08640142E0C40ED11C129630
:10451000BC9012971396AC91B5E0CB16D10440F045
:10452000B282A38391828082D9018D939C9309C02A
:104530000E5F1F4F0E0D1F1DF90111830083EB2D20
:10454000FA2F6115710531F0DB011396FC93EE93A0
:10455000129744C0F093CB03E093CA033FC06D9120
:104560007C9111976616770608F43B01BD011296FF
:104570000D90BC91A02DB4CF6091C8037091C90378
:1045800068157905E9F468167906D0F440910001C0
:10459000509101014115510541F44DB75EB760914D
:1045A000040170910501461B570BE417F507C0F491
:1045B000F093C903E093C803F901918380830EC08F
:1045C0000E94A9207C01009759F0A801BE010E9419
:1045D0000B23CE010E944121C70104C0CE0102C0BD
:1045E00080E090E0CDB7DEB7EEE00C947823FB01DD
:1045F000DC0105900D920020E1F70895FB01DC013C
:1046000004C08D910190801921F441505040C8F7A9
:10461000881B990B0895FB01DC0102C001900D92EB
:1046200041505040D8F708956817790768F4FB01A6
:10463000DC01E40FF51FA40FB51F02C002900E921B
:1046400041505040D8F708950C940B23FB01DC0136
:104650008D91019080190110D9F3990B0895FB01F8
:10466000DC0101900D920020E1F70895FB015191CA
:104670005523A9F0BF01DC014D9145174111E1F728
:1046800059F4CD010190002049F04D9140154111A0
:10469000C9F3FB014111EFCF81E090E0019708954C
:1046A000B7FF0C9475200E947520821B930B089510
:1046B0002F923F924F925F926F927F928F929F9232
:1046C000AF92BF92CF92DF92EF92FF920F931F9320
:1046D000CF93DF93CDB7DEB7CA1BDB0B0FB6F894D1
:1046E000DEBF0FBECDBF09942A88398848885F8411
:1046F0006E847D848C849B84AA84B984C884DF8082
:10470000EE80FD800C811B81AA81B981CE0FD11D65
:104710000FB6F894DEBF0FBECDBFED010895F8943B
:02472000FFCFC9
:104722000000CC0380000100000050002F0031394E
:10473200322E3136382E302E353A3435363700DEC9
:10474200ADBEEFFEEDD600C500B2009E009400752E
:1047520000680000044461746120417272697665E8
:10476200643A20004661696C656420746F20636F4F
:104772006E6669677572652045746865726E6574E8
:10478200207573696E67204448435000636F6E6EF4
:10479200656374696E672E2E2E00796F6C6F0063ED
:1047A2006F6E6E656374656420746F207773207317
:1047B20065727665720048656C6C6F20576F726C1B
:1047C2006421000000000025020B04A501C001B213
:1047D2000103020000000091034E6F2072657375A1
:1047E2006C7400617474656D7074696E6720746FA7
:1047F20020726561640065746865726E6574206319
:104802006F6E6E656374656400636C69656E7420B7
:104812006661696C656420746F20636F6E6E656398
:104822007400000000003F0C680C820C8B0CA90C79
:10483200CC0C480DD00CA50CA50DE60D550C5D0C4D
:10484200350C00000000340E7D0E300E910ED70E96
:104852004A0EF00E5C0E710E820F790E1D0FBA0E0B
:0E486200150E1C0E2C0E57495A6E6574000080
:00000001FF
