:100000000C94EF000C9417010C9417010C94170139
:100010000C9417010C9417010C9417010C94170100
:100020000C9417010C9417010C9417010C941701F0
:100030000C9417010C9417010C9417010C941701E0
:100040000C945B160C9417010C949A030C94CC033B
:100050000C9417010C9417010C9417010C941701C0
:100060000C9417010C94170153656E64696E672038
:1000700044617461000044656D6F206578616D7046
:100080006C65206F6E205753436C69656E742075E4
:1000900073616765005365632D576562536F636BCA
:1000A00065742D56657273696F6E3A2031330D0A8F
:1000B000005365632D576562536F636B65742D4BF9
:1000C00065793A2000486F73743A2000436F6E6E72
:1000D000656374696F6E3A20557067726164650D6F
:1000E0000A00557067726164653A20776562736FC4
:1000F000636B65740D0A0020485454502F312E3123
:100100000D0A0047455420005365632D576562531F
:100110006F636B65742D56657273696F6E3A20312B
:10012000330D0A005365632D576562536F636B652A
:10013000742D4B65793A2000486F73743A20004360
:100140006F6E6E656374696F6E3A20557067726189
:1001500064650D0A00557067726164653A207765C1
:1001600062736F636B65740D0A0020485454502FFE
:10017000312E310D0A0047455420000000000800D0
:10018000020100000304070000000000000000015D
:10019000020408102040800102040810200102041B
:1001A00008102004040404040404040202020202ED
:1001B0000203030303030300000000250028002BB3
:1001C0000000000000240027002A0000D501FC03E5
:1001D000AA04B40797096D0B50167E18871D1124C9
:1001E0001FBECFEFD8E0DEBFCDBF12E0A0E0B1E090
:1001F000E8E7F8E402C005900D92A039B107D9F7FD
:1002000024E0A0E9B2E001C01D92A231B207E1F7FB
:1002100011E0CEEDD1E004C02297FE010E947D21C5
:10022000CC3CD107C9F70E9446020C943A240C94A6
:1002300000000F931F93CF93DF9300D000D000D026
:10024000CDB7DEB78C0163E171E08FEA92E00E94E6
:100250007505D801ED91FC910484F585E02D8CEBBA
:1002600091E09A838983409198025091990260911C
:100270009A0270919B024B835C836D837E8340E581
:1002800050E0BE016F5F7F4FC8010995892BB1F027
:10029000D801ED91FC910488F589E02DC8010995FC
:1002A0004AE050E0682F8FEA92E00E94060660E282
:1002B00071E08FEA92E00E9475050FC06AE271E07A
:1002C0008FEA92E00E94750560ED77E080E090E0B3
:1002D0000E94D416C8010E94190126960FB6F89400
:1002E000DEBF0FBECDBFDF91CF911F910F9108955B
:1002F000CF93DF9300D000D000D0CDB7DEB726E09B
:1003000040E855E260E070E08FEA92E00E94380336
:1003100066E770E08FEA92E00E9451056AE071E0C2
:1003200084EB93E00E94F10664EB73E0CE0101964A
:100330000E948C07BE016F5F7F4F8FEA92E00E94A0
:10034000870568EE73E080E090E00E94D4168CE9A7
:1003500092E00E9419018DE391E0909391028093C5
:1003600090028FE391E090939302809392026CE964
:1003700072E080E992E00E94EC13882379F062E554
:1003800071E08FEA92E00E94750526960FB6F89408
:10039000DEBF0FBECDBFDF91CF91089567E671E05C
:1003A0008FEA92E00E947505FFCF0F9300E020E0F6
:1003B00040E060E089EA92E00E9483048CE992E0E8
:1003C0000E94BB0809E420EE41E86EEA86E992E06B
:1003D0000E9483040F910895CF93DF9300D000D043
:1003E00000D0CDB7DEB764E072E0CE0101960E9486
:1003F0008B068CE992E00E947309882309F43FC0C0
:1004000080E992E00E943014BC01CE0101960E9466
:10041000A1068D819E81892B69F069E771E08FEAE1
:1004200092E00E942A05BE016F5F7F4F8FEA92E043
:100430000E94630565E770E08FEA92E00E94510533
:1004400068E670E08FEA92E00E94510569E871E089
:1004500080E992E00E94261668EB7BE080E090E065
:100460000E94D416CE0101960E941D0626960FB654
:10047000F894DEBF0FBECDBFDF91CF91089563E941
:1004800071E08FEA92E00E947505FFCF0E94FC1692
:100490000E947801C2E8D2E00E94EC012097E1F3CB
:1004A0000E948202F9CFFC01818D228D90E0805C58
:1004B0009F4F821B910960E470E00E940021089523
:1004C000FC01918D828D981731F0828DE80FF11D1E
:1004D000858D90E008958FEF9FEF0895FC01918D39
:1004E000828D981761F0828DDF01A80FB11D5D9696
:1004F0008C91928D9F5F9F73928F90E008958FEF04
:100500009FEF089582EF93E0892B49F080E090E01F
:10051000892B29F00E94F20381110C9400000895A8
:10052000FC01848DDF01A80FB11DA35ABF4F2C9190
:10053000848D90E001968F739927848FA689B7895F
:100540002C93A089B1898C9180648C93938D848D38
:10055000981306C00288F389E02D80818F7D808307
:100560000895CF93DF93EC01888D8823C9F0EA8941
:10057000FB89808185FD05C0A889B9898C9186FD9C
:100580000FC00FB607FCF5CF808185FFF2CFA88999
:10059000B9898C9185FFEDCFCE010E949002E7CF03
:1005A000DF91CF910895CF92DF92FF920F931F9327
:1005B000CF93DF931F92CDB7DEB76C01DC015B9662
:1005C0009C915B975C968C915C97981307C05096B2
:1005D000ED91FC915197808185FD32C0F601038D2C
:1005E00010E00F5F1F4F0F731127F02EF601848D5F
:1005F000F81211C00FB607FCF9CFD6015096ED9155
:10060000FC915197808185FFF1CFC60169830E94DB
:1006100090026981EBCF838DE80FF11DE35AFF4F04
:100620006083D6015B960C935B975296ED91FC919B
:10063000539780818062808381E058968C930DC0AF
:10064000D6015696ED91FC91579760835096ED91A7
:10065000FC91519780818064808381E090E00F90CD
:10066000DF91CF911F910F91FF90DF90CF90089570
:10067000BF92CF92DF92EF92FF92CF93DF93EC0184
:100680006A017B01B22EE889F98982E080834115F5
:1006900081EE580761057105A1F060E079E08DE316
:1006A00090E0A70196010E941421215031094109CF
:1006B00051095695479537952795211580E13807BB
:1006C00098F0E889F989108260E874E88EE190E09A
:1006D000A70196010E9414212150310941095109B5
:1006E0005695479537952795EC85FD853083EE85A2
:1006F000FF852083188EEC89FD89B082EA89FB8909
:10070000808180618083EA89FB8980818860808321
:10071000EA89FB89808180688083EA89FB898081FE
:100720008F7D8083DF91CF91FF90EF90DF90CF900E
:10073000BF9008951F920F920FB60F9211242F931E
:100740008F939F93EF93FF93E091BF02F091C002CC
:100750008081E091C502F091C60282FD12C09081B5
:100760008091C8028F5F8F732091C902821751F068
:10077000E091C802F0E0E155FD4F958F8093C802EB
:1007800001C08081FF91EF919F918F912F910F90E8
:100790000FBE0F901F9018951F920F920FB60F92D9
:1007A00011242F933F934F935F936F937F938F9376
:1007B0009F93AF93BF93EF93FF938FEA92E00E94D2
:1007C0009002FF91EF91BF91AF919F918F917F9197
:1007D0006F915F914F913F912F910F900FBE0F90AE
:1007E0001F9018958FEA92E00E94530221E0892B16
:1007F00009F420E0822F08951092B2021092B10203
:1008000088EE93E0A0E0B0E08093B3029093B4024E
:10081000A093B502B093B6028CEA91E09093B00237
:100820008093AF0285EC90E09093BC028093BB0272
:1008300084EC90E09093BE028093BD0280EC90E047
:100840009093C0028093BF0281EC90E09093C2022B
:100850008093C10282EC90E09093C4028093C30223
:1008600086EC90E09093C6028093C5021092C80275
:100870001092C9021092CA021092CB020895AF9250
:10088000BF92CF92DF92EF92FF920F931F93CF937D
:10089000DF936C017B01C0E0D0E000E010E0F601E6
:1008A000EC0FFD1F4AE050E06281C7010E94FF0586
:1008B0005C016EE2C7010E942C058A0D9B1D080F8A
:1008C000191F2196C330D10551F74AE050E0F601D7
:1008D0006581C7010E94FF05800F911FDF91CF91B5
:1008E0001F910F91FF90EF90DF90CF90BF90AF904E
:1008F00008952CEB31E0FC013183208312821382B6
:100900001482158208950F93FC018CEB91E0918382
:10091000808362834383248305830F9108952CEBA6
:1009200031E0FC0131832083FB01408151816281F0
:100930007381FC0142835383648375830895FB01B3
:100940004081518162817381FC01428353836483BE
:10095000758308958CEB91E090934D0380934C0345
:1009600010924E0310924F031092500310925103B5
:100970000895CF92DF92EF92FF920F931F93CF9340
:10098000DF936C017A01EB01E60EF71E00E010E048
:10099000CE15DF0561F06991D601ED91FC910190D2
:1009A000F081E02DC6010995080F191FF1CFC8018C
:1009B000DF91CF911F910F91FF90EF90DF90CF903B
:1009C00008956115710581F0DB010D900020E9F7B4
:1009D000AD0141505109461B570BDC01ED91FC91D3
:1009E0000280F381E02D099480E090E00895EF9279
:1009F000FF920F931F93CF93DF938C01FB01C0E015
:100A0000D0E064917F018FEFE81AF80A662361F065
:100A1000D801ED91FC910190F081E02DC80109957C
:100A2000C80FD91FF701EDCFCE01DF91CF911F91F4
:100A30000F91FF90EF900895DC01ED91FC91DB01A7
:100A400014964D915C9115976D917C910280F38184
:100A5000E02D09940C94E104DC01ED91FC910190EE
:100A6000F081E02D0994DB01ED91FC91119701904B
:100A7000F081E02DBC01CD0109940F931F93CF931A
:100A8000DF93EC016DE00E942C058C016AE0CE0141
:100A90000E942C05800F911FDF91CF911F910F9124
:100AA00008950F931F93CF93DF93EC010E94F704F7
:100AB0008C01CE010E943D05800F911FDF91CF91E7
:100AC0001F910F9108950F931F93CF93DF93EC0124
:100AD0000E941C058C01CE010E943D05800F911FD4
:100AE000DF91CF911F910F9108950F931F93CF9393
:100AF000DF93EC010E94E1048C01CE010E943D05D0
:100B0000800F911FDF91CF911F910F9108950F9347
:100B10001F93CF93DF93EC010E9433058C01CE012C
:100B20000E943D05800F911FDF91CF911F910F9182
:100B300008958F929F92AF92BF92CF92DF92EF92E1
:100B4000FF920F931F93CF93DF93CDB7DEB7A1979B
:100B50000FB6F894DEBF0FBECDBF7C01C42EE52FCB
:100B6000CB01D22E19A221E02D1510F02AE0D22EB1
:100B70008E010F5D1F4F8D2C912CA12CB12C6C2D53
:100B80007E2FA50194010E9414218C2DD29E8019E4
:100B90001124015011098A3014F4805D01C0895C70
:100BA000F8018083211531054105510521F0C22E40
:100BB000E32FCA01E4CFB801C7010E94E104A19666
:100BC0000FB6F894DEBF0FBECDBFDF91CF911F915E
:100BD0000F91FF90EF90DF90CF90BF90AF909F90DC
:100BE0008F9008952115310541F4DC01ED91FC91C0
:100BF0000190F081E02D642F09940C9499059A01DD
:100C0000462F50E060E070E00C94F2050F931F93C4
:100C1000CF93DF93EC019A01462F50E060E070E043
:100C20000E94F2058C01CE010E943D05800F911FAC
:100C3000DF91CF911F910F910895FC0180819181E7
:100C40000C942822CF93DF93EC018881998100973F
:100C500011F00E942822198218821D821C821B8298
:100C60001A82DF91CF9108950F931F93CF93DF9353
:100C7000EC018B016F5F7F4F888199810E94142363
:100C8000009731F0998388831B830A8381E001C038
:100C900080E0DF91CF911F910F910895CF93DF9363
:100CA000EC0188819981892B29F08A819B818617A3
:100CB000970760F4CE010E943406882341F08C81AE
:100CC0009D81892B19F4E881F981108281E0DF91FF
:100CD000CF910895EF92FF920F931F93CF93DF93DD
:100CE000EC017B018A01BA010E944E06811104C009
:100CF000CE010E94220607C01D830C83B7018881A4
:100D000099810E94F423CE01DF91CF911F910F9121
:100D1000FF90EF900895FC011182108213821282DD
:100D2000158214826115710559F0FB0101900020B4
:100D3000E9F7AF0141505109461B570B0C946A0665
:100D40000895CF93DF93EC016115710561F0FB010C
:100D500001900020E9F7AF0141505109461B570BA4
:100D60000E946A0602C00E942206CE01DF91CF9146
:100D700008952091F203222381F0213051F42DB304
:100D80002093F0033DB32091F103209523232DBB45
:100D900004C02FB72093F003F8948CBD9DBD089537
:100DA0009091F203992339F08091F003913011F47E
:100DB0008DBB08958FBF089544E050E0BC0181E0F1
:100DC00090E00C94D60F44E050E0BC0185E090E048
:100DD0000C94D60F44E050E0BC018FE090E00C94FE
:100DE000D60FAF92BF92CF92DF92EF92FF920F9306
:100DF0001F93CF93DF9300D000D000D0CDB7DEB7E4
:100E00006C015B018091BC03811107C089E993E00B
:100E10000E94FA0A81E08093BC0382E593E0F60128
:100E20009783868380EE93E00E94760F80E590E0C2
:100E30000E94B90646E050E0B50189E090E00E94CA
:100E4000D60F00E020E040E060E0CE0101960E9475
:100E50008304CE0103960E94EA060E94D00610EA9F
:100E6000E12E1FE0F12E00E010E020E63AEE40E037
:100E700050E0B501F601868197810E94F41C5C0167
:100E800081309105B9F580E590E00E94B906F60140
:100E900066817781CE0101960E943C18CE010396AF
:100EA0000E94EA06F60166817781CE0101960E94D2
:100EB0005218CE0103960E94DC06F6016681778106
:100EC000CE0101960E944718CE0103960E94E306C8
:100ED0000E94D006F60166817781CE0101960E94BC
:100EE0005D184B815C816D817E81F6014283538365
:100EF00064837583C50126960FB6F894DEBF0FBED6
:100F0000CDBFDF91CF911F910F91FF90EF90DF90B8
:100F1000CF90BF90AF900895CF93DF93EC010E94E4
:100F2000790480E590E00E94B906BE016E5F7F4FB4
:100F300044E050E08FE090E00E9407110E94D0064C
:100F4000CE01DF91CF9108952CEB31E0FC0131838C
:100F50002083FB014281538164817581FC014283BE
:100F600053836483758308950F9300E020E040E08D
:100F700060E08CEC93E00E94830484EB93E00F919B
:100F80000C947904DC01ED91FC91008CF18DE02D45
:100F9000099591E089270895CF93DF931F92CDB7EC
:100FA000DEB76983DC01ED91FC910280F381E02DD5
:100FB00041E050E0BE016F5F7F4F09950F90DF91D8
:100FC000CF91089521E0FC018485843009F420E06C
:100FD000822F0895FC019485FB018485981303C03A
:100FE00081E0943009F480E008950F931F93CF932C
:100FF000DF93EC018A018C85843021F00E94180D6A
:10100000892B39F481E090E09B838A8380E090E033
:1010100001C0C801DF91CF911F910F910895FC018C
:101020008485843011F00C940F0E80E090E00895D8
:10103000CF93DF931F92CDB7DEB741E050E0BE0102
:101040006F5F7F4FFC0184850E94AF0D1816190653
:101050001CF4898190E002C08FEF9FEF0F90DF9129
:10106000CF910895FC0184850C94AF0D0F931F93CD
:10107000CF93DF931F92CDB7DEB78C01DC01ED91EA
:10108000FC910480F581E02D0995892B51F0BE017A
:101090006F5F7F4FF80184850E943A0E898190E04E
:1010A00002C08FEF9FEF0F90DF91CF911F910F91B3
:1010B0000895FC0184850C94690ECF92DF92EF9223
:1010C000FF920F931F93CF93DF93CDB7DEB7AF9708
:1010D0000FB6F894DEBF0FBECDBF7C018B016A0155
:1010E000CE0101960E947904CE0109960E94FA0A67
:1010F000CE018A960E94790464EB73E0CE01849657
:101100000E94A407BE016C5D7F4FCE0101960E9434
:10111000391DAE01465D5F4FB801CE0101960E94B8
:101120009E1F81309105C1F4D701ED91FC9104849B
:10113000F585E02D8CEB91E09DA38CA30CA51DA55E
:101140002EA53FA50EA31FA328A739A7A601BE0160
:101150006C5D7F4FC7010995AF960FB6F894DEBF5F
:101160000FBECDBFDF91CF911F910F91FF90EF90F8
:10117000DF90CF900895FC011382128248EE53E075
:1011800060E070E0448355836683778382EC91E06E
:101190009183808384E084870895FC018485843072
:1011A00011F00C94F40B80E00895DF92EF92FF921F
:1011B0000F931F93CF93DF93EC017B018A018C8502
:1011C000843009F045C0D12C8D2D0E94F40B811183
:1011D00002C0DC8607C08B7F8831D9F3D39484E0CA
:1011E000D812F2CF8C85843099F120911001309182
:1011F00011012F5F3F4F11F420E034E030931101D3
:1012000020931001409110015091110120E061E004
:101210000E94460CB7016E5F7F4FA8018C850E942B
:101220009A0C811103C084E08C8712C0CE010E9409
:10123000CD08873151F061E070E080E090E00E94DD
:10124000D416CE010E94CD08ECCF81E090E002C020
:1012500080E090E0DF91CF911F910F91FF90EF9090
:10126000DF900895CF92DF92EF92FF92CF93DF93BA
:10127000EC018C85843081F10E94F20C0E94A5164D
:101280006B017C01CE010E94CD08882359F00E9499
:10129000A5166C197D098E099F09683E734081056A
:1012A000910598F0CE010E94CD08882319F08C8515
:1012B0000E941C0CEC85F0E0EE0FFF1FEC53FC4F7E
:1012C0001182108284E08C8707C061E070E080E0CA
:1012D00090E00E94D416D6CFDF91CF91FF90EF908F
:1012E000DF90CF900895CF93DF93EC018C8584300D
:1012F000D1F0CE010E94CD088431A9F0882399F065
:10130000883189F08C3169F4E881F9810480F581B4
:10131000E02DCE01099521E0892B09F420E0822FF0
:1013200003C081E001C080E0DF91CF9108950F9369
:1013300000E020E040E060E082ED93E00E94830462
:101340000F910895DC01ED91FC91008CF18DE02D61
:1013500009942CEB31E0FC0131832083FB014189AE
:10136000528963897489FC01428353836483758342
:101370000895FC01858996890895FC01818D928DDF
:101380000895CF93DF931F92CDB7DEB76983DC0159
:10139000ED91FC910280F381E02D41E050E0BE012F
:1013A0006F5F7F4F09950F90DF91CF910895CF9395
:1013B000DF93EC01898D9A8D892B41F0E881F981C9
:1013C0000680F781E02DCE010995F4CFDF91CF9112
:1013D0000895CF93DF93EC018C85843061F00E94F7
:1013E0001C0CEC85F0E0EE0FFF1FEC53FC4F11825C
:1013F000108284E08C87DF91CF910895FC01108EDC
:10140000178A6E5F7F4F84850C94B10EFC01848532
:101410000C94F70ECF93DF93EC019A018F89988D8E
:10142000AB01BC018C850E946A0E2F89388D280F74
:10143000391F388F2F8BDF91CF9108950F931F9312
:10144000CF93DF931F92CDB7DEB78C01FC01818D66
:10145000928D892B59F041E050E0BE016F5F7F4FC4
:1014600084850E94AF0D181619061CF08FEF9FEFB0
:1014700008C0F801818D928D0197928F818F8981AB
:1014800090E00F90DF91CF911F910F910895CF932E
:10149000DF93EC01898D9A8D009719F48FEF9FEF00
:1014A00010C04817590708F0AC018C850E94AF0D99
:1014B000181619069CF7298D3A8D281B390B3A8F7F
:1014C000298FDF91CF910895CF93DF931F92CDB7EE
:1014D000DEB7FC01218D328D232B49F0BE016F5FF9
:1014E0007F4F84850E943A0E898190E002C08FEF81
:1014F0009FEF0F90DF91CF910895FF920F931F936D
:10150000CF93DF93EC018B018C858430E1F4F12CD7
:101510008F2D0E94F40B811102C0FC8606C0883119
:10152000E1F3F39484E0F812F3CF8C85843059F022
:101530001E870D871A8E198E20E0A80162E00E9496
:10154000460C81E001C080E0DF91CF911F910F91A7
:10155000FF9008950F931F93CF93DF93CDB7DEB71E
:1015600028970FB6F894DEBF0FBECDBF8C01DC010B
:10157000ED91FC910284F385E02D0995F8018485B5
:101580000E940F0E1816190644F548E050E0BE01FF
:101590006F5F7F4FD8011C968C910E94AF0D18167B
:1015A0001906ECF4BE016F5F7F4FC8010F960E94D1
:1015B0009F048D8190E0982F88272E81820F911DA6
:1015C000F801968B858B8F8190E0982F882728854E
:1015D000820F911D928F818F02C080E090E028964B
:1015E0000FB6F894DEBF0FBECDBFDF91CF911F9134
:1015F0000F910895FC011382128248EE53E060E0DF
:1016000070E0448355836683778382EE91E0918313
:10161000808384E08487CF010F960C947904CF9265
:10162000DF92EF92FF920F931F93CF93DF93CDB78B
:10163000DEB7AF970FB6F894DEBF0FBECDBF7C010B
:101640008B016A01CE0101960E947904CE010996B0
:101650000E94FA0ACE018A960E94790464EB73E034
:10166000CE0184960E94A407BE016C5D7F4FCE011F
:1016700001960E94391DAE01465D5F4FB801CE0153
:1016800001960E949E1F81309105C1F4D701ED9112
:10169000FC910088F189E02D8CEB91E09DA38CA357
:1016A0000CA51DA52EA53FA50EA31FA328A739A7EE
:1016B000A601BE016C5D7F4FC7010995AF960FB6BD
:1016C000F894DEBF0FBECDBFDF91CF911F910F9178
:1016D000FF90EF90DF90CF9008950F9300E020E00F
:1016E00040E060E088ED93E00E9483040F9108954C
:1016F000CF92DF92EF92FF920F9330E0C12CF2E194
:10170000DF2EFAE7EF2EF12C4C155D056E057F05F7
:1017100040F4F694E794D794C7943F5F3630A1F72E
:1017200037E041E04327211102C050E701C050E5F6
:10173000242F30E03595279523700C70202B252B16
:10174000FC012083417041830F91FF90EF90DF9067
:10175000CF90089590E0982F882744E050E0845F70
:101760009B4F0C94D60F282F30E02C5F3F4F922FC9
:101770008827860F971F0C94051062E070E00C9488
:10178000B30BFB01282F30E02C5F3F4F922F8827AF
:10179000642F8E0F9F1F0C94540FCF93DF93C82F8D
:1017A000D62F472F64E070E00E94C10B4D2F65E0FB
:1017B00070E08C2FDF91CF910C94C10B462F62E02B
:1017C00070E00C94C10BCF93DF93C82FD62F472F17
:1017D00060E170E00E94C10B4D2F61E170E08C2F41
:1017E000DF91CF910C94C10B0F931F93CF93DF9395
:1017F00000D01F92CDB7DEB7182F00E021E040E007
:1018000059E06DE370E0CE0101960E94780B89816A
:101810009A810E94B90663E070E0812F0E94B30BA9
:101820008B830E94D0068B810F900F900F90DF91D9
:10183000CF911F910F9108950F931F93CF93DF9333
:1018400000D0CDB7DEB7182F00E021E040E059E02E
:101850006DE370E0CE0101960E94780B89819A8138
:101860000E94B90640E150E0612F80EE93E00E94B3
:10187000CF116FEF812F0E94DE0B0E94D0060F90D8
:101880000F90DF91CF911F910F910895CF92DF922A
:10189000EF92FF920F931F93CF93DF9300D0CDB7BA
:1018A000DEB7182FD62E7A01C22E8FEF860F853025
:1018B000A8F5812F0E941C0C00E021E040E059E0D7
:1018C0006DE370E0CE0101960E94780B89819A81C8
:1018D0000E94B9064D2D4C2960E070E0812F0E94D6
:1018E000C10BE114F10411F0B7010AC06091DE03ED
:1018F0007091DF036F5F7F4F7093DF036093DE03B0
:10190000812F0E94CD0B41E050E0612F80EE93E0EB
:101910000E94CF110E94D00681E001C080E00F90AC
:101920000F90DF91CF911F910F91FF90EF90DF907B
:10193000CF900895CF92DF92EF92FF920F931F9373
:10194000CF93DF9300D0CDB7DEB7182F7B016A01AC
:10195000FB0180818F3F51F481818F3F99F4828117
:101960008F3F81F483818F3F69F430C081110AC0B9
:10197000FB018181811106C08281811103C08381B5
:10198000882321F1C114D10409F100E021E040E0F5
:1019900059E06DE370E0CE0101960E94780B8981D9
:1019A0009A810E94B906B701812F0E94AA0BB60145
:1019B000812F0E94E30B44E050E0612F80EE93E022
:1019C0000E94CF110E94D00681E001C080E00F90FC
:1019D0000F90DF91CF911F910F91FF90EF90DF90CB
:1019E000CF9008950F931F93CF93DF9300D0CDB77F
:1019F000DEB7182F00E021E040E059E06DE370E031
:101A0000CE0101960E94780B89819A810E94B906C5
:101A100048E050E0612F80EE93E00E94CF110E94D9
:101A2000D0060F900F90DF91CF911F910F910895E5
:101A3000BF92CF92DF92EF92FF920F931F93CF93BB
:101A4000DF9300D01F92CDB7DEB7B82E6B017A01BD
:101A5000413088E0580718F0E12C98E0F92E00E0BA
:101A600021E040E059E06DE370E0CE0101960E9474
:101A7000780B89819A810E94B9066B2D80EE93E0E4
:101A80000E943D108C0163E070E08B2D0E94B30B2F
:101A90008B830E94D0068B81873111F08C3131F419
:101AA0000E9434180E151F05D0F202C0E12CF12C53
:101AB00000E021E040E059E06DE370E0CE010196E6
:101AC0000E94780B89819A810E94B9069701A6012C
:101AD0006B2D80EE93E00E94FC1040E250E06B2DF5
:101AE00080EE93E00E94CF118B2D0E94BD0B84FDF0
:101AF00022C063E070E08B2D0E94B30B811108C0FF
:101B00000E94D0068B2D0E941C0C80E090E01AC031
:101B10000E94D0060E94341800E021E040E059E025
:101B20006DE370E0CE0101960E94780B89819A8165
:101B30000E94B906D9CF60E18B2D0E94DE0B0E9476
:101B4000D006C7010F900F900F90DF91CF911F919A
:101B50000F91FF90EF90DF90CF90BF900895AF92DC
:101B6000BF92CF92DF92EF92FF920F931F93CF938A
:101B7000DF9300D0CDB7DEB7182F5B016A0100E01C
:101B800021E040E059E06DE370E0CE0101960E9453
:101B9000780B89819A810E94B906612F80EE93E0CB
:101BA0000E9471107C010097A1F463E070E0812F26
:101BB0000E94B30B843119F1882309F121E030E050
:101BC0008C3111F420E030E0EE24FF24E21AF30A15
:101BD00016C0C816D9060CF476011E141F047CF436
:101BE00000E09701A501612F80EE93E00E947F1134
:101BF00040E450E0612F80EE93E00E94CF110E94FC
:101C0000D006C7010F900F90DF91CF911F910F91D8
:101C1000FF90EF90DF90CF90BF90AF9008950F931B
:101C20001F93CF93DF9300D000D0CDB7DEB7182F2E
:101C300000E021E040E059E06DE370E0CE01019664
:101C40000E94780B89819A810E94B906612F80EEEB
:101C500093E00E9471108B839C830E94D0068B813D
:101C60009C810F900F900F900F90DF91CF911F915B
:101C70000F910895EF92FF920F931F93CF93DF93ED
:101C800000D0CDB7DEB7182F7B0100E021E040E0A7
:101C900059E06DE370E0CE0101960E94780B8981D6
:101CA0009A810E94B90601E021E030E0A701612F8E
:101CB00080EE93E00E947F110E94D00681E090E0C8
:101CC0000F900F90DF91CF911F910F91FF90EF90A8
:101CD000089508959F92AF92BF92CF92DF92EF92B4
:101CE000FF920F931F93CF93DF9300D0CDB7DEB752
:101CF000982E6B015A01790100E021E040E059E0A3
:101D00006DE370E0CE0101960E94780B89819A8183
:101D10000E94B906692D80EE93E00E943D108E1559
:101D20009F0530F4692D80EE93E00E943D107C0108
:101D300087019501A601692D80EE93E00E948D1028
:101D40000E94D006C7010F900F90DF91CF911F9195
:101D50000F91FF90EF90DF90CF90BF90AF909F904A
:101D60000895CF92DF92EF92FF920F931F93CF933C
:101D7000DF9300D0CDB7DEB7182F7B016A01FB01DE
:101D80008081811109C08181811106C08281811108
:101D900003C083818823F1F0C114D104D9F000E09D
:101DA00021E040E059E06DE370E0CE0101960E9431
:101DB000780B89819A810E94B906B701812F0E9410
:101DC000AA0BB601812F0E94E30B0E94D00681E08E
:101DD00090E002C080E090E00F900F90DF91CF91F3
:101DE0001F910F91FF90EF90DF90CF9008950F9388
:101DF0001F93CF93DF9300D0CDB7DEB7182F00E04D
:101E000021E040E059E06DE370E0CE0101960E94D0
:101E1000780B89819A810E94B90640E250E0612FD7
:101E200080EE93E00E94CF11812F0E94BD0B84FDB4
:101E300021C0812F0E94BD0B83FF09C068E1812F63
:101E40000E94DE0B0E94D00680E090E01BC00E9442
:101E5000D0060E94341800E021E040E059E06DE334
:101E600070E0CE0101960E94780B89819A810E94D0
:101E7000B906DACF60E1812F0E94DE0B0E94D00606
:101E800081E090E00F900F90DF91CF911F910F9123
:101E900008958EBD00000DB407FEFDCF8EB50895E8
:101EA0002A9808952A9A08951F93CF93DF9300D01C
:101EB000CDB7DEB7182F6A8399830E94500F80EF49
:101EC0000E94490F9981892F0E94490F812F0E94FA
:101ED000490F6A81862F0E94490F0E94520F81E0AC
:101EE0000F900F90DF91CF911F910895CF93DF93C3
:101EF000EC016CE271E080E090E00E94D4160E9458
:101F0000DF11229A8091F203882381F0813051F40D
:101F10008DB38093F0039DB38091F1038095892365
:101F20008DBB04C08FB78093F003F89480E58CBD1F
:101F30001DBC60E880E090E00E94540F65E58BE1F5
:101F400090E00E94540F65E58AE190E00E94540FF2
:101F50009091F203992339F08091F003913011F4BC
:101F60008DBB01C08FBF80E090E49983888380E0BF
:101F700090E69987888780E098E49B838A8380E055
:101F800098E69B878A8780E090E59D838C8380E03C
:101F900090E79D878C8780E098E59F838E8380E023
:101FA00098E79F878E87DF91CF910895CF92DF9238
:101FB000EF92FF920F931F93CF93DF93EC017A017F
:101FC0008B016C01C40ED51ECC15DD05A1F00E945D
:101FD000500F80EF0E94490F8D2F0E94490F8C2FC8
:101FE0000E94490F2196F80181918F010E94490FAB
:101FF0000E94520FE9CFC701DF91CF911F910F913E
:10200000FF90EF90DF90CF9008951F93CF93DF93D1
:102010001F92CDB7DEB7182F99830E94500F8FE023
:102020000E94490F9981892F0E94490F812F0E9498
:10203000490F80E00E94490F89830E94520F8981D5
:102040000F90DF91CF911F9108951F93CF93DF934E
:10205000182F60E270E00E94B30BC82FD0E061E25D
:1020600070E0812F0E94B30BDC2FCC279E01282B20
:10207000C901DF91CF911F910895FF920F931F9394
:10208000CF93DF93F62EC0E0D0E08F2D0E94251075
:102090008C01009721F08F2D0E942510EC01C017B4
:1020A000D10799F7CE01DF91CF911F910F91FF904A
:1020B00008951F93CF93DF93182F66E270E00E947C
:1020C000B30BC82FD0E067E270E0812F0E94B30B02
:1020D000DC2FCC279E01282BC901DF91CF911F91C6
:1020E0000895FF920F931F93CF93DF93F62EC0E0D6
:1020F000D0E08F2D0E9459108C01009721F08F2D78
:102100000E945910EC01C017D10799F7CE01DF9159
:10211000CF911F910F91FF9008956F927F929F92A0
:10212000AF92BF92CF92DF92EF92FF920F931F93E5
:10213000CF93DF931F92CDB7DEB7D82E962E3A01FC
:10214000590164E270E0892D99830E94B30BE82E57
:10215000F12C65E270E0892D0E94B30BFE2CEE2479
:10216000E82AE60CF71C970137706D2C9981792EBF
:10217000690C711C690C711CD301ED91FC91E20F8B
:10218000F31FC901800F911F81309840A0F0C12C2E
:1021900048E0D42EC21AD30AA601B501CF010E948D
:1021A000D60FA8014C195D09B5016C0D7D1DF30119
:1021B0008081918103C0A801B501CF010E94D60F93
:1021C000E00EF11E4F2D64E270E0892D0E94C10BDC
:1021D0004E2D65E270E0892D0F90DF91CF911F9118
:1021E0000F91FF90EF90DF90CF90BF90AF909F90B6
:1021F0007F906F900C94C10B0F931F9389019A01EC
:1022000040E050E00E948D101F910F910895CF92F1
:10221000DF92EF92FF920F931F93CF93DF93EC0126
:102220007A018B016C01C40ED51ECC15DD05A9F019
:102230000E94500F8FE00E94490F8D2F0E94490F7E
:102240008C2F0E94490F219680E00E94490FF801CF
:1022500081938F010E94520FE8CFC701DF91CF9188
:102260001F910F91FF90EF90DF90CF900895AF9264
:10227000BF92CF92DF92EF92FF920F931F93CF9373
:10228000DF9300D0CDB7DEB75A8349835901E98186
:10229000FA81F7707C01E60EF11CE60EF11CD70105
:1022A00018968D919C9119978E0F9F1F98012E0F54
:1022B0003F1F2130384098F0C12C68E0D62ECE1A4E
:1022C000DF0AA601B5010E940711A8014C195D099A
:1022D000B5016C0D7D1DF7018085918502C0A801B7
:1022E000B5010F900F90DF91CF911F910F91FF904B
:1022F000EF90DF90CF90BF90AF900C9407118F922A
:102300009F92AF92BF92CF92DF92EF92FF920F9384
:102310001F93CF93DF936C01962E5A017901802E83
:1023200068E270E0892D0E94B30BC82FD0E069E20B
:1023300070E0892D0E94B30BDC2FCC27C82B8701BE
:102340009501AE01692DC6010E94371181101AC096
:10235000CE0DDF1D4D2F68E270E0892D0E94C10B6C
:102360004C2F69E270E0892DDF91CF911F910F9181
:10237000FF90EF90DF90CF90BF90AF909F908F90A5
:102380000C94C10BDF91CF911F910F91FF90EF90B3
:10239000DF90CF90BF90AF909F908F900895CF9394
:1023A000C62F61E070E08C2F0E94C10B61E070E0ED
:1023B0008C2F0E94B30B8111F9CFCF91089561E06A
:1023C0008AE00E94B61761E08AE00E947D178CB512
:1023D00080618CBD8CB580648CBD61E08DE00E9415
:1023E0007D1761E08BE00C947D171F93CF93DF93F3
:1023F000D9010D900020E9F71197A21BB30BE0E083
:10240000F0E080E090E04A1B5B0BE417F507ACF4CA
:10241000EB01CE0FDF1F1881E901C80FD91FC8815A
:102420001C1305C001968A179B0729F409C0E81BF5
:10243000F90B80E090E03196E8CF8FEF9FEF01C07D
:10244000CF01DF91CF911F9108959F92AF92BF92DC
:10245000CF92DF92EF92FF920F931F93CF93DF9370
:10246000CDB7DEB7CF5AD1090FB6F894DEBF0FBE95
:10247000CDBF8C0189E1EBE1F2E0DE01A359BF4F52
:1024800001900D928A95E1F780E00E9437170E9433
:10249000EC177E012FE9E20EF11C670180E1C80E06
:1024A000D11C570120E031E040E050E061E070E0F5
:1024B00080E090E00E941818D7016D937D01AC1563
:1024C000BD0581F740E150E0B501CE018A579F4F2D
:1024D0000E945520FE01EA57FF4FDE01A359BF4F6E
:1024E000CF01489621912D93E817F907D9F766E7B0
:1024F00071E0F801848195810E94F704D8016D9103
:102500007C91119714968D919C9115970E942A05A4
:102510006AE671E0F801848195810E94F70465E51F
:1025200071E0D80114968D919C9115970E94F70443
:102530006FE371E0F801848195810E94F70468E3FC
:1025400071E0D80114968D919C9115970E94F70423
:10255000F80162817381848195810E942A0562E07D
:1025600072E0D80114968D919C9115970E942A05CE
:1025700064E271E0F801848195810E94F704BE0154
:1025800063597F4FD80114968D919C9115970E94A5
:102590002A0562E072E0F801848195810E942A0593
:1025A00068E071E0D80114968D919C9115970E9476
:1025B000F70462E072E0F801848195810E942A05A7
:1025C00063E071E08FEA92E00E94F704D8016D9118
:1025D0007C918FEA92E00E942A0567EF70E08FEA13
:1025E00092E00E94F70462EE70E08FEA92E00E94AF
:1025F000F7046CEC70E08FEA92E00E94F70465EC5F
:1026000070E08FEA92E00E94F704F8016281738122
:102610008FEA92E00E942A0562E072E08FEA92E07F
:102620000E942A0561EB70E08FEA92E00E94F704B5
:10263000BE0163597F4F8FEA92E00E942A0562E053
:1026400072E08FEA92E00E942A0565E970E08FEA65
:1026500092E00E94F70462E072E08FEA92E00E944A
:102660002A05D80114968D919C911597DC01ED9166
:10267000FC910488F589E02D0995882369F0F8011B
:1026800084819581DC01ED91FC910480F581E02D40
:102690000995892B09F44DC0F80184819581DC01ED
:1026A000ED91FC910480F581E02D0995892B39F499
:1026B00062E370E080E090E00E94D416EDCFFE016E
:1026C00031967F016E01F5E6CF0ED11C80E5982E84
:1026D0005701D80114968D919C911597DC01ED91CD
:1026E000FC910680F781E02D09958F3FBFEF9B0796
:1026F00039F1D5018D935D018A3059F725E032E03B
:1027000040E550E0B701C8010E94F511019659F06B
:10271000FE017796DE01AF5ABF4FEC15FD0519F0AB
:1027200081918D93FACFF701292D11922A95E9F71E
:10273000CFCF62E370E080E090E00E94D41691CFAA
:10274000BE016F5A7F4F8FEA92E00E94750581E0CB
:10275000C155DF4F0FB6F894DEBF0FBECDBFDF917E
:10276000CF911F910F91FF90EF90DF90CF90BF908E
:10277000AF909F900895CF93DF93EC018C819D8162
:10278000DC01ED91FC910190F081E02D67E8099565
:102790008C819D81DC01ED91FC910190F081E02D17
:1027A00060E009958C819D81DC01ED91FC910284B2
:1027B000F385E02D09956AE070E080E090E00E94EA
:1027C000D4168C819D81DC01ED91FC910288F38906
:1027D000E02DDF91CF910994CF93DF93EC017D83BE
:1027E0006C83DB01ED91FC910488F589E02DCB0130
:1027F0000995882349F0CE010E94251281110CC051
:10280000CE010E94BB1306C064E372E08FEA92E03F
:102810000E94750580E001C081E0DF91CF910895AD
:10282000CF93DF93EC018C819D81DC01ED91FC91D4
:102830000480F581E02D0995892B39F462E370E07D
:1028400080E090E00E94D416EECF8C819D81DC0167
:10285000ED91FC910680F781E02DDF91CF910994F5
:102860008F929F92AF92BF92CF92DF92EF92FF92A0
:102870000F931F93CF93DF93CDB7DEB7C450D140F2
:102880000FB6F894DEBF0FBECDBF8C019E012F5F47
:102890003F4F690180E091E0D901FC011D92319721
:1028A000E9F7D80114968D919C911597DC01ED9173
:1028B000FC910488F589E02D0995882309F4FEC070
:1028C000F80184819581DC01ED91FC910480F58112
:1028D000E02D0995892B09F4F1C0C8010E9410145C
:1028E000F80184819581DC01ED91FC910488F589E2
:1028F000E02D0995882309F4E1C0C8010E94101455
:102900007C018038910530F0E894E7F8FF24BB247F
:10291000B39401C0B12CF80184819581DC01ED9163
:10292000FC910488F589E02D0995882309F4C6C037
:10293000BEE7EB16F10431F5C8010E941014A82E71
:10294000F80184819581DC01ED91FC910488F58981
:10295000E02D0995882309F4B1C0C8010E94101424
:10296000E12CF12CFA2CE82AF92AF80184819581CE
:10297000DC01ED91FC910488F589E02D0995811128
:1029800006C09CC0BFE7EB16F10409F4FFCFB110FD
:1029900004C05601EC0CFD1C8EC0C8010E9410142E
:1029A000CF5FDE4F8883C150D140F801848195818B
:1029B000DC01ED91FC910488F589E02D09958823CF
:1029C00009F47CC0C8010E941014CE5FDE4F8883DA
:1029D000C250D140F80184819581DC01ED91FC91D8
:1029E0000488F589E02D0995882309F467C0C8019A
:1029F0000E941014CD5FDE4F8883C350D140F80190
:102A000084819581DC01ED91FC910488F589E02DAC
:102A10000995882309F452C0C8010E941014CC5FA4
:102A2000DE4F8883C450D140F80184819581DC0158
:102A3000ED91FC910488F589E02D09958823F1F149
:102A40004601A12CB12CAE14BF04C1F1C8010E94F3
:102A50001014F501E370FF2721E031E02C0F3D1F3A
:102A6000E20FF31F90819827D4019D934D01F80147
:102A700084819581DC01ED91FC910488F589E02D3C
:102A800009958823D9F0BFEFAB1ABB0ADCCFC80188
:102A90000E941014F50181935F01D80114968D9165
:102AA0009C911597DC01ED91FC910488F589E02D4E
:102AB0000995882319F0AE14BF0449F7C601CC5F0D
:102AC000DE4F0FB6F894DEBF0FBECDBFDF91CF91C2
:102AD0001F910F91FF90EF90DF90CF90BF90AF903C
:102AE0009F908F900895CF92DF92EF92FF920F9375
:102AF0001F93CF93DF938C017B01EB0109900020A2
:102B0000E9F72197C61BD70BDC0114968D919C9198
:102B10001597DC01ED91FC910190F081E02D61E8C9
:102B20000995F80184819581DC01ED91FC9101907A
:102B3000F081E02DCE37D1050CF468C06FE7099520
:102B4000F80184819581DC01ED91FC910190F08187
:102B5000E02DBE01770F660B762F0995F801848171
:102B60009581DC01ED91FC910190F081E02DBE0199
:102B7000770F660B762F0995F80184819581DC012A
:102B8000ED91FC910190F081E02DBE01770F660B75
:102B9000762F0995F80184819581DC01ED91FC91F6
:102BA0000190F081E02DBE01770F660B762F09951D
:102BB000F80184819581DC01ED91FC91770F660B22
:102BC000762F0190F081E02D0995F801848195819F
:102BD000DC01ED91FC91770F660B762F0190F0816F
:102BE000E02D0995F80184819581DC01ED91FC913E
:102BF0000190F081E02D6D2F0995F8018481958178
:102C0000DC01ED91FC910190F081E02D6C2F099594
:102C10006701C6018E199F098C179D0774F4F8018E
:102C200084819581D6016D916D01DC01ED91FC915E
:102C30000190F081E02D0995ECCFDF91CF911F91AC
:102C40000F91FF90EF90DF90CF9008950F931F9317
:102C5000CF93DF9300D0CDB7DEB78C01DC011496A3
:102C60008D919C911597DC01ED91FC910488F5897B
:102C7000E02D69837A83099569817A81882349F0F7
:102C8000C8010F900F90DF91CF911F910F910C947D
:102C900073150F900F90DF91CF911F910F910895B1
:102CA0000F9300E020E040E060E083EF93E00E94BB
:102CB00083040F9108951F920F920FB60F92112463
:102CC0002F933F938F939F93AF93BF938091FA037A
:102CD0009091FB03A091FC03B091FD033091F903A7
:102CE00023E0230F2D3720F40196A11DB11D05C04F
:102CF00026E8230F0296A11DB11D2093F9038093AE
:102D0000FA039093FB03A093FC03B093FD0380911F
:102D1000FE039091FF03A0910004B091010401967D
:102D2000A11DB11D8093FE039093FF03A0930004A7
:102D3000B0930104BF91AF919F918F913F912F91DB
:102D40000F900FBE0F901F9018952FB7F8946091B9
:102D5000FA037091FB038091FC039091FD032FBF58
:102D600008953FB7F8948091FE039091FF03A091DE
:102D70000004B091010426B5A89B05C02F3F19F0AF
:102D80000196A11DB11D3FBF6627782F892F9A2F6D
:102D9000620F711D811D911D42E0660F771F881F14
:102DA000991F4A95D1F70895CF92DF92EF92FF9243
:102DB000CF93DF936B017C010E94B116EB01C1142C
:102DC000D104E104F10489F00E9434180E94B11684
:102DD0006C1B7D0B683E734090F381E0C81AD108EC
:102DE000E108F108C851DC4FEACFDF91CF91FF90A5
:102DF000EF90DF90CF900895789484B5826084BD81
:102E000084B5816084BD85B5826085BD85B58160EE
:102E100085BDEEE6F0E0808181608083E1E8F0E04E
:102E20001082808182608083808181608083E0E87D
:102E3000F0E0808181608083E1EBF0E0808184605C
:102E40008083E0EBF0E0808181608083EAE7F0E05E
:102E500080818460808380818260808380818160C2
:102E600080838081806880831092C10008958E30B5
:102E700008F08E5087702091120190E4299F9001F4
:102E80001124822B80937C0080917A00806480934F
:102E90007A0080917A0086FDFCCF809178002091A5
:102EA000790090E0922B0895833081F028F48130EE
:102EB00099F08230A1F008958730A9F08830B9F0F8
:102EC0008430D1F4809180008F7D03C08091800098
:102ED0008F7780938000089584B58F7702C084B582
:102EE0008F7D84BD08958091B0008F7703C080915D
:102EF000B0008F7D8093B0000895CF93DF9390E072
:102F0000FC01E157FE4F2491FC01ED55FE4F8491E9
:102F1000882349F190E0880F991FFC01EF53FE4F81
:102F2000A591B49189549E4FFC01C591D4919FB74E
:102F3000611108C0F8948C91209582238C9388812C
:102F400082230AC0623051F4F8948C91322F30956C
:102F500083238C938881822B888304C0F8948C917E
:102F6000822B8C939FBFDF91CF9108950F931F9376
:102F7000CF93DF931F92CDB7DEB7282F30E0F90152
:102F8000E558FE4F8491F901E157FE4F1491F90184
:102F9000ED55FE4F04910023C9F0882321F0698389
:102FA0000E9454176981E02FF0E0EE0FFF1FE954F3
:102FB000FE4FA591B4919FB7F8948C91611103C015
:102FC0001095812301C0812B8C939FBF0F90DF91BF
:102FD000CF911F910F910895009729F0BC0180E0D7
:102FE00090E00C940B230895CF93DF9300D000D092
:102FF000CDB7DEB79B01AC01611571058105910567
:1030000069F069833A834B835C830E94062329819C
:103010003A814B815C810E94362103C060E070E000
:10302000CB010F900F900F900F90DF91CF910895EB
:10303000CF92DF92EF92FF926B017C0162177307D0
:103040008407950764F4CA01B9016C197D098E09DA
:103050009F090E94F4176C0D7D1D8E1D9F1DFF9012
:10306000EF90DF90CF90089508950E9624E1FC0133
:1030700011922A95E9F70895CF93DF93EC01625FEF
:103080007F4F0E948F04CE01DF91CF910895CF939F
:10309000DF93EC016E5E7F4F0E948F04CE01DF91C3
:1030A000CF910895CF93DF93EC016A5E7F4F0E942A
:1030B0008F04CE01DF91CF910895CF93DF93EC0180
:1030C000625E7F4F0E948F04CE01DF91CF91089501
:1030D00080E3FB0180833296842F82958F7090E18C
:1030E000899F401911244A3014F4405D01C0495CA5
:1030F0004293882311F0482FEFCF08950F9300E0FB
:1031000020E040E060E082E094E00E9483040F91C0
:1031100008956F927F928F929F92AF92BF92CF92BB
:10312000DF92EF92FF920F931F93CF93DF93CDB770
:10313000DEB7AC970FB6F894DEBF0FBECDBF7C01F3
:10314000862EB42EA52E20E2922ECE0101966C0181
:10315000FC01292D11922A95E9F70FEF2FEF4FEF80
:103160006FEF86960E9483048CEB91E09AA389A36B
:1031700089A59AA5ABA5BCA58BA39CA3ADA3BEA313
:103180008701095B1F4F43E450E0BE016F5D7F4F35
:10319000C8010E94FE09019609F4BFC081E089833D
:1031A0008A8386E0782E7B821C82F7016481758198
:1031B000868197810E9455216D837E838F839887B6
:1031C000A986BA8680E890E09C878B874CE150E026
:1031D000B601C8010E940A0AF601292D11922A950A
:1031E000E9F7570188E0A80EB11CF501D60101905E
:1031F0000D927A94E1F740E150E0B601C8010E94D7
:103200000A0AF60111929A94E9F796E0692E712C58
:1032100040E250E0B601C8010E940A0AF1E06F1ACC
:103220007108B1F783E6898392E89A8393E59B83DB
:103230008C8385E38D8381E08E838F829DE39887E5
:1032400097E099878A8786E0F501DE011B96019059
:103250000D928A95E1F78CE0898B8A8B67E472E0A6
:10326000CE0143960E94F423F7014385BE01675EB9
:103270007F4FC7010E946818F7014485BE01655E53
:103280007F4FC7010E946818F7014585BE01635E44
:103290007F4FC7010E9468184EE150E0B601C80197
:1032A0000E940A0AF3E08F121EC082E3898384E041
:1032B0008A83F70196859B8397859C8390899D835C
:1032C00091899E8396E39F838887828D8987838DEA
:1032D0008A87848D8B87858D8C874CE050E0B60182
:1032E000C8010E940A0A87E3898386E08A8391E005
:1032F0009B8393E09C838D838FE08E838AE38F830F
:103300008BE388878FEF898749E050E0B601C801D9
:103310000E940A0AC8010E94060AAC960FB6F894E9
:10332000DEBF0FBECDBFDF91CF911F910F91FF90F8
:10333000EF90DF90CF90BF90AF909F908F907F9055
:103340006F9008952F923F924F925F926F927F926B
:103350008F929F92AF92BF92CF92DF92EF92FF92A5
:103360000F931F93CF93DF93CDB7DEB7E3970FB6DD
:10337000F894DEBF0FBECDBF7C012A013B0169017D
:103380000E94A5164B015C018701095B1F4FC80114
:103390000E94AA0A1816190694F00E94A516681928
:1033A00079098A099B094616570668067906F0F0DE
:1033B00062E370E080E090E00E94D416E8CF42E241
:1033C00050E0BE016F5F7F4FC8010E94470A8981AC
:1033D000823031F4F801858996898334910541F072
:1033E00019A6C8010E94D70989A562C18FEF60C1E3
:1033F0006D817E818F8198850E9455214B015C01F2
:10340000F601608371838283938346E050E0B701C5
:10341000685F7F4FCE014D960E94DE23892B99F481
:10342000F70180819181A281B38188169906AA064D
:10343000BB0648F084819581A681B78188159905DE
:10344000AA05BB0528F4C8010E94D70980E030C155
:1034500089899A89AB89BC89F70186879787A08B70
:10346000B18B3EECC32ED12CC8010E941E0AF1E0A4
:10347000CF1AD108C9F719A6C70182969BA78AA7B8
:10348000F701B696FDA7ECA708969FA78EA73C97D5
:103490006F018E9699AB88AB3897FBABEAAB5701BF
:1034A000F6E1AF0EB11C47018EE1880E911CC801F8
:1034B0000E94BD09181619060CF093CFC8010E948E
:1034C0001E0A8333910509F4C9C0F4F481309105D3
:1034D000B9F11CF4892B59F3DBC083309105C1F19C
:1034E000069709F0D5C0C8010E941E0A3C0144E0BD
:1034F00050E0B401C8010E94470A212C312C7724E6
:10350000F4E06F1A71083FC08A33910509F47AC05C
:103510003CF48533910561F0C69709F43FC0B8C00B
:103520008B33910509F484C08F3F910501F2B0C03F
:10353000C8010E941E0AC8010E941E0A89A7B7CFAF
:10354000C8010E941E0A44E050E06AA97BA936C067
:10355000C8010E941E0A3C0144E050E0B501C801C8
:103560000E94470A212C312C772494E0691A7108B3
:10357000261437040CF09BCFC8010E941E0AEFEFFF
:103580002E1A3E0AF5CF261437040CF090CFC8014E
:103590000E941E0A8FEF281A380AF5CFC8010E9430
:1035A0001E0A782EF701828D938DA48DB58D892BFF
:1035B0008A2B8B2B39F444E050E0B601C8010E94FD
:1035C000470A75CFE8A9F9A920803180428053804D
:1035D000B601CE0183960E948F048DA19EA1AFA15A
:1035E000B8A582159305A405B50529F3212C312C26
:1035F000721409F45CCFC8010E941E0AFFEF2F1A53
:103600003F0AF6CFC8010E941E0A44E050E06CA5B4
:103610007DA5C8010E94470AF70166A177A180A590
:1036200091A50E94552166A377A380A791A73FCFBC
:10363000C8010E941E0A44E050E06EA57FA5C801A3
:103640000E94470AF70162A573A584A595A50E946B
:10365000552162A773A784A795A729CFC8010E9407
:103660001E0A44E050E06AA57BA5C8010E94470AF3
:10367000F70162A173A184A195A10E94552162A3C3
:1036800073A384A395A366A777A780AB91AB0FCF55
:10369000C8010E941E0A382E612C712C361409F4C0
:1036A00006CFC8010E941E0AFFEF6F1A7F0AF6CFED
:1036B000E3960FB6F894DEBF0FBECDBFDF91CF917A
:1036C0001F910F91FF90EF90DF90CF90BF90AF9040
:1036D0009F908F907F906F905F904F903F902F9032
:1036E00008952F923F924F925F926F927F928F92A6
:1036F0009F92AF92BF92CF92DF92EF92FF920F9381
:103700001F93CF93DF93CDB7DEB727970FB6F8940B
:10371000DEBF0FBECDBF8C0120ED37E040E050E0B2
:1037200061E070E080E090E00E941818D8011496E3
:103730006D937D938D939C931797F80160837183AC
:10374000828393834801F7E48F0E911CC4010E9489
:10375000E90964E470E0C4010E947D0A882309F449
:1037600028C10E94A5166B017C01A12CB12C1D82E1
:10377000180186E4280E311CD801DE96BF83AE8383
:1037800038EE432E33E0532E612C712CF1018081F1
:10379000833009F4FDC081111FC0F8018481958137
:1037A000A681B7810196A11DB11D84839583A6834F
:1037B000B7830E94A5166C197D098E099F09A30184
:1037C00092010E941421A90161E0C8010E94891898
:1037D00081E0D1018C93BEC08430F9F4F80184817A
:1037E0009581A681B7810196A11DB11D8483958322
:1037F000A683B7830E94A5166C197D098E099F09BF
:10380000A30192010E941421A90163E0C8010E9452
:103810008918E2E0D101EC939DC0813061F5AE8161
:10382000BF814D915D916D917C919E012F5F3F4FC6
:10383000C8010E94A2198D83823009F08BC0898152
:103840009A81AB81BC81F80184839583A683B78379
:103850000E94A5166C197D098E099F09A30192018A
:103860000E941421A90163E0C8010E948918ED811A
:10387000D101EC9375C0823009F06CC0AE81BF817C
:103880004D915D916D917C919E012F5F3F4FC801DD
:103890000E94A2198D83853009F056C083E0F101A2
:1038A0008083F80182A193A1A4A1B5A1892B8A2BC1
:1038B0008B2B41F484E893E0A0E0B0E082A393A3D3
:1038C000A4A3B5A3F80186A197A1A0A5B1A5892BB2
:1038D0008A2B8B2B61F482A193A1A4A1B5A1B695EB
:1038E000A7959795879586A397A3A0A7B1A7D80179
:1038F0009A964D915D916D917C919D9796968D9143
:103900009D910D90BC91A02D452B462B472B59F432
:10391000AC01BD01440F551F661F771FF80142A778
:1039200053A764A775A7F80186A797A7A0ABB1AB6B
:1039300082A593A5A4A5B5A582AB93ABA4ABB5AB6B
:10394000AA24A394B12C0CC0FD81F63019F4D10146
:103950001C9206C0BD81BF3F19F4F10110821D8287
:10396000F1E0AF16B10409F411CF0E94A5166C194D
:103970007D098E099F09D801DA962D913D914D91CF
:103980005C91DD97261737074807590708F0FECEE8
:10399000C4010E94E909F80184819581A681B7815B
:1039A0000196A11DB11D84839583A683B783C501AC
:1039B00002C080E090E027960FB6F894DEBF0FBEFD
:1039C000CDBFDF91CF911F910F91FF90EF90DF90CE
:1039D000CF90BF90AF909F908F907F906F905F90AF
:1039E0004F903F902F900895CF92DF92EF92FF92E9
:1039F0000F931F93CF93DF93EC016B011AA21BA2CD
:103A00001CA21DA21EA21FA218A619A61AA61BA6BA
:103A10001CA61DA61EAA1FAA18AE19AE2AAF3BAF40
:103A20004CAF5DAFFC01FE96E082F182028313830E
:103A30008C01085F1F4F86E0F80111928A95E9F723
:103A4000CE010E94351886E0F601D80101900D9252
:103A50008A95E1F7FE01EA5BFF4F1082CE01DF910C
:103A6000CF911F910F91FF90EF90DF90CF900C942A
:103A7000711BFB014281538164817581FC0142838A
:103A8000538364837583178216820895CF93FB0155
:103A900081918111FDCFFB0180E090E020E030E0DA
:103AA000CAE06191662309F12430310564F56E3274
:103AB00071F48F3F910509F034F5DA01A20FB31FBD
:103AC00012968C932F5F3F4F80E090E0EACFDC01AD
:103AD000CA9FC001CB9F900D1124772767FD709579
:103AE00060537109860F971FDCCF8F3F910509F056
:103AF00054F4243031053CF4FA01E20FF31F8283C1
:103B000081E090E002C080E090E0CF9108950F93B3
:103B100000E020E040E060E088E094E00E94830460
:103B20000F910895AF92BF92CF92DF92EF92FF92E2
:103B30000F931F93CF93DF9300D01F92CDB7DEB7C3
:103B40006C017B010E94A516F601778366838601CE
:103B5000085F1F4FB6016A5F7F4F42E050E0C80127
:103B60000E940A0A81E090E09A83898342E050E053
:103B7000BE016F5F7F4FC8010E940A0A80E091E09A
:103B80009A83898342E050E0BE016F5F7F4FC80196
:103B90000E940A0A1A82198242E050E0BE016F5F59
:103BA0007F4FC8010E940A0A42E050E0BE016F5FE9
:103BB0007F4FC8010E940A0A42E050E0BE016F5FD9
:103BC0007F4FC8010E940A0A6701F601808188239D
:103BD00011F1F7016F018191811115C05601AE18E5
:103BE000BF081A141B0494F4AB8241E050E0BE01FC
:103BF0006D5F7F4FC8010E940A0AA501B701C80185
:103C00000E940A0A03C08E3229F7E8CF7601FFEF3F
:103C1000EF1AFF0ADACF1B8241E050E0BE016D5F70
:103C20007F4FC8010E940A0AE12CFF24F394FA8214
:103C3000E98242E050E0BE016F5F7F4FC8010E9401
:103C40000A0AFA82E98242E050E0BE016F5F7F4FCC
:103C5000C8010E940A0A81E090E00F900F900F9037
:103C6000DF91CF911F910F91FF90EF90DF90CF9058
:103C7000BF90AF9008954F925F926F927F928F9214
:103C80009F92AF92BF92CF92DF92EF92FF920F93EB
:103C90001F93CF93DF93CDB7DEB763970FB6F8943A
:103CA000DEBF0FBECDBF7C015B016A010E94A5167D
:103CB0002B013C018701085F1F4F4501A12CB12C4E
:103CC000C8010E94AA0A1816190694F00E94A516A7
:103CD000641975098609970986169706A806B90614
:103CE000D0F062E370E080E090E00E94D416E8CF6C
:103CF000F7014281538164817581818D928DA38DFD
:103D0000B48D481759076A077B0741F4858D968D56
:103D1000C59721F406C08FEF9FEFF9C08EEF9FEF9C
:103D2000F6C0C8010E94BD090C970CF4EEC04CE02F
:103D300050E0BE016F5F7F4FC8010E94470A8B8130
:103D40009C819827892798279A8B898BF701468130
:103D5000578129813A814217530711F497FD06C014
:103D6000C8010E94D7098CEF9FEFD1C08F7092706D
:103D7000892B31F0C8010E94D7098BEF9FEFC7C094
:103D8000AF80B884BA24AB24BA24A114B10419F0CA
:103D9000E12CF12C23C0C8010E94D7098AEF9FEFC4
:103DA000B6C041E050E0BE01635F7F4FC8010E9492
:103DB000470A8D8581111BC08D858111F2CFC80105
:103DC0000E941E0AC8010E941E0AC8010E941E0A03
:103DD000C8010E941E0AFFEFEF1AFF0A8D819E8123
:103DE000982789279827E816F906D8F20AC08D8502
:103DF0009FEF980F9D878823F9F2C8010E941E0A41
:103E0000F6CFE12CF12C41E050E0BE016D5E7F4F1A
:103E1000C8010E94470A8B89982F907C61F48823FF
:103E200071F08B899FEF980F9B8B882341F0C8011D
:103E30000E941E0AF6CFC8010E941E0A1B8A8B89A7
:103E40008111E1CF42E050E0BE01615F7F4FC801C8
:103E50000E94470A42E050E0BE01635F7F4FC80105
:103E60000E94470AC8010E941E0AC8010E941E0A39
:103E7000C8010E941E0AC8010E941E0A42E050E0CA
:103E8000BE016F5E7F4FC8010E94470A8F859889E7
:103E90008115914029F48D859E858115914019F0F9
:103EA000812C912C16C089899A898115944031F012
:103EB000C8010E94D70987EF9FEF29C0B6016E5F46
:103EC0007F4F44E050E0C8010E94470A81E090E043
:103ED0001EC089899A899827892798278816990664
:103EE00038F4C8010E941E0A2FEF821A920AF1CFFD
:103EF0008FEFE81AF80AEA14FB0409F084CFC8012E
:103F00000E94D70986EF9FEF02C08DEF9FEF639667
:103F10000FB6F894DEBF0FBECDBFDF91CF911F91DA
:103F20000F91FF90EF90DF90CF90BF90AF909F9058
:103F30008F907F906F905F904F9008958F929F9297
:103F4000AF92BF92CF92DF92EF92FF920F931F93A7
:103F5000CF93DF9300D000D000D0CDB7DEB78C0177
:103F60005B016A010E94461D4C01009709F05DC08B
:103F7000F801428153816481758180910A04909196
:103F80000B04A0910C04B0910D04481759076A075F
:103F90007B0709F44EC00E94A5167801F8E0EF0EE9
:103FA000F11C6F7077277C5FC7010E947D0A81300A
:103FB00009F043C08CEB91E09A838983F8018281F8
:103FC0009381A481B5818B839C83AD83BE8345E3BC
:103FD00050E0BE016F5F7F4FC7010E94FE09892B31
:103FE00019F4812C912C1DC0B501C8010E94921DAD
:103FF000892BB9F3C7010E94060A892B91F333E09C
:10400000A32EB12CA60168E873E1C8010E943B1EF3
:104010004C01F1E0AF1AB10821F08F3F2FEF92076A
:1040200089F3C7010E94E90908C088248394912C70
:1040300004C09EEF892E99249A94C40126960FB647
:10404000F894DEBF0FBECDBFDF91CF911F910F91CE
:10405000FF90EF90DF90CF90BF90AF909F908F90A8
:104060000895DC01FB018081869586958C93908173
:104070009370818182958F7020E1929F800D112431
:1040800011968C93119781818F70880F880F928180
:104090009295969596959370890F12968C93129798
:1040A00082818F7313968C9308958F929F92AF9213
:1040B000BF92CF92DF92EF92FF920F931F93CF9315
:1040C000DF93CDB7DEB727970FB6F894DEBF0FBEEC
:1040D000CDBF7C015A016B01A60EB71E00E010E0B7
:1040E00020E030E04E0185E0880E911CCA14DB040C
:1040F00039F1C9010196D6014D916D01F401E20F2C
:10410000F31F408383309105C9F4B401CE010196B9
:104110000E943120FE013196C701800F911FA191AD
:10412000B0E0A25BBD4F2C91DC012D93CD01E815D1
:10413000F905A9F70C5F1F4F80E090E09C01D6CFF6
:1041400069012115310509F443C02330310554F4C8
:10415000E5E0F0E0EC0FFD1FE20FF31F10822F5F90
:104160003F4FF3CFBE016B5F7F4FFE0131965F0182
:10417000CF010E943120F501C701800F911FA1914D
:10418000B0E0A25BBD4F2C91DC012D93CD019F01CE
:104190002A193B09C216D30694F70F5F1F4FC601B9
:1041A000D7FE02C080E090E0080F191FF701E00F72
:1041B000F11FCE18DF08C01AD10A2DE38F010E19A6
:1041C0001F09C6018E0F9F1F039714F42193F6CF8A
:1041D000F701E00FF11F1082C80127960FB6F8947F
:1041E000DEBF0FBECDBFDF91CF911F910F91FF902A
:1041F000EF90DF90CF90BF90AF909F908F900895F9
:1042000097FB072E16F4009407D077FD09D00E9483
:10421000672107FC05D03EF4909581959F4F089546
:10422000709561957F4F0895A1E21A2EAA1BBB1BC2
:10423000FD010DC0AA1FBB1FEE1FFF1FA217B30772
:10424000E407F50720F0A21BB30BE40BF50B661F88
:10425000771F881F991F1A9469F76095709580954C
:1042600090959B01AC01BD01CF010895052E97FBF0
:104270001EF400940E944D2157FD07D00E94142186
:1042800007FC03D04EF40C944D2150954095309589
:1042900021953F4F4F4F5F4F0895909580957095B2
:1042A00061957F4F8F4F9F4F089569279627692704
:1042B00078278727782708950E948121A59F900D50
:1042C000B49F900DA49F800D911D11240895AA1BE9
:1042D000BB1B51E107C0AA1FBB1FA617B70710F0F1
:1042E000A61BB70B881F991F5A95A9F78095909523
:1042F000BC01CD010895EE0FFF1F0590F491E02D54
:104300000994A29FB001B39FC001A39F700D811DAE
:104310001124911DB29F700D811D1124911D0895CE
:10432000CF93DF938230910510F482E090E0E0912A
:104330001004F091110420E030E0A0E0B0E03097EC
:1043400039F14081518148175907B8F0481759078A
:1043500071F482819381109729F013969C938E9328
:1043600012972CC0909311048093100427C021153C
:10437000310531F04217530718F0A901DB0101C0E4
:10438000EF019A01BD01DF010280F381E02DD7CF5B
:1043900021153105F9F0281B390B2430310580F443
:1043A0008A819B816115710521F0FB0193838283D2
:1043B00004C09093110480931004FE01329644C00F
:1043C000FE01E20FF31F819391932250310939834B
:1043D00028833AC020910E0430910F04232B41F41E
:1043E000209102013091030130930F0420930E04B9
:1043F00020910001309101012115310541F42DB7C3
:104400003EB74091040150910501241B350BE0910A
:104410000E04F0910F04E217F307A0F42E1B3F0BDC
:104420002817390778F0AC014E5F5F4F2417350726
:1044300048F04E0F5F1F50930F0440930E0481937A
:10444000919302C0E0E0F0E0CF01DF91CF910895B9
:10445000CF93DF93009709F487C0FC013297138252
:104460001282C0911004D0911104209781F4208110
:104470003181280F391F80910E0490910F0482170B
:10448000930779F5F0930F04E0930E046DC0DE01FD
:1044900020E030E0AE17BF0750F412964D915C91CA
:1044A00013979D014115510509F1DA01F3CFB3834B
:1044B000A28340815181840F951F8A179B0771F455
:1044C0008D919C911197840F951F02969183808303
:1044D00012968D919C9113979383828321153105B8
:1044E00029F4F0931104E09310043EC0D90113960F
:1044F000FC93EE9312974D915D91A40FB51FEA17AF
:10450000FB0779F480819181840F951F0296D90170
:1045100011969C938E938281938113969C938E9394
:104520001297E0E0F0E08A819B81009719F0FE018C
:10453000EC01F9CFCE01029628813981820F931FB9
:1045400020910E0430910F042817390769F4309731
:1045500029F4109211041092100402C013821282E6
:10456000D0930F04C0930E04DF91CF9108958F92E2
:104570009F92AF92BF92CF92DF92EF92FF92CF9332
:10458000DF93EC01688179818A819B8161157105D6
:104590008105910521F464E279ED8BE597E02DE149
:1045A00033EF41E050E00E94362149015A019B015E
:1045B000AC01A7EAB1E40E945C216B017C01ACEE86
:1045C000B4EFA50194010E94FE23C60ED71EE81E7B
:1045D000F91EF7FE06C081E0C81AD108E10880E89C
:1045E000F80AC882D982EA82FB82C701B6019F77A6
:1045F000DF91CF91FF90EF90DF90CF90BF90AF9081
:104600009F908F9008950E94B722089586E091E0D0
:104610000E94B7220895609306017093070180936A
:104620000801909309010895A0E0B0E0EAE1F3E207
:104630000C940724EC01CB01209719F40E949021DF
:10464000B8C0FE01E60FF71F9E0122503109E217A4
:10465000F30708F4ACC0D9010D911C91119706170E
:104660001707B8F00530110508F49FC0A8014450A1
:1046700051094617570708F498C002501109061B44
:10468000170B019311936D937C93CF010E94282205
:104690008CC05B01A01AB10A4E01800E911EA09140
:1046A0001004B0911104612C712C60E070E010973F
:1046B00009F449C0A815B905C9F5ED90FC9011970A
:1046C000670142E0C40ED11CCA14DB0478F1470133
:1046D0008A189B08640142E0C40ED11C1296BC905B
:1046E00012971396AC91B5E0CB16D10440F0B2828C
:1046F000A38391828082D9018D939C9309C00E5F20
:104700001F4F0E0D1F1DF90111830083EB2DFA2F92
:104710006115710531F0DB011396FC93EE9312974E
:1047200044C0F0931104E09310043FC06D917C915C
:1047300011976616770608F43B01BD0112960D909D
:10474000BC91A02DB4CF60910E0470910F04681538
:104750007905E9F468167906D0F44091000150918A
:1047600001014115510541F44DB75EB76091040157
:1047700070910501461B570BE417F507C0F4F09341
:104780000F04E0930E04F901918380830EC00E9410
:1047900090217C01009759F0A801BE010E94EB23F3
:1047A000CE010E942822C70104C0CE0102C080E0D1
:1047B00090E0CDB7DEB7EEE00C942324FB01DC01E2
:1047C00004C08D910190801921F441505040C8F7E8
:1047D000881B990B0895FB01DC0102C001900D922A
:1047E00041505040D8F70895FB01DC0101900D9233
:1047F0000020E1F70895B7FF0C945C210E945C2132
:10480000821B930B08952F923F924F925F926F926B
:104810007F928F929F92AF92BF92CF92DF92EF9250
:10482000FF920F931F93CF93DF93CDB7DEB7CA1BD1
:10483000DB0B0FB6F894DEBF0FBECDBF09942A88FC
:10484000398848885F846E847D848C849B84AA84A4
:10485000B984C884DF80EE80FD800C811B81AA8131
:10486000B981CE0FD11D0FB6F894DEBF0FBECDBFFC
:08487000ED010895F894FFCF5B
:104878000000120480000100000090A2DA00F27823
:10488800000401636F6E6E656374696E672E2E0097
:10489800436F6E6E656374656400436F6E6E656327
:1048A80074696F6E206661696C65642E002F0065FF
:1048B80063686F2E776562736F636B65742E6F72B2
:1048C800670048616E647368616B65207375636324
:1048D80065737366756C0048616E647368616B65B7
:1048E800206661696C65642E00526563656976654A
:1048F8006420646174613A20006563686F207465A0
:10490800737400436C69656E7420646973636F6EB9
:104918006E65637465642E0000000000D302B9045C
:1049280053026E026002B102000000003F04000062
:104938000000CC07F5070F08180836085908D508ED
:104948005D08320832097309E207EA07C207000066
:104958000000C1090A0ABD091E0A640AD7097D0AAE
:10496800E909FE090F0B060AAA0A470AA209A909BA
:10497800B9090D0A005365632D576562536F636B60
:1049880065742D4163636570743A002D2D2D2D2DAE
:104998002D2D2D2D2D2D2D2D2D2D2D2D2D2D2D2D3F
:1049A8002D2D2D0045746865726E657420667563DB
:1049B8006B65642075700057495A6E6574004142F2
:1049C800434445464748494A4B4C4D4E4F50515237
:1049D800535455565758595A6162636465666768F7
:1049E800696A6B6C6D6E6F707172737475767778B7
:1049F800797A303132333435363738392B2F000055
:00000001FF
