:100000000C94E3000C940B010C940B010C940B0169
:100010000C940B010C940B010C940B010C940B0130
:100020000C940B010C940B010C940B010C940B0120
:100030000C940B010C940B010C940B010C940B0110
:100040000C945A230C940B010C94ED090C941F0A88
:100050000C940B010C940B010C940B010C940B01F0
:100060000C940B010C940B0144656D6F2065786155
:100070006D706C65206F6E205753436C69656E74AC
:100080002075736167650053656E64696E6720440F
:100090006174610000436F6E6E656374696F6E20FA
:1000A0006661696C65642E00436F6E6E656374658E
:1000B00064005365632D576562536F636B65742DE0
:1000C00056657273696F6E3A2031330D0A005365BD
:1000D000632D576562536F636B65742D4B65793A79
:1000E0002000486F73743A2000436F6E6E6563742E
:1000F000696F6E3A20557067726164650D0A00552C
:100100007067726164653A20776562736F636B65CF
:10011000740D0A0020485454502F312E310D0A001E
:1001200047455420000000000800020100000304BD
:100130000700000000000000000102040810204039
:1001400080010204081020010204081020040404A5
:100150000404040404020202020202030303030370
:100160000300000000250028002B000000000024F0
:100170000027002A004E414E494E495459494E46E7
:10018000CDCCCC3D0AD7233C17B7D13877CC2B3216
:100190009595E6241FB14F0A000020410000C84297
:1001A00000401C4620BCBE4CCA1B0E5AAEC59D74F6
:1001B000C407450AF30ADF13EF14D216A8184B231D
:1001C0007D25862A050811241FBECFEFD8E0DEBFAB
:1001D000CDBF13E0A0E0B1E0E0E7FCE602C005908F
:1001E0000D92A636B107D9F725E0A6E6B3E001C027
:1001F0001D92A932B207E1F711E0C4ECD1E004C0CE
:100200002297FE010E948C2EC03BD107C9F70E94A5
:10021000AE080C942B360C9400009C01FC01E653B4
:10022000FF4F80819181680F791F693C710530F41F
:10023000718360830296820F931F089580E090E09F
:100240000895CF93DF93EC010E94380ECE01DF9129
:10025000CF910895BC0185EB93E00C94AC0B0F9308
:100260001F93CF93DF9300D0CDB7DEB78C01DC01B5
:1002700012961C921E92119714961C921E9213971E
:1002800016961C921E92159786E090E069837A83F9
:100290000E945623FC011182108213821282158261
:1002A0001482D80112969C938E93119714969C9366
:1002B0008E93139781E291E019969C938E931897F1
:1002C00069817A81C8010A960F900F90DF91CF91D2
:1002D0001F910F910C94380E6F927F928F929F9284
:1002E000AF92BF92CF92DF92EF92FF920F931F9344
:1002F000CF93DF9300D000D000D0CDB7DEB78C0114
:100300003B015C0188E0A80EB11C63E171E0C5010E
:100310000E940B0E7801EEE0EE0EF11C60EF72E031
:10032000C7010E940B0E6801F4E1CF0ED11C60EFF3
:1003300072E0C6010E940B0E80E590E0F801938FF9
:10034000828F4801FCE18F0E911CB301C4010E9411
:10035000380EF80114A213A288E090E096A385A3BA
:1003600010A617A288E890E00E945623F80194A3F3
:1003700083A364E271E0CE0101960E940B0EB401EA
:10038000CE0101960E949F0E6AE271E00E94B20EB9
:100390006DE973E00E949F0E63E371E00E94B20E6C
:1003A00069EA73E00E949F0E6DE371E00E94B20E55
:1003B00063EA73E00E949F0EBC01C7010E94210EF8
:1003C000CE0101960E949D0DB501CE0101960E94BD
:1003D000380EB701CE0101960E949F0EBC01C601E6
:1003E0000E94210ECE0101960E949D0D26960FB609
:1003F000F894DEBF0FBECDBFDF91CF911F910F915B
:10040000FF90EF90DF90CF90BF90AF909F908F9034
:100410007F906F900895CF93DF93EC0168E471E0D3
:1004200085EB93E00E94BE0B88819981DC01ED9100
:10043000FC914A8D5B8D688579850684F785E02D72
:100440000995892BC1F088819981DC01ED91FC919E
:100450000488F589E02D09954AE050E0682F85EB86
:1004600093E00E94990C68EA70E085EB93E0DF91DD
:10047000CF910C949A0B65E970E085EB93E00E94B4
:100480009A0B60ED77E080E090E00E94D323C6CF26
:100490008F929F92AF92BF92CF92DF92EF92FF9294
:1004A0000F931F93CF93DF93CDB7DEB72E970FB681
:1004B000F894DEBF0FBECDBF8C017B015A01DB017A
:1004C00011968D919C911297F80192838183D801A6
:1004D0001196ED91FC911297D70113968D919C91F5
:1004E00014978E179F0799F118968D909C901997E5
:1004F000C480D580B601CE0101960E94380EF60167
:100500008681978198878F83BE016F5F7F4FCE0171
:100510000996F4010995B501CE0109960E94290FAB
:10052000D82ECE0109960E949D0DCE0101960E9403
:100530009D0DDD2061F0D8011196ED91FC9112978F
:100540008281938112969C938E931197C0CFC8019C
:100550002E960FB6F894DEBF0FBECDBFDF91CF91C0
:100560001F910F91FF90EF90DF90CF90BF90AF90D1
:100570009F908F9008950F931F93CF93DF93EC017B
:100580008C819D81E881F981892B29F10280F38199
:10059000E02DF983E8830190F081E02D048115813D
:1005A0000115110531F0C8010E949D0DC8010E947E
:1005B0005823E881F98180819181009711F00E9490
:1005C0005823E881F981118210828C819D810197E5
:1005D0009D838C83D5CF048115810115110531F0E0
:1005E000C8010E949D0DC8010E94582388819981ED
:1005F000009731F0DF91CF911F910F910C94582308
:10060000DF91CF911F910F910895CF93DF93EC016C
:100610000A960E949D0DCE010196DF91CF910C9418
:10062000BB020F931F93CF93DF9300E010E0C0E075
:10063000D0E020918D0330918E03809189039091B9
:100640008A03C217D30740F4800F911F0E9405034D
:1006500021960F5E1F4FEDCF0E94582382E893E052
:100660000E949D0D8AE793E00E949D0D84E793E030
:100670000E949D0D8EE693E00E949D0D8DE993E012
:100680000E949D0D83EA93E00E949D0D89EA93E00C
:10069000DF91CF911F910F910C949D0DEF92FF92DE
:1006A0000F931F93CF93DF93EC017B011982188284
:1006B0001B821A821D821C8288E090E00E945623D1
:1006C0008C01B7010E94380EF70186819781F801ED
:1006D000978386831D830C83DF91CF911F910F91A8
:1006E000FF90EF900895EF92FF920F931F93CF9397
:1006F000DF93EC017B018C819D81892BC9F486E01D
:1007000090E00E9456238C01B7010E944E0319838A
:100710000883EA81FB8111830083D80111961C9222
:100720001E921396FC93EE93129781E090E01FC007
:1007300086E090E00E9456238C01B7010E944E0390
:10074000EA81FB8180819181D80111969C938E93DF
:100750001396FC93EE931297A081B18113961C938C
:100760000E931297118300838C819D8101969D8346
:100770008C83DF91CF911F910F91FF90EF9008959F
:10078000EF92FF920F931F93CF93DF93EC017B01C6
:10079000198218821B821A821D821C8286E090E0D8
:1007A0000E945623FC01118210821382128215824C
:1007B0001482998388839B838A83F7010081118146
:1007C000F701828193810817190751F0F8016481BC
:1007D0007581CE010E947303F80102811381F0CF6D
:1007E000DF91CF911F910F91FF90EF9008952F927D
:1007F0003F924F925F926F927F928F929F92AF92B1
:10080000BF92CF92DF92EF92FF920F931F93CF93FD
:10081000DF93CDB7DEB7CE5DD1400FB6F894DEBF23
:100820000FBECDBF5C018B016A018FE592E0CF5F07
:10083000DE4F99838883C150D140C553DE4F198262
:100840001882CB5CD140CE018F5F9E4F0E948010FA
:100850004C016DEE71E00E94EC1165E571E00E94C3
:10086000CA1066E671E0C4010E941112F601E08030
:10087000F1806BE671E00E94EC11B7010E94CA1092
:100880007E01F3E3EF1AFEEFFF0AF70113821282F3
:1008900086EA92E091838083AE014F5F5F4F1A0139
:1008A000558344838FEF90E097838683118610866B
:1008B0001982C952DE4FF982E882C75DD140C75222
:1008C000DE4F19821882C95DD140BE0169527E4F48
:1008D000C4010E948711B601C7010E94380EB701FA
:1008E000C5010E942F01C7010E949D0DF80187A13B
:1008F00090A56C01FFEFCF1ADF0A8C159D0508F05B
:10090000B9C0F80125A136A12C153D0508F04EC04F
:1009100009962817390708F049C083A094A096A328
:1009200085A321E1AC01249FC001259F900D1124D6
:100930000E945623F80194A383A37401612C712CA7
:10094000F80187A190A56816790668F5F80143A01B
:1009500054A0C70188199909480E591E4114510421
:10096000C1F0B7016F5F7F4FC20101960E94C003C3
:10097000F70180859185F20191878087B701665FD5
:100980007F4FC2010A960E94380EF7018089F2015A
:10099000808BC7010E940503FFEF6F1A7F0A21E1D8
:1009A000E20EF11CCDCFC4010E945823F80187A0AC
:1009B00090A481E1889DA001899D500D1124612C96
:1009C000712C95012F5F3F4F2501FAE04F0E511C0E
:1009D000F8018C149D0408F070C0E3A0F4A0C301DA
:1009E000840F951FE80EF91EE114F104E1F1B9013D
:1009F000C7010196C352DE4F2883CD5DD140C2525C
:100A0000DE4F3883CE5DD140C552DE4F4883CB5D8B
:100A1000D140C452DE4F5883CC5DD1400E94C00308
:100A2000F50180859185F70191878087B201C70123
:100A30000A960E94380EF5018089F701808BC45216
:100A4000DE4F5881CC5DD140C552DE4F4881CB5D31
:100A5000D140C252DE4F3881CE5DD140C352DE4F0D
:100A60002881CD5DD140FFEF8F1A9F0A81E1680E8A
:100A7000711CAECFC816D90610F521E1289F700170
:100A8000299FF00C11244601612C712C21E1620E8A
:100A9000711CF80187A190A58816990670F4F801D9
:100AA00023A134A1C701860D971D820F931F0E94B9
:100AB0000503FFEF8F1A9F0AE9CFD0A6C7A264E90A
:100AC00070E085EB93E00E949A0B67E870E085EB9D
:100AD00093E00E949A0BB101C80102960E94212363
:100AE000C501C252DE4F0FB6F894DEBF0FBECDBFB8
:100AF000DF91CF911F910F91FF90EF90DF90CF90FA
:100B0000BF90AF909F908F907F906F905F904F902D
:100B10003F902F9008958F929F92AF92BF92CF9265
:100B2000DF92EF92FF920F931F93CF93DF93CDB796
:100B3000DEB76F970FB6F894DEBF0FBECDBF7C0156
:100B40008B015A01DC0112961C921E92119713968A
:100B50001C92FB01C084D184BA01CE0101960E948F
:100B6000380ED50116968D919C91179798878F8393
:100B7000BE016F5F7F4FCE010996F6010995AE0168
:100B8000475F5F4FB801CE014D960E944802CE01EB
:100B900009960E949D0DCE0101960E949D0D81E057
:100BA000D70113968C93EE8DFF8DD80113968D91FE
:100BB0009C911497E817F90781F4B501C8010196D3
:100BC0000E947303D8011396ED91FC9114978081D4
:100BD0009181F7019283818380C0D80118968D900E
:100BE0009C901997C480D580B601CE0101960E94D1
:100BF000380EF6018681978198878F83BE016F5FDB
:100C00007F4FCE014196F4010995D8011896CD90F9
:100C1000DC901997B501CE0109960E94380EF501B6
:100C200086819781988B8F87BE01675F7F4FCE014A
:100C30004796F6010995BE016F5E7F4FCE0147963C
:100C40000E94290FD82ECE0147960E949D0DCE01FD
:100C500009960E949D0DCE0141960E949D0DCE01E8
:100C600001960E949D0D8E8C9F8CDD2071F186E097
:100C700090E00E9456236C01B5010E944E03D401FE
:100C80008D919C91F6019183808393828282892B3E
:100C900031F4D8011296DC92CE92119705C0D4019E
:100CA000ED91FC91D382C282F401D182C082D8013D
:100CB00015968D919C911697019616969C938E93FE
:100CC0001597F701D282C18208C0D70113961C92F2
:100CD000139712969C928E921197C7016F960FB63A
:100CE000F894DEBF0FBECDBFDF91CF911F910F9162
:100CF000FF90EF90DF90CF90BF90AF909F908F903C
:100D00000895EF92FF920F931F93CF93DF93CDB788
:100D1000DEB72F970FB6F894DEBF0FBECDBF8C01A4
:100D20007B01AB01BC01CE010D960E944802EE850D
:100D3000FF85D80113968D919C9114978E179F076C
:100D4000C9F064817581C7010E94290F811112C009
:100D5000EE85FF858481958106962F960FB6F894CF
:100D6000DEBF0FBECDBFDF91CF911F910F91FF90DE
:100D7000EF900895B701CE0101960E94380E1886B3
:100D80001F82AE014F5F5F4FB801CE0109960E94EE
:100D90008B058A859B859F878E87CE0101960E9451
:100DA0009D0DD6CFCF93DF93EA010E948106FC010F
:100DB000D183C083DF91CF910895CF93DF93CDB7D7
:100DC000DEB7C45ED1090FB6F894DEBF0FBECDBF4B
:100DD0007C012C0182E0480E511C8FE5682E82E0D8
:100DE000782E91E1392E60EF72E0CE0181529F4F53
:100DF0000E940B0EC2010E942B21BC01CE01815228
:100E00009F4F0E94410ECD51DF4F88819981C35E73
:100E1000D040892B09F4AEC0BE0161527F4F85EBF3
:100E200093E00E94AC0B7A826982C553DF4F19822E
:100E30001882CB5CD04060E070E0CE0181529F4FC1
:100E40000E94300F4AE0BC01CE0101960E94C713F8
:100E50008C01FC0180819181892B31F463E771E081
:100E600085EB93E00E94BE0B6BE671E0C8010E9427
:100E7000EC110E94B3105C016DEE71E0C8010E949C
:100E8000EC110E94B3106C01F70103A114A12224FC
:100E90002394F70187A190A5389E9001399E300DCB
:100EA000112483A194A1820F931F0817190709F435
:100EB00061C0B801665F7F4FCE0187529F4F0E948D
:100EC000380E60E070E0CE0187529F4F0E94300FD5
:100ED000BC01C5010E94D935892B09F043C068E8DF
:100EE00071E0C6010E94D935892B19F4F801208AD6
:100EF00039C06FEA71E0C6010E94D935892B39F4F7
:100F00006DEC71E085EB93E00E94BE0B2BC064EEAC
:100F100071E085EB93E00E94BE0BB601CE018D52CD
:100F20009F4F0E940B0EBE016D527F4FC8010E9461
:100F30008106FC018080918064EE71E0CE018353D4
:100F40009F4F0E940B0ECE0183539F4FF4010995D2
:100F5000CE0183539F4F0E949D0DCE018D529F4F16
:100F60000E949D0DCE0187529F4F0E949D0D0F5EE6
:100F70001F4F8FCFCE0181529F4F0E949D0D33CFC7
:100F800086E693E00E94DD060F93CF93DF9300D0B7
:100F900000D000D0CDB7DEB700E020E040E060E058
:100FA0008FEA93E00E94CC0A63EF71E089EA93E054
:100FB0000E940B0E69EF71E083EA93E00E940B0E32
:100FC0006BEF71E08DE993E00E940B0E80E993E0F6
:100FD0000E94F6156DE072E0CE0101960E940B0EA4
:100FE000BE016F5F7F4F86E693E00E946C01CE01E9
:100FF00001960E949D0D26960FB6F894DEBF0FBE97
:10100000CDBFDF91CF910F9108950C9411030F93F1
:101010001F93CF93DF93EC018B01798368830E9448
:101020000B0268EE73E080E090E00E94D32360E062
:1010300070E0CE010E960E94300F9B838A8360E0A1
:1010400070E0CE0108960E94300F9D838C8385EB63
:1010500093E00E940409B801CE0102960E94E720A5
:10106000882351F062E272E085EB93E0DF91CF914B
:101070001F910F910C94BE0B67E372E085EB93E038
:101080000E94BE0BFFCFCF93DF93CDB7DEB767973C
:101090000FB6F894DEBF0FBECDBF26E040E855E2A4
:1010A00060E070E085EB93E00E948B0968E670E0F9
:1010B00085EB93E00E949A0B6AE071E089EC94E082
:1010C0000E942C1469EC74E0CE0101960E94C714B2
:1010D000BE016F5F7F4F85EB93E00E94D00B68EEFF
:1010E00073E080E090E00E94D32360E973E086E63D
:1010F00093E00E94070869E472E0CE0142960E94E4
:101100000B0EAE014E5E5F4F66E673E0CE010196B8
:101110000E94F703CE0142960E949D0D61E572E0A8
:10112000CE0142960E940B0E4AE251E0BE016E5E75
:101130007F4FCE0101960E94D206CE0142960E94B8
:101140009D0DCE0101960E94050367960FB6F89497
:10115000DEBF0FBECDBFDF91CF9108950E94FB236C
:101160000E9443080E94C007FC01818D228D90E0FF
:10117000805C9F4F821B910960E470E00E940F2EFB
:101180000895FC01918D828D981731F0828DE80FC2
:10119000F11D858D90E008958FEF9FEF0895FC017C
:1011A000918D828D981761F0828DDF01A80FB11D9E
:1011B0005D968C91928D9F5F9F73928F90E00895C2
:1011C0008FEF9FEF0895FC01848DDF01A80FB11D03
:1011D000A35ABF4F2C91848D90E001968F7399276D
:1011E000848FA689B7892C93A089B1898C9180645A
:1011F0008C93938D848D981306C00288F389E02D1B
:1012000080818F7D80830895CF93DF93EC01888D5B
:101210008823C9F0EA89FB89808185FD05C0A889FA
:10122000B9898C9186FD0FC00FB607FCF5CF808180
:1012300085FFF2CFA889B9898C9185FFEDCFCE01CA
:101240000E94E308E7CFDF91CF910895CF92DF921C
:10125000FF920F931F93CF93DF931F92CDB7DEB70B
:101260006C01DC015B969C915B975C968C915C9722
:10127000981307C05096ED91FC915197808185FDA0
:1012800032C0F601038D10E00F5F1F4F0F7311275F
:10129000F02EF601848DF81211C00FB607FCF9CFBD
:1012A000D6015096ED91FC915197808185FFF1CF49
:1012B000C60169830E94E3086981EBCF838DE80F43
:1012C000F11DE35AFF4F6083D6015B960C935B9749
:1012D0005296ED91FC91539780818062808381E0EA
:1012E00058968C930DC0D6015696ED91FC91579768
:1012F00060835096ED91FC9151978081806480834A
:1013000081E090E00F90DF91CF911F910F91FF90BE
:10131000DF90CF900895BF92CF92DF92EF92FF922D
:10132000CF93DF93EC016A017B01B22EE889F98942
:1013300082E08083411581EE580761057105A1F0B7
:1013400060E079E08DE390E0A70196010E94232EF2
:1013500021503109410951095695479537952795EF
:10136000211580E1380798F0E889F989108260E852
:1013700074E88EE190E0A70196010E94232E21508F
:101380003109410951095695479537952795EC85BF
:10139000FD853083EE85FF852083188EEC89FD89DD
:1013A000B082EA89FB89808180618083EA89FB8938
:1013B000808188608083EA89FB898081806880835E
:1013C000EA89FB8980818F7D8083DF91CF91FF90B7
:1013D000EF90DF90CF90BF9008951F920F920FB6BD
:1013E0000F9211242F938F939F93EF93FF93E0918C
:1013F000C503F091C6038081E091CB03F091CC034B
:1014000082FD12C090818091CE038F5F8F732091F7
:10141000CF03821751F0E091CE03F0E0EB54FC4F84
:10142000958F8093CE0301C08081FF91EF919F91B2
:101430008F912F910F900FBE0F901F9018951F92B4
:101440000F920FB60F9211242F933F934F935F93F8
:101450006F937F938F939F93AF93BF93EF93FF937C
:1014600085EB93E00E94E308FF91EF91BF91AF916C
:101470009F918F917F916F915F914F913F912F91AC
:101480000F900FBE0F901F9018951092B8031092F6
:10149000B70388EE93E0A0E0B0E08093B9039093A7
:1014A000BA03A093BB03B093BC0385E692E090938C
:1014B000B6038093B50385EC90E09093C2038093CC
:1014C000C10384EC90E09093C4038093C30380EC49
:1014D00090E09093C6038093C50381EC90E09093D5
:1014E000C8038093C70382EC90E09093CA03809373
:1014F000C90386EC90E09093CC038093CB031092C9
:10150000CE031092CF031092D0031092D10308950E
:10151000AF92BF92CF92DF92EF92FF920F931F9301
:10152000CF93DF936C017B01C0E0D0E000E010E0DE
:10153000F601EC0FFD1F4AE050E06281C7010E94F6
:10154000920C5C016EE2C7010E94750B8A0D9B1D17
:10155000080F191F2196C330D10551F74AE050E01A
:10156000F6016581C7010E94920C800F911FDF91E7
:10157000CF911F910F91FF90EF90DF90CF90BF9090
:10158000AF90089525E732E0FC0131832083128279
:1015900013821482158208950F93FC0185E792E06F
:1015A0009183808362834383248305830F9108950D
:1015B00025E732E0FC0131832083FB01408151812A
:1015C00062817381FC014283538364837583089530
:1015D000FB014081518162817381FC01428353830D
:1015E00064837583089585E792E090935304809314
:1015F0005204109254041092550410925604109202
:1016000057040895CF92DF92EF92FF920F931F93AA
:10161000CF93DF936C017A01EB01E60EF71E00E039
:1016200010E0CE15DF0561F06991D601ED91FC91D6
:101630000190F081E02DC6010995080F191FF1CF27
:10164000C801DF91CF911F910F91FF90EF90DF9034
:10165000CF9008956115710581F0DB010D90002098
:10166000E9F7AD0141505109461B570BDC01ED91E3
:10167000FC910280F381E02D099480E090E00895D0
:10168000EF92FF920F931F93CF93DF938C01FB0197
:10169000C0E0D0E064917F018FEFE81AF80A66237A
:1016A00061F0D801ED91FC910190F081E02DC8012D
:1016B0000995C80FD91FF701EDCFCE01DF91CF916A
:1016C0001F910F91FF90EF900895DC01ED91FC9137
:1016D000DB0114964D915C9115976D917C91028080
:1016E000F381E02D09940C942A0BDC01ED91FC911F
:1016F0000190F081E02D0994DB01ED91FC911197AF
:101700000190F081E02DBC01CD0109940F931F934E
:10171000CF93DF93EC016DE00E94750B8C016AE0C2
:10172000CE010E94750B800F911FDF91CF911F9109
:101730000F9108950F931F93CF93DF93EC010E94B5
:10174000400B8C01CE010E94860B800F911FDF9110
:10175000CF911F910F9108950F931F93CF93DF9314
:10176000EC010E94650B8C01CE010E94860B800F5C
:10177000911FDF91CF911F910F9108950F931F93A8
:10178000CF93DF93EC010E942A0B8C01CE010E94C3
:10179000860B800F911FDF91CF911F910F910895BC
:1017A0000F931F93CF93DF93EC010E947C0B8C016E
:1017B000CE010E94860B800F911FDF91CF911F9168
:1017C0000F9108958F929F92AF92BF92CF92DF9226
:1017D000EF92FF920F931F93CF93DF93CDB7DEB7B6
:1017E000A1970FB6F894DEBF0FBECDBF7C01C42E0B
:1017F000E52FCB01D22E19A221E02D1510F02AE001
:10180000D22E8E010F5D1F4F8D2C912CA12CB12C4F
:101810006C2D7E2FA50194010E94232E8C2DD29E2B
:1018200080191124015011098A3014F4805D01C01F
:10183000895CF8018083211531054105510521F0AE
:10184000C22EE32FCA01E4CFB801C7010E942A0BC0
:10185000A1960FB6F894DEBF0FBECDBFDF91CF913A
:101860001F910F91FF90EF90DF90CF90BF90AF90BE
:101870009F908F900895CF92DF92EF92FF920F93F7
:101880001F93CF93DF93EC016A017B012115310592
:1018900079F4E881F9810190F081E02D642FDF91E6
:1018A000CF911F910F91FF90EF90DF90CF9009940F
:1018B0002A303105E9F477FF1AC06DE20E94750BFA
:1018C0008C0144275527BA014C195D096E097F091F
:1018D0002AE0CE010E94E20B800F911FDF91CF9191
:1018E0001F910F91FF90EF90DF90CF9008952AE025
:1018F000B701A601CE01DF91CF911F910F91FF900B
:10190000EF90DF90CF900C94E20B2115310541F45C
:10191000DC01ED91FC910190F081E02D642F0994A0
:101920000C94E20B9A01462F50E060E070E00C94BA
:10193000850C0F931F93CF93DF93EC019A01462FF1
:1019400050E060E070E00E94850C8C01CE010E94A6
:10195000860B800F911FDF91CF911F910F910895FA
:101960004F925F926F927F928F929F92AF92BF92AF
:10197000CF92DF92EF92FF920F931F93CF93DF935B
:10198000EC016A017B01B22E9A01AB01C701B601DD
:101990000E94BA30882319F067E772E027C0260159
:1019A0003701E89477F82FEF3FEF4FE75FE7C30188
:1019B000B2010E94BA3081110DC02FEF3FEF4FE707
:1019C0005FE7C301B2010E94042F18161CF46BE7F5
:1019D00072E00CC02FEF3FEF4FE75FE4C701B601A5
:1019E0000E9453301816ACF46FE772E0CE01DF911D
:1019F000CF911F910F91FF90EF90DF90CF90BF900C
:101A0000AF909F908F907F906F905F904F900C94CD
:101A10002A0B2FEF3FEF4FE75FECC701B6010E94A3
:101A2000042F87FDE1CF20E030E0A901C701B60116
:101A30000E94042F87FF0AC06DE2CE010E94750B41
:101A40008C01F7FAF094F7F8F09402C000E010E08F
:101A5000A12C60E070E080E09FE3AB1441F020E057
:101A600030E040E251E40E94082FA394F6CF9B019E
:101A7000AC01C701B6010E94A02E6B017C010E943F
:101A8000752F2B013C010E94A12F9B01AC01C701C6
:101A9000B6010E949F2E6B017C012AE0B301A201D6
:101AA000CE010E94E20B080F191FBB2039F063E53D
:101AB00071E0CE010E942A0B080F191F7B2C7720A2
:101AC00041F120E030E040E251E4C701B6010E945C
:101AD00057306B017C010E94702F4B01AA2497FCA8
:101AE000A094BA2C2AE030E0B501A401CE010E94F6
:101AF0003B0C080F191FC501B4010E94A32F9B01C5
:101B0000AC01C701B6010E949F2E6B017C017A9443
:101B1000D6CFC801DF91CF911F910F91FF90EF9029
:101B2000DF90CF90BF90AF909F908F907F906F90FD
:101B30005F904F9008950C94B00CFC0180819181CE
:101B40000C945631CF93DF93EC01888199810097F3
:101B500011F00E945631198218821D821C821B824C
:101B60001A82DF91CF9108950F931F93CF93DF9344
:101B7000EC018B016F5F7F4F888199810E94423217
:101B8000009731F0998388831B830A8381E001C029
:101B900080E0DF91CF911F910F910895CF93DF9354
:101BA000EC0188819981892B29F08A819B81861794
:101BB000970760F4CE010E94B40D882341F08C8118
:101BC0009D81892B19F4E881F981108281E0DF91F0
:101BD000CF910895EF92FF920F931F93CF93DF93CE
:101BE000EC017B018A01BA010E94CE0D811104C073
:101BF000CE010E94A20D07C01D830C83B70188810E
:101C000099810E94E235CE01DF91CF911F910F9112
:101C1000FF90EF900895FC011182108213821282CE
:101C2000158214826115710559F0FB0101900020A5
:101C3000E9F7AF0141505109461B570B0C94EA0DCF
:101C40000895CF93DF93EC01FB018617970761F0AE
:101C5000608171816115710529F0448155810E946F
:101C6000EA0D02C00E94A20DCE01DF91CF9108952E
:101C7000FC011182108213821282158214820C944C
:101C8000210ECF93DF93EC016115710561F0FB012B
:101C900001900020E9F7AF0141505109461B570B55
:101CA0000E94EA0D02C00E94A20DCE01DF91CF91E9
:101CB0000895EF92FF920F931F93CF93DF93EC0160
:101CC0007B010C811D816115710511F480E016C046
:101CD0004115510591F0040F151FB8010E94CE0D5A
:101CE0008823A1F3288139818C819D81B701820FDE
:101CF000931F0E94E2351D830C8381E0DF91CF9119
:101D00001F910F91FF90EF900895FB014481558141
:101D1000608171810C94590ECF93DF9300D0CDB7C1
:101D2000DEB769831A8241E050E0BE016F5F7F4FEA
:101D30000E94590E0F900F90DF91CF910895CF938D
:101D4000DF93EC01FB0144815581608171810E9428
:101D5000590E811103C0CE010E94A20DCE01DF9168
:101D6000CF910895CF93DF93EC016115710569F070
:101D7000FB0101900020E9F7AF0141505109461BDA
:101D8000570B0E94590E811103C0CE010E94A20D73
:101D9000CE01DF91CF910895CF93DF93EC010E94A4
:101DA0008C0E811103C0CE010E94A20DCE01DF91E5
:101DB000CF910895CF93DF93DC01ED91FC91EB017E
:101DC000A881B981309711F01097C9F4109759F094
:101DD000EB012C813D81232B31F08C9190E091958A
:101DE0008195910914C0309781F0DC0114968D9192
:101DF0009C911597892B49F0808190E008C0BD0126
:101E0000CF01DF91CF910C94D93580E090E0DF9144
:101E1000CF910895FC0124813581232B31F421E0F9
:101E200061157105A1F0FB0108C0FC018081918161
:101E30006115710531F421E0FC018081882339F0BE
:101E400005C00E94D93521E0892B09F020E0822FBE
:101E500008950E94DA0E892F881F8827881F089509
:101E6000FC01848195816817790720F48081918134
:101E7000009729F41092580488E594E00895860F9D
:101E8000971F0895FC0180859185268137818217EF
:101E90009307A4F4A481B5819C012F5F3F4F318744
:101EA0002087A80FB91F6C93A481B5818085918587
:101EB000A80FB91F1C9281E090E0089580E090E0A7
:101EC0000895CF93DF93EC0188819981DC01ED9136
:101ED000FC910190F081E02D09952A813B81280F2A
:101EE000391F3B832A83DF91CF910895DB01ED9168
:101EF000FC9111970190F081E02DBC01CD01099476
:101F00000F931F93CF93DF938C01F801C281D3818C
:101F10008881992787FD90950E94A335892B29F008
:101F20002196F801D383C283F0CFDF91CF911F9127
:101F30000F9108950F931F93CF93DF931F92CDB707
:101F4000DEB78C0169830E94800FD8011296ED9153
:101F5000FC9113978081698186130AC0319613968C
:101F6000FC93EE931297C8010E94800F81E001C09C
:101F700080E00F90DF91CF911F910F910895FB01A9
:101F80002191BF01222379F0DC011296ED91FC91A1
:101F900013973081321307C03196DC011396FC93FE
:101FA000EE931297ECCF81E0211180E00895BF926B
:101FB000CF92DF92EF92FF920F931F93CF93DF9315
:101FC0007C01EB01009771F463E872E0CE01DF91D0
:101FD000CF911F910F91FF90EF90DF90CF90BF9026
:101FE0000C94730BE881F9810190F081E02D62E29D
:101FF000CE0109958C01F70161917F01662351F0B3
:10200000E3E9F2E0B080BB2079F191819617B1F05D
:102010003296F8CFE881F9810190F081E02D62E2FB
:10202000CE010995800F911FDF91CF911F910F91E4
:10203000FF90EF90DF90CF90BF900895E881F981F5
:102040000190F081E02D6CE5CE0109956C01E881ED
:10205000F9810190F081E02D6B2DCE0109958C0D59
:102060009D1D080F191FC7CFE881F9810190F081EC
:10207000E02DCE010995F5CFCF93FC01508152326E
:1020800029F0573219F080E090E023C09C012F5FC7
:102090003F4FD901F901CF0101964081442399F3C3
:1020A000451791F04C3569F401964181E7E9F2E07A
:1020B000C081CC2331F0C41302C0418102C03296EA
:1020C000F7CF4D93FC01E7CF1C92FB0191838083F6
:1020D000C901CF910895CF93DF93EC01BC0184E057
:1020E00090E00E94760FFC01009729F0D183C08315
:1020F0001382128202C083E694E0DF91CF910895AB
:10210000CF93DF93EC01BC0184E090E00E94760F56
:10211000FC01009729F0D183C0831382128202C090
:102120008FE594E0DF91CF9108950F931F93CF93A4
:10213000DF938B01FC01C281D381209759F0B80154
:102140008A819B810E94D935892B39F00990D881E9
:10215000C02DF3CF80E090E001C0CE01DF91CF91A0
:102160001F910F910895FC012081318125303105A7
:1021700019F482819381089580E090E00895FC0134
:1021800080819181892B29F084E090E09183808384
:1021900062830895FC0180819181892B31F085E073
:1021A00090E091838083738362830895FC01808132
:1021B0009181892B49F030E0295F3F4F31832083A3
:1021C00042835383648375830895FC0180819181E8
:1021D000892B41F086E090E0918380834283538392
:1021E000648375830895FC0180819181892B31F08E
:1021F00082E090E091838083738362830895FC0181
:1022000080819181892B31F083E090E091838083FC
:10221000738362830895CF93DF93FC01EB012081E8
:1022200031812230310531F482819381DF91CF9168
:102230000C9461112330310531F482819381DF9157
:10224000CF910C9487112530310539F4688179815B
:10225000828193810E94D70F2BC02630310559F41B
:1022600042815381648175812AE030E088819981BF
:102270000E943B0C1DC02430310569F48281882303
:1022800019F068E872E002C06DE872E08881998117
:102290000E94730B0DC02730310584F0275030E0C9
:1022A0004281538164817581888199810E949B0D4F
:1022B0002A813B81280F391F3B832A83DF91CF91ED
:1022C00008950F931F93CF93DF93EC018B016BE580
:1022D000C8010E94610F0A80DB81C02D209779F030
:1022E000B801CE0102960E940B110990D881C02D31
:1022F000209729F06CE2C8010E94610FF1CF6DE5D3
:10230000C801DF91CF911F910F910C94610F0F9332
:102310001F93CF93DF938C01EB016BE7CE010E94FB
:10232000610FF801028113810115110509F168811E
:102330007981F801828193810E94D70F2A813B81A4
:10234000280F391F3B832A836AE3CE010E94610F65
:10235000BE01C80104960E940B11F8010081118191
:102360000115110529F06CE2CE010E94610FDFCF4B
:102370006DE7CE01DF91CF911F910F910C94610F0A
:10238000FC01608171816115710579F08AE090E04E
:102390000E94760FFC01009741F01182108281E0CB
:1023A00090E095838483CF01089580E090E00895C4
:1023B000DC011296ED91FC911397309749F08081E2
:1023C0009181009711F0FC01FACF71836083089529
:1023D000FC01738362830895EF92FF920F931F9322
:1023E000CF93DF938C017B010E949510EC01009745
:1023F00061F4C8010E94C011EC01009749F0FB8212
:10240000EA82BC01C8010E94D811CE01049602C024
:1024100089E594E0DF91CF911F910F91FF90EF90AC
:102420000895EF92FF920F931F93CF93DF93EC01E8
:102430008B0188819981009761F00E9480107C0156
:10244000B801CE010E94EC11B7010E94FF10C70134
:1024500002C08FE594E0DF91CF911F910F91FF9023
:10246000EF900895FC01608171816115710579F02B
:1024700088E090E00E94760FFC01009741F0118205
:10248000108281E090E093838283CF01089580E001
:1024900090E00895DC011296ED91FC91139730972E
:1024A00049F080819181009711F0FC01FACF71838E
:1024B00060830895FC017383628308950F931F93D3
:1024C000CF93DF938C010E943212EC01009739F018
:1024D000BC01C8010E944A12CE01029602C089E5E1
:1024E00094E0DF91CF911F910F910895EF92FF92A9
:1024F0000F931F93CF93DF93EC01888199810E9402
:102500006B107C016BE5CE010E949A0F811103C014
:1025100083E694E022C06DE5CE010E949A0F8111FE
:102520001BC0C7010E945E128C01BC01CE010E943B
:10253000B412F801208131812230310548F36DE574
:10254000CE010E949A0F811107C06CE2CE010E9459
:102550009A0F8111E6CFDCCFC701DF91CF911F9198
:102560000F91FF90EF900895EF92FF920F931F93BA
:10257000CF93DF9300D0CDB7DEB78C017B01DC01B8
:1025800014968C911497882309F4A3C08150149653
:102590008C93C8010E94800FF80182819381DC0135
:1025A0002C912A337CF420330CF03FC0273209F4FD
:1025B00061C024F4223209F45DC065C02D5222307E
:1025C000A0F161C02E3609F442C02CF42B3581F005
:1025D0002636B1F058C0243799F02B3709F053C094
:1025E000C8010E947213BC01C7010E94FF104BC0BA
:1025F000C8010E947612BC01C7010E94F31043C0BB
:1026000068E872E0C8010E94BF0F882311F061E002
:1026100008C06DE872E0C8010E94BF0F882309F16D
:1026200060E0C7010E94BF102EC04AE050E0BE012A
:102630006F5F7F4F0E946F34AB01BC01E981FA816B
:1026400080818E3229F18F7D8534D1F521C063E8F8
:1026500072E0C8010E94BF0F882319F060E070E0AB
:102660000FC086E0E9E5F4E0D70101900D928A956C
:10267000E1F709C0B8016E5F7F4F0E943C10BC01BA
:10268000C7010E94CA10F80184818F5F848321C032
:10269000B8016E5F7F4FD80112968D919C91139770
:1026A0000E940C33AB01BC01F80122813381898186
:1026B0009A81281B390B2150C7010E94D610E3CF05
:1026C000D8011396FC93EE931297C7010E94E51070
:1026D000DACF0F900F90DF91CF911F910F91FF9064
:1026E000EF900895CF92DF92EF92FF920F931F9396
:1026F000CF93DF93EC01888199810E9480106C0157
:102700006BE7CE010E949A0F811103C08FE594E020
:1027100035C06DE7CE010E949A0F81112EC07E0157
:1027200082E0E80EF11CB7018A819B810E943C1077
:102730008C01009759F36AE3CE010E949A0F882317
:1027400029F3B801C6010E94EC118C01BC01CE0135
:102750000E94B412F8012081318122303105B0F29B
:102760006DE7CE010E949A0F811107C06CE2CE0185
:102770000E949A0F8111D7CFC9CFC601DF91CF91A7
:102780001F910F91FF90EF90DF90CF900895CF931E
:10279000DF9300D000D01F92CDB7DEB79A83898334
:1027A0007C836B834D83CE0101960E9472130F9040
:1027B0000F900F900F900F90DF91CF91089510928E
:1027C00064041092630410926604109265041092DF
:1027D000600410925F0410926204109261041092DF
:1027E0005A0410925904089520910705222381F07C
:1027F000213051F42DB3209305053DB320910605FA
:10280000209523232DBB04C02FB720930505F894F2
:102810008CBD9DBD089590910705992339F0809155
:102820000505913011F48DBB08958FBF089544E0E4
:1028300050E0BC0181E090E00C94111D44E050E0B8
:10284000BC0185E090E00C94111D44E050E0BC0117
:102850008FE090E00C94111DAF92BF92CF92DF9267
:10286000EF92FF920F931F93CF93DF9300D000D08E
:1028700000D0CDB7DEB76C015B018091D10481112E
:1028800007C08EEA94E00E94351881E08093D1045D
:1028900087E694E0F6019783868385EF94E00E94B3
:1028A000B11C80E590E00E94F41346E050E0B501D1
:1028B00089E090E00E94111D00E020E040E060E02F
:1028C000CE0101960E94CC0ACE0103960E942514E7
:1028D0000E940B1410EAE12E1FE0F12E00E010E040
:1028E00020E63AEE40E050E0B501F601868197819E
:1028F0000E94F3295C0181309105B9F580E590E0F3
:102900000E94F413F60166817781CE0101960E9440
:102910003B25CE0103960E942514F601668177813E
:10292000CE0101960E945125CE0103960E941714F4
:10293000F60166817781CE0101960E944625CE017F
:1029400003960E941E140E940B14F6016681778183
:10295000CE0101960E945C254B815C816D817E8158
:10296000F6014283538364837583C50126960FB6AF
:10297000F894DEBF0FBECDBFDF91CF911F910F91B5
:10298000FF90EF90DF90CF90BF90AF900895CF93DE
:10299000DF93EC010E94C20A80E590E00E94F413EC
:1029A000BE016E5F7F4F44E050E08FE090E00E94F8
:1029B000421E0E940B14CE01DF91CF91089525E7AE
:1029C00032E0FC0131832083FB0142815381648129
:1029D0007581FC01428353836483758308950F934B
:1029E00000E020E040E060E081EE94E00E94CC0A4C
:1029F00089EC94E00F910C94C20ADC01ED91FC91FA
:102A0000008CF18DE02D099591E089270895CF93F1
:102A1000DF931F92CDB7DEB76983DC01ED91FC91A6
:102A20000280F381E02D41E050E0BE016F5F7F4FF7
:102A300009950F90DF91CF91089521E0FC018485E5
:102A4000843009F420E0822F0895FC019485FB0175
:102A50008485981303C081E0943009F480E00895E0
:102A60000F931F93CF93DF93EC018A018C85843001
:102A700021F00E94531A892B39F481E090E09B8366
:102A80008A8380E090E001C0C801DF91CF911F915F
:102A90000F910895FC018485843011F00C944A1B39
:102AA00080E090E00895CF93DF931F92CDB7DEB71B
:102AB00041E050E0BE016F5F7F4FFC0184850E94C2
:102AC000EA1A181619061CF4898190E002C08FEFEB
:102AD0009FEF0F90DF91CF910895FC0184850C94B6
:102AE000EA1A0F931F93CF93DF931F92CDB7DEB7F0
:102AF0008C01DC01ED91FC910480F581E02D0995BC
:102B0000892B51F0BE016F5F7F4FF80184850E94D1
:102B1000751B898190E002C08FEF9FEF0F90DF91CE
:102B2000CF911F910F910895FC0184850C94A41BF3
:102B3000CF92DF92EF92FF920F931F93CF93DF9389
:102B4000CDB7DEB7AF970FB6F894DEBF0FBECDBFDF
:102B50007C018B016A01CE0101960E94C20ACE015E
:102B600009960E943518CE018A960E94C20A69EC25
:102B700074E0CE0184960E94DF14BE016C5D7F4F2D
:102B8000CE0101960E94382AAE01465D5F4FB80122
:102B9000CE0101960E949D2C81309105C1F4D70190
:102BA000ED91FC910484F585E02D85E792E09DA3ED
:102BB0008CA30CA51DA52EA53FA50EA31FA328A77A
:102BC00039A7A601BE016C5D7F4FC7010995AF967D
:102BD0000FB6F894DEBF0FBECDBFDF91CF911F912E
:102BE0000F91FF90EF90DF90CF900895FC0113823A
:102BF000128248EE53E060E070E0448355836683C0
:102C000077838EEA92E09183808384E084870895BD
:102C1000FC018485843011F00C942F1980E0089514
:102C2000DF92EF92FF920F931F93CF93DF93EC010C
:102C30007B018A018C85843009F045C0D12C8D2D13
:102C40000E942F19811102C0DC8607C08B7F88315A
:102C5000D9F3D39484E0D812F2CF8C85843099F1E3
:102C600020911001309111012F5F3F4F11F420E0AE
:102C700034E03093110120931001409110015091E4
:102C8000110120E061E00E948119B7016E5F7F4F62
:102C9000A8018C850E94D519811103C084E08C871E
:102CA00012C0CE010E940816873151F061E070E039
:102CB00080E090E00E94D323CE010E940816ECCF62
:102CC00081E090E002C080E090E0DF91CF911F9121
:102CD0000F91FF90EF90DF900895CF92DF92EF92E7
:102CE000FF92CF93DF93EC018C85843081F10E94B9
:102CF0002D1A0E94A4236B017C01CE010E940816AC
:102D0000882359F00E94A4236C197D098E099F091C
:102D1000683E73408105910598F0CE010E94081627
:102D2000882319F08C850E945719EC85F0E0EE0F8E
:102D3000FF1FE752FB4F1182108284E08C8707C08F
:102D400061E070E080E090E00E94D323D6CFDF9175
:102D5000CF91FF90EF90DF90CF900895CF93DF93C6
:102D6000EC018C858430D1F0CE010E9408168431AC
:102D7000A9F0882399F0883189F08C3169F4E881D1
:102D8000F9810480F581E02DCE01099521E0892BA0
:102D900009F420E0822F03C081E001C080E0DF91D0
:102DA000CF9108950F9300E020E040E060E087EECF
:102DB00094E00E94CC0A0F910895DC01ED91FC9102
:102DC000008CF18DE02D099425E732E0FC01318380
:102DD0002083FB014189528963897489FC01428304
:102DE0005383648375830895FC01858996890895CA
:102DF000FC01818D928D0895CF93DF931F92CDB703
:102E0000DEB76983DC01ED91FC910280F381E02D56
:102E100041E050E0BE016F5F7F4F09950F90DF9159
:102E2000CF910895CF93DF93EC01898D9A8D892BF3
:102E300041F0E881F9810680F781E02DCE01099506
:102E4000F4CFDF91CF910895CF93DF93EC018C8580
:102E5000843061F00E945719EC85F0E0EE0FFF1FFF
:102E6000E752FB4F1182108284E08C87DF91CF9173
:102E70000895FC01108E178A6E5F7F4F84850C9435
:102E8000EC1BFC0184850C94321CCF93DF93EC0186
:102E90009A018F89988DAB01BC018C850E94A51B7E
:102EA0002F89388D280F391F388F2F8BDF91CF91C5
:102EB00008950F931F93CF93DF931F92CDB7DEB783
:102EC0008C01FC01818D928D892B59F041E050E0FD
:102ED000BE016F5F7F4F84850E94EA1A181619069B
:102EE0001CF08FEF9FEF08C0F801818D928D019744
:102EF000928F818F898190E00F90DF91CF911F9108
:102F00000F910895CF93DF93EC01898D9A8D0097EF
:102F100019F48FEF9FEF10C04817590708F0AC0164
:102F20008C850E94EA1A181619069CF7298D3A8D8D
:102F3000281B390B3A8F298FDF91CF910895CF93BA
:102F4000DF931F92CDB7DEB7FC01218D328D232B8D
:102F500049F0BE016F5F7F4F84850E94751B898198
:102F600090E002C08FEF9FEF0F90DF91CF91089517
:102F7000FF920F931F93CF93DF93EC018B018C850E
:102F80008430E1F4F12C8F2D0E942F19811102C0A1
:102F9000FC8606C08831E1F3F39484E0F812F3CFA5
:102FA0008C85843059F01E870D871A8E198E20E08B
:102FB000A80162E00E94811981E001C080E0DF91F8
:102FC000CF911F910F91FF9008950F931F93CF936F
:102FD000DF93CDB7DEB728970FB6F894DEBF0FBEEC
:102FE000CDBF8C01DC01ED91FC910284F385E02DD5
:102FF0000995F80184850E944A1B1816190644F5A4
:1030000048E050E0BE016F5F7F4FD8011C968C9165
:103010000E94EA1A18161906ECF4BE016F5F7F4F82
:10302000C8010F960E94E80A8D8190E0982F8827AA
:103030002E81820F911DF801968B858B8F8190E0F8
:10304000982F88272885820F911D928F818F02C02B
:1030500080E090E028960FB6F894DEBF0FBECDBF9B
:10306000DF91CF911F910F910895FC01138212827D
:1030700048EE53E060E070E04483558366837783D5
:103080008EEC92E09183808384E08487CF010F9659
:103090000C94C20ACF92DF92EF92FF920F931F938C
:1030A000CF93DF93CDB7DEB7AF970FB6F894DEBFFF
:1030B0000FBECDBF7C018B016A01CE0101960E943B
:1030C000C20ACE0109960E943518CE018A960E9446
:1030D000C20A69EC74E0CE0184960E94DF14BE013E
:1030E0006C5D7F4FCE0101960E94382AAE01465D8D
:1030F0005F4FB801CE0101960E949D2C8130910551
:10310000C1F4D701ED91FC910088F189E02D85E7AC
:1031100092E09DA38CA30CA51DA52EA53FA50EA3F3
:103120001FA328A739A7A601BE016C5D7F4FC70169
:103130000995AF960FB6F894DEBF0FBECDBFDF91F5
:10314000CF911F910F91FF90EF90DF90CF90089556
:103150000F9300E020E040E060E08DEE94E00E94FC
:10316000CC0A0F910895CF92DF92EF92FF920F93C6
:1031700030E0C12CF2E1DF2EFAE7EF2EF12C4C15F6
:103180005D056E057F0540F4F694E794D794C794E7
:103190003F5F3630A1F737E041E04327211102C0FD
:1031A00050E701C050E5242F30E035952795237076
:1031B0000C70202B252BFC012083417041830F9143
:1031C000FF90EF90DF90CF90089590E0982F8827A0
:1031D00044E050E0845F9B4F0C94111D282F30E099
:1031E0002C5F3F4F922F8827860F971F0C94401D0E
:1031F00062E070E00C94EE18FB01282F30E02C5FA9
:103200003F4F922F8827642F8E0F9F1F0C948F1C87
:10321000CF93DF93C82FD62F472F64E070E00E9432
:10322000FC184D2F65E070E08C2FDF91CF910C944E
:10323000FC18462F62E070E00C94FC18CF93DF93EB
:10324000C82FD62F472F60E170E00E94FC184D2F49
:1032500061E170E08C2FDF91CF910C94FC180F93FB
:103260001F93CF93DF9300D01F92CDB7DEB7182FF7
:1032700000E021E040E059E06DE370E0CE0101960E
:103280000E94B31889819A810E94F41363E070E070
:10329000812F0E94EE188B830E940B148B810F905C
:1032A0000F900F90DF91CF911F910F9108950F9381
:1032B0001F93CF93DF9300D0CDB7DEB7182F00E078
:1032C00021E040E059E06DE370E0CE0101960E94FC
:1032D000B31889819A810E94F41340E150E0612F74
:1032E00085EF94E00E940A1F6FEF812F0E94191949
:1032F0000E940B140F900F90DF91CF911F910F91AF
:103300000895CF92DF92EF92FF920F931F93CF9386
:10331000DF9300D0CDB7DEB7182FD62E7A01C22E9C
:103320008FEF860F8530A8F5812F0E94571900E096
:1033300021E040E059E06DE370E0CE0101960E948B
:10334000B31889819A810E94F4134D2D4C2960E0B5
:1033500070E0812F0E94FC18E114F10411F0B70114
:103360000AC06091F3047091F4046F5F7F4F709313
:10337000F4046093F304812F0E94081941E050E0A7
:10338000612F85EF94E00E940A1F0E940B1481E0D8
:1033900001C080E00F900F90DF91CF911F910F91AE
:1033A000FF90EF90DF90CF900895CF92DF92EF9251
:1033B000FF920F931F93CF93DF9300D0CDB7DEB76B
:1033C000182F7B016A01FB0180818F3F51F48181BD
:1033D0008F3F99F482818F3F81F483818F3F69F41D
:1033E00030C081110AC0FB018181811106C0828138
:1033F000811103C08381882321F1C114D10409F113
:1034000000E021E040E059E06DE370E0CE0101967C
:103410000E94B31889819A810E94F413B701812F09
:103420000E94E518B601812F0E941E1944E050E069
:10343000612F85EF94E00E940A1F0E940B1481E027
:1034400001C080E00F900F90DF91CF911F910F91FD
:10345000FF90EF90DF90CF9008950F931F93CF933D
:10346000DF9300D0CDB7DEB7182F00E021E040E0B9
:1034700059E06DE370E0CE0101960E94B318898196
:103480009A810E94F41348E050E0612F85EF94E0A8
:103490000E940A1F0E940B140F900F90DF91CF9192
:1034A0001F910F910895BF92CF92DF92EF92FF92FA
:1034B0000F931F93CF93DF9300D01F92CDB7DEB74A
:1034C000B82E6B017A01413088E0580718F0E12CE2
:1034D00098E0F92E00E021E040E059E06DE370E073
:1034E000CE0101960E94B31889819A810E94F4133B
:1034F0006B2D85EF94E00E94781D8C0163E070E0F5
:103500008B2D0E94EE188B830E940B148B818731C8
:1035100011F08C3131F40E9433250E151F05D0F2C5
:1035200002C0E12CF12C00E021E040E059E06DE325
:1035300070E0CE0101960E94B31889819A810E94A1
:10354000F4139701A6016B2D85EF94E00E94371EBE
:1035500040E250E06B2D85EF94E00E940A1F8B2D16
:103560000E94F81884FD22C063E070E08B2D0E9459
:10357000EE18811108C00E940B148B2D0E94571960
:1035800080E090E01AC00E940B140E94332500E0F6
:1035900021E040E059E06DE370E0CE0101960E9429
:1035A000B31889819A810E94F413D9CF60E18B2DE1
:1035B0000E9419190E940B14C7010F900F900F90D1
:1035C000DF91CF911F910F91FF90EF90DF90CF90FF
:1035D000BF900895AF92BF92CF92DF92EF92FF9289
:1035E0000F931F93CF93DF9300D0CDB7DEB7182F83
:1035F0005B016A0100E021E040E059E06DE370E02A
:10360000CE0101960E94B31889819A810E94F41319
:10361000612F85EF94E00E94AC1D7C010097A1F41E
:1036200063E070E0812F0E94EE18843119F1882345
:1036300009F121E030E08C3111F420E030E0EE249B
:10364000FF24E21AF30A16C0C816D9060CF4760154
:103650001E141F047CF400E09701A501612F85EF83
:1036600094E00E94BA1E40E450E0612F85EF94E0A0
:103670000E940A1F0E940B14C7010F900F90DF9148
:10368000CF911F910F91FF90EF90DF90CF90BF905F
:10369000AF9008950F931F93CF93DF9300D000D086
:1036A000CDB7DEB7182F00E021E040E059E06DE330
:1036B00070E0CE0101960E94B31889819A810E9420
:1036C000F413612F85EF94E00E94AC1D8B839C83E3
:1036D0000E940B148B819C810F900F900F900F9084
:1036E000DF91CF911F910F910895EF92FF920F9369
:1036F0001F93CF93DF9300D0CDB7DEB7182F7B0198
:1037000000E021E040E059E06DE370E0CE01019679
:103710000E94B31889819A810E94F41301E021E08C
:1037200030E0A701612F85EF94E00E94BA1E0E944D
:103730000B1481E090E00F900F90DF91CF911F91DB
:103740000F91FF90EF90089508959F92AF92BF92CE
:10375000CF92DF92EF92FF920F931F93CF93DF935D
:1037600000D0CDB7DEB7982E6B015A01790100E089
:1037700021E040E059E06DE370E0CE0101960E9447
:10378000B31889819A810E94F413692D85EF94E022
:103790000E94781D8E159F0530F4692D85EF94E009
:1037A0000E94781D7C0187019501A601692D85EF96
:1037B00094E00E94C81D0E940B14C7010F900F9047
:1037C000DF91CF911F910F91FF90EF90DF90CF90FD
:1037D000BF90AF909F900895CF92DF92EF92FF92AB
:1037E0000F931F93CF93DF9300D0CDB7DEB7182F81
:1037F0007B016A01FB018081811109C081818111F6
:1038000006C08281811103C083818823F1F0C11435
:10381000D104D9F000E021E040E059E06DE370E030
:10382000CE0101960E94B31889819A810E94F413F7
:10383000B701812F0E94E518B601812F0E941E1941
:103840000E940B1481E090E002C080E090E00F90B5
:103850000F90DF91CF911F910F91FF90EF90DF902C
:10386000CF9008950F931F93CF93DF9300D0CDB7E0
:10387000DEB7182F00E021E040E059E06DE370E092
:10388000CE0101960E94B31889819A810E94F41397
:1038900040E250E0612F85EF94E00E940A1F812FE3
:1038A0000E94F81884FD21C0812F0E94F81883FF20
:1038B00009C068E1812F0E9419190E940B1480E051
:1038C00090E01BC00E940B140E94332500E021E011
:1038D00040E059E06DE370E0CE0101960E94B3181C
:1038E00089819A810E94F413DACF60E1812F0E94CE
:1038F00019190E940B1481E090E00F900F90DF9156
:10390000CF911F910F9108958EBD00000DB407FE59
:10391000FDCF8EB508952A9808952A9A08951F9389
:10392000CF93DF9300D0CDB7DEB7182F6A8399838A
:103930000E948B1C80EF0E94841C9981892F0E9419
:10394000841C812F0E94841C6A81862F0E94841C03
:103950000E948D1C81E00F900F90DF91CF911F91FD
:103960000895CF93DF93EC016CE271E080E090E08A
:103970000E94D3230E941A1F229A80910705882350
:1039800081F0813051F48DB3809305059DB3809112
:103990000605809589238DBB04C08FB780930505EC
:1039A000F89480E58CBD1DBC60E880E090E00E944A
:1039B0008F1C65E58BE190E00E948F1C65E58AE134
:1039C00090E00E948F1C90910705992339F0809117
:1039D0000505913011F48DBB01C08FBF80E090E4EC
:1039E0009983888380E090E69987888780E098E4CF
:1039F0009B838A8380E098E69B878A8780E090E5B6
:103A00009D838C8380E090E79D878C8780E098E59C
:103A10009F838E8380E098E79F878E87DF91CF9189
:103A20000895CF92DF92EF92FF920F931F93CF935F
:103A3000DF93EC017A018B016C01C40ED51ECC150D
:103A4000DD05A1F00E948B1C80EF0E94841C8D2F4D
:103A50000E94841C8C2F0E94841C2196F801819165
:103A60008F010E94841C0E948D1CE9CFC701DF9149
:103A7000CF911F910F91FF90EF90DF90CF9008951D
:103A80001F93CF93DF931F92CDB7DEB7182F998383
:103A90000E948B1C8FE00E94841C9981892F0E94B8
:103AA000841C812F0E94841C80E00E94841C8983D6
:103AB0000E948D1C89810F90DF91CF911F910895F5
:103AC0001F93CF93DF93182F60E270E00E94EE18EF
:103AD000C82FD0E061E270E0812F0E94EE18DC2F49
:103AE000CC279E01282BC901DF91CF911F9108950A
:103AF000FF920F931F93CF93DF93F62EC0E0D0E099
:103B00008F2D0E94601D8C01009721F08F2D0E9447
:103B1000601DEC01C017D10799F7CE01DF91CF915D
:103B20001F910F91FF9008951F93CF93DF93182F4C
:103B300066E270E00E94EE18C82FD0E067E270E005
:103B4000812F0E94EE18DC2FCC279E01282BC90163
:103B5000DF91CF911F910895FF920F931F93CF9301
:103B6000DF93F62EC0E0D0E08F2D0E94941D8C01D3
:103B7000009721F08F2D0E94941DEC01C017D107F2
:103B800099F7CE01DF91CF911F910F91FF9008958A
:103B90006F927F929F92AF92BF92CF92DF92EF92FD
:103BA000FF920F931F93CF93DF931F92CDB7DEB792
:103BB000D82E962E3A01590164E270E0892D99833E
:103BC0000E94EE18E82EF12C65E270E0892D0E942B
:103BD000EE18FE2CEE24E82AE60CF71C970137704D
:103BE0006D2C9981792E690C711C690C711CD301A3
:103BF000ED91FC91E20FF31FC901800F911F8130FD
:103C00009840A0F0C12C48E0D42EC21AD30AA601D5
:103C1000B501CF010E94111DA8014C195D09B50124
:103C20006C0D7D1DF3018081918103C0A801B50158
:103C3000CF010E94111DE00EF11E4F2D64E270E0D5
:103C4000892D0E94FC184E2D65E270E0892D0F90A1
:103C5000DF91CF911F910F91FF90EF90DF90CF9068
:103C6000BF90AF909F907F906F900C94FC180F9333
:103C70001F9389019A0140E050E00E94C81D1F91E6
:103C80000F910895CF92DF92EF92FF920F931F93BF
:103C9000CF93DF93EC017A018B016C01C40ED51E2A
:103CA000CC15DD05A9F00E948B1C8FE00E94841CBE
:103CB0008D2F0E94841C8C2F0E94841C219680E0F2
:103CC0000E94841CF80181938F010E948D1CE8CF13
:103CD000C701DF91CF911F910F91FF90EF90DF907F
:103CE000CF900895AF92BF92CF92DF92EF92FF9262
:103CF0000F931F93CF93DF9300D0CDB7DEB75A83D6
:103D000049835901E981FA81F7707C01E60EF11CC3
:103D1000E60EF11CD70118968D919C9119978E0F84
:103D20009F1F98012E0F3F1F2130384098F0C12C63
:103D300068E0D62ECE1ADF0AA601B5010E94421E07
:103D4000A8014C195D09B5016C0D7D1DF701808539
:103D5000918502C0A801B5010F900F90DF91CF911E
:103D60001F910F91FF90EF90DF90CF90BF90AF9099
:103D70000C94421E8F929F92AF92BF92CF92DF928D
:103D8000EF92FF920F931F93CF93DF936C01962EC8
:103D90005A017901802E68E270E0892D0E94EE18A8
:103DA000C82FD0E069E270E0892D0E94EE18DC2F68
:103DB000CC27C82B87019501AE01692DC6010E9451
:103DC000721E81101AC0CE0DDF1D4D2F68E270E00B
:103DD000892D0E94FC184C2F69E270E0892DDF913B
:103DE000CF911F910F91FF90EF90DF90CF90BF90F8
:103DF000AF909F908F900C94FC18DF91CF911F9102
:103E00000F91FF90EF90DF90CF90BF90AF909F9079
:103E10008F900895CF93C62F61E070E08C2F0E94A1
:103E2000FC1861E070E08C2F0E94EE188111F9CF30
:103E3000CF91089561E08AE00E94B52461E08AE0B4
:103E40000E947C248CB580618CBD8CB580648CBD57
:103E500061E08DE00E947C2461E08BE00C947C2486
:103E60000F931F93CF93DF93EC018B0160EF72E010
:103E70000E940B0ED80114968D919C911597DC0130
:103E8000ED91FC910480F581E02D09951816190635
:103E9000ACF4F80184819581DC01ED91FC91068000
:103EA000F781E02D09958A3049F08D3019F38F3F65
:103EB00009F3682FCE010E948C0EDCCFCE01DF917A
:103EC000CF911F910F910895AF92BF92CF92DF9241
:103ED000EF92FF920F931F93CF93DF93CDB7DEB78F
:103EE000C555D1090FB6F894DEBF0FBECDBF8C010A
:103EF00089E1E1EFF2E0DE01119601900D928A95E1
:103F0000E1F780E00E9436240E94EB247E0183E3E7
:103F1000E80EF11C6701A0E1CA0ED11C570120E098
:103F200031E040E050E061E070E080E090E00E942D
:103F30001725F70161937F01EC15FD0581F740E13D
:103F400050E0B501CE014A960E94542DFE017A96AA
:103F5000DE011196CE01C29621912D93E817F90743
:103F6000D9F760E271E0D80114968D919C91159774
:103F70000E94400BF80160817181848195810E94CB
:103F8000730B64E171E0D80114968D919C911597A3
:103F90000E94400B6FEF70E0F801848195810E94D0
:103FA000400B69EE70E0D80114968D919C911597A5
:103FB0000E94400B62EE70E0F801848195810E94BE
:103FC000400BD80112966D917C91139714968D91A8
:103FD0009C9115970E94730B6EEE72E0F80184813C
:103FE00095810E94730B6EEC70E0D80114968D9150
:103FF0009C9115970E94400BBE016F5F7F4FF801A7
:10400000848195810E94730B6EEE72E0D801149644
:104010008D919C9115970E94730B62EB70E0F801F3
:10402000848195810E94400B6EEE72E0D801149657
:104030008D919C9115970E94730BF8018481958155
:10404000DC01ED91FC910488F589E02D0995882328
:1040500069F0F80184819581DC01ED91FC91048087
:10406000F581E02D0995892B09F455C0F80184816B
:104070009581DC01ED91FC910480F581E02D09959D
:10408000892B39F462E370E080E090E00E94D32352
:10409000EDCF60EF72E0CE01805B9F4F0E940B0E70
:1040A00060EF72E0CE01865B9F4F0E940B0EB8015D
:1040B000CE018C5B9F4F0E94301FBE016C5B7F4F17
:1040C000CE01865B9F4F0E94210E60EF72E00E943E
:1040D0000A0FF82ECE018C5B9F4F0E949D0DF110B0
:1040E00021C0BE01665B7F4FCE018C5B9F4F0E945B
:1040F000380E6AE0CE018C5B9F4F0E94CC0EBC0153
:10410000CE01805B9F4F0E94850ECE018C5B9F4F3E
:104110000E949D0DCCCF62E370E080E090E00E94B1
:10412000D3238BCFBE01605B7F4F85EB93E00E9472
:10413000AC0BCE01865B9F4F0E949D0DCE01805B34
:104140009F4F0E949D0D81E0CB5ADF4F0FB6F89430
:10415000DEBF0FBECDBFDF91CF911F910F91FF90BA
:10416000EF90DF90CF90BF90AF900895CF93DF9303
:10417000EC018C819D81DC01ED91FC910190F0813D
:10418000E02D67E809958C819D81DC01ED91FC9122
:104190000190F081E02D60E009958C819D81DC012A
:1041A000ED91FC910284F385E02D09956AE070E0C1
:1041B00080E090E00E94D3238C819D81DC01ED9111
:1041C000FC910288F389E02DDF91CF910994CF9380
:1041D000DF93EC017D836C83DB01ED91FC9104881E
:1041E000F589E02DCB010995882349F0CE010E9485
:1041F000641F81110CC0CE010E94B62006C06AE087
:1042000073E085EB93E00E94BE0B80E001C081E08B
:10421000DF91CF910895CF93DF93EC018C819D8145
:10422000DC01ED91FC910480F581E02D0995892B4D
:1042300039F462E370E080E090E00E94D323EECF97
:104240008C819D81DC01ED91FC910680F781E02D50
:10425000DF91CF9109948F929F92AF92BF92CF92AC
:10426000DF92EF92FF920F931F93CF93DF93CDB71F
:10427000DEB7C450D1400FB6F894DEBF0FBECDBF3D
:104280008C019E012F5F3F4F690180E091E0D901D1
:10429000FC011D923197E9F7D80114968D919C91FC
:1042A0001597DC01ED91FC910488F589E02D0995C5
:1042B000882309F4FEC0F80184819581DC01ED9129
:1042C000FC910480F581E02D0995892B09F4F1C05A
:1042D000C8010E940B21F80184819581DC01ED91D8
:1042E000FC910488F589E02D0995882309F4E1C043
:1042F000C8010E940B217C018038910530F0E894C0
:10430000E7F8FF24BB24B39401C0B12CF8018481E9
:104310009581DC01ED91FC910488F589E02D0995EA
:10432000882309F4C6C0BEE7EB16F10431F5C801D5
:104330000E940B21A82EF80184819581DC01ED916A
:10434000FC910488F589E02D0995882309F4B1C012
:10435000C8010E940B21E12CF12CFA2CE82AF92A41
:10436000F80184819581DC01ED91FC910488F58947
:10437000E02D0995811106C09CC0BFE7EB16F10442
:1043800009F4FFCFB11004C05601EC0CFD1C8EC027
:10439000C8010E940B21CF5FDE4F8883C150D140FE
:1043A000F80184819581DC01ED91FC910488F58907
:1043B000E02D0995882309F47CC0C8010E940B21D7
:1043C000CE5FDE4F8883C250D140F8018481958151
:1043D000DC01ED91FC910488F589E02D0995882395
:1043E00009F467C0C8010E940B21CD5FDE4F8883AE
:1043F000C350D140F80184819581DC01ED91FC919D
:104400000488F589E02D0995882309F452C0C80174
:104410000E940B21CC5FDE4F8883C450D140F8014D
:1044200084819581DC01ED91FC910488F589E02D72
:1044300009958823F1F14601A12CB12CAE14BF04DB
:10444000C1F1C8010E940B21F501E370FF2721E0B3
:1044500031E02C0F3D1FE20FF31F90819827D4010C
:104460009D934D01F80184819581DC01ED91FC91D2
:104470000488F589E02D09958823D9F0BFEFAB1AA0
:10448000BB0ADCCFC8010E940B21F50181935F01BB
:10449000D80114968D919C911597DC01ED91FC91BA
:1044A0000488F589E02D0995882319F0AE14BF041E
:1044B00049F7C601CC5FDE4F0FB6F894DEBF0FBEE2
:1044C000CDBFDF91CF911F910F91FF90EF90DF90C3
:1044D000CF90BF90AF909F908F900895CF92DF9232
:1044E000EF92FF920F931F93CF93DF938C017B0189
:1044F000EB0109900020E9F72197C61BD70BDC01DF
:1045000014968D919C911597DC01ED91FC91019091
:10451000F081E02D61E80995F80184819581DC0145
:10452000ED91FC910190F081E02DCE37D1050CF496
:1045300068C06FE70995F80184819581DC01ED91F0
:10454000FC910190F081E02DBE01770F660B762F74
:104550000995F80184819581DC01ED91FC91019030
:10456000F081E02DBE01770F660B762F0995F801DB
:1045700084819581DC01ED91FC910190F081E02D29
:10458000BE01770F660B762F0995F801848195811E
:10459000DC01ED91FC910190F081E02DBE01770FDF
:1045A000660B762F0995F80184819581DC01ED91E8
:1045B000FC91770F660B762F0190F081E02D099525
:1045C000F80184819581DC01ED91FC91770F660BF8
:1045D000762F0190F081E02D0995F8018481958175
:1045E000DC01ED91FC910190F081E02D6D2F09959A
:1045F000F80184819581DC01ED91FC910190F081BD
:10460000E02D6C2F09956701C6018E199F098C1743
:104610009D0774F4F80184819581D6016D916D0137
:10462000DC01ED91FC910190F081E02D0995ECCF3A
:10463000DF91CF911F910F91FF90EF90DF90CF907E
:1046400008950F931F93CF93DF9300D0CDB7DEB7BC
:104650008C01DC0114968D919C911597DC01ED91F4
:10466000FC910488F589E02D69837A830995698135
:104670007A81882349F0C8010F900F90DF91CF9184
:104680001F910F910C946E220F900F90DF91CF919C
:104690001F910F9108950F9300E020E040E060E04B
:1046A00088E095E00E94CC0A0F9108950C94BE30EA
:1046B0000C9456311F920F920FB60F9211242F9324
:1046C0003F938F939F93AF93BF9380910F059091EA
:1046D0001005A0911105B091120530910E0523E04F
:1046E000230F2D3720F40196A11DB11D05C026E82A
:1046F000230F0296A11DB11D20930E0580930F0577
:1047000090931005A0931105B093120580911305A5
:1047100090911405A0911505B09116050196A11D63
:10472000B11D8093130590931405A0931505B093C4
:104730001605BF91AF919F918F913F912F910F904F
:104740000FBE0F901F9018952FB7F89460910F052A
:104750007091100580911105909112052FBF089559
:104760003FB7F8948091130590911405A091150519
:10477000B091160526B5A89B05C02F3F19F00196EC
:10478000A11DB11D3FBF6627782F892F9A2F620F79
:10479000711D811D911D42E0660F771F881F991FB3
:1047A0004A95D1F70895CF92DF92EF92FF92CF937F
:1047B000DF936B017C010E94B023EB01C114D10493
:1047C000E104F10489F00E9433250E94B0236C1BA0
:1047D0007D0B683E734090F381E0C81AD108E10870
:1047E000F108C851DC4FEACFDF91CF91FF90EF90F5
:1047F000DF90CF900895789484B5826084BD84B5AD
:10480000816084BD85B5826085BD85B5816085BDCB
:10481000EEE6F0E0808181608083E1E8F0E01082E4
:10482000808182608083808181608083E0E8F0E025
:10483000808181608083E1EBF0E08081846080830F
:10484000E0EBF0E0808181608083EAE7F0E0808146
:1048500084608083808182608083808181608083A6
:104860008081806880831092C10008958E3008F0A6
:104870008E5087702091120190E4299F900111249D
:10488000822B80937C0080917A00806480937A00F0
:1048900080917A0086FDFCCF80917800209179008C
:1048A00090E0922B0895833081F028F4813099F0C4
:1048B0008230A1F008958730A9F08830B9F08430B3
:1048C000D1F4809180008F7D03C0809180008F772C
:1048D00080938000089584B58F7702C084B58F7D62
:1048E00084BD08958091B0008F7703C08091B0009F
:1048F0008F7D8093B0000895CF93DF9390E0FC010B
:10490000E75CFE4F2491FC01E35BFE4F849188231A
:1049100049F190E0880F991FFC01E559FE4FA591E0
:10492000B4918F599E4FFC01C591D4919FB76111ED
:1049300008C0F8948C91209582238C9388818223DF
:104940000AC0623051F4F8948C91322F3095832351
:104950008C938881822B888304C0F8948C91822B5D
:104960008C939FBFDF91CF9108950F931F93CF93A7
:10497000DF931F92CDB7DEB7282F30E0F901EB5D52
:10498000FE4F8491F901E75CFE4F1491F901E35B5E
:10499000FE4F04910023C9F0882321F069830E940F
:1049A00053246981E02FF0E0EE0FFF1FEF59FE4F17
:1049B000A591B4919FB7F8948C91611103C01095A3
:1049C000812301C0812B8C939FBF0F90DF91CF91EA
:1049D0001F910F910895009729F0BC0180E090E0AD
:1049E0000C9439320895CF93DF9300D000D0CDB727
:1049F000DEB79B01AC01611571058105910569F078
:104A000069833A834B835C830E94343229813A81E3
:104A10004B815C810E94452E03C060E070E0CB01B9
:104A20000F900F900F900F90DF91CF910895CF923C
:104A3000DF92EF92FF926B017C016217730784078C
:104A4000950764F4CA01B9016C197D098E099F09A3
:104A50000E94F3246C0D7D1D8E1D9F1DFF90EF9015
:104A6000DF90CF90089508950E9624E1FC011192F5
:104A70002A95E9F70895CF93DF93EC01625F7F4FAA
:104A80000E94D80ACE01DF91CF910895CF93DF9392
:104A9000EC016E5E7F4F0E94D80ACE01DF91CF916C
:104AA0000895CF93DF93EC016A5E7F4F0E94D80A8E
:104AB000CE01DF91CF910895CF93DF93EC01625E39
:104AC0007F4F0E94D80ACE01DF91CF91089580E3F5
:104AD000FB0180833296842F82958F7090E1899FAD
:104AE000401911244A3014F4405D01C0495C4293DE
:104AF000882311F0482FEFCF08950F9300E020E0B6
:104B000040E060E087E195E00E94CC0A0F910895B3
:104B10006F927F928F929F92AF92BF92CF92DF92CD
:104B2000EF92FF920F931F93CF93DF93CDB7DEB732
:104B3000AC970FB6F894DEBF0FBECDBF7C01862EBA
:104B4000B42EA52E20E2922ECE0101966C01FC011E
:104B5000292D11922A95E9F70FEF2FEF4FEF6FEF05
:104B600086960E94CC0A85E792E09AA389A389A53C
:104B70009AA5ABA5BCA58BA39CA3ADA3BEA387019F
:104B8000095B1F4F43E450E0BE016F5D7F4FC801DA
:104B90000E943917019609F4BFC081E089838A8396
:104BA00086E0782E7B821C82F70164817581868184
:104BB00097810E94642E6D837E838F839887A98658
:104BC000BA8680E890E09C878B874CE150E0B60184
:104BD000C8010E944517F601292D11922A95E9F77F
:104BE000570188E0A80EB11CF501D60101900D9285
:104BF0007A94E1F740E150E0B601C8010E94451700
:104C0000F60111929A94E9F796E0692E712C40E230
:104C100050E0B601C8010E944517F1E06F1A710813
:104C2000B1F783E6898392E89A8393E59B838C832B
:104C300085E38D8381E08E838F829DE3988797E063
:104C400099878A8786E0F501DE011B9601900D9217
:104C50008A95E1F78CE0898B8A8B6DE173E0CE0158
:104C600043960E94E235F7014385BE01675E7F4FA0
:104C7000C7010E946725F7014485BE01655E7F4F2D
:104C8000C7010E946725F7014585BE01635E7F4F1E
:104C9000C7010E9467254EE150E0B601C8010E949D
:104CA0004517F3E08F121EC082E3898384E08A8374
:104CB000F70196859B8397859C8390899D83918935
:104CC0009E8396E39F838887828D8987838D8A87D9
:104CD000848D8B87858D8C874CE050E0B601C801B0
:104CE0000E94451787E3898386E08A8391E09B834E
:104CF00093E09C838D838FE08E838AE38F838BE3A5
:104D000088878FEF898749E050E0B601C8010E948B
:104D10004517C8010E944117AC960FB6F894DEBF44
:104D20000FBECDBFDF91CF911F910F91FF90EF90FC
:104D3000DF90CF90BF90AF909F908F907F906F90BB
:104D400008952F923F924F925F926F927F928F922F
:104D50009F92AF92BF92CF92DF92EF92FF920F930A
:104D60001F93CF93DF93CDB7DEB7E3970FB6F894D9
:104D7000DEBF0FBECDBF7C012A013B0169010E944D
:104D8000A4234B015C018701095B1F4FC8010E94EE
:104D9000E5171816190694F00E94A42368197909DA
:104DA0008A099B094616570668067906F0F062E301
:104DB00070E080E090E00E94D323E8CF42E250E030
:104DC000BE016F5F7F4FC8010E94821789818230C8
:104DD00031F4F801858996898334910541F019A64B
:104DE000C8010E94121789A562C18FEF60C16D8151
:104DF0007E818F8198850E94642E4B015C01F601B3
:104E0000608371838283938346E050E0B701685FDB
:104E10007F4FCE014D960E94C335892B99F4F7013F
:104E200080819181A281B38188169906AA06BB066A
:104E300048F084819581A681B78188159905AA05D6
:104E4000BB0528F4C8010E94121780E030C189898F
:104E50009A89AB89BC89F70186879787A08BB18B2C
:104E60003EECC32ED12CC8010E945917F1E0CF1A95
:104E7000D108C9F719A6C70182969BA78AA7F7018F
:104E8000B696FDA7ECA708969FA78EA73C976F0143
:104E90008E9699AB88AB3897FBABEAAB5701F6E13E
:104EA000AF0EB11C47018EE1880E911CC8010E9413
:104EB000F816181619060CF093CFC8010E9459175E
:104EC0008333910509F4C9C0F4F481309105B9F137
:104ED0001CF4892B59F3DBC083309105C1F106978F
:104EE00009F0D5C0C8010E9459173C0144E050E0C8
:104EF000B401C8010E948217212C312C7724F4E0E0
:104F00006F1A71083FC08A33910509F47AC03CF4E6
:104F10008533910561F0C69709F43FC0B8C08B3363
:104F2000910509F484C08F3F910501F2B0C0C8011A
:104F30000E945917C8010E94591789A7B7CFC80105
:104F40000E94591744E050E06AA97BA936C0C80105
:104F50000E9459173C0144E050E0B501C8010E948D
:104F60008217212C312C772494E0691A71082614B9
:104F700037040CF09BCFC8010E945917EFEF2E1A8F
:104F80003E0AF5CF261437040CF090CFC8010E94DA
:104F900059178FEF281A380AF5CFC8010E94591700
:104FA000782EF701828D938DA48DB58D892B8A2B58
:104FB0008B2B39F444E050E0B601C8010E948217FF
:104FC00075CFE8A9F9A92080318042805380B601CD
:104FD000CE0183960E94D80A8DA19EA1AFA1B8A54B
:104FE00082159305A405B50529F3212C312C7214E3
:104FF00009F45CCFC8010E945917FFEF2F1A3F0A2E
:10500000F6CFC8010E94591744E050E06CA57DA579
:10501000C8010E948217F70166A177A180A591A51A
:105020000E94642E66A377A380A791A73FCFC801F3
:105030000E94591744E050E06EA57FA5C8010E9468
:105040008217F70162A573A584A595A50E94642E19
:1050500062A773A784A795A729CFC8010E945917F3
:1050600044E050E06AA57BA5C8010E948217F701C1
:1050700062A173A184A195A10E94642E62A373A36F
:1050800084A395A366A777A780AB91AB0FCFC80188
:105090000E945917382E612C712C361409F406CF52
:1050A000C8010E945917FFEF6F1A7F0AF6CFE396E7
:1050B0000FB6F894DEBF0FBECDBFDF91CF911F9129
:1050C0000F91FF90EF90DF90CF90BF90AF909F90A7
:1050D0008F907F906F905F904F903F902F900895AA
:1050E0002F923F924F925F926F927F928F929F92F8
:1050F000AF92BF92CF92DF92EF92FF920F931F93E6
:10510000CF93DF93CDB7DEB727970FB6F894DEBF06
:105110000FBECDBF8C0120ED37E040E050E061E0F4
:1051200070E080E090E00E941725D80114966D93FE
:105130007D938D939C931797F8016083718382838D
:1051400093834801F7E48F0E911CC4010E94241739
:1051500064E470E0C4010E94B817882309F428C1F0
:105160000E94A4236B017C01A12CB12C1D8218018B
:1051700086E4280E311CD801DE96BF83AE8338EE5C
:10518000432E33E0532E612C712CF101808183304A
:1051900009F4FDC081111FC0F80184819581A681A9
:1051A000B7810196A11DB11D84839583A683B78322
:1051B0000E94A4236C197D098E099F09A301920105
:1051C0000E94232EA90161E0C8010E94882581E088
:1051D000D1018C93BEC08430F9F4F80184819581AB
:1051E000A681B7810196A11DB11D84839583A683F5
:1051F000B7830E94A4236C197D098E099F09A3011E
:1052000092010E94232EA90163E0C8010E94882513
:10521000E2E0D101EC939DC0813061F5AE81BF81A8
:105220004D915D916D917C919E012F5F3F4FC80123
:105230000E94A1268D83823009F08BC089819A81DA
:10524000AB81BC81F80184839583A683B7830E94D8
:10525000A4236C197D098E099F09A30192010E9464
:10526000232EA90163E0C8010E948825ED81D101A8
:10527000EC9375C0823009F06CC0AE81BF814D9156
:105280005D916D917C919E012F5F3F4FC8010E94FF
:10529000A1268D83853009F056C083E0F10180831B
:1052A000F80182A193A1A4A1B5A1892B8A2B8B2BF4
:1052B00041F484E893E0A0E0B0E082A393A3A4A328
:1052C000B5A3F80186A197A1A0A5B1A5892B8A2B2A
:1052D0008B2B61F482A193A1A4A1B5A1B695A7954A
:1052E0009795879586A397A3A0A7B1A7D8019A966B
:1052F0004D915D916D917C919D9796968D919D912B
:105300000D90BC91A02D452B462B472B59F4AC0199
:10531000BD01440F551F661F771FF80142A753A711
:1053200064A775A7F80186A797A7A0ABB1AB82A524
:1053300093A5A4A5B5A582AB93ABA4ABB5ABAA24AA
:10534000A394B12C0CC0FD81F63019F4D1011C924C
:1053500006C0BD81BF3F19F4F10110821D82F1E04A
:10536000AF16B10409F411CF0E94A4236C197D0972
:105370008E099F09D801DA962D913D914D915C914E
:10538000DD97261737074807590708F0FECEC401F6
:105390000E942417F80184819581A681B781019626
:1053A000A11DB11D84839583A683B783C50102C067
:1053B00080E090E027960FB6F894DEBF0FBECDBF19
:1053C000DF91CF911F910F91FF90EF90DF90CF90E1
:1053D000BF90AF909F908F907F906F905F904F9015
:1053E0003F902F900895CF92DF92EF92FF920F930C
:1053F0001F93CF93DF93EC016B011AA21BA21CA297
:105400001DA21EA21FA218A619A61AA61BA61CA69C
:105410001DA61EAA1FAA18AE19AE2AAF3BAF4CAFED
:105420005DAFFC01FE96E082F182028313838C0162
:10543000085F1F4F86E0F80111928A95E9F7CE01C7
:105440000E94342586E0F601D80101900D928A95DC
:10545000E1F7FE01EA5BFF4F1082CE01DF91CF91B1
:105460001F910F91FF90EF90DF90CF900C947028D8
:10547000FB014281538164817581FC014283538326
:1054800064837583178216820895CF93FB018191FF
:105490008111FDCFFB0180E090E020E030E0CAE028
:1054A0006191662309F12430310564F56E3271F49F
:1054B0008F3F910509F034F5DA01A20FB31F129660
:1054C0008C932F5F3F4F80E090E0EACFDC01CA9FD2
:1054D000C001CB9F900D1124772767FD7095605315
:1054E0007109860F971FDCCF8F3F910509F054F4A7
:1054F000243031053CF4FA01E20FF31F828381E08E
:1055000090E002C080E090E0CF9108950F9300E01A
:1055100020E040E060E08DE195E00E94CC0A0F9130
:105520000895AF92BF92CF92DF92EF92FF920F93C6
:105530001F93CF93DF9300D01F92CDB7DEB76C01DE
:105540007B010E94A423F601778366838601085FAE
:105550001F4FB6016A5F7F4F42E050E0C8010E94D2
:10556000451781E090E09A83898342E050E0BE01D4
:105570006F5F7F4FC8010E94451780E091E09A83DA
:10558000898342E050E0BE016F5F7F4FC8010E94F7
:1055900045171A82198242E050E0BE016F5F7F4FCB
:1055A000C8010E94451742E050E0BE016F5F7F4F87
:1055B000C8010E94451742E050E0BE016F5F7F4F77
:1055C000C8010E9445176701F6018081882311F107
:1055D000F7016F018191811115C05601AE18BF0806
:1055E0001A141B0494F4AB8241E050E0BE016D5FDD
:1055F0007F4FC8010E944517A501B701C8010E944D
:10560000451703C08E3229F7E8CF7601FFEFEF1A76
:10561000FF0ADACF1B8241E050E0BE016D5F7F4F91
:10562000C8010E944517E12CFF24F394FA82E98215
:1056300042E050E0BE016F5F7F4FC8010E944517F6
:10564000FA82E98242E050E0BE016F5F7F4FC801FD
:105650000E94451781E090E00F900F900F90DF912E
:10566000CF911F910F91FF90EF90DF90CF90BF905F
:10567000AF9008954F925F926F927F928F929F9218
:10568000AF92BF92CF92DF92EF92FF920F931F9350
:10569000CF93DF93CDB7DEB763970FB6F894DEBF35
:1056A0000FBECDBF7C015B016A010E94A4232B01C8
:1056B0003C018701085F1F4F4501A12CB12CC80197
:1056C0000E94E5171816190694F00E94A423641985
:1056D00075098609970986169706A806B906D0F0B7
:1056E00062E370E080E090E00E94D323E8CFF7010E
:1056F0004281538164817581818D928DA38DB48D9A
:10570000481759076A077B0741F4858D968DC59721
:1057100021F406C08FEF9FEFF9C08EEF9FEFF6C028
:10572000C8010E94F8160C970CF4EEC04CE050E053
:10573000BE016F5F7F4FC8010E9482178B819C81E1
:105740009827892798279A8B898BF701468157815B
:1057500029813A814217530711F497FD06C0C80109
:105760000E9412178CEF9FEFD1C08F709270892B1F
:1057700031F0C8010E9412178BEF9FEFC7C0AF80B6
:10578000B884BA24AB24BA24A114B10419F0E12CD2
:10579000F12C23C0C8010E9412178AEF9FEFB6C0F8
:1057A00041E050E0BE01635F7F4FC8010E94821755
:1057B0008D8581111BC08D858111F2CFC8010E949A
:1057C0005917C8010E945917C8010E945917C801EA
:1057D0000E945917FFEFEF1AFF0A8D819E819827CB
:1057E00089279827E816F906D8F20AC08D859FEF19
:1057F000980F9D878823F9F2C8010E945917F6CFA8
:10580000E12CF12C41E050E0BE016D5E7F4FC801FC
:105810000E9482178B89982F907C61F4882371F005
:105820008B899FEF980F9B8B882341F0C8010E94C2
:105830005917F6CFC8010E9459171B8A8B8981110D
:10584000E1CF42E050E0BE01615F7F4FC8010E949E
:10585000821742E050E0BE01635F7F4FC8010E94A3
:105860008217C8010E945917C8010E945917C80120
:105870000E945917C8010E94591742E050E0BE012A
:105880006F5E7F4FC8010E9482178F8598898115AE
:10589000914029F48D859E858115914019F0812CC8
:1058A000912C16C089899A898115944031F0C801DC
:1058B0000E94121787EF9FEF29C0B6016E5F7F4FDE
:1058C00044E050E0C8010E94821781E090E01EC0D1
:1058D00089899A899827892798278816990638F4FC
:1058E000C8010E9459172FEF821A920AF1CF8FEF49
:1058F000E81AF80AEA14FB0409F084CFC8010E94F0
:10590000121786EF9FEF02C08DEF9FEF63960FB6E1
:10591000F894DEBF0FBECDBFDF91CF911F910F91E5
:10592000FF90EF90DF90CF90BF90AF909F908F90BF
:105930007F906F905F904F9008958F929F92AF925B
:10594000BF92CF92DF92EF92FF920F931F93CF936C
:10595000DF9300D000D000D0CDB7DEB78C015B0163
:105960006A010E94452A4C01009709F05DC0F801C8
:10597000428153816481758180911F05909120053A
:10598000A0912105B0912205481759076A077B07A6
:1059900009F44EC00E94A4237801F8E0EF0EF11C38
:1059A0006F7077277C5FC7010E94B817813009F0BC
:1059B00043C085E792E09A838983F80182819381CD
:1059C000A481B5818B839C83AD83BE8345E350E086
:1059D000BE016F5F7F4FC7010E943917892B19F4F1
:1059E000812C912C1DC0B501C8010E94912A892BE0
:1059F000B9F3C7010E944117892B91F333E0A32E1D
:105A0000B12CA60168E873E1C8010E943A2B4C0151
:105A1000F1E0AF1AB10821F08F3F2FEF920789F321
:105A2000C7010E94241708C088248394912C04C0C5
:105A30009EEF892E99249A94C40126960FB6F89465
:105A4000DEBF0FBECDBFDF91CF911F910F91FF90B1
:105A5000EF90DF90CF90BF90AF909F908F90089580
:105A6000DC01FB018081869586958C9390819370F3
:105A7000818182958F7020E1929F800D1124119673
:105A80008C93119781818F70880F880F92819295E6
:105A9000969596959370890F12968C9312978281A2
:105AA0008F7313968C9308958F929F92AF92BF92AB
:105AB000CF92DF92EF92FF920F931F93CF93DF93DA
:105AC000CDB7DEB727970FB6F894DEBF0FBECDBFB8
:105AD0007C015A016B01A60EB71E00E010E020E029
