:100000000C94F7000C941F010C941F010C941F0119
:100010000C941F010C941F010C941F010C941F01E0
:100020000C941F010C941F010C941F010C941F01D0
:100030000C941F010C941F010C941F010C941F01C0
:100040000C94E7140C941F010C940F040C944104BD
:100050000C941F010C941F010C941F010C941F01A0
:100060000C941F010C941F0144656D6F206578612D
:100070006D706C65206F6E205753436C69656E74AC
:1000800020757361676500436F6E6E656374696F99
:100090006E206661696C65642E00436F6E6E6563E9
:1000A000746564005365632D576562536F636B65B8
:1000B000742D56657273696F6E3A2031330D0A00E4
:1000C0005365632D576562536F636B65742D4B6584
:1000D000793A2000486F73743A2000436F6E6E6562
:1000E0006374696F6E3A20557067726164650D0ABA
:1000F00000557067726164653A20776562736F635B
:100100006B65740D0A0020485454502F312E310D68
:100110000A0047455420005365632D576562536FAD
:10012000636B65742D56657273696F6E3A20313357
:100130000D0A005365632D576562536F636B6574D9
:100140002D4B65793A2000486F73743A2000436F55
:100150006E6E656374696F6E3A2055706772616484
:10016000650D0A00557067726164653A20776562B3
:10017000736F636B65740D0A0020485454502F311F
:100180002E310D0A004745542000000000080002EF
:10019000010000030407000000000000000001024D
:1001A0000408102040800102040810200102040805
:1001B00010200404040404040404020202020202E3
:1001C00003030303030300000000250028002B00A5
:1001D00000000000240027002A00850271041F058A
:1001E0007C085F0A350C1E130A17131CC602112463
:1001F0001FBECFEFD8E0DEBFCDBF12E0A0E0B1E080
:10020000E6EAF5E402C005900D92A039B107D9F7EE
:1002100024E0A0E9B2E001C01D92AC33B207E1F7DF
:1002200011E0CCEED1E004C02297FE010E9409202B
:10023000CA3DD107C9F70E9479020C94C6220C94DA
:1002400000008CEA92E00E94720684EA92E00E942A
:1002500072068EE992E00E94720688E992E00E949E
:10026000720680EC92E00E94720686EC92E00E9498
:1002700072068CEC92E00C9472068F929F92AF9271
:10028000BF92CF92DF92EF92FF920F931F93CF9383
:10029000DF9300D000D000D0CDB7DEB78C014B018A
:1002A0005C0188E0A80EB11C63E171E0C5010E9409
:1002B000E0067801EEE0EE0EF11C64E072E0C701AA
:1002C0000E94E0066801F4E1CF0ED11C64E072E008
:1002D000C6010E94E00680E590E0F801938F828FCE
:1002E000045E1F4FB401C8010E940D0764E271E073
:1002F000CE0101960E94E006B801CE0101960E944F
:1003000042076AE271E00E94550760EC72E00E94C9
:10031000420763E371E00E9455076CEC72E00E94B3
:1003200042076DE371E00E94550766EC72E00E949F
:100330004207BC01C7010E94F606CE0101960E9449
:100340007206B501CE0101960E940D07B701CE01DC
:1003500001960E944207BC01C6010E94F606CE012A
:1003600001960E94720626960FB6F894DEBF0FBE65
:10037000CDBFDF91CF911F910F91FF90EF90DF9054
:10038000CF90BF90AF909F908F900895CF93DF93C1
:10039000EC0168E471E088ED92E00E94CA05888172
:1003A0009981DC01ED91FC914A8D5B8D68857985A1
:1003B0000684F785E02D0995892BC1F08881998104
:1003C000DC01ED91FC910488F589E02D09954AE066
:1003D00050E0682F88ED92E00E945B066AE970E0C9
:1003E00088ED92E0DF91CF910C94B80567E870E05A
:1003F00088ED92E00E94B80560ED77E080E090E043
:100400000E946015C6CF0F931F93CF93DF93EC012B
:100410008B01798368830E94C60168EE73E080E0F7
:1004200090E00E94601560E070E0CE010E960E94A0
:100430006F079B838A8360E070E0CE0108960E947C
:100440006F079D838C83B801CE0102960E94C3146E
:10045000882351F065E571E088ED92E0DF91CF915E
:100460001F910F910C94CA056AE671E088ED92E045
:100470000E94CA05FFCFCF93DF9300D000D000D0F9
:10048000CDB7DEB726E040E855E260E070E088EDE9
:1004900092E00E94AD0368E670E088ED92E00E9471
:1004A000B8056AE071E08EED93E00E94B9076EED49
:1004B00073E0CE0101960E945408BE016F5F7F4F2A
:1004C00088ED92E00E94DC0568EE73E080E090E049
:1004D0000E94601563EB72E080E992E00E940302E3
:1004E00026960FB6F894DEBF0FBECDBFDF91CF9139
:1004F00008950E9488150E943B0287EF92E0892BA5
:1005000019F00E94F702FDCFFFCF0F93CF93DF9337
:1005100000D000D000D0CDB7DEB700E020E040E052
:1005200060E082ED92E00E94F8046CE771E08CECF0
:1005300092E00E94E00666EA71E086EC92E00E949A
:10054000E00662E871E080EC92E00E94E00683EB56
:1005500092E00E94830964E971E0CE0101960E9455
:10056000E006BE016F5F7F4F80E992E00E943D018F
:10057000CE0101960E94720626960FB6F894DEBF51
:100580000FBECDBFDF91CF910F9108950C94210143
:10059000FC01818D228D90E0805C9F4F821B910930
:1005A00060E470E00E948C1F0895FC01918D828DA3
:1005B000981731F0828DE80FF11D858D90E0089538
:1005C0008FEF9FEF0895FC01918D828D981761F058
:1005D000828DDF01A80FB11D5D968C91928D9F5F7A
:1005E0009F73928F90E008958FEF9FEF089587E6B5
:1005F00094E0892B49F080E090E0892B29F00E945B
:10060000670481110C9400000895FC01848DDF01C2
:10061000A80FB11DA35ABF4F2C91848D90E0019675
:100620008F739927848FA689B7892C93A089B18964
:100630008C9180648C93938D848D981306C002886E
:10064000F389E02D80818F7D80830895CF93DF93A0
:10065000EC01888D8823C9F0EA89FB89808185FDBA
:1006600005C0A889B9898C9186FD0FC00FB607FC1B
:10067000F5CF808185FFF2CFA889B9898C9185FF5C
:10068000EDCFCE010E940503E7CFDF91CF91089512
:10069000CF92DF92FF920F931F93CF93DF931F921E
:1006A000CDB7DEB76C01DC015B969C915B975C96E5
:1006B0008C915C97981307C05096ED91FC915197DF
:1006C000808185FD32C0F601038D10E00F5F1F4F62
:1006D0000F731127F02EF601848DF81211C00FB69A
:1006E00007FCF9CFD6015096ED91FC91519780818E
:1006F00085FFF1CFC60169830E9405036981EBCFB5
:10070000838DE80FF11DE35AFF4F6083D6015B969E
:100710000C935B975296ED91FC9153978081806288
:10072000808381E058968C930DC0D6015696ED914A
:10073000FC91579760835096ED91FC915197808181
:100740008064808381E090E00F90DF91CF911F91D2
:100750000F91FF90DF90CF900895BF92CF92DF92DC
:10076000EF92FF92CF93DF93EC016A017B01B22EEF
:10077000E889F98982E08083411581EE5807610597
:100780007105A1F060E079E08DE390E0A7019601AA
:100790000E94A01F215031094109510956954795E2
:1007A00037952795211580E1380798F0E889F98970
:1007B000108260E874E88EE190E0A70196010E9443
:1007C000A01F215031094109510956954795379588
:1007D0002795EC85FD853083EE85FF852083188E77
:1007E000EC89FD89B082EA89FB8980818061808300
:1007F000EA89FB89808188608083EA89FB8980811E
:1008000080688083EA89FB8980818F7D8083DF9186
:10081000CF91FF90EF90DF90CF90BF9008951F92FF
:100820000F920FB60F9211242F938F939F93EF93F4
:10083000FF93E091E802F091E9028081E091EE02FD
:10084000F091EF0282FD12C090818091F1028F5FE2
:100850008F732091F202821751F0E091F102F0E0E3
:10086000E852FD4F958F8093F10201C08081FF9186
:10087000EF919F918F912F910F900FBE0F901F902E
:1008800018951F920F920FB60F9211242F933F933A
:100890004F935F936F937F938F939F93AF93BF9388
:1008A000EF93FF9388ED92E00E940503FF91EF9193
:1008B000BF91AF919F918F917F916F915F914F9178
:1008C0003F912F910F900FBE0F901F90189588EDBC
:1008D00092E00E94C80221E0892B09F420E0822FD7
:1008E00008951092DB021092DA0288EE93E0A0E005
:1008F000B0E08093DC029093DD02A093DE02B0931F
:10090000DF028CEA91E09093D9028093D80285ECC3
:1009100090E09093E5028093E40284EC90E0909361
:10092000E7028093E60280EC90E09093E9028093E6
:10093000E80281EC90E09093EB028093EA0282EC73
:1009400090E09093ED028093EC0286EC90E090931F
:10095000EF028093EE021092F1021092F2021092D6
:10096000F3021092F4020895AF92BF92CF92DF92F9
:10097000EF92FF920F931F93CF93DF936C017B0154
:10098000C0E0D0E000E010E0F601EC0FFD1F4AE00F
:1009900050E06281C7010E9454065C016EE2C7010B
:1009A0000E9493058A0D9B1D080F191F2196C330C5
:1009B000D10551F74AE050E0F6016581C7010E9478
:1009C0005406800F911FDF91CF911F910F91FF90DF
:1009D000EF90DF90CF90BF90AF9008952CEB31E077
:1009E000FC013183208312821382148215820895C0
:1009F0000F93FC018CEB91E09183808362834383AE
:100A0000248305830F9108952CEB31E0FC013183A1
:100A10002083FB014081518162817381FC0142830B
:100A20005383648375830895FB0140815181628102
:100A30007381FC01428353836483758308958CEB37
:100A400091E0909376038093750310927703109250
:100A500078031092790310927A030895CF92DF926F
:100A6000EF92FF920F931F93CF93DF936C017A0164
:100A7000EB01E60EF71E00E010E0CE15DF0561F099
:100A80006991D601ED91FC910190F081E02DC601B4
:100A90000995080F191FF1CFC801DF91CF911F9160
:100AA0000F91FF90EF90DF90CF9008956115710541
:100AB00081F0DB010D900020E9F7AD0141505109B3
:100AC000461B570BDC01ED91FC910280F381E02D78
:100AD000099480E090E00895EF92FF920F931F93A6
:100AE000CF93DF938C01FB01C0E0D0E064917F01E4
:100AF0008FEFE81AF80A662361F0D801ED91FC91B6
:100B00000190F081E02DC8010995C80FD91FF701A8
:100B1000EDCFCE01DF91CF911F910F91FF90EF901C
:100B200008950C945605DC01ED91FC910190F08143
:100B3000E02D0994DB01ED91FC9111970190F0817A
:100B4000E02DBC01CD0109940F931F93CF93DF9348
:100B5000EC016DE00E9493058C016AE0CE010E94D9
:100B60009305800F911FDF91CF911F910F910895F1
:100B70000F931F93CF93DF93EC010E946C058C01C0
:100B8000CE010E94A405800F911FDF91CF911F918C
:100B90000F9108950F931F93CF93DF93EC010E9461
:100BA00056058C01CE010E94A405800F911FDF9194
:100BB000CF911F910F9108950F931F93CF93DF93C0
:100BC000EC010E949A058C01CE010E94A405800FC1
:100BD000911FDF91CF911F910F9108958F929F9256
:100BE000AF92BF92CF92DF92EF92FF920F931F933B
:100BF000CF93DF93CDB7DEB7A1970FB6F894DEBFE2
:100C00000FBECDBF7C01C42EE52FCB01D22E19A281
:100C100021E02D1510F02AE0D22E8E010F5D1F4F1E
:100C20008D2C912CA12CB12C6C2D7E2FA501940123
:100C30000E94A01F8C2DD29E8019112401501109F1
:100C40008A3014F4805D01C0895CF801808321152D
:100C500031054105510521F0C22EE32FCA01E4CF31
:100C6000B801C7010E945605A1960FB6F894DEBFE1
:100C70000FBECDBFDF91CF911F910F91FF90EF90ED
:100C8000DF90CF90BF90AF909F908F9008952115E7
:100C9000310541F4DC01ED91FC910190F081E02DF2
:100CA000642F09940C94EE059A01462F50E060E001
:100CB00070E00C9447060F931F93CF93DF93EC01E2
:100CC0009A01462F50E060E070E00E9447068C01D8
:100CD000CE010E94A405800F911FDF91CF911F913B
:100CE0000F910895FC01808191810C94B420CF93E1
:100CF000DF93EC0188819981009711F00E94B42064
:100D0000198218821D821C821B821A82DF91CF9168
:100D100008950F931F93CF93DF93EC018B016F5FC7
:100D20007F4F888199810E94A021009731F099839B
:100D300088831B830A8381E001C080E0DF91CF912B
:100D40001F910F910895CF93DF93EC0188819981D2
:100D5000892B29F08A819B818617970760F4CE0141
:100D60000E948906882341F08C819D81892B19F48A
:100D7000E881F981108281E0DF91CF910895EF92AF
:100D8000FF920F931F93CF93DF93EC017B018A01B6
:100D9000BA010E94A306811104C0CE010E94770609
:100DA00007C01D830C83B701888199810E9480222E
:100DB000CE01DF91CF911F910F91FF90EF90089599
:100DC000FC01118210821382128215821482611535
:100DD000710559F0FB0101900020E9F7AF01415086
:100DE0005109461B570B0C94BF060895CF93DF9310
:100DF000EC01FB018617970761F060817181611535
:100E0000710529F0448155810E94BF0602C00E94ED
:100E10007706CE01DF91CF910895FC0111821082F7
:100E200013821282158214820C94F606EF92FF92BE
:100E30000F931F93CF93DF93EC017B010C811D81F6
:100E40006115710511F480E016C04115510591F04E
:100E5000040F151FB8010E94A3068823A1F328815F
:100E600039818C819D81B701820F931F0E9480225E
:100E70001D830C8381E0DF91CF911F910F91FF9033
:100E8000EF900895CF93DF93EC01FB0144815581EE
:100E9000608171810E941607811103C0CE010E94FA
:100EA0007706CE01DF91CF910895CF93DF93EC01C8
:100EB0006115710569F0FB0101900020E9F7AF01B0
:100EC00041505109461B570B0E941607811103C060
:100ED000CE010E947706CE01DF91CF910895FC01EB
:100EE000848195816817790720F48081918100972A
:100EF00029F410927B038BE793E00895860F971FE8
:100F0000089520911C04222381F0213051F42DB347
:100F100020931A043DB320911B04209523232DBB5D
:100F200004C02FB720931A04F8948CBD9DBD08957A
:100F300090911C04992339F080911A04913011F496
:100F40008DBB08958FBF089544E050E0BC0181E05F
:100F500090E00C949E1044E050E0BC0185E090E0ED
:100F60000C949E1044E050E0BC018FE090E00C94A3
:100F70009E10AF92BF92CF92DF92EF92FF920F93AB
:100F80001F93CF93DF9300D000D000D0CDB7DEB752
:100F90006C015B018091E603811107C083EC93E053
:100FA0000E94C20B81E08093E6038CE793E0F60198
:100FB000978386838AE094E00E943E1080E590E06B
:100FC0000E94810746E050E0B50189E090E00E9470
:100FD0009E1000E020E040E060E0CE0101960E941B
:100FE000F804CE0103960E94B2070E94980710EA07
:100FF000E12E1FE0F12E00E010E020E63AEE40E0A6
:1010000050E0B501F601868197810E94801B5C014A
:1010100081309105B9F580E590E00E948107F601E5
:1010200066817781CE0101960E94C816CE01039693
:101030000E94B207F60166817781CE0101960E9477
:10104000DE16CE0103960E94A407F6016681778121
:10105000CE0101960E94D316CE0103960E94AB07E3
:101060000E949807F60166817781CE0101960E9461
:10107000E9164B815C816D817E81F6014283538349
:1010800064837583C50126960FB6F894DEBF0FBE44
:10109000CDBFDF91CF911F910F91FF90EF90DF9027
:1010A000CF90BF90AF900895CF93DF93EC010E9453
:1010B000EE0480E590E00E948107BE016E5F7F4FE5
:1010C00044E050E08FE090E00E94CF110E9498072A
:1010D000CE01DF91CF9108952CEB31E0FC013183FB
:1010E0002083FB014281538164817581FC0142832D
:1010F00053836483758308950F9300E020E040E0FC
:1011000060E086EF93E00E94F8048EED93E00F918B
:101110000C94EE04DC01ED91FC91008CF18DE02D3E
:10112000099591E089270895CF93DF931F92CDB75A
:10113000DEB76983DC01ED91FC910280F381E02D43
:1011400041E050E0BE016F5F7F4F09950F90DF9146
:10115000CF91089521E0FC018485843009F420E0DA
:10116000822F0895FC019485FB018485981303C0A8
:1011700081E0943009F480E008950F931F93CF939A
:10118000DF93EC018A018C85843021F00E94E00D10
:10119000892B39F481E090E09B838A8380E090E0A2
:1011A00001C0C801DF91CF911F910F910895FC01FB
:1011B0008485843011F00C94D70E80E090E008957F
:1011C000CF93DF931F92CDB7DEB741E050E0BE0171
:1011D0006F5F7F4FFC0184850E94770E18161906F9
:1011E0001CF4898190E002C08FEF9FEF0F90DF9198
:1011F000CF910895FC0184850C94770E0F931F9373
:10120000CF93DF931F92CDB7DEB78C01DC01ED9158
:10121000FC910480F581E02D0995892B51F0BE01E8
:101220006F5F7F4FF80184850E94020F898190E0F3
:1012300002C08FEF9FEF0F90DF91CF911F910F9121
:101240000895FC0184850C94310FCF92DF92EF92C8
:10125000FF920F931F93CF93DF93CDB7DEB7AF9776
:101260000FB6F894DEBF0FBECDBF7C018B016A01C3
:10127000CE0101960E94EE04CE0109960E94C20B97
:10128000CE018A960E94EE046EED73E0CE01849644
:101290000E946C08BE016C5D7F4FCE0101960E94DA
:1012A000C51BAE01465D5F4FB801CE0101960E949D
:1012B0002A1E81309105C1F4D701ED91FC9104847F
:1012C000F585E02D8CEB91E09DA38CA30CA51DA5CD
:1012D0002EA53FA50EA31FA328A739A7A601BE01CF
:1012E0006C5D7F4FC7010995AF960FB6F894DEBFCE
:1012F0000FBECDBFDF91CF911F910F91FF90EF9067
:10130000DF90CF900895FC011382128248EE53E0E3
:1013100060E070E0448355836683778382EC91E0DC
:101320009183808384E084870895FC0184858430E0
:1013300011F00C94BC0C80E00895DF92EF92FF92C4
:101340000F931F93CF93DF93EC017B018A018C8570
:10135000843009F045C0D12C8D2D0E94BC0C811128
:1013600002C0DC8607C08B7F8831D9F3D39484E038
:10137000D812F2CF8C85843099F1209110013091F0
:1013800011012F5F3F4F11F420E034E03093110141
:1013900020931001409110015091110120E061E073
:1013A0000E940E0DB7016E5F7F4FA8018C850E94D1
:1013B000620D811103C084E08C8712C0CE010E94AF
:1013C0009509873151F061E070E080E090E00E9483
:1013D0006015CE010E949509ECCF81E090E002C03B
:1013E00080E090E0DF91CF911F910F91FF90EF90FF
:1013F000DF900895CF92DF92EF92FF92CF93DF9329
:10140000EC018C85843081F10E94BA0D0E94311567
:101410006B017C01CE010E949509882359F00E943E
:1014200031156C197D098E099F09683E734081054D
:10143000910598F0CE010E949509882319F08C85BA
:101440000E94E40CEC85F0E0EE0FFF1FE251FC4F30
:101450001182108284E08C8707C061E070E080E038
:1014600090E00E946015D6CFDF91CF91FF90EF9072
:10147000DF90CF900895CF93DF93EC018C8584307B
:10148000D1F0CE010E9495098431A9F0882399F00A
:10149000883189F08C3169F4E881F9810480F58123
:1014A000E02DCE01099521E0892B09F420E0822F5F
:1014B00003C081E001C080E0DF91CF9108950F93D8
:1014C00000E020E040E060E08CEF93E00E94F80450
:1014D0000F910895DC01ED91FC91008CF18DE02DD0
:1014E00009942CEB31E0FC0131832083FB0141891D
:1014F000528963897489FC014283538364837583B1
:101500000895FC01858996890895FC01818D928D4D
:101510000895CF93DF931F92CDB7DEB76983DC01C7
:10152000ED91FC910280F381E02D41E050E0BE019D
:101530006F5F7F4F09950F90DF91CF910895CF9303
:10154000DF93EC01898D9A8D892B41F0E881F98137
:101550000680F781E02DCE010995F4CFDF91CF9180
:101560000895CF93DF93EC018C85843061F00E9465
:10157000E40CEC85F0E0EE0FFF1FE251FC4F11820E
:10158000108284E08C87DF91CF910895FC01108E4A
:10159000178A6E5F7F4F84850C94790FFC018485D8
:1015A0000C94BF0FCF93DF93EC019A018F89988D34
:1015B000AB01BC018C850E94320F2F89388D280F1A
:1015C000391F388F2F8BDF91CF9108950F931F9381
:1015D000CF93DF931F92CDB7DEB78C01FC01818DD5
:1015E000928D892B59F041E050E0BE016F5F7F4F33
:1015F00084850E94770E181619061CF08FEF9FEF56
:1016000008C0F801818D928D0197928F818F898119
:1016100090E00F90DF91CF911F910F910895CF939C
:10162000DF93EC01898D9A8D009719F48FEF9FEF6E
:1016300010C04817590708F0AC018C850E94770E3E
:10164000181619069CF7298D3A8D281B390B3A8FED
:10165000298FDF91CF910895CF93DF931F92CDB75C
:10166000DEB7FC01218D328D232B49F0BE016F5F67
:101670007F4F84850E94020F898190E002C08FEF26
:101680009FEF0F90DF91CF910895FF920F931F93DB
:10169000CF93DF93EC018B018C858430E1F4F12C46
:1016A0008F2D0E94BC0C811102C0FC8606C08831BF
:1016B000E1F3F39484E0F812F3CF8C85843059F091
:1016C0001E870D871A8E198E20E0A80162E00E9405
:1016D0000E0D81E001C080E0DF91CF911F910F914D
:1016E000FF9008950F931F93CF93DF93CDB7DEB78D
:1016F00028970FB6F894DEBF0FBECDBF8C01DC017A
:10170000ED91FC910284F385E02D0995F801848523
:101710000E94D70E1816190644F548E050E0BE01A5
:101720006F5F7F4FD8011C968C910E94770E181620
:101730001906ECF4BE016F5F7F4FC8010F960E943F
:1017400014058D8190E0982F88272E81820F911D9E
:10175000F801968B858B8F8190E0982F88272885BC
:10176000820F911D928F818F02C080E090E02896B9
:101770000FB6F894DEBF0FBECDBFDF91CF911F91A2
:101780000F910895FC011382128248EE53E060E04D
:1017900070E0448355836683778382EE91E0918382
:1017A000808384E08487CF010F960C94EE04CF925F
:1017B000DF92EF92FF920F931F93CF93DF93CDB7FA
:1017C000DEB7AF970FB6F894DEBF0FBECDBF7C017A
:1017D0008B016A01CE0101960E94EE04CE010996AA
:1017E0000E94C20BCE018A960E94EE046EED73E059
:1017F000CE0184960E946C08BE016C5D7F4FCE01C5
:1018000001960E94C51BAE01465D5F4FB801CE0137
:1018100001960E942A1E81309105C1F4D701ED91F5
:10182000FC910088F189E02D8CEB91E09DA38CA3C5
:101830000CA51DA52EA53FA50EA31FA328A739A75C
:10184000A601BE016C5D7F4FC7010995AF960FB62B
:10185000F894DEBF0FBECDBFDF91CF911F910F91E6
:10186000FF90EF90DF90CF9008950F9300E020E07D
:1018700040E060E082E094E00E94F8040F91089557
:10188000CF92DF92EF92FF920F9330E0C12CF2E102
:10189000DF2EFAE7EF2EF12C4C155D056E057F0566
:1018A00040F4F694E794D794C7943F5F3630A1F79D
:1018B00037E041E04327211102C050E701C050E565
:1018C000242F30E03595279523700C70202B252B85
:1018D000FC012083417041830F91FF90EF90DF90D6
:1018E000CF90089590E0982F882744E050E0845FDF
:1018F0009B4F0C949E10282F30E02C5F3F4F922F6F
:101900008827860F971F0C94CD1062E070E00C942E
:101910007B0CFB01282F30E02C5F3F4F922F882754
:10192000642F8E0F9F1F0C941C10CF93DF93C82F32
:10193000D62F472F64E070E00E94890C4D2F65E0A0
:1019400070E08C2FDF91CF910C94890C462F62E0D0
:1019500070E00C94890CCF93DF93C82FD62F472FBC
:1019600060E170E00E94890C4D2F61E170E08C2FE6
:10197000DF91CF910C94890C0F931F93CF93DF933A
:1019800000D01F92CDB7DEB7182F00E021E040E075
:1019900059E06DE370E0CE0101960E94400C898110
:1019A0009A810E94810763E070E0812F0E947B0C86
:1019B0008B830E9498078B810F900F900F90DF917F
:1019C000CF911F910F9108950F931F93CF93DF93A2
:1019D00000D0CDB7DEB7182F00E021E040E059E09D
:1019E0006DE370E0CE0101960E94400C89819A81DE
:1019F0000E94810740E150E0612F8AE094E00E945C
:101A000097126FEF812F0E94A60C0E9498070F90EB
:101A10000F90DF91CF911F910F910895CF92DF9298
:101A2000EF92FF920F931F93CF93DF9300D0CDB728
:101A3000DEB7182FD62E7A01C22E8FEF860F853093
:101A4000A8F5812F0E94E40C00E021E040E059E07D
:101A50006DE370E0CE0101960E94400C89819A816D
:101A60000E9481074D2D4C2960E070E0812F0E947B
:101A7000890CE114F10411F0B7010AC06091080467
:101A8000709109046F5F7F4F70930904609308049D
:101A9000812F0E94950C41E050E0612F8AE094E094
:101AA0000E9497120E94980781E001C080E00F9089
:101AB0000F90DF91CF911F910F91FF90EF90DF90EA
:101AC000CF900895CF92DF92EF92FF920F931F93E2
:101AD000CF93DF9300D0CDB7DEB7182F7B016A011B
:101AE000FB0180818F3F51F481818F3F99F4828186
:101AF0008F3F81F483818F3F69F430C081110AC028
:101B0000FB018181811106C08281811103C0838123
:101B1000882321F1C114D10409F100E021E040E063
:101B200059E06DE370E0CE0101960E94400C89817E
:101B30009A810E948107B701812F0E94720CB60121
:101B4000812F0E94AB0C44E050E0612F8AE094E0CA
:101B50000E9497120E94980781E001C080E00F90D8
:101B60000F90DF91CF911F910F91FF90EF90DF9039
:101B7000CF9008950F931F93CF93DF9300D0CDB7ED
:101B8000DEB7182F00E021E040E059E06DE370E09F
:101B9000CE0101960E94400C89819A810E948107A2
:101BA00048E050E0612F8AE094E00E9497120E9482
:101BB00098070F900F90DF91CF911F910F9108958B
:101BC000BF92CF92DF92EF92FF920F931F93CF932A
:101BD000DF9300D01F92CDB7DEB7B82E6B017A012C
:101BE000413088E0580718F0E12C98E0F92E00E029
:101BF00021E040E059E06DE370E0CE0101960E94E3
:101C0000400C89819A810E9481076B2D8AE094E0C3
:101C10000E9405118C0163E070E08B2D0E947B0C0B
:101C20008B830E9498078B81873111F08C3131F4BE
:101C30000E94C0160E151F05D0F202C0E12CF12C37
:101C400000E021E040E059E06DE370E0CE01019654
:101C50000E94400C89819A810E9481079701A60108
:101C60006B2D8AE094E00E94C41140E250E06B2D9D
:101C70008AE094E00E9497128B2D0E94850C84FDCF
:101C800022C063E070E08B2D0E947B0C811108C0A4
:101C90000E9498078B2D0E94E40C80E090E01AC00F
:101CA0000E9498070E94C01600E021E040E059E041
:101CB0006DE370E0CE0101960E94400C89819A810B
:101CC0000E948107D9CF60E18B2D0E94A60C0E9453
:101CD0009807C7010F900F900F90DF91CF911F9140
:101CE0000F91FF90EF90DF90CF90BF900895AF924B
:101CF000BF92CF92DF92EF92FF920F931F93CF93F9
:101D0000DF9300D0CDB7DEB7182F5B016A0100E08A
:101D100021E040E059E06DE370E0CE0101960E94C1
:101D2000400C89819A810E948107612F8AE094E0AA
:101D30000E9439117C010097A1F463E070E0812FCB
:101D40000E947B0C843119F1882309F121E030E0F5
:101D50008C3111F420E030E0EE24FF24E21AF30A83
:101D600016C0C816D9060CF476011E141F047CF4A4
:101D700000E09701A501612F8AE094E00E944712DC
:101D800040E450E0612F8AE094E00E9497120E94A4
:101D90009807C7010F900F90DF91CF911F910F917E
:101DA000FF90EF90DF90CF90BF90AF9008950F938A
:101DB0001F93CF93DF9300D000D0CDB7DEB7182F9D
:101DC00000E021E040E059E06DE370E0CE010196D3
:101DD0000E94400C89819A810E948107612F8AE0CC
:101DE00094E00E9439118B839C830E9498078B8119
:101DF0009C810F900F900F900F90DF91CF911F91CA
:101E00000F910895EF92FF920F931F93CF93DF935B
:101E100000D0CDB7DEB7182F7B0100E021E040E015
:101E200059E06DE370E0CE0101960E94400C89817B
:101E30009A810E94810701E021E030E0A701612F33
:101E40008AE094E00E9447120E94980781E090E0A7
:101E50000F900F90DF91CF911F910F91FF90EF9016
:101E6000089508959F92AF92BF92CF92DF92EF9222
:101E7000FF920F931F93CF93DF9300D0CDB7DEB7C0
:101E8000982E6B015A01790100E021E040E059E011
:101E90006DE370E0CE0101960E94400C89819A8129
:101EA0000E948107692D8AE094E00E9405118E1539
:101EB0009F0530F4692D8AE094E00E9405117C01B1
:101EC00087019501A601692D8AE094E00E945511D1
:101ED0000E949807C7010F900F90DF91CF911F913B
:101EE0000F91FF90EF90DF90CF90BF90AF909F90B9
:101EF0000895CF92DF92EF92FF920F931F93CF93AB
:101F0000DF9300D0CDB7DEB7182F7B016A01FB014C
:101F10008081811109C08181811106C08281811176
:101F200003C083818823F1F0C114D104D9F000E00B
:101F300021E040E059E06DE370E0CE0101960E949F
:101F4000400C89819A810E948107B701812F0E94EC
:101F5000720CB601812F0E94AB0C0E94980781E0A1
:101F600090E002C080E090E00F900F90DF91CF9161
:101F70001F910F91FF90EF90DF90CF9008950F93F6
:101F80001F93CF93DF9300D0CDB7DEB7182F00E0BB
:101F900021E040E059E06DE370E0CE0101960E943F
:101FA000400C89819A810E94810740E250E0612FB4
:101FB0008AE094E00E949712812F0E94850C84FD94
:101FC00021C0812F0E94850C83FF09C068E1812F09
:101FD0000E94A60C0E94980780E090E01BC00E941F
:101FE00098070E94C01600E021E040E059E06DE350
:101FF00070E0CE0101960E94400C89819A810E9476
:102000008107DACF60E1812F0E94A60C0E94980719
:1020100081E090E00F900F90DF91CF911F910F9191
:1020200008958EBD00000DB407FEFDCF8EB5089556
:102030002A9808952A9A08951F93CF93DF9300D08A
:10204000CDB7DEB7182F6A8399830E94181080EFEE
:102050000E9411109981892F0E941110812F0E94D6
:1020600011106A81862F0E9411100E941A1081E0BF
:102070000F900F90DF91CF911F910895CF93DF9331
:10208000EC016CE271E080E090E00E9460150E943B
:10209000A712229A80911C04882381F0813051F488
:1020A0008DB380931A049DB380911B04809589237E
:1020B0008DBB04C08FB780931A04F89480E58CBD63
:1020C0001DBC60E880E090E00E941C1065E58BE19B
:1020D00090E00E941C1065E58AE190E00E941C10CF
:1020E00090911C04992339F080911A04913011F4D5
:1020F0008DBB01C08FBF80E090E49983888380E02E
:1021000090E69987888780E098E49B838A8380E0C3
:1021100098E69B878A8780E090E59D838C8380E0AA
:1021200090E79D878C8780E098E59F838E8380E091
:1021300098E79F878E87DF91CF910895CF92DF92A6
:10214000EF92FF920F931F93CF93DF93EC017A01ED
:102150008B016C01C40ED51ECC15DD05A1F00E94CB
:10216000181080EF0E9411108D2F0E9411108C2FDB
:102170000E9411102196F80181918F010E94111087
:102180000E941A10E9CFC701DF91CF911F910F91E3
:10219000FF90EF90DF90CF9008951F93CF93DF9340
:1021A0001F92CDB7DEB7182F99830E9418108FE0C9
:1021B0000E9411109981892F0E941110812F0E9475
:1021C000111080E00E94111089830E941A108981E9
:1021D0000F90DF91CF911F9108951F93CF93DF93BD
:1021E000182F60E270E00E947B0CC82FD0E061E203
:1021F00070E0812F0E947B0CDC2FCC279E01282BC6
:10220000C901DF91CF911F910895FF920F931F9302
:10221000CF93DF93F62EC0E0D0E08F2D0E94ED101B
:102220008C01009721F08F2D0E94ED10EC01C0175A
:10223000D10799F7CE01DF91CF911F910F91FF90B8
:1022400008951F93CF93DF93182F66E270E00E94EA
:102250007B0CC82FD0E067E270E0812F0E947B0CDE
:10226000DC2FCC279E01282BC901DF91CF911F9134
:102270000895FF920F931F93CF93DF93F62EC0E044
:10228000D0E08F2D0E9421118C01009721F08F2D1D
:102290000E942111EC01C017D10799F7CE01DF91FF
:1022A000CF911F910F91FF9008956F927F929F920F
:1022B000AF92BF92CF92DF92EF92FF920F931F9354
:1022C000CF93DF931F92CDB7DEB7D82E962E3A016B
:1022D000590164E270E0892D99830E947B0CE82EFD
:1022E000F12C65E270E0892D0E947B0CFE2CEE241F
:1022F000E82AE60CF71C970137706D2C9981792E2E
:10230000690C711C690C711CD301ED91FC91E20FF9
:10231000F31FC901800F911F81309840A0F0C12C9C
:1023200048E0D42EC21AD30AA601B501CF010E94FB
:102330009E10A8014C195D09B5016C0D7D1DF301BE
:102340008081918103C0A801B501CF010E949E1038
:10235000E00EF11E4F2D64E270E0892D0E94890C81
:102360004E2D65E270E0892D0F90DF91CF911F9186
:102370000F91FF90EF90DF90CF90BF90AF909F9024
:102380007F906F900C94890C0F931F9389019A0191
:1023900040E050E00E9455111F910F910895CF9297
:1023A000DF92EF92FF920F931F93CF93DF93EC0195
:1023B0007A018B016C01C40ED51ECC15DD05A9F088
:1023C0000E9418108FE00E9411108D2F0E94111092
:1023D0008C2F0E941110219680E00E941110F801AC
:1023E00081938F010E941A10E8CFC701DF91CF912E
:1023F0001F910F91FF90EF90DF90CF900895AF92D3
:10240000BF92CF92DF92EF92FF920F931F93CF93E1
:10241000DF9300D0CDB7DEB75A8349835901E981F4
:10242000FA81F7707C01E60EF11CE60EF11CD70173
:1024300018968D919C9119978E0F9F1F98012E0FC2
:102440003F1F2130384098F0C12C68E0D62ECE1ABC
:10245000DF0AA601B5010E94CF11A8014C195D0940
:10246000B5016C0D7D1DF7018085918502C0A80125
:10247000B5010F900F90DF91CF911F910F91FF90B9
:10248000EF90DF90CF90BF90AF900C94CF118F92D0
:102490009F92AF92BF92CF92DF92EF92FF920F93F3
:1024A0001F93CF93DF936C01962E5A017901802EF2
:1024B00068E270E0892D0E947B0CC82FD0E069E2B1
:1024C00070E0892D0E947B0CDC2FCC27C82B870164
:1024D0009501AE01692DC6010E94FF1181101AC03D
:1024E000CE0DDF1D4D2F68E270E0892D0E94890C12
:1024F0004C2F69E270E0892DDF91CF911F910F91F0
:10250000FF90EF90DF90CF90BF90AF909F908F9013
:102510000C94890CDF91CF911F910F91FF90EF9058
:10252000DF90CF90BF90AF909F908F900895CF9302
:10253000C62F61E070E08C2F0E94890C61E070E092
:102540008C2F0E947B0C8111F9CFCF91089561E00F
:102550008AE00E94421661E08AE00E9409168CB56A
:1025600080618CBD8CB580648CBD61E08DE00E9483
:10257000091661E08BE00C9409161F93CF93DF934B
:10258000D9010D900020E9F71197A21BB30BE0E0F1
:10259000F0E080E090E04A1B5B0BE417F507ACF439
:1025A000EB01CE0FDF1F1881E901C80FD91FC881C9
:1025B0001C1305C001968A179B0729F409C0E81B64
:1025C000F90B80E090E03196E8CF8FEF9FEF01C0EC
:1025D000CF01DF91CF911F910895CF93DF93EC014D
:1025E0008C819D81DC01ED91FC910190F081E02DC9
:1025F00067E809958C819D81DC01ED91FC9101904A
:10260000F081E02D60E009958C819D81DC01ED91E8
:10261000FC910284F385E02D09956AE070E080E08A
:1026200090E00E9460158C819D81DC01ED91FC9110
:102630000288F389E02DDF91CF9109940F9300E098
:1026400020E040E060E08DE194E00E94F8040F910A
:1026500008959F92AF92BF92CF92DF92EF92FF9236
:102660000F931F93CF93DF93CDB7DEB7CF5AD10926
:102670000FB6F894DEBF0FBECDBF8C0189E1EBE150
:10268000F2E0DE01A359BF4F01900D928A95E1F768
:1026900080E00E94C3150E9478167E012FE9E20EA9
:1026A000F11C670180E1C80ED11C570120E031E028
:1026B00040E050E061E070E080E090E00E94A4160D
:1026C000D7016D937D01AC15BD0581F740E150E068
:1026D000B501CE018A579F4F0E94E11EFE01EA57C5
:1026E000FF4FDE01A359BF4FCF01489621912D9393
:1026F000E817F907D9F765E871E0F8018481958159
:102700000E946C05D8016D917C91119714968D9162
:102710009C9115970E94910569E771E0F801848109
:1027200095810E946C0564E671E0D80114968D9144
:102730009C9115970E946C056EE471E0F80184810C
:1027400095810E946C0567E471E0D80114968D9123
:102750009C9115970E946C05F801628173818481B8
:1027600095810E94910562E072E0D80114968D91E6
:102770009C9115970E94910563E371E0F8018481B3
:1027800095810E946C05BE0163597F4FD801149654
:102790008D919C9115970E94910562E072E0F8017D
:1027A000848195810E94910567E171E0D8011496BA
:1027B0008D919C9115970E946C0562E072E0F80182
:1027C000848195810E94910588ED92E00E94260304
:1027D00062E171E088ED92E00E946C05D8016D9194
:1027E0007C9188ED92E00E94910566E071E088EDB1
:1027F00092E00E946C0561EF70E088ED92E00E942B
:102800006C056BED70E088ED92E00E946C0564ED64
:1028100070E088ED92E00E946C05F801628173819E
:1028200088ED92E00E94910562E072E088ED92E00E
:102830000E94910560EC70E088ED92E00E946C05CA
:10284000BE0163597F4F88ED92E00E94910562E0DE
:1028500072E088ED92E00E94910564EA70E088EDF4
:1028600092E00E946C0562E072E088ED92E00E94C6
:102870009105D80114968D919C911597DC01ED91ED
:10288000FC910488F589E02D0995882369F0F80109
:1028900084819581DC01ED91FC910480F581E02D2E
:1028A0000995892B09F44DC0F80184819581DC01DB
:1028B000ED91FC910480F581E02D0995892B39F487
:1028C00062E370E080E090E00E946015EDCFFE01D1
:1028D00031967F016E01F5E6CF0ED11CE0E59E2E0C
:1028E0005701D80114968D919C911597DC01ED91BB
:1028F000FC910680F781E02D09958F3FBFEF9B0784
:1029000039F1D5018D935D018A3059F725E032E028
:1029100040E550E0B701C8010E94BD12019659F090
:10292000FE017796DE01AF5ABF4FEC15FD0519F099
:1029300081918D93FACFF701292D11922A95E9F70C
:10294000CFCF62E370E080E090E00E94601591CF0D
:10295000BE016F5A7F4F88ED92E00E94CA0581E068
:10296000C155DF4F0FB6F894DEBF0FBECDBFDF916C
:10297000CF911F910F91FF90EF90DF90CF90BF907C
:10298000AF909F900895CF93DF93EC017D836C838C
:10299000DB01ED91FC910488F589E02DCB010995CF
:1029A000882349F0CE010E94291381110CC0CE0169
:1029B0000E94ED1206C064E372E088ED92E00E948E
:1029C000CA0580E001C081E0DF91CF9108951F9298
:1029D0000F920FB60F9211242F933F938F939F93D3
:1029E000AF93BF938091240490912504A091260475
:1029F000B09127043091230423E0230F2D3720F4D6
:102A00000196A11DB11D05C026E8230F0296A11D48
:102A1000B11D209323048093240490932504A09354
:102A20002604B09327048091280490912904A09152
:102A30002A04B0912B040196A11DB11D8093280496
:102A400090932904A0932A04B0932B04BF91AF91D3
:102A50009F918F913F912F910F900FBE0F901F90DC
:102A600018952FB7F89460912404709125048091F3
:102A70002604909127042FBF08953FB7F8948091C2
:102A8000280490912904A0912A04B0912B0426B522
:102A9000A89B05C02F3F19F00196A11DB11D3FBF96
:102AA0006627782F892F9A2F620F711D811D911D26
:102AB00042E0660F771F881F991F4A95D1F7089546
:102AC000CF92DF92EF92FF92CF93DF936B017C0165
:102AD0000E943D15EB01C114D104E104F10489F019
:102AE0000E94C0160E943D156C1B7D0B683E734012
:102AF00090F381E0C81AD108E108F108C851DC4F11
:102B0000EACFDF91CF91FF90EF90DF90CF900895C3
:102B1000789484B5826084BD84B5816084BD85B5B8
:102B2000826085BD85B5816085BDEEE6F0E080817F
:102B300081608083E1E8F0E01082808182608083A0
:102B4000808181608083E0E8F0E080818160808323
:102B5000E1EBF0E0808184608083E0EBF0E0808155
:102B600081608083EAE7F0E08081846080838081F7
:102B7000826080838081816080838081806880839F
:102B80001092C10008958E3008F08E508770209109
:102B9000120190E4299F90011124822B80937C00E4
:102BA00080917A00806480937A0080917A0086FD1B
:102BB000FCCF809178002091790090E0922B0895CD
:102BC000833081F028F4813099F08230A1F00895AB
:102BD0008730A9F08830B9F08430D1F4809180003A
:102BE0008F7D03C0809180008F778093800008954F
:102BF00084B58F7702C084B58F7D84BD08958091A0
:102C0000B0008F7703C08091B0008F7D8093B000BB
:102C10000895CF93DF9390E0FC01E256FE4F24919C
:102C2000FC01EE54FE4F8491882349F190E0880F17
:102C3000991FFC01E053FE4FA591B4918A539E4F1A
:102C4000FC01C591D4919FB7611108C0F8948C9193
:102C5000209582238C93888182230AC0623051F4AC
:102C6000F8948C91322F309583238C938881822B1A
:102C7000888304C0F8948C91822B8C939FBFDF9142
:102C8000CF9108950F931F93CF93DF931F92CDB7EA
:102C9000DEB7282F30E0F901E657FE4F8491F901A5
:102CA000E256FE4F1491F901EE54FE4F04910023B9
:102CB000C9F0882321F069830E94E0156981E02F23
:102CC000F0E0EE0FFF1FEA53FE4FA591B4919FB7BE
:102CD000F8948C91611103C01095812301C0812B60
:102CE0008C939FBF0F90DF91CF911F910F9108950B
:102CF000009729F0BC0180E090E00C9497210895A2
:102D0000CF93DF9300D000D0CDB7DEB79B01AC01ED
:102D1000611571058105910569F069833A834B83DB
:102D20005C830E94922129813A814B815C810E94BF
:102D3000C21F03C060E070E0CB010F900F900F90B6
:102D40000F90DF91CF910895CF92DF92EF92FF9293
:102D50006B017C01621773078407950764F4CA014D
:102D6000B9016C197D098E099F090E9480166C0DAE
:102D70007D1D8E1D9F1DFF90EF90DF90CF900895D9
:102D800008950E9624E1FC0111922A95E9F7089521
:102D9000CF93DF93EC01625F7F4F0E940405CE0169
:102DA000DF91CF910895CF93DF93EC016E5E7F4F5B
:102DB0000E940405CE01DF91CF910895CF93DF9358
:102DC000EC016A5E7F4F0E940405CE01DF91CF9136
:102DD0000895CF93DF93EC01625E7F4F0E9404055C
:102DE000CE01DF91CF91089580E3FB01808332967D
:102DF000842F82958F7090E1899F401911244A3069
:102E000014F4405D01C0495C4293882311F0482FBF
:102E1000EFCF08950F9300E020E040E060E08CE207
:102E200094E00E94F8040F9108956F927F928F9220
:102E30009F92AF92BF92CF92DF92EF92FF920F9349
:102E40001F93CF93DF93CDB7DEB7AC970FB6F8944F
:102E5000DEBF0FBECDBF7C01862EB42EA52E20E294
:102E6000922ECE0101966C01FC01292D11922A951A
:102E7000E9F70FEF2FEF4FEF6FEF86960E94F80400
:102E80008CEB91E09AA389A389A59AA5ABA5BCA5D3
:102E90008BA39CA3ADA3BEA38701095B1F4F43E493
:102EA00050E0BE016F5D7F4FC8010E94C60A0196C7
:102EB00009F4BFC081E089838A8386E0782E7B8213
:102EC0001C82F70164817581868197810E94E11FD0
:102ED0006D837E838F839887A986BA8680E890E089
:102EE0009C878B874CE150E0B601C8010E94D20A52
:102EF000F601292D11922A95E9F7570188E0A80ECD
:102F0000B11CF501D60101900D927A94E1F740E1F0
:102F100050E0B601C8010E94D20AF60111929A94BB
:102F2000E9F796E0692E712C40E250E0B601C80145
:102F30000E94D20AF1E06F1A7108B1F783E6898323
:102F400092E89A8393E59B838C8385E38D8381E06C
:102F50008E838F829DE3988797E099878A8786E0A2
:102F6000F501DE011B9601900D928A95E1F78CE048
:102F7000898B8A8B67E472E0CE0143960E9480229F
:102F8000F7014385BE01675E7F4FC7010E94F416BB
:102F9000F7014485BE01655E7F4FC7010E94F416AC
:102FA000F7014585BE01635E7F4FC7010E94F4169D
:102FB0004EE150E0B601C8010E94D20AF3E08F1240
:102FC0001EC082E3898384E08A83F70196859B8310
:102FD00097859C8390899D8391899E8396E39F83A7
:102FE0008887828D8987838D8A87848D8B87858D5D
:102FF0008C874CE050E0B601C8010E94D20A87E3FA
:10300000898386E08A8391E09B8393E09C838D8310
:103010008FE08E838AE38F838BE388878FEF8987A6
:1030200049E050E0B601C8010E94D20AC8010E94DE
:10303000CE0AAC960FB6F894DEBF0FBECDBFDF91BF
:10304000CF911F910F91FF90EF90DF90CF90BF90A5
:10305000AF909F908F907F906F9008952F923F92A6
:103060004F925F926F927F928F929F92AF92BF9298
:10307000CF92DF92EF92FF920F931F93CF93DF9344
:10308000CDB7DEB7E3970FB6F894DEBF0FBECDBF66
:103090007C012A013B0169010E9431154B015C0151
:1030A0008701095B1F4FC8010E94720B1816190691
:1030B00094F00E943115681979098A099B0946160E
:1030C000570668067906F0F062E370E080E090E071
:1030D0000E946015E8CF42E250E0BE016F5F7F4F73
:1030E000C8010E940F0B8981823031F4F801858973
:1030F00096898334910541F019A6C8010E949F0A60
:1031000089A562C18FEF60C16D817E818F819885B5
:103110000E94E11F4B015C01F60160837183828391
:10312000938346E050E0B701685F7F4FCE014D9634
:103130000E946A22892B99F4F70180819181A281F2
:10314000B38188169906AA06BB0648F0848195814A
:10315000A681B78188159905AA05BB0528F4C80181
:103160000E949F0A80E030C189899A89AB89BC8915
:10317000F70186879787A08BB18B3EECC32ED12CAD
:10318000C8010E94E60AF1E0CF1AD108C9F719A6D2
:10319000C70182969BA78AA7F701B696FDA7ECA761
:1031A00008969FA78EA73C976F018E9699AB88AB28
:1031B0003897FBABEAAB5701F6E1AF0EB11C470104
:1031C0008EE1880E911CC8010E94850A1816190606
:1031D0000CF093CFC8010E94E60A8333910509F4ED
:1031E000C9C0F4F481309105B9F11CF4892B59F36D
:1031F000DBC083309105C1F1069709F0D5C0C80145
:103200000E94E60A3C0144E050E0B401C8010E947B
:103210000F0B212C312C7724F4E06F1A71083FC07A
:103220008A33910509F47AC03CF48533910561F045
:10323000C69709F43FC0B8C08B33910509F484C028
:103240008F3F910501F2B0C0C8010E94E60AC80193
:103250000E94E60A89A7B7CFC8010E94E60A44E0A7
:1032600050E06AA97BA936C0C8010E94E60A3C0169
:1032700044E050E0B501C8010E940F0B212C312C15
:10328000772494E0691A7108261437040CF09BCF58
:10329000C8010E94E60AEFEF2E1A3E0AF5CF261467
:1032A00037040CF090CFC8010E94E60A8FEF281A6D
:1032B000380AF5CFC8010E94E60A782EF701828D00
:1032C000938DA48DB58D892B8A2B8B2B39F444E0FB
:1032D00050E0B601C8010E940F0B75CFE8A9F9A90B
:1032E0002080318042805380B601CE0183960E94B7
:1032F00004058DA19EA1AFA1B8A582159305A405D3
:10330000B50529F3212C312C721409F45CCFC801C6
:103310000E94E60AFFEF2F1A3F0AF6CFC8010E946B
:10332000E60A44E050E06CA57DA5C8010E940F0BA1
:10333000F70166A177A180A591A50E94E11F66A370
:1033400077A380A791A73FCFC8010E94E60A44E077
:1033500050E06EA57FA5C8010E940F0BF70162A582
:1033600073A584A595A50E94E11F62A773A784A7F2
:1033700095A729CFC8010E94E60A44E050E06AA55B
:103380007BA5C8010E940F0BF70162A173A184A164
:1033900095A10E94E11F62A373A384A395A366A7CE
:1033A00077A780AB91AB0FCFC8010E94E60A382EF9
:1033B000612C712C361409F406CFC8010E94E60A6C
:1033C000FFEF6F1A7F0AF6CFE3960FB6F894DEBFD1
:1033D0000FBECDBFDF91CF911F910F91FF90EF9066
:1033E000DF90CF90BF90AF909F908F907F906F9025
:1033F0005F904F903F902F9008952F923F924F9261
:103400005F926F927F928F929F92AF92BF92CF9274
:10341000DF92EF92FF920F931F93CF93DF93CDB77D
:10342000DEB727970FB6F894DEBF0FBECDBF8C0175
:1034300020ED37E040E050E061E070E080E090E0B7
:103440000E94A416D80114966D937D938D939C933E
:103450001797F80160837183828393834801F7E4AF
:103460008F0E911CC4010E94B10A64E470E0C40193
:103470000E94450B882309F428C10E9431156B0175
:103480007C01A12CB12C1D82180186E4280E311C70
:10349000D801DE96BF83AE8338EE432E33E0532E41
:1034A000612C712CF1018081833009F4FDC0811100
:1034B0001FC0F80184819581A681B7810196A11D65
:1034C000B11D84839583A683B7830E9431156C193F
:1034D0007D098E099F09A30192010E94A01FA901E5
:1034E00061E0C8010E94151781E0D1018C93BEC034
:1034F0008430F9F4F80184819581A681B781019621
:10350000A11DB11D84839583A683B7830E943115C5
:103510006C197D098E099F09A30192010E94A01FC9
:10352000A90163E0C8010E941517E2E0D101EC9304
:103530009DC0813061F5AE81BF814D915D916D91EE
:103540007C919E012F5F3F4FC8010E942E188D83F2
:10355000823009F08BC089819A81AB81BC81F801EE
:1035600084839583A683B7830E9431156C197D09E6
:103570008E099F09A30192010E94A01FA90163E087
:10358000C8010E941517ED81D101EC9375C08230FE
:1035900009F06CC0AE81BF814D915D916D917C91C0
:1035A0009E012F5F3F4FC8010E942E188D838530EA
:1035B00009F056C083E0F1018083F80182A193A154
:1035C000A4A1B5A1892B8A2B8B2B41F484E893E02D
:1035D000A0E0B0E082A393A3A4A3B5A3F80186A1C1
:1035E00097A1A0A5B1A5892B8A2B8B2B61F482A171
:1035F00093A1A4A1B5A1B695A7959795879586A304
:1036000097A3A0A7B1A7D8019A964D915D916D910E
:103610007C919D9796968D919D910D90BC91A02D3A
:10362000452B462B472B59F4AC01BD01440F551FC8
:10363000661F771FF80142A753A764A775A7F80173
:1036400086A797A7A0ABB1AB82A593A5A4A5B5A566
:1036500082AB93ABA4ABB5ABAA24A394B12C0CC0A2
:10366000FD81F63019F4D1011C9206C0BD81BF3F27
:1036700019F4F10110821D82F1E0AF16B10409F4D2
:1036800011CF0E9431156C197D098E099F09D8014F
:10369000DA962D913D914D915C91DD972617370774
:1036A0004807590708F0FECEC4010E94B10AF8018C
:1036B00084819581A681B7810196A11DB11D848366
:1036C0009583A683B783C50102C080E090E027966A
:1036D0000FB6F894DEBF0FBECDBFDF91CF911F9123
:1036E0000F91FF90EF90DF90CF90BF90AF909F90A1
:1036F0008F907F906F905F904F903F902F900895A4
:10370000CF92DF92EF92FF920F931F93CF93DF93AD
:10371000EC016B011AA21BA21CA21DA21EA21FA2D9
:1037200018A619A61AA61BA61CA61DA61EAA1FAA85
:1037300018AE19AE2AAF3BAF4CAF5DAFFC01FE96A1
:10374000E082F182028313838C01085F1F4F86E0C1
:10375000F80111928A95E9F7CE010E94C11686E020
:10376000F601D80101900D928A95E1F7FE01EA5B1E
:10377000FF4F1082CE01DF91CF911F910F91FF90EB
:10378000EF90DF90CF900C94FD19FB0142815381A3
:1037900064817581FC01428353836483758317823E
:1037A00016820895CF93FB0181918111FDCFFB011A
:1037B00080E090E020E030E0CAE06191662309F10A
:1037C0002430310564F56E3271F48F3F910509F0B4
:1037D00034F5DA01A20FB31F12968C932F5F3F4F7F
:1037E00080E090E0EACFDC01CA9FC001CB9F900D42
:1037F0001124772767FD709560537109860F971F15
:10380000DCCF8F3F910509F054F4243031053CF4AE
:10381000FA01E20FF31F828381E090E002C080E0B2
:1038200090E0CF9108950F9300E020E040E060E049
:1038300082E394E00E94F8040F910895AF92BF9242
:10384000CF92DF92EF92FF920F931F93CF93DF936C
:1038500000D01F92CDB7DEB76C017B010E943115FD
:10386000F601778366838601085F1F4FB6016A5FA2
:103870007F4F42E050E0C8010E94D20A81E090E010
:103880009A83898342E050E0BE016F5F7F4FC80199
:103890000E94D20A80E091E09A83898342E050E05E
:1038A000BE016F5F7F4FC8010E94D20A1A8219823F
:1038B00042E050E0BE016F5F7F4FC8010E94D20A14
:1038C00042E050E0BE016F5F7F4FC8010E94D20A04
:1038D00042E050E0BE016F5F7F4FC8010E94D20AF4
:1038E0006701F6018081882311F1F7016F01819151
:1038F000811115C05601AE18BF081A141B0494F4A8
:10390000AB8241E050E0BE016D5F7F4FC8010E9475
:10391000D20AA501B701C8010E94D20A03C08E32A3
:1039200029F7E8CF7601FFEFEF1AFF0ADACF1B8203
:1039300041E050E0BE016D5F7F4FC8010E94D20A96
:10394000E12CFF24F394FA82E98242E050E0BE01C8
:103950006F5F7F4FC8010E94D20AFA82E98242E07B
:1039600050E0BE016F5F7F4FC8010E94D20A81E024
:1039700090E00F900F900F90DF91CF911F910F91DA
:10398000FF90EF90DF90CF90BF90AF9008954F924F
:103990005F926F927F928F929F92AF92BF92CF92DF
:1039A000DF92EF92FF920F931F93CF93DF93CDB7E8
:1039B000DEB763970FB6F894DEBF0FBECDBF7C01B4
:1039C0005B016A010E9431152B013C018701085FF0
:1039D0001F4F4501A12CB12CC8010E94720B181673
:1039E000190694F00E943115641975098609970922
:1039F00086169706A806B906D0F062E370E080E06C
:103A000090E00E946015E8CFF70142815381648104
:103A10007581818D928DA38DB48D481759076A07E2
:103A20007B0741F4858D968DC59721F406C08FEFF5
:103A30009FEFF9C08EEF9FEFF6C0C8010E94850A84
:103A40000C970CF4EEC04CE050E0BE016F5F7F4F6E
:103A5000C8010E940F0B8B819C819827892798278A
:103A60009A8B898BF7014681578129813A814217C8
:103A7000530711F497FD06C0C8010E949F0A8CEFFE
:103A80009FEFD1C08F709270892B31F0C8010E94D6
:103A90009F0A8BEF9FEFC7C0AF80B884BA24AB24D6
:103AA000BA24A114B10419F0E12CF12C23C0C801EF
:103AB0000E949F0A8AEF9FEFB6C041E050E0BE012E
:103AC000635F7F4FC8010E940F0B8D8581111BC062
:103AD0008D858111F2CFC8010E94E60AC8010E94BB
:103AE000E60AC8010E94E60AC8010E94E60AFFEF42
:103AF000EF1AFF0A8D819E81982789279827E8165B
:103B0000F906D8F20AC08D859FEF980F9D8788230C
:103B1000F9F2C8010E94E60AF6CFE12CF12C41E04F
:103B200050E0BE016D5E7F4FC8010E940F0B8B8974
:103B3000982F907C61F4882371F08B899FEF980F08
:103B40009B8B882341F0C8010E94E60AF6CFC8018A
:103B50000E94E60A1B8A8B898111E1CF42E050E086
:103B6000BE01615F7F4FC8010E940F0B42E050E031
:103B7000BE01635F7F4FC8010E940F0BC8010E9406
:103B8000E60AC8010E94E60AC8010E94E60AC801C6
:103B90000E94E60A42E050E0BE016F5E7F4FC8011E
:103BA0000E940F0B8F8598898115914029F48D858E
:103BB0009E858115914019F0812C912C16C0898920
:103BC0009A898115944031F0C8010E949F0A87EFBD
:103BD0009FEF29C0B6016E5F7F4F44E050E0C801FF
:103BE0000E940F0B81E090E01EC089899A89982776
:103BF000892798278816990638F4C8010E94E60A92
:103C00002FEF821A920AF1CF8FEFE81AF80AEA141E
:103C1000FB0409F084CFC8010E949F0A86EF9FEF42
:103C200002C08DEF9FEF63960FB6F894DEBF0FBE14
:103C3000CDBFDF91CF911F910F91FF90EF90DF905B
:103C4000CF90BF90AF909F908F907F906F905F903C
:103C50004F9008958F929F92AF92BF92CF92DF9232
:103C6000EF92FF920F931F93CF93DF9300D000D07A
:103C700000D0CDB7DEB78C015B016A010E94D21B78
:103C80004C01009709F05DC0F801428153816481C5
:103C900075818091340490913504A0913604B091DF
:103CA0003704481759076A077B0709F44EC00E947A
:103CB00031157801F8E0EF0EF11C6F7077277C5F0B
:103CC000C7010E94450B813009F043C08CEB91E0A5
:103CD0009A838983F80182819381A481B5818B8342
:103CE0009C83AD83BE8345E350E0BE016F5F7F4F91
:103CF000C7010E94C60A892B19F4812C912C1DC082
:103D0000B501C8010E941E1C892BB9F3C7010E948E
:103D1000CE0A892B91F333E0A32EB12CA60168E8DB
:103D200073E1C8010E94C71C4C01F1E0AF1AB10851
:103D300021F08F3F2FEF920789F3C7010E94B10A4C
:103D400008C088248394912C04C09EEF892E992466
:103D50009A94C40126960FB6F894DEBF0FBECDBF6D
:103D6000DF91CF911F910F91FF90EF90DF90CF9057
:103D7000BF90AF909F908F900895DC01FB018081F0
:103D8000869586958C9390819370818182958F70B2
:103D900020E1929F800D112411968C9311978181BF
:103DA0008F70880F880F9281929596959695937053
:103DB000890F12968C93129782818F7313968C932E
:103DC00008958F929F92AF92BF92CF92DF92EF921F
:103DD000FF920F931F93CF93DF93CDB7DEB7279753
:103DE0000FB6F894DEBF0FBECDBF7C015A016B0148
:103DF000A60EB71E00E010E020E030E04E0185E0A6
:103E0000880E911CCA14DB0439F1C9010196D60150
:103E10004D916D01F401E20FF31F40838330910552
:103E2000C9F4B401CE0101960E94BD1EFE01319677
:103E3000C701800F911FA191B0E0A25BBD4F2C91F3
:103E4000DC012D93CD01E815F905A9F70C5F1F4F93
:103E500080E090E09C01D6CF69012115310509F47D
:103E600043C02330310554F4E5E0F0E0EC0FFD1FD2
:103E7000E20FF31F10822F5F3F4FF3CFBE016B5F46
:103E80007F4FFE0131965F01CF010E94BD1EF501FB
:103E9000C701800F911FA191B0E0A25BBD4F2C9193
:103EA000DC012D93CD019F012A193B09C216D306CF
:103EB00094F70F5F1F4FC601D7FE02C080E090E06D
:103EC000080F191FF701E00FF11FCE18DF08C01A05
:103ED000D10A2DE38F010E191F09C6018E0F9F1FF6
:103EE000039714F42193F6CFF701E00FF11F10822E
:103EF000C80127960FB6F894DEBF0FBECDBFDF9185
:103F0000CF911F910F91FF90EF90DF90CF90BF90D6
:103F1000AF909F908F90089597FB072E16F4009412
:103F200007D077FD09D00E94F31F07FC05D03EF4AF
:103F3000909581959F4F0895709561957F4F089555
:103F4000A1E21A2EAA1BBB1BFD010DC0AA1FBB1F9D
:103F5000EE1FFF1FA217B307E407F50720F0A21B0F
:103F6000B30BE40BF50B661F771F881F991F1A947C
:103F700069F760957095809590959B01AC01BD01A6
:103F8000CF010895052E97FB1EF400940E94D91FBF
:103F900057FD07D00E94A01F07FC03D04EF40C94DD
:103FA000D91F50954095309521953F4F4F4F5F4F0A
:103FB000089590958095709561957F4F8F4F9F4F95
:103FC00008956927962769277827872778270895EE
:103FD0000E940D20A59F900DB49F900DA49F800D71
:103FE000911D11240895AA1BBB1B51E107C0AA1FF4
:103FF000BB1FA617B70710F0A61BB70B881F991F8A
:104000005A95A9F780959095BC01CD010895EE0FC2
:10401000FF1F0590F491E02D0994A29FB001B39F7A
:10402000C001A39F700D811D1124911DB29F700DC1
:10403000811D1124911D0895CF93DF938230910546
:1040400010F482E090E0E0913A04F0913B0420E02B
:1040500030E0A0E0B0E0309739F14081518148175D
:104060005907B8F04817590771F482819381109766
:1040700029F013969C938E9312972CC090933B0437
:1040800080933A0427C02115310531F042175307B8
:1040900018F0A901DB0101C0EF019A01BD01DF01A8
:1040A0000280F381E02DD7CF21153105F9F0281BCF
:1040B000390B2430310580F48A819B8161157105AB
:1040C00021F0FB019383828304C090933B0480938F
:1040D0003A04FE01329644C0FE01E20FF31F8193C1
:1040E000919322503109398328833AC020913804B2
:1040F00030913904232B41F42091020130910301C6
:10410000309339042093380420910001309101014B
:104110002115310541F42DB73EB74091040150916E
:104120000501241B350BE0913804F0913904E217A6
:10413000F307A0F42E1B3F0B2817390778F0AC01CA
:104140004E5F5F4F2417350748F04E0F5F1F5093A7
:104150003904409338048193919302C0E0E0F0E089
:10416000CF01DF91CF910895CF93DF93009709F4AA
:1041700087C0FC01329713821282C0913A04D09119
:104180003B04209781F420813181280F391F8091D1
:104190003804909139048217930779F5F093390424
:1041A000E09338046DC0DE0120E030E0AE17BF07B9
:1041B00050F412964D915C9113979D014115510554
:1041C00009F1DA01F3CFB383A28340815181840FD7
:1041D000951F8A179B0771F48D919C911197840FFD
:1041E000951F02969183808312968D919C911397CF
:1041F000938382832115310529F4F0933B04E093E6
:104200003A043EC0D9011396FC93EE9312974D9158
:104210005D91A40FB51FEA17FB0779F480819181A6
:10422000840F951F0296D90111969C938E938281DB
:10423000938113969C938E931297E0E0F0E08A812D
:104240009B81009719F0FE01EC01F9CFCE01029697
:1042500028813981820F931F2091380430913904CD
:104260002817390769F4309729F410923B0410920B
:104270003A0402C013821282D0933904C0933804E6
:10428000DF91CF9108958F929F92AF92BF92CF927C
:10429000DF92EF92FF92CF93DF93EC0168817981F7
:1042A0008A819B81611571058105910521F464E284
:1042B00079ED8BE597E02DE133EF41E050E00E948E
:1042C000C21F49015A019B01AC01A7EAB1E40E9457
:1042D000E81F6B017C01ACEEB4EFA50194010E94D4
:1042E0008A22C60ED71EE81EF91EF7FE06C081E020
:1042F000C81AD108E10880E8F80AC882D982EA829F
:10430000FB82C701B6019F77DF91CF91FF90EF90BD
:10431000DF90CF90BF90AF909F908F9008950E94B4
:104320004321089586E091E00E944321089560931F
:104330000601709307018093080190930901089585
:10434000A0E0B0E0E6EAF1E20C949322EC01CB01AC
:10435000209719F40E941C20B8C0FE01E60FF71F39
:104360009E0122503109E217F30708F4ACC0D901CD
:104370000D911C91119706171707B8F0053011051C
:1043800008F49FC0A801445051094617570708F484
:1043900098C002501109061B170B019311936D93DE
:1043A0007C93CF010E94B4208CC05B01A01AB10A9B
:1043B0004E01800E911EA0913A04B0913B04612CF5
:1043C000712C60E070E0109709F449C0A815B90598
:1043D000C9F5ED90FC901197670142E0C40ED11C25
:1043E000CA14DB0478F147018A189B08640142E093
:1043F000C40ED11C1296BC9012971396AC91B5E0E6
:10440000CB16D10440F0B282A38391828082D9017D
:104410008D939C9309C00E5F1F4F0E0D1F1DF90158
:1044200011830083EB2DFA2F6115710531F0DB014B
:104430001396FC93EE93129744C0F0933B04E093E1
:104440003A043FC06D917C9111976616770608F487
:104450003B01BD0112960D90BC91A02DB4CF60918F
:1044600038047091390468157905E9F468167906FD
:10447000D0F440910001509101014115510541F4E2
:104480004DB75EB76091040170910501461B570B53
:10449000E417F507C0F4F0933904E0933804F90108
:1044A000918380830EC00E941C207C01009759F0EC
:1044B000A801BE010E947722CE010E94B420C7014C
:1044C00004C0CE0102C080E090E0CDB7DEB7EEE0E0
:1044D0000C94AF22FB01DC0104C08D910190801986
:1044E00021F441505040C8F7881B990B0895FB01F7
:1044F000DC0102C001900D9241505040D8F7089560
:10450000FB01DC0101900D920020E1F70895B7FF57
:104510000C94E81F0E94E81F821B930B08952F92B2
:104520003F924F925F926F927F928F929F92AF9243
:10453000BF92CF92DF92EF92FF920F931F93CF9390
:10454000DF93CDB7DEB7CA1BDB0B0FB6F894DEBF27
:104550000FBECDBF09942A88398848885F846E844D
:104560007D848C849B84AA84B984C884DF80EE8097
:10457000FD800C811B81AA81B981CE0FD11D0FB6A0
:10458000F894DEBF0FBECDBFED01089511E0CCEE73
:10459000D1E004C0FE010E9409202296CE3ED10740
:0645A000C9F7F894FFCFFB
:1045A60000003C0480000100000090A2DA00F278CE
:1045B60000040177732E7075736865726170702ED2
:1045C600636F6D002F6170702F003F636C69656EBD
:1045D600743D002676657273696F6E3D00267072B3
:1045E6006F746F636F6C3D00636F6E6E65637469A5
:1045F6006E672E2E0048616E647368616B6520736A
:1046060075636365737366756C0048616E64736881
:10461600616B65206661696C65642E00302E302EF4
:1046260031007075736865722D77732D61726475CC
:10463600696E6F00313132626363383731616537D5
:1046460039656136323237000000000048032E0516
:10465600C802E302D502260300000000B4040000ED
:1046660000009408BD08D708E008FE0821099D0946
:104676002509FA08FA093B0AAA08B2088A080000BE
:104686000000890AD20A850AE60A2C0B9F0A450B06
:10469600B10AC60AD70BCE0A720B0F0B6A0A710A49
:1046A600810A0D0A005365632D576562536F636B6C
:1046B60065742D4163636570743A002D2D2D2D2D83
:1046C6002D2D2D2D2D2D2D2D2D2D2D2D2D2D2D2D14
:1046D6002D2D2D0045746865726E657420667563B0
:1046E6006B65642075700057495A6E6574004142C7
:1046F600434445464748494A4B4C4D4E4F5051520C
:10470600535455565758595A6162636465666768CB
:10471600696A6B6C6D6E6F7071727374757677788B
:10472600797A303132333435363738392B2F000029
:00000001FF
